{
  "_format": "hh-sol-artifact-1",
  "contractName": "AlpacaFake",
  "sourceName": "contracts/mock/AlpacaFake.sol",
  "abi": [
    {
      "inputs": [
        {
          "internalType": "address",
          "name": "_underlying",
          "type": "address"
        },
        {
          "internalType": "address",
          "name": "_rewardToken",
          "type": "address"
        },
        {
          "internalType": "uint256",
          "name": "_gains",
          "type": "uint256"
        },
        {
          "internalType": "bool",
          "name": "_loss",
          "type": "bool"
        }
      ],
      "stateMutability": "nonpayable",
      "type": "constructor"
    },
    {
      "anonymous": false,
      "inputs": [
        {
          "indexed": true,
          "internalType": "address",
          "name": "owner",
          "type": "address"
        },
        {
          "indexed": true,
          "internalType": "address",
          "name": "spender",
          "type": "address"
        },
        {
          "indexed": false,
          "internalType": "uint256",
          "name": "value",
          "type": "uint256"
        }
      ],
      "name": "Approval",
      "type": "event"
    },
    {
      "anonymous": false,
      "inputs": [
        {
          "indexed": true,
          "internalType": "address",
          "name": "from",
          "type": "address"
        },
        {
          "indexed": true,
          "internalType": "address",
          "name": "to",
          "type": "address"
        },
        {
          "indexed": false,
          "internalType": "uint256",
          "name": "value",
          "type": "uint256"
        }
      ],
      "name": "Transfer",
      "type": "event"
    },
    {
      "inputs": [
        {
          "internalType": "address",
          "name": "owner",
          "type": "address"
        },
        {
          "internalType": "address",
          "name": "spender",
          "type": "address"
        }
      ],
      "name": "allowance",
      "outputs": [
        {
          "internalType": "uint256",
          "name": "",
          "type": "uint256"
        }
      ],
      "stateMutability": "view",
      "type": "function"
    },
    {
      "inputs": [
        {
          "internalType": "address",
          "name": "spender",
          "type": "address"
        },
        {
          "internalType": "uint256",
          "name": "amount",
          "type": "uint256"
        }
      ],
      "name": "approve",
      "outputs": [
        {
          "internalType": "bool",
          "name": "",
          "type": "bool"
        }
      ],
      "stateMutability": "nonpayable",
      "type": "function"
    },
    {
      "inputs": [
        {
          "internalType": "address",
          "name": "account",
          "type": "address"
        }
      ],
      "name": "balanceOf",
      "outputs": [
        {
          "internalType": "uint256",
          "name": "",
          "type": "uint256"
        }
      ],
      "stateMutability": "view",
      "type": "function"
    },
    {
      "inputs": [],
      "name": "decimals",
      "outputs": [
        {
          "internalType": "uint8",
          "name": "",
          "type": "uint8"
        }
      ],
      "stateMutability": "view",
      "type": "function"
    },
    {
      "inputs": [
        {
          "internalType": "address",
          "name": "spender",
          "type": "address"
        },
        {
          "internalType": "uint256",
          "name": "subtractedValue",
          "type": "uint256"
        }
      ],
      "name": "decreaseAllowance",
      "outputs": [
        {
          "internalType": "bool",
          "name": "",
          "type": "bool"
        }
      ],
      "stateMutability": "nonpayable",
      "type": "function"
    },
    {
      "inputs": [
        {
          "internalType": "uint256",
          "name": "amount",
          "type": "uint256"
        }
      ],
      "name": "deposit",
      "outputs": [],
      "stateMutability": "nonpayable",
      "type": "function"
    },
    {
      "inputs": [
        {
          "internalType": "address",
          "name": "spender",
          "type": "address"
        },
        {
          "internalType": "uint256",
          "name": "addedValue",
          "type": "uint256"
        }
      ],
      "name": "increaseAllowance",
      "outputs": [
        {
          "internalType": "bool",
          "name": "",
          "type": "bool"
        }
      ],
      "stateMutability": "nonpayable",
      "type": "function"
    },
    {
      "inputs": [],
      "name": "name",
      "outputs": [
        {
          "internalType": "string",
          "name": "",
          "type": "string"
        }
      ],
      "stateMutability": "view",
      "type": "function"
    },
    {
      "inputs": [],
      "name": "symbol",
      "outputs": [
        {
          "internalType": "string",
          "name": "",
          "type": "string"
        }
      ],
      "stateMutability": "view",
      "type": "function"
    },
    {
      "inputs": [],
      "name": "totalSupply",
      "outputs": [
        {
          "internalType": "uint256",
          "name": "",
          "type": "uint256"
        }
      ],
      "stateMutability": "view",
      "type": "function"
    },
    {
      "inputs": [
        {
          "internalType": "address",
          "name": "recipient",
          "type": "address"
        },
        {
          "internalType": "uint256",
          "name": "amount",
          "type": "uint256"
        }
      ],
      "name": "transfer",
      "outputs": [
        {
          "internalType": "bool",
          "name": "",
          "type": "bool"
        }
      ],
      "stateMutability": "nonpayable",
      "type": "function"
    },
    {
      "inputs": [
        {
          "internalType": "address",
          "name": "sender",
          "type": "address"
        },
        {
          "internalType": "address",
          "name": "recipient",
          "type": "address"
        },
        {
          "internalType": "uint256",
          "name": "amount",
          "type": "uint256"
        }
      ],
      "name": "transferFrom",
      "outputs": [
        {
          "internalType": "bool",
          "name": "",
          "type": "bool"
        }
      ],
      "stateMutability": "nonpayable",
      "type": "function"
    },
    {
      "inputs": [
        {
          "internalType": "uint256",
          "name": "redeemTokens",
          "type": "uint256"
        }
      ],
      "name": "withdraw",
      "outputs": [],
      "stateMutability": "nonpayable",
      "type": "function"
    }
  ],
  "bytecode": "0x60806040523480156200001157600080fd5b506040516200156a3803806200156a833981810160405260808110156200003757600080fd5b5080516020808301516040808501516060909501518151808501808452600080835284519687019094529285528051959693959394919390926200007f916003919062000108565b5080516200009590600490602084019062000108565b50506005805460ff1916601217905550600780546001600160a01b039586166001600160a01b03199182161790915560088054600694909455911515740100000000000000000000000000000000000000000260ff60a01b199490951692169190911791909116919091179055620001a4565b828054600181600116156101000203166002900490600052602060002090601f016020900481019282601f106200014b57805160ff19168380011785556200017b565b828001600101855582156200017b579182015b828111156200017b5782518255916020019190600101906200015e565b50620001899291506200018d565b5090565b5b808211156200018957600081556001016200018e565b6113b680620001b46000396000f3fe608060405234801561001057600080fd5b50600436106100df5760003560e01c8063395093511161008c578063a457c2d711610066578063a457c2d7146102bc578063a9059cbb146102f5578063b6b55f251461032e578063dd62ed3e1461034b576100df565b8063395093511461024857806370a082311461028157806395d89b41146102b4576100df565b806323b872dd116100bd57806323b872dd146101c85780632e1a7d4d1461020b578063313ce5671461022a576100df565b806306fdde03146100e4578063095ea7b31461016157806318160ddd146101ae575b600080fd5b6100ec610386565b6040805160208082528351818301528351919283929083019185019080838360005b8381101561012657818101518382015260200161010e565b50505050905090810190601f1680156101535780820380516001836020036101000a031916815260200191505b509250505060405180910390f35b61019a6004803603604081101561017757600080fd5b5073ffffffffffffffffffffffffffffffffffffffff813516906020013561043a565b604080519115158252519081900360200190f35b6101b6610457565b60408051918252519081900360200190f35b61019a600480360360608110156101de57600080fd5b5073ffffffffffffffffffffffffffffffffffffffff81358116916020810135909116906040013561045d565b6102286004803603602081101561022157600080fd5b50356104ff565b005b6102326105b5565b6040805160ff9092168252519081900360200190f35b61019a6004803603604081101561025e57600080fd5b5073ffffffffffffffffffffffffffffffffffffffff81351690602001356105be565b6101b66004803603602081101561029757600080fd5b503573ffffffffffffffffffffffffffffffffffffffff16610619565b6100ec610641565b61019a600480360360408110156102d257600080fd5b5073ffffffffffffffffffffffffffffffffffffffff81351690602001356106c0565b61019a6004803603604081101561030b57600080fd5b5073ffffffffffffffffffffffffffffffffffffffff8135169060200135610735565b6102286004803603602081101561034457600080fd5b5035610749565b6101b66004803603604081101561036157600080fd5b5073ffffffffffffffffffffffffffffffffffffffff8135811691602001351661077b565b60038054604080516020601f60027fffffffffffffffffffffffffffffffffffffffffffffffffffffffffffffffff6101006001881615020190951694909404938401819004810282018101909252828152606093909290918301828280156104305780601f1061040557610100808354040283529160200191610430565b820191906000526020600020905b81548152906001019060200180831161041357829003601f168201915b5050505050905090565b600061044e6104476107b3565b84846107b7565b50600192915050565b60025490565b600061046a8484846108ca565b6104f4846104766107b3565b6104ef856040518060600160405280602881526020016112a06028913973ffffffffffffffffffffffffffffffffffffffff8a166000908152600160205260408120906104c16107b3565b73ffffffffffffffffffffffffffffffffffffffff1681526020810191909152604001600020549190610a66565b6107b7565b5060015b9392505050565b60085460009074010000000000000000000000000000000000000000900460ff1661052f57600654606401610536565b6006546064035b600754909150606483830204906105649073ffffffffffffffffffffffffffffffffffffffff163383610afd565b60085473ffffffffffffffffffffffffffffffffffffffff16156105a6576008546105a69073ffffffffffffffffffffffffffffffffffffffff163383610afd565b6105b03384610b8a565b505050565b60055460ff1690565b600061044e6105cb6107b3565b846104ef85600160006105dc6107b3565b73ffffffffffffffffffffffffffffffffffffffff908116825260208083019390935260409182016000908120918c168152925290205490610cba565b73ffffffffffffffffffffffffffffffffffffffff1660009081526020819052604090205490565b60048054604080516020601f60027fffffffffffffffffffffffffffffffffffffffffffffffffffffffffffffffff6101006001881615020190951694909404938401819004810282018101909252828152606093909290918301828280156104305780601f1061040557610100808354040283529160200191610430565b600061044e6106cd6107b3565b846104ef8560405180606001604052806025815260200161135c60259139600160006106f76107b3565b73ffffffffffffffffffffffffffffffffffffffff908116825260208083019390935260409182016000908120918d16815292529020549190610a66565b600061044e6107426107b3565b84846108ca565b60075461076e9073ffffffffffffffffffffffffffffffffffffffff16333084610d14565b6107783382610daf565b50565b73ffffffffffffffffffffffffffffffffffffffff918216600090815260016020908152604080832093909416825291909152205490565b3390565b73ffffffffffffffffffffffffffffffffffffffff83166108095760405162461bcd60e51b815260040180806020018281038252602481526020018061130e6024913960400191505060405180910390fd5b73ffffffffffffffffffffffffffffffffffffffff821661085b5760405162461bcd60e51b81526004018080602001828103825260228152602001806112326022913960400191505060405180910390fd5b73ffffffffffffffffffffffffffffffffffffffff808416600081815260016020908152604080832094871680845294825291829020859055815185815291517f8c5be1e5ebec7d5bd14f71427d1e84f3dd0314c0f7b2291e5b200ac8c7c3b9259281900390910190a3505050565b73ffffffffffffffffffffffffffffffffffffffff831661091c5760405162461bcd60e51b81526004018080602001828103825260258152602001806112e96025913960400191505060405180910390fd5b73ffffffffffffffffffffffffffffffffffffffff821661096e5760405162461bcd60e51b81526004018080602001828103825260238152602001806111ed6023913960400191505060405180910390fd5b6109798383836105b0565b6109c3816040518060600160405280602681526020016112546026913973ffffffffffffffffffffffffffffffffffffffff86166000908152602081905260409020549190610a66565b73ffffffffffffffffffffffffffffffffffffffff80851660009081526020819052604080822093909355908416815220546109ff9082610cba565b73ffffffffffffffffffffffffffffffffffffffff8084166000818152602081815260409182902094909455805185815290519193928716927fddf252ad1be2c89b69c2b068fc378daa952ba7f163c4a11628f55a4df523b3ef92918290030190a3505050565b60008184841115610af55760405162461bcd60e51b81526004018080602001828103825283818151815260200191508051906020019080838360005b83811015610aba578181015183820152602001610aa2565b50505050905090810190601f168015610ae75780820380516001836020036101000a031916815260200191505b509250505060405180910390fd5b505050900390565b6040805173ffffffffffffffffffffffffffffffffffffffff8416602482015260448082018490528251808303909101815260649091019091526020810180517bffffffffffffffffffffffffffffffffffffffffffffffffffffffff167fa9059cbb000000000000000000000000000000000000000000000000000000001790526105b0908490610ec6565b73ffffffffffffffffffffffffffffffffffffffff8216610bdc5760405162461bcd60e51b81526004018080602001828103825260218152602001806112c86021913960400191505060405180910390fd5b610be8826000836105b0565b610c32816040518060600160405280602281526020016112106022913973ffffffffffffffffffffffffffffffffffffffff85166000908152602081905260409020549190610a66565b73ffffffffffffffffffffffffffffffffffffffff8316600090815260208190526040902055600254610c659082610f84565b60025560408051828152905160009173ffffffffffffffffffffffffffffffffffffffff8516917fddf252ad1be2c89b69c2b068fc378daa952ba7f163c4a11628f55a4df523b3ef9181900360200190a35050565b6000828201838110156104f8576040805162461bcd60e51b815260206004820152601b60248201527f536166654d6174683a206164646974696f6e206f766572666c6f770000000000604482015290519081900360640190fd5b6040805173ffffffffffffffffffffffffffffffffffffffff80861660248301528416604482015260648082018490528251808303909101815260849091019091526020810180517bffffffffffffffffffffffffffffffffffffffffffffffffffffffff167f23b872dd00000000000000000000000000000000000000000000000000000000179052610da9908590610ec6565b50505050565b73ffffffffffffffffffffffffffffffffffffffff8216610e17576040805162461bcd60e51b815260206004820152601f60248201527f45524332303a206d696e7420746f20746865207a65726f206164647265737300604482015290519081900360640190fd5b610e23600083836105b0565b600254610e309082610cba565b60025573ffffffffffffffffffffffffffffffffffffffff8216600090815260208190526040902054610e639082610cba565b73ffffffffffffffffffffffffffffffffffffffff83166000818152602081815260408083209490945583518581529351929391927fddf252ad1be2c89b69c2b068fc378daa952ba7f163c4a11628f55a4df523b3ef9281900390910190a35050565b6060610f28826040518060400160405280602081526020017f5361666545524332303a206c6f772d6c6576656c2063616c6c206661696c65648152508573ffffffffffffffffffffffffffffffffffffffff16610fe19092919063ffffffff16565b8051909150156105b057808060200190516020811015610f4757600080fd5b50516105b05760405162461bcd60e51b815260040180806020018281038252602a815260200180611332602a913960400191505060405180910390fd5b600082821115610fdb576040805162461bcd60e51b815260206004820152601e60248201527f536166654d6174683a207375627472616374696f6e206f766572666c6f770000604482015290519081900360640190fd5b50900390565b6060610ff08484600085610ff8565b949350505050565b6060303183111561103a5760405162461bcd60e51b815260040180806020018281038252602681526020018061127a6026913960400191505060405180910390fd5b61104385611180565b611094576040805162461bcd60e51b815260206004820152601d60248201527f416464726573733a2063616c6c20746f206e6f6e2d636f6e7472616374000000604482015290519081900360640190fd5b600060608673ffffffffffffffffffffffffffffffffffffffff1685876040518082805190602001908083835b602083106110fe57805182527fffffffffffffffffffffffffffffffffffffffffffffffffffffffffffffffe090920191602091820191016110c1565b6001836020036101000a03801982511681845116808217855250505050505090500191505060006040518083038185875af1925050503d8060008114611160576040519150601f19603f3d011682016040523d82523d6000602084013e611165565b606091505b5091509150611175828286611186565b979650505050505050565b3b151590565b606083156111955750816104f8565b8251156111a55782518084602001fd5b60405162461bcd60e51b8152602060048201818152845160248401528451859391928392604401919085019080838360008315610aba578181015183820152602001610aa256fe45524332303a207472616e7366657220746f20746865207a65726f206164647265737345524332303a206275726e20616d6f756e7420657863656564732062616c616e636545524332303a20617070726f766520746f20746865207a65726f206164647265737345524332303a207472616e7366657220616d6f756e7420657863656564732062616c616e6365416464726573733a20696e73756666696369656e742062616c616e636520666f722063616c6c45524332303a207472616e7366657220616d6f756e74206578636565647320616c6c6f77616e636545524332303a206275726e2066726f6d20746865207a65726f206164647265737345524332303a207472616e736665722066726f6d20746865207a65726f206164647265737345524332303a20617070726f76652066726f6d20746865207a65726f20616464726573735361666545524332303a204552433230206f7065726174696f6e20646964206e6f74207375636365656445524332303a2064656372656173656420616c6c6f77616e63652062656c6f77207a65726fa2646970667358221220ce393672c4b5b2801bb5eea2568f7e5bb17c29bf8027d655531122ebf273ff1764736f6c634300060c0033",
  "linkReferences": {},
  "deployedLinkReferences": {}
}