{
  "_format": "hh-sol-artifact-1",
  "contractName": "Core",
  "sourceName": "contracts/core/Core.sol",
  "abi": [
    {
      "inputs": [],
      "stateMutability": "nonpayable",
      "type": "constructor"
    },
    {
      "anonymous": false,
      "inputs": [
        {
          "indexed": true,
          "internalType": "bytes32",
          "name": "role",
          "type": "bytes32"
        },
        {
          "indexed": true,
          "internalType": "bytes32",
          "name": "previousAdminRole",
          "type": "bytes32"
        },
        {
          "indexed": true,
          "internalType": "bytes32",
          "name": "newAdminRole",
          "type": "bytes32"
        }
      ],
      "name": "RoleAdminChanged",
      "type": "event"
    },
    {
      "anonymous": false,
      "inputs": [
        {
          "indexed": true,
          "internalType": "bytes32",
          "name": "role",
          "type": "bytes32"
        },
        {
          "indexed": true,
          "internalType": "address",
          "name": "account",
          "type": "address"
        },
        {
          "indexed": true,
          "internalType": "address",
          "name": "sender",
          "type": "address"
        }
      ],
      "name": "RoleGranted",
      "type": "event"
    },
    {
      "anonymous": false,
      "inputs": [
        {
          "indexed": true,
          "internalType": "bytes32",
          "name": "role",
          "type": "bytes32"
        },
        {
          "indexed": true,
          "internalType": "address",
          "name": "account",
          "type": "address"
        },
        {
          "indexed": true,
          "internalType": "address",
          "name": "sender",
          "type": "address"
        }
      ],
      "name": "RoleRevoked",
      "type": "event"
    },
    {
      "inputs": [],
      "name": "DEFAULT_ADMIN_ROLE",
      "outputs": [
        {
          "internalType": "bytes32",
          "name": "",
          "type": "bytes32"
        }
      ],
      "stateMutability": "view",
      "type": "function"
    },
    {
      "inputs": [],
      "name": "GOVERN_ROLE",
      "outputs": [
        {
          "internalType": "bytes32",
          "name": "",
          "type": "bytes32"
        }
      ],
      "stateMutability": "view",
      "type": "function"
    },
    {
      "inputs": [],
      "name": "GUARDIAN_ROLE",
      "outputs": [
        {
          "internalType": "bytes32",
          "name": "",
          "type": "bytes32"
        }
      ],
      "stateMutability": "view",
      "type": "function"
    },
    {
      "inputs": [
        {
          "internalType": "bytes32",
          "name": "role",
          "type": "bytes32"
        },
        {
          "internalType": "bytes32",
          "name": "adminRole",
          "type": "bytes32"
        }
      ],
      "name": "createRole",
      "outputs": [],
      "stateMutability": "nonpayable",
      "type": "function"
    },
    {
      "inputs": [
        {
          "internalType": "bytes32",
          "name": "role",
          "type": "bytes32"
        }
      ],
      "name": "getRoleAdmin",
      "outputs": [
        {
          "internalType": "bytes32",
          "name": "",
          "type": "bytes32"
        }
      ],
      "stateMutability": "view",
      "type": "function"
    },
    {
      "inputs": [
        {
          "internalType": "bytes32",
          "name": "role",
          "type": "bytes32"
        },
        {
          "internalType": "uint256",
          "name": "index",
          "type": "uint256"
        }
      ],
      "name": "getRoleMember",
      "outputs": [
        {
          "internalType": "address",
          "name": "",
          "type": "address"
        }
      ],
      "stateMutability": "view",
      "type": "function"
    },
    {
      "inputs": [
        {
          "internalType": "bytes32",
          "name": "role",
          "type": "bytes32"
        }
      ],
      "name": "getRoleMemberCount",
      "outputs": [
        {
          "internalType": "uint256",
          "name": "",
          "type": "uint256"
        }
      ],
      "stateMutability": "view",
      "type": "function"
    },
    {
      "inputs": [
        {
          "internalType": "address",
          "name": "governor",
          "type": "address"
        }
      ],
      "name": "grantGovernor",
      "outputs": [],
      "stateMutability": "nonpayable",
      "type": "function"
    },
    {
      "inputs": [
        {
          "internalType": "address",
          "name": "guardian",
          "type": "address"
        }
      ],
      "name": "grantGuardian",
      "outputs": [],
      "stateMutability": "nonpayable",
      "type": "function"
    },
    {
      "inputs": [
        {
          "internalType": "bytes32",
          "name": "role",
          "type": "bytes32"
        },
        {
          "internalType": "address",
          "name": "account",
          "type": "address"
        }
      ],
      "name": "grantRole",
      "outputs": [],
      "stateMutability": "nonpayable",
      "type": "function"
    },
    {
      "inputs": [
        {
          "internalType": "bytes32",
          "name": "role",
          "type": "bytes32"
        },
        {
          "internalType": "address",
          "name": "account",
          "type": "address"
        }
      ],
      "name": "hasRole",
      "outputs": [
        {
          "internalType": "bool",
          "name": "",
          "type": "bool"
        }
      ],
      "stateMutability": "view",
      "type": "function"
    },
    {
      "inputs": [
        {
          "internalType": "address",
          "name": "_address",
          "type": "address"
        }
      ],
      "name": "isGovernor",
      "outputs": [
        {
          "internalType": "bool",
          "name": "",
          "type": "bool"
        }
      ],
      "stateMutability": "view",
      "type": "function"
    },
    {
      "inputs": [
        {
          "internalType": "address",
          "name": "_address",
          "type": "address"
        }
      ],
      "name": "isGuardian",
      "outputs": [
        {
          "internalType": "bool",
          "name": "",
          "type": "bool"
        }
      ],
      "stateMutability": "view",
      "type": "function"
    },
    {
      "inputs": [
        {
          "internalType": "bytes32",
          "name": "role",
          "type": "bytes32"
        },
        {
          "internalType": "address",
          "name": "account",
          "type": "address"
        }
      ],
      "name": "renounceRole",
      "outputs": [],
      "stateMutability": "nonpayable",
      "type": "function"
    },
    {
      "inputs": [
        {
          "internalType": "address",
          "name": "governor",
          "type": "address"
        }
      ],
      "name": "revokeGovernor",
      "outputs": [],
      "stateMutability": "nonpayable",
      "type": "function"
    },
    {
      "inputs": [
        {
          "internalType": "address",
          "name": "guardian",
          "type": "address"
        }
      ],
      "name": "revokeGuardian",
      "outputs": [],
      "stateMutability": "nonpayable",
      "type": "function"
    },
    {
      "inputs": [
        {
          "internalType": "bytes32",
          "name": "role",
          "type": "bytes32"
        },
        {
          "internalType": "address",
          "name": "account",
          "type": "address"
        }
      ],
      "name": "revokeRole",
      "outputs": [],
      "stateMutability": "nonpayable",
      "type": "function"
    }
  ],
  "bytecode": "0x60806040523480156200001157600080fd5b506200001d3062000084565b620000386000805160206200101883398151915280620000a2565b620000737f55435dd261a4b9b3364963f7738a7a662ad9c84396d64be3365284bb7f0a504160008051602062001018833981519152620000a2565b6200007e3362000084565b62000208565b6200009f6000805160206200101883398151915282620000f4565b50565b600082815260208190526040808220600201549051839285917fbd79b86ffe0ab8e8776151514217cd7cacd52c909f66475c3af44e129f0b00ff9190a460009182526020829052604090912060020155565b62000100828262000104565b5050565b60008281526020818152604090912062000129918390620009466200017d821b17901c565b156200010057620001396200019d565b6001600160a01b0316816001600160a01b0316837f2f8788117e7eff1d82e926ec794901d17c78024a50270940304540a733656f0d60405160405180910390a45050565b600062000194836001600160a01b038416620001a1565b90505b92915050565b3390565b6000620001af8383620001f0565b620001e75750815460018181018455600084815260208082209093018490558454848252828601909352604090209190915562000197565b50600062000197565b60009081526001919091016020526040902054151590565b610e0080620002186000396000f3fe608060405234801561001057600080fd5b506004361061011b5760003560e01c80639010d07c116100b2578063af648c3d11610081578063d547741f11610066578063d547741f14610380578063e43581b8146103b9578063e6eb982f146103ec5761011b565b8063af648c3d14610330578063ca15c873146103635761011b565b80639010d07c1461027057806391d14854146102bc57806394b1d2c0146102f5578063a217fddf146103285761011b565b806336568abe116100ee57806336568abe146101d957806338b7f44614610212578063395c62e81461021a5780634c9f93841461024d5761011b565b80630c68ba2114610120578063248a9ca31461016757806324ea54f4146101965780632f2ff15d1461019e575b600080fd5b6101536004803603602081101561013657600080fd5b503573ffffffffffffffffffffffffffffffffffffffff1661041f565b604080519115158252519081900360200190f35b6101846004803603602081101561017d57600080fd5b5035610451565b60408051918252519081900360200190f35b610184610466565b6101d7600480360360408110156101b457600080fd5b508035906020013573ffffffffffffffffffffffffffffffffffffffff1661048a565b005b6101d7600480360360408110156101ef57600080fd5b508035906020013573ffffffffffffffffffffffffffffffffffffffff16610510565b6101846105a5565b6101d76004803603602081101561023057600080fd5b503573ffffffffffffffffffffffffffffffffffffffff166105c9565b6101d76004803603604081101561026357600080fd5b5080359060200135610654565b6102936004803603604081101561028657600080fd5b50803590602001356106bc565b6040805173ffffffffffffffffffffffffffffffffffffffff9092168252519081900360200190f35b610153600480360360408110156102d257600080fd5b508035906020013573ffffffffffffffffffffffffffffffffffffffff166106db565b6101d76004803603602081101561030b57600080fd5b503573ffffffffffffffffffffffffffffffffffffffff166106f3565b61018461077b565b6101d76004803603602081101561034657600080fd5b503573ffffffffffffffffffffffffffffffffffffffff16610780565b6101846004803603602081101561037957600080fd5b5035610808565b6101d76004803603604081101561039657600080fd5b508035906020013573ffffffffffffffffffffffffffffffffffffffff1661081f565b610153600480360360208110156103cf57600080fd5b503573ffffffffffffffffffffffffffffffffffffffff16610892565b6101d76004803603602081101561040257600080fd5b503573ffffffffffffffffffffffffffffffffffffffff166108be565b600061044b7f55435dd261a4b9b3364963f7738a7a662ad9c84396d64be3365284bb7f0a5041836106db565b92915050565b60009081526020819052604090206002015490565b7f55435dd261a4b9b3364963f7738a7a662ad9c84396d64be3365284bb7f0a504181565b6000828152602081905260409020600201546104ad906104a8610968565b6106db565b610502576040517f08c379a000000000000000000000000000000000000000000000000000000000815260040180806020018281038252602f815260200180610d0a602f913960400191505060405180910390fd5b61050c828261096c565b5050565b610518610968565b73ffffffffffffffffffffffffffffffffffffffff168173ffffffffffffffffffffffffffffffffffffffff161461059b576040517f08c379a000000000000000000000000000000000000000000000000000000000815260040180806020018281038252602f815260200180610d9c602f913960400191505060405180910390fd5b61050c82826109ef565b7f899bd46557473cb80307a9dabc297131ced39608330a2d29b2d52b660c03923e81565b6105d233610892565b610627576040517f08c379a0000000000000000000000000000000000000000000000000000000008152600401808060200182810382526033815260200180610d696033913960400191505060405180910390fd5b6106517f899bd46557473cb80307a9dabc297131ced39608330a2d29b2d52b660c03923e8261048a565b50565b61065d33610892565b6106b2576040517f08c379a0000000000000000000000000000000000000000000000000000000008152600401808060200182810382526033815260200180610d696033913960400191505060405180910390fd5b61050c8282610a72565b60008281526020819052604081206106d49083610ac4565b9392505050565b60008281526020819052604081206106d49083610ad0565b6106fc33610892565b610751576040517f08c379a0000000000000000000000000000000000000000000000000000000008152600401808060200182810382526033815260200180610d696033913960400191505060405180910390fd5b6106517f55435dd261a4b9b3364963f7738a7a662ad9c84396d64be3365284bb7f0a50418261048a565b600081565b61078933610892565b6107de576040517f08c379a0000000000000000000000000000000000000000000000000000000008152600401808060200182810382526033815260200180610d696033913960400191505060405180910390fd5b6106517f55435dd261a4b9b3364963f7738a7a662ad9c84396d64be3365284bb7f0a50418261081f565b600081815260208190526040812061044b90610af2565b60008281526020819052604090206002015461083d906104a8610968565b61059b576040517f08c379a0000000000000000000000000000000000000000000000000000000008152600401808060200182810382526030815260200180610d396030913960400191505060405180910390fd5b600061044b7f899bd46557473cb80307a9dabc297131ced39608330a2d29b2d52b660c03923e836106db565b6108c733610892565b61091c576040517f08c379a0000000000000000000000000000000000000000000000000000000008152600401808060200182810382526033815260200180610d696033913960400191505060405180910390fd5b6106517f899bd46557473cb80307a9dabc297131ced39608330a2d29b2d52b660c03923e8261081f565b60006106d48373ffffffffffffffffffffffffffffffffffffffff8416610afd565b3390565b60008281526020819052604090206109849082610946565b1561050c57610991610968565b73ffffffffffffffffffffffffffffffffffffffff168173ffffffffffffffffffffffffffffffffffffffff16837f2f8788117e7eff1d82e926ec794901d17c78024a50270940304540a733656f0d60405160405180910390a45050565b6000828152602081905260409020610a079082610b47565b1561050c57610a14610968565b73ffffffffffffffffffffffffffffffffffffffff168173ffffffffffffffffffffffffffffffffffffffff16837ff6391f5c32d9c69d2a47ea670b442974b53935d1edc7fd64eb21e047a839171b60405160405180910390a45050565b600082815260208190526040808220600201549051839285917fbd79b86ffe0ab8e8776151514217cd7cacd52c909f66475c3af44e129f0b00ff9190a460009182526020829052604090912060020155565b60006106d48383610b69565b60006106d48373ffffffffffffffffffffffffffffffffffffffff8416610be7565b600061044b82610bff565b6000610b098383610be7565b610b3f5750815460018181018455600084815260208082209093018490558454848252828601909352604090209190915561044b565b50600061044b565b60006106d48373ffffffffffffffffffffffffffffffffffffffff8416610c03565b81546000908210610bc5576040517f08c379a0000000000000000000000000000000000000000000000000000000008152600401808060200182810382526022815260200180610ce86022913960400191505060405180910390fd5b826000018281548110610bd457fe5b9060005260206000200154905092915050565b60009081526001919091016020526040902054151590565b5490565b60008181526001830160205260408120548015610cdd5783547fffffffffffffffffffffffffffffffffffffffffffffffffffffffffffffffff8083019190810190600090879083908110610c5457fe5b9060005260206000200154905080876000018481548110610c7157fe5b600091825260208083209091019290925582815260018981019092526040902090840190558654879080610ca157fe5b6001900381819060005260206000200160009055905586600101600087815260200190815260200160002060009055600194505050505061044b565b600091505061044b56fe456e756d657261626c655365743a20696e646578206f7574206f6620626f756e6473416363657373436f6e74726f6c3a2073656e646572206d75737420626520616e2061646d696e20746f206772616e74416363657373436f6e74726f6c3a2073656e646572206d75737420626520616e2061646d696e20746f207265766f6b655065726d697373696f6e733a3a6f6e6c79476f7665726e6f723a2043616c6c6572206973206e6f74206120676f7665726e6f72416363657373436f6e74726f6c3a2063616e206f6e6c792072656e6f756e636520726f6c657320666f722073656c66a264697066735822122080b09ee18d04942514fc976fdc7d3ec570313026b6d7a6db7277917028d333af64736f6c634300060c0033899bd46557473cb80307a9dabc297131ced39608330a2d29b2d52b660c03923e",
  "linkReferences": {},
  "deployedLinkReferences": {}
}