{
  "_format": "hh-sol-artifact-1",
  "contractName": "CreamFake",
  "sourceName": "contracts/mock/CreamFake.sol",
  "abi": [
    {
      "inputs": [
        {
          "internalType": "address",
          "name": "_underlying",
          "type": "address"
        },
        {
          "internalType": "address",
          "name": "_rewardToken",
          "type": "address"
        },
        {
          "internalType": "uint256",
          "name": "_gains",
          "type": "uint256"
        },
        {
          "internalType": "bool",
          "name": "_loss",
          "type": "bool"
        }
      ],
      "stateMutability": "nonpayable",
      "type": "constructor"
    },
    {
      "anonymous": false,
      "inputs": [
        {
          "indexed": true,
          "internalType": "address",
          "name": "owner",
          "type": "address"
        },
        {
          "indexed": true,
          "internalType": "address",
          "name": "spender",
          "type": "address"
        },
        {
          "indexed": false,
          "internalType": "uint256",
          "name": "value",
          "type": "uint256"
        }
      ],
      "name": "Approval",
      "type": "event"
    },
    {
      "anonymous": false,
      "inputs": [
        {
          "indexed": true,
          "internalType": "address",
          "name": "from",
          "type": "address"
        },
        {
          "indexed": true,
          "internalType": "address",
          "name": "to",
          "type": "address"
        },
        {
          "indexed": false,
          "internalType": "uint256",
          "name": "value",
          "type": "uint256"
        }
      ],
      "name": "Transfer",
      "type": "event"
    },
    {
      "inputs": [
        {
          "internalType": "address",
          "name": "owner",
          "type": "address"
        },
        {
          "internalType": "address",
          "name": "spender",
          "type": "address"
        }
      ],
      "name": "allowance",
      "outputs": [
        {
          "internalType": "uint256",
          "name": "",
          "type": "uint256"
        }
      ],
      "stateMutability": "view",
      "type": "function"
    },
    {
      "inputs": [
        {
          "internalType": "address",
          "name": "spender",
          "type": "address"
        },
        {
          "internalType": "uint256",
          "name": "amount",
          "type": "uint256"
        }
      ],
      "name": "approve",
      "outputs": [
        {
          "internalType": "bool",
          "name": "",
          "type": "bool"
        }
      ],
      "stateMutability": "nonpayable",
      "type": "function"
    },
    {
      "inputs": [
        {
          "internalType": "address",
          "name": "account",
          "type": "address"
        }
      ],
      "name": "balanceOf",
      "outputs": [
        {
          "internalType": "uint256",
          "name": "",
          "type": "uint256"
        }
      ],
      "stateMutability": "view",
      "type": "function"
    },
    {
      "inputs": [],
      "name": "decimals",
      "outputs": [
        {
          "internalType": "uint8",
          "name": "",
          "type": "uint8"
        }
      ],
      "stateMutability": "view",
      "type": "function"
    },
    {
      "inputs": [
        {
          "internalType": "address",
          "name": "spender",
          "type": "address"
        },
        {
          "internalType": "uint256",
          "name": "subtractedValue",
          "type": "uint256"
        }
      ],
      "name": "decreaseAllowance",
      "outputs": [
        {
          "internalType": "bool",
          "name": "",
          "type": "bool"
        }
      ],
      "stateMutability": "nonpayable",
      "type": "function"
    },
    {
      "inputs": [
        {
          "internalType": "address",
          "name": "spender",
          "type": "address"
        },
        {
          "internalType": "uint256",
          "name": "addedValue",
          "type": "uint256"
        }
      ],
      "name": "increaseAllowance",
      "outputs": [
        {
          "internalType": "bool",
          "name": "",
          "type": "bool"
        }
      ],
      "stateMutability": "nonpayable",
      "type": "function"
    },
    {
      "inputs": [
        {
          "internalType": "uint256",
          "name": "amount",
          "type": "uint256"
        }
      ],
      "name": "mint",
      "outputs": [
        {
          "internalType": "uint256",
          "name": "",
          "type": "uint256"
        }
      ],
      "stateMutability": "nonpayable",
      "type": "function"
    },
    {
      "inputs": [],
      "name": "name",
      "outputs": [
        {
          "internalType": "string",
          "name": "",
          "type": "string"
        }
      ],
      "stateMutability": "view",
      "type": "function"
    },
    {
      "inputs": [
        {
          "internalType": "uint256",
          "name": "redeemTokens",
          "type": "uint256"
        }
      ],
      "name": "redeem",
      "outputs": [
        {
          "internalType": "uint256",
          "name": "",
          "type": "uint256"
        }
      ],
      "stateMutability": "nonpayable",
      "type": "function"
    },
    {
      "inputs": [],
      "name": "symbol",
      "outputs": [
        {
          "internalType": "string",
          "name": "",
          "type": "string"
        }
      ],
      "stateMutability": "view",
      "type": "function"
    },
    {
      "inputs": [],
      "name": "totalSupply",
      "outputs": [
        {
          "internalType": "uint256",
          "name": "",
          "type": "uint256"
        }
      ],
      "stateMutability": "view",
      "type": "function"
    },
    {
      "inputs": [
        {
          "internalType": "address",
          "name": "recipient",
          "type": "address"
        },
        {
          "internalType": "uint256",
          "name": "amount",
          "type": "uint256"
        }
      ],
      "name": "transfer",
      "outputs": [
        {
          "internalType": "bool",
          "name": "",
          "type": "bool"
        }
      ],
      "stateMutability": "nonpayable",
      "type": "function"
    },
    {
      "inputs": [
        {
          "internalType": "address",
          "name": "sender",
          "type": "address"
        },
        {
          "internalType": "address",
          "name": "recipient",
          "type": "address"
        },
        {
          "internalType": "uint256",
          "name": "amount",
          "type": "uint256"
        }
      ],
      "name": "transferFrom",
      "outputs": [
        {
          "internalType": "bool",
          "name": "",
          "type": "bool"
        }
      ],
      "stateMutability": "nonpayable",
      "type": "function"
    }
  ],
  "bytecode": "0x60806040523480156200001157600080fd5b506040516200156e3803806200156e833981810160405260808110156200003757600080fd5b5080516020808301516040808501516060909501518151808501808452600080835284519687019094529285528051959693959394919390926200007f916003919062000108565b5080516200009590600490602084019062000108565b50506005805460ff1916601217905550600780546001600160a01b039586166001600160a01b03199182161790915560088054600694909455911515740100000000000000000000000000000000000000000260ff60a01b199490951692169190911791909116919091179055620001a4565b828054600181600116156101000203166002900490600052602060002090601f016020900481019282601f106200014b57805160ff19168380011785556200017b565b828001600101855582156200017b579182015b828111156200017b5782518255916020019190600101906200015e565b50620001899291506200018d565b5090565b5b808211156200018957600081556001016200018e565b6113ba80620001b46000396000f3fe608060405234801561001057600080fd5b50600436106100df5760003560e01c806370a082311161008c578063a457c2d711610066578063a457c2d7146102ba578063a9059cbb146102f3578063db006a751461032c578063dd62ed3e14610349576100df565b806370a082311461026257806395d89b4114610295578063a0712d681461029d576100df565b806323b872dd116100bd57806323b872dd146101c8578063313ce5671461020b5780633950935114610229576100df565b806306fdde03146100e4578063095ea7b31461016157806318160ddd146101ae575b600080fd5b6100ec610384565b6040805160208082528351818301528351919283929083019185019080838360005b8381101561012657818101518382015260200161010e565b50505050905090810190601f1680156101535780820380516001836020036101000a031916815260200191505b509250505060405180910390f35b61019a6004803603604081101561017757600080fd5b5073ffffffffffffffffffffffffffffffffffffffff8135169060200135610438565b604080519115158252519081900360200190f35b6101b6610455565b60408051918252519081900360200190f35b61019a600480360360608110156101de57600080fd5b5073ffffffffffffffffffffffffffffffffffffffff81358116916020810135909116906040013561045b565b6102136104fd565b6040805160ff9092168252519081900360200190f35b61019a6004803603604081101561023f57600080fd5b5073ffffffffffffffffffffffffffffffffffffffff8135169060200135610506565b6101b66004803603602081101561027857600080fd5b503573ffffffffffffffffffffffffffffffffffffffff16610561565b6100ec610589565b6101b6600480360360208110156102b357600080fd5b5035610608565b61019a600480360360408110156102d057600080fd5b5073ffffffffffffffffffffffffffffffffffffffff813516906020013561063e565b61019a6004803603604081101561030957600080fd5b5073ffffffffffffffffffffffffffffffffffffffff81351690602001356106b3565b6101b66004803603602081101561034257600080fd5b50356106c7565b6101b66004803603604081101561035f57600080fd5b5073ffffffffffffffffffffffffffffffffffffffff8135811691602001351661077a565b60038054604080516020601f60027fffffffffffffffffffffffffffffffffffffffffffffffffffffffffffffffff61010060018816150201909516949094049384018190048102820181019092528281526060939092909183018282801561042e5780601f106104035761010080835404028352916020019161042e565b820191906000526020600020905b81548152906001019060200180831161041157829003601f168201915b5050505050905090565b600061044c6104456107b2565b84846107b6565b50600192915050565b60025490565b60006104688484846108c9565b6104f2846104746107b2565b6104ed856040518060600160405280602881526020016112a46028913973ffffffffffffffffffffffffffffffffffffffff8a166000908152600160205260408120906104bf6107b2565b73ffffffffffffffffffffffffffffffffffffffff1681526020810191909152604001600020549190610a65565b6107b6565b5060015b9392505050565b60055460ff1690565b600061044c6105136107b2565b846104ed85600160006105246107b2565b73ffffffffffffffffffffffffffffffffffffffff908116825260208083019390935260409182016000908120918c168152925290205490610afc565b73ffffffffffffffffffffffffffffffffffffffff1660009081526020819052604090205490565b60048054604080516020601f60027fffffffffffffffffffffffffffffffffffffffffffffffffffffffffffffffff61010060018816150201909516949094049384018190048102820181019092528281526060939092909183018282801561042e5780601f106104035761010080835404028352916020019161042e565b6007546000906106309073ffffffffffffffffffffffffffffffffffffffff16333085610b56565b61063a3383610bf1565b5090565b600061044c61064b6107b2565b846104ed8560405180606001604052806025815260200161136060259139600160006106756107b2565b73ffffffffffffffffffffffffffffffffffffffff908116825260208083019390935260409182016000908120918d16815292529020549190610a65565b600061044c6106c06107b2565b84846108c9565b600854600090819074010000000000000000000000000000000000000000900460ff166106f957600654606401610700565b6006546064035b6007549091506064848302049061072e9073ffffffffffffffffffffffffffffffffffffffff163383610d08565b60085473ffffffffffffffffffffffffffffffffffffffff1615610770576008546107709073ffffffffffffffffffffffffffffffffffffffff163383610d08565b6104f63385610d9a565b73ffffffffffffffffffffffffffffffffffffffff918216600090815260016020908152604080832093909416825291909152205490565b3390565b73ffffffffffffffffffffffffffffffffffffffff83166108085760405162461bcd60e51b81526004018080602001828103825260248152602001806113126024913960400191505060405180910390fd5b73ffffffffffffffffffffffffffffffffffffffff821661085a5760405162461bcd60e51b81526004018080602001828103825260228152602001806112366022913960400191505060405180910390fd5b73ffffffffffffffffffffffffffffffffffffffff808416600081815260016020908152604080832094871680845294825291829020859055815185815291517f8c5be1e5ebec7d5bd14f71427d1e84f3dd0314c0f7b2291e5b200ac8c7c3b9259281900390910190a3505050565b73ffffffffffffffffffffffffffffffffffffffff831661091b5760405162461bcd60e51b81526004018080602001828103825260258152602001806112ed6025913960400191505060405180910390fd5b73ffffffffffffffffffffffffffffffffffffffff821661096d5760405162461bcd60e51b81526004018080602001828103825260238152602001806111f16023913960400191505060405180910390fd5b610978838383610d95565b6109c2816040518060600160405280602681526020016112586026913973ffffffffffffffffffffffffffffffffffffffff86166000908152602081905260409020549190610a65565b73ffffffffffffffffffffffffffffffffffffffff80851660009081526020819052604080822093909355908416815220546109fe9082610afc565b73ffffffffffffffffffffffffffffffffffffffff8084166000818152602081815260409182902094909455805185815290519193928716927fddf252ad1be2c89b69c2b068fc378daa952ba7f163c4a11628f55a4df523b3ef92918290030190a3505050565b60008184841115610af45760405162461bcd60e51b81526004018080602001828103825283818151815260200191508051906020019080838360005b83811015610ab9578181015183820152602001610aa1565b50505050905090810190601f168015610ae65780820380516001836020036101000a031916815260200191505b509250505060405180910390fd5b505050900390565b6000828201838110156104f6576040805162461bcd60e51b815260206004820152601b60248201527f536166654d6174683a206164646974696f6e206f766572666c6f770000000000604482015290519081900360640190fd5b6040805173ffffffffffffffffffffffffffffffffffffffff80861660248301528416604482015260648082018490528251808303909101815260849091019091526020810180517bffffffffffffffffffffffffffffffffffffffffffffffffffffffff167f23b872dd00000000000000000000000000000000000000000000000000000000179052610beb908590610eca565b50505050565b73ffffffffffffffffffffffffffffffffffffffff8216610c59576040805162461bcd60e51b815260206004820152601f60248201527f45524332303a206d696e7420746f20746865207a65726f206164647265737300604482015290519081900360640190fd5b610c6560008383610d95565b600254610c729082610afc565b60025573ffffffffffffffffffffffffffffffffffffffff8216600090815260208190526040902054610ca59082610afc565b73ffffffffffffffffffffffffffffffffffffffff83166000818152602081815260408083209490945583518581529351929391927fddf252ad1be2c89b69c2b068fc378daa952ba7f163c4a11628f55a4df523b3ef9281900390910190a35050565b6040805173ffffffffffffffffffffffffffffffffffffffff8416602482015260448082018490528251808303909101815260649091019091526020810180517bffffffffffffffffffffffffffffffffffffffffffffffffffffffff167fa9059cbb00000000000000000000000000000000000000000000000000000000179052610d95908490610eca565b505050565b73ffffffffffffffffffffffffffffffffffffffff8216610dec5760405162461bcd60e51b81526004018080602001828103825260218152602001806112cc6021913960400191505060405180910390fd5b610df882600083610d95565b610e42816040518060600160405280602281526020016112146022913973ffffffffffffffffffffffffffffffffffffffff85166000908152602081905260409020549190610a65565b73ffffffffffffffffffffffffffffffffffffffff8316600090815260208190526040902055600254610e759082610f88565b60025560408051828152905160009173ffffffffffffffffffffffffffffffffffffffff8516917fddf252ad1be2c89b69c2b068fc378daa952ba7f163c4a11628f55a4df523b3ef9181900360200190a35050565b6060610f2c826040518060400160405280602081526020017f5361666545524332303a206c6f772d6c6576656c2063616c6c206661696c65648152508573ffffffffffffffffffffffffffffffffffffffff16610fe59092919063ffffffff16565b805190915015610d9557808060200190516020811015610f4b57600080fd5b5051610d955760405162461bcd60e51b815260040180806020018281038252602a815260200180611336602a913960400191505060405180910390fd5b600082821115610fdf576040805162461bcd60e51b815260206004820152601e60248201527f536166654d6174683a207375627472616374696f6e206f766572666c6f770000604482015290519081900360640190fd5b50900390565b6060610ff48484600085610ffc565b949350505050565b6060303183111561103e5760405162461bcd60e51b815260040180806020018281038252602681526020018061127e6026913960400191505060405180910390fd5b61104785611184565b611098576040805162461bcd60e51b815260206004820152601d60248201527f416464726573733a2063616c6c20746f206e6f6e2d636f6e7472616374000000604482015290519081900360640190fd5b600060608673ffffffffffffffffffffffffffffffffffffffff1685876040518082805190602001908083835b6020831061110257805182527fffffffffffffffffffffffffffffffffffffffffffffffffffffffffffffffe090920191602091820191016110c5565b6001836020036101000a03801982511681845116808217855250505050505090500191505060006040518083038185875af1925050503d8060008114611164576040519150601f19603f3d011682016040523d82523d6000602084013e611169565b606091505b509150915061117982828661118a565b979650505050505050565b3b151590565b606083156111995750816104f6565b8251156111a95782518084602001fd5b60405162461bcd60e51b8152602060048201818152845160248401528451859391928392604401919085019080838360008315610ab9578181015183820152602001610aa156fe45524332303a207472616e7366657220746f20746865207a65726f206164647265737345524332303a206275726e20616d6f756e7420657863656564732062616c616e636545524332303a20617070726f766520746f20746865207a65726f206164647265737345524332303a207472616e7366657220616d6f756e7420657863656564732062616c616e6365416464726573733a20696e73756666696369656e742062616c616e636520666f722063616c6c45524332303a207472616e7366657220616d6f756e74206578636565647320616c6c6f77616e636545524332303a206275726e2066726f6d20746865207a65726f206164647265737345524332303a207472616e736665722066726f6d20746865207a65726f206164647265737345524332303a20617070726f76652066726f6d20746865207a65726f20616464726573735361666545524332303a204552433230206f7065726174696f6e20646964206e6f74207375636365656445524332303a2064656372656173656420616c6c6f77616e63652062656c6f77207a65726fa2646970667358221220d309ad37394091843ce54fb14198ce305d384d625c94fc3e5b6fe6fc76272aeb64736f6c634300060c0033",
  "linkReferences": {},
  "deployedLinkReferences": {}
}