{
  "_format": "hh-sol-artifact-1",
  "contractName": "FeeRewards",
  "sourceName": "contracts/FeeRewardsPool.sol",
  "abi": [
    {
      "inputs": [
        {
          "internalType": "address",
          "name": "_vewtf",
          "type": "address"
        },
        {
          "internalType": "address",
          "name": "_rewardToken",
          "type": "address"
        },
        {
          "internalType": "address",
          "name": "_rewardSender",
          "type": "address"
        }
      ],
      "stateMutability": "nonpayable",
      "type": "constructor"
    },
    {
      "anonymous": false,
      "inputs": [
        {
          "indexed": true,
          "internalType": "address",
          "name": "tokenRecovered",
          "type": "address"
        },
        {
          "indexed": false,
          "internalType": "uint256",
          "name": "amount",
          "type": "uint256"
        }
      ],
      "name": "AdminTokenRecovery",
      "type": "event"
    },
    {
      "anonymous": false,
      "inputs": [
        {
          "indexed": true,
          "internalType": "address",
          "name": "user",
          "type": "address"
        },
        {
          "indexed": false,
          "internalType": "uint256",
          "name": "reward",
          "type": "uint256"
        }
      ],
      "name": "Claim",
      "type": "event"
    },
    {
      "anonymous": false,
      "inputs": [
        {
          "indexed": true,
          "internalType": "address",
          "name": "previousOwner",
          "type": "address"
        },
        {
          "indexed": true,
          "internalType": "address",
          "name": "newOwner",
          "type": "address"
        }
      ],
      "name": "OwnershipTransferred",
      "type": "event"
    },
    {
      "anonymous": false,
      "inputs": [
        {
          "indexed": true,
          "internalType": "address",
          "name": "user",
          "type": "address"
        },
        {
          "indexed": false,
          "internalType": "uint256",
          "name": "amount",
          "type": "uint256"
        }
      ],
      "name": "Stake",
      "type": "event"
    },
    {
      "anonymous": false,
      "inputs": [
        {
          "indexed": true,
          "internalType": "address",
          "name": "user",
          "type": "address"
        },
        {
          "indexed": false,
          "internalType": "uint256",
          "name": "amount",
          "type": "uint256"
        }
      ],
      "name": "Unstake",
      "type": "event"
    },
    {
      "inputs": [],
      "name": "PRECISION",
      "outputs": [
        {
          "internalType": "uint256",
          "name": "",
          "type": "uint256"
        }
      ],
      "stateMutability": "view",
      "type": "function"
    },
    {
      "inputs": [],
      "name": "claimRewards",
      "outputs": [],
      "stateMutability": "nonpayable",
      "type": "function"
    },
    {
      "inputs": [],
      "name": "closePool",
      "outputs": [],
      "stateMutability": "nonpayable",
      "type": "function"
    },
    {
      "inputs": [
        {
          "internalType": "uint256",
          "name": "_amount",
          "type": "uint256"
        }
      ],
      "name": "emergencyRewardWithdraw",
      "outputs": [],
      "stateMutability": "nonpayable",
      "type": "function"
    },
    {
      "inputs": [
        {
          "internalType": "address",
          "name": "recv",
          "type": "address"
        }
      ],
      "name": "evacuateETH",
      "outputs": [],
      "stateMutability": "nonpayable",
      "type": "function"
    },
    {
      "inputs": [],
      "name": "isPoolActive",
      "outputs": [
        {
          "internalType": "bool",
          "name": "",
          "type": "bool"
        }
      ],
      "stateMutability": "view",
      "type": "function"
    },
    {
      "inputs": [],
      "name": "owner",
      "outputs": [
        {
          "internalType": "address",
          "name": "",
          "type": "address"
        }
      ],
      "stateMutability": "view",
      "type": "function"
    },
    {
      "inputs": [
        {
          "internalType": "address",
          "name": "_user",
          "type": "address"
        }
      ],
      "name": "pendingRewardOf",
      "outputs": [
        {
          "internalType": "uint256",
          "name": "reward",
          "type": "uint256"
        }
      ],
      "stateMutability": "view",
      "type": "function"
    },
    {
      "inputs": [],
      "name": "pool",
      "outputs": [
        {
          "internalType": "bool",
          "name": "isActive",
          "type": "bool"
        },
        {
          "internalType": "uint256",
          "name": "creationTS",
          "type": "uint256"
        },
        {
          "internalType": "uint256",
          "name": "accRewardPerShare",
          "type": "uint256"
        },
        {
          "internalType": "uint256",
          "name": "totalStaked",
          "type": "uint256"
        }
      ],
      "stateMutability": "view",
      "type": "function"
    },
    {
      "inputs": [
        {
          "internalType": "address",
          "name": "_tokenAddress",
          "type": "address"
        },
        {
          "internalType": "uint256",
          "name": "_tokenAmount",
          "type": "uint256"
        }
      ],
      "name": "recoverWrongTokens",
      "outputs": [],
      "stateMutability": "nonpayable",
      "type": "function"
    },
    {
      "inputs": [],
      "name": "renounceOwnership",
      "outputs": [],
      "stateMutability": "nonpayable",
      "type": "function"
    },
    {
      "inputs": [],
      "name": "rewardSender",
      "outputs": [
        {
          "internalType": "address",
          "name": "",
          "type": "address"
        }
      ],
      "stateMutability": "view",
      "type": "function"
    },
    {
      "inputs": [],
      "name": "rewardToken",
      "outputs": [
        {
          "internalType": "contract IERC20",
          "name": "",
          "type": "address"
        }
      ],
      "stateMutability": "view",
      "type": "function"
    },
    {
      "inputs": [
        {
          "internalType": "uint256",
          "name": "_amount",
          "type": "uint256"
        }
      ],
      "name": "sendRewards",
      "outputs": [],
      "stateMutability": "nonpayable",
      "type": "function"
    },
    {
      "inputs": [
        {
          "internalType": "address",
          "name": "_rewardSender",
          "type": "address"
        }
      ],
      "name": "setRewardSender",
      "outputs": [],
      "stateMutability": "nonpayable",
      "type": "function"
    },
    {
      "inputs": [
        {
          "internalType": "address",
          "name": "_rewardToken",
          "type": "address"
        }
      ],
      "name": "setRewardToken",
      "outputs": [],
      "stateMutability": "nonpayable",
      "type": "function"
    },
    {
      "inputs": [
        {
          "internalType": "address",
          "name": "account",
          "type": "address"
        },
        {
          "internalType": "uint256",
          "name": "_amount",
          "type": "uint256"
        }
      ],
      "name": "stake",
      "outputs": [],
      "stateMutability": "nonpayable",
      "type": "function"
    },
    {
      "inputs": [
        {
          "internalType": "address",
          "name": "newOwner",
          "type": "address"
        }
      ],
      "name": "transferOwnership",
      "outputs": [],
      "stateMutability": "nonpayable",
      "type": "function"
    },
    {
      "inputs": [
        {
          "internalType": "address",
          "name": "account",
          "type": "address"
        },
        {
          "internalType": "uint256",
          "name": "_amount",
          "type": "uint256"
        }
      ],
      "name": "unstake",
      "outputs": [],
      "stateMutability": "nonpayable",
      "type": "function"
    },
    {
      "inputs": [
        {
          "internalType": "address",
          "name": "",
          "type": "address"
        }
      ],
      "name": "users",
      "outputs": [
        {
          "internalType": "uint256",
          "name": "amount",
          "type": "uint256"
        },
        {
          "internalType": "uint256",
          "name": "rewardDebt",
          "type": "uint256"
        }
      ],
      "stateMutability": "view",
      "type": "function"
    },
    {
      "inputs": [],
      "name": "vewtf",
      "outputs": [
        {
          "internalType": "address",
          "name": "",
          "type": "address"
        }
      ],
      "stateMutability": "view",
      "type": "function"
    }
  ],
  "bytecode": "0x60806040523480156200001157600080fd5b506040516200167638038062001676833981016040819052620000349162000112565b6200004862000042620000a1565b620000a5565b6001808055600280546001600160a01b03199081166001600160a01b0396871617909155600380548216948616949094179093556004805490931691909316179055426006556005805460ff191690911790556200015b565b3390565b600080546001600160a01b038381166001600160a01b0319831681178455604051919092169283917f8be0079c531659141344cd1fd0a4f28419497f9722a3daafe3b4186f6b6457e09190a35050565b80516001600160a01b03811681146200010d57600080fd5b919050565b60008060006060848603121562000127578283fd5b6200013284620000f5565b92506200014260208501620000f5565b91506200015260408501620000f5565b90509250925092565b61150b806200016b6000396000f3fe608060405234801561001057600080fd5b50600436106101375760003560e01c80638da5cb5b116100b8578063adc9772e1161007c578063adc9772e14610244578063c2a672e014610257578063df868ed31461026a578063e531d85e1461027f578063f2fde38b14610292578063f7c618c1146102a557610137565b80638da5cb5b146101e057806396d03f64146101e8578063a87430ba146101fb578063aaf5eb681461021c578063ada07fa01461023157610137565b806366805de5116100ff57806366805de5146101a25780636ef6305d146101aa578063715018a6146101bd5780637517e237146101c55780638aee8127146101cd57610137565b806316f0115b1461013c5780633279beab1461015d578063372500ab146101725780633f138d4b1461017a5780634a7d3ef61461018d575b600080fd5b6101446102ad565b6040516101549493929190610fd5565b60405180910390f35b61017061016b366004610f45565b6102c2565b005b610170610324565b610170610188366004610efc565b61041a565b61019561050e565b6040516101549190610f79565b61017061051d565b6101706101b8366004610ee2565b610568565b6101706105e0565b61019561062b565b6101706101db366004610ee2565b61063a565b6101956106c1565b6101706101f6366004610ee2565b6106d0565b61020e610209366004610ee2565b610757565b604051610154929190611417565b610224610770565b604051610154919061140e565b61017061023f366004610f45565b61077c565b610170610252366004610efc565b6107f6565b610170610265366004610efc565b610987565b610272610b0c565b6040516101549190610fca565b61022461028d366004610ee2565b610b15565b6101706102a0366004610ee2565b610b73565b610195610be1565b60055460065460075460085460ff9093169284565b6102ca610bf0565b6001600160a01b03166102db6106c1565b6001600160a01b03161461030a5760405162461bcd60e51b81526004016103019061120b565b60405180910390fd5b600354610321906001600160a01b03163383610bf4565b50565b600260015414156103475760405162461bcd60e51b8152600401610301906113a0565b60026001553360009081526009602052604081208054909190156103b75760018201548254600754610398929161039291670de0b6b3a76400009161038c9190610c4f565b90610c5b565b90610c67565b905080156103b7576003546103b7906001600160a01b03163383610bf4565b81546007546103d391670de0b6b3a76400009161038c91610c4f565b600183015560405133907f47cee97cb7acd717b3c0aa1435d004cd5b3c8c57d70dbceb4e4458bbd60e39d49061040a90849061140e565b60405180910390a2505060018055565b610422610bf0565b6001600160a01b03166104336106c1565b6001600160a01b0316146104595760405162461bcd60e51b81526004016103019061120b565b6002546001600160a01b03838116911614156104875760405162461bcd60e51b815260040161030190611132565b6003546001600160a01b03838116911614156104b55760405162461bcd60e51b815260040161030190611240565b6104c96001600160a01b0383163383610bf4565b816001600160a01b03167f74545154aac348a3eac92596bd1971957ca94795f4e954ec5f613b55fab7812982604051610502919061140e565b60405180910390a25050565b6002546001600160a01b031681565b610525610bf0565b6001600160a01b03166105366106c1565b6001600160a01b03161461055c5760405162461bcd60e51b81526004016103019061120b565b6005805460ff19169055565b610570610bf0565b6001600160a01b03166105816106c1565b6001600160a01b0316146105a75760405162461bcd60e51b81526004016103019061120b565b6040516001600160a01b038216904780156108fc02916000818181858888f193505050501580156105dc573d6000803e3d6000fd5b5050565b6105e8610bf0565b6001600160a01b03166105f96106c1565b6001600160a01b03161461061f5760405162461bcd60e51b81526004016103019061120b565b6106296000610c73565b565b6004546001600160a01b031681565b610642610bf0565b6001600160a01b03166106536106c1565b6001600160a01b0316146106795760405162461bcd60e51b81526004016103019061120b565b6001600160a01b03811661069f5760405162461bcd60e51b8152600401610301906113d7565b600380546001600160a01b0319166001600160a01b0392909216919091179055565b6000546001600160a01b031690565b6106d8610bf0565b6001600160a01b03166106e96106c1565b6001600160a01b03161461070f5760405162461bcd60e51b81526004016103019061120b565b6001600160a01b0381166107355760405162461bcd60e51b8152600401610301906113d7565b600480546001600160a01b0319166001600160a01b0392909216919091179055565b6009602052600090815260409020805460019091015482565b670de0b6b3a764000081565b6004546001600160a01b031633146107a65760405162461bcd60e51b815260040161030190611177565b60055460ff166107c85760405162461bcd60e51b81526004016103019061106b565b600854156107f1576003546107e8906001600160a01b0316333084610cc3565b6107f181610cea565b610321565b600260015414156108195760405162461bcd60e51b8152600401610301906113a0565b60026001819055546001600160a01b031633146108485760405162461bcd60e51b8152600401610301906111d4565b60055460ff1661086a5760405162461bcd60e51b81526004016103019061106b565b6000811161088a5760405162461bcd60e51b815260040161030190611352565b6001600160a01b03821660009081526009602052604090208054156108fc5760006108db8260010154610392670de0b6b3a764000061038c8660000154600560020154610c4f90919063ffffffff16565b905080156108fa576003546108fa906001600160a01b03168583610bf4565b505b80546109089083610d16565b81556008546109179083610d16565b600855805460075461093691670de0b6b3a76400009161038c91610c4f565b60018201556040516001600160a01b038416907febedb8b3c678666e7f36970bc8f57abf6d8fa2e828c0da91ea5b75bf68ed101a9061097690859061140e565b60405180910390a250506001805550565b600260015414156109aa5760405162461bcd60e51b8152600401610301906113a0565b60026001819055546001600160a01b031633146109d95760405162461bcd60e51b8152600401610301906111d4565b6001600160a01b038216600090815260096020526040902081610a0e5760405162461bcd60e51b8152600401610301906110a2565b8054821115610a2f5760405162461bcd60e51b815260040161030190611285565b6000610a618260010154610392670de0b6b3a764000061038c8660000154600560020154610c4f90919063ffffffff16565b90508015610a8057600354610a80906001600160a01b03168583610bf4565b8154610a8c9084610c67565b8255600854610a9b9084610c67565b6008558154600754610aba91670de0b6b3a76400009161038c91610c4f565b60018301556040516001600160a01b038516907f85082129d87b2fe11527cb1b3b7a520aeb5aa6913f88a3d8757fe40d1db02fdd90610afa90869061140e565b60405180910390a25050600180555050565b60055460ff1690565b6001600160a01b0381166000908152600960209081526040808320815180830190925280548083526001909101549282018390526007549192610b6c92909161039291670de0b6b3a76400009161038c9190610c4f565b9392505050565b610b7b610bf0565b6001600160a01b0316610b8c6106c1565b6001600160a01b031614610bb25760405162461bcd60e51b81526004016103019061120b565b6001600160a01b038116610bd85760405162461bcd60e51b815260040161030190611025565b61032181610c73565b6003546001600160a01b031681565b3390565b610c4a8363a9059cbb60e01b8484604051602401610c13929190610fb1565b60408051601f198184030181529190526020810180516001600160e01b03166001600160e01b031990931692909217909152610d22565b505050565b6000610b6c828461145d565b6000610b6c828461143d565b6000610b6c828461147c565b600080546001600160a01b038381166001600160a01b0319831681178455604051919092169283917f8be0079c531659141344cd1fd0a4f28419497f9722a3daafe3b4186f6b6457e09190a35050565b610ce4846323b872dd60e01b858585604051602401610c1393929190610f8d565b50505050565b600854610d1090610d079061038c84670de0b6b3a7640000610c4f565b60075490610d16565b60075550565b6000610b6c8284611425565b6000610d77826040518060400160405280602081526020017f5361666545524332303a206c6f772d6c6576656c2063616c6c206661696c6564815250856001600160a01b0316610db19092919063ffffffff16565b805190915015610c4a5780806020019051810190610d959190610f25565b610c4a5760405162461bcd60e51b815260040161030190611308565b6060610dc08484600085610dc8565b949350505050565b606082471015610dea5760405162461bcd60e51b8152600401610301906110ec565b610df385610e88565b610e0f5760405162461bcd60e51b8152600401610301906112d1565b600080866001600160a01b03168587604051610e2b9190610f5d565b60006040518083038185875af1925050503d8060008114610e68576040519150601f19603f3d011682016040523d82523d6000602084013e610e6d565b606091505b5091509150610e7d828286610e92565b979650505050505050565b803b15155b919050565b60608315610ea1575081610b6c565b825115610eb15782518084602001fd5b8160405162461bcd60e51b81526004016103019190610ff2565b80356001600160a01b0381168114610e8d57600080fd5b600060208284031215610ef3578081fd5b610b6c82610ecb565b60008060408385031215610f0e578081fd5b610f1783610ecb565b946020939093013593505050565b600060208284031215610f36578081fd5b81518015158114610b6c578182fd5b600060208284031215610f56578081fd5b5035919050565b60008251610f6f818460208701611493565b9190910192915050565b6001600160a01b0391909116815260200190565b6001600160a01b039384168152919092166020820152604081019190915260600190565b6001600160a01b03929092168252602082015260400190565b901515815260200190565b931515845260208401929092526040830152606082015260800190565b6000602082528251806020840152611011816040850160208701611493565b601f01601f19169190910160400192915050565b60208082526026908201527f4f776e61626c653a206e6577206f776e657220697320746865207a65726f206160408201526564647265737360d01b606082015260800190565b6020808252601d908201527f5665575446205374616b696e673a20506f6f6c20697320636c6f736564000000604082015260600190565b6020808252602a908201527f5665575446205374616b696e673a2063616e6e6f74207769746864726177207a604082015269195c9bc8185b5bdd5b9d60b21b606082015260800190565b60208082526026908201527f416464726573733a20696e73756666696369656e742062616c616e636520666f6040820152651c8818d85b1b60d21b606082015260800190565b60208082526025908201527f5665575446205374616b696e673a2043616e6e6f74206265207374616b6564206040820152643a37b5b2b760d91b606082015260800190565b6020808252603d908201527f5665575446205374616b696e673a20746865206163636f756e74206973206e6f60408201527f7420616c6c6f77656420746f207472616e736665722072657761726473000000606082015260800190565b6020808252601d908201527f5665575446205374616b696e673a204e6f7420617574686f72697a6564000000604082015260600190565b6020808252818101527f4f776e61626c653a2063616c6c6572206973206e6f7420746865206f776e6572604082015260600190565b60208082526025908201527f5665575446205374616b696e673a2043616e6e6f7420626520726577617264206040820152643a37b5b2b760d91b606082015260800190565b6020808252602c908201527f5665575446205374616b696e673a206e6f7420656e6f75676820746f6b656e7360408201526b20746f20776974686472617760a01b606082015260800190565b6020808252601d908201527f416464726573733a2063616c6c20746f206e6f6e2d636f6e7472616374000000604082015260600190565b6020808252602a908201527f5361666545524332303a204552433230206f7065726174696f6e20646964206e6040820152691bdd081cdd58d8d9595960b21b606082015260800190565b6020808252602e908201527f5665575446205374616b696e673a205374616b6520616d6f756e742073686f7560408201526d6c6420626520706f73697469766560901b606082015260800190565b6020808252601f908201527f5265656e7472616e637947756172643a207265656e7472616e742063616c6c00604082015260600190565b6020808252601b908201527f5665575446205374616b696e673a207a65726f20616464726573730000000000604082015260600190565b90815260200190565b918252602082015260400190565b60008219821115611438576114386114bf565b500190565b60008261145857634e487b7160e01b81526012600452602481fd5b500490565b6000816000190483118215151615611477576114776114bf565b500290565b60008282101561148e5761148e6114bf565b500390565b60005b838110156114ae578181015183820152602001611496565b83811115610ce45750506000910152565b634e487b7160e01b600052601160045260246000fdfea26469706673582212207453fdd5f3c60b5acc5d9ba553930166305bc37cc7a8764b600ab46a332ad73464736f6c63430008000033",
  "linkReferences": {},
  "deployedLinkReferences": {}
}