{
  "_format": "hh-sol-artifact-1",
  "contractName": "MasterWTF",
  "sourceName": "contracts/main/MasterWTF.sol",
  "abi": [
    {
      "inputs": [
        {
          "internalType": "address",
          "name": "_core",
          "type": "address"
        },
        {
          "internalType": "address",
          "name": "_rewardToken",
          "type": "address"
        },
        {
          "internalType": "uint256",
          "name": "_rewardPerBlock",
          "type": "uint256"
        },
        {
          "internalType": "uint256",
          "name": "_startBlock",
          "type": "uint256"
        },
        {
          "internalType": "uint256",
          "name": "_endBlock",
          "type": "uint256"
        },
        {
          "internalType": "uint256[]",
          "name": "_pools",
          "type": "uint256[]"
        },
        {
          "internalType": "address",
          "name": "_votingEscrow",
          "type": "address"
        }
      ],
      "stateMutability": "nonpayable",
      "type": "constructor"
    },
    {
      "anonymous": false,
      "inputs": [
        {
          "indexed": true,
          "internalType": "address",
          "name": "user",
          "type": "address"
        },
        {
          "indexed": false,
          "internalType": "uint256",
          "name": "pid",
          "type": "uint256"
        },
        {
          "indexed": false,
          "internalType": "uint256",
          "name": "amount",
          "type": "uint256"
        }
      ],
      "name": "Claim",
      "type": "event"
    },
    {
      "anonymous": false,
      "inputs": [
        {
          "indexed": true,
          "internalType": "address",
          "name": "user",
          "type": "address"
        },
        {
          "indexed": false,
          "internalType": "uint256",
          "name": "amount",
          "type": "uint256"
        }
      ],
      "name": "ClaimAll",
      "type": "event"
    },
    {
      "anonymous": false,
      "inputs": [
        {
          "indexed": true,
          "internalType": "address",
          "name": "_core",
          "type": "address"
        }
      ],
      "name": "CoreUpdate",
      "type": "event"
    },
    {
      "anonymous": false,
      "inputs": [
        {
          "indexed": false,
          "internalType": "address",
          "name": "account",
          "type": "address"
        }
      ],
      "name": "Paused",
      "type": "event"
    },
    {
      "anonymous": false,
      "inputs": [
        {
          "indexed": false,
          "internalType": "address",
          "name": "account",
          "type": "address"
        }
      ],
      "name": "Unpaused",
      "type": "event"
    },
    {
      "anonymous": false,
      "inputs": [
        {
          "indexed": false,
          "internalType": "uint256",
          "name": "rewardPerBlock",
          "type": "uint256"
        }
      ],
      "name": "UpdateEmissionRate",
      "type": "event"
    },
    {
      "inputs": [],
      "name": "MASTER_ROLE",
      "outputs": [
        {
          "internalType": "bytes32",
          "name": "",
          "type": "bytes32"
        }
      ],
      "stateMutability": "view",
      "type": "function"
    },
    {
      "inputs": [],
      "name": "TIMELOCK_ROLE",
      "outputs": [
        {
          "internalType": "bytes32",
          "name": "",
          "type": "bytes32"
        }
      ],
      "stateMutability": "view",
      "type": "function"
    },
    {
      "inputs": [
        {
          "internalType": "uint256",
          "name": "_allocPoint",
          "type": "uint256"
        }
      ],
      "name": "add",
      "outputs": [],
      "stateMutability": "nonpayable",
      "type": "function"
    },
    {
      "inputs": [
        {
          "internalType": "uint256",
          "name": "_pid",
          "type": "uint256"
        },
        {
          "internalType": "uint256",
          "name": "_lockDurationIfLockNotExists",
          "type": "uint256"
        },
        {
          "internalType": "uint256",
          "name": "_lockDurationIfLockExists",
          "type": "uint256"
        }
      ],
      "name": "claim",
      "outputs": [],
      "stateMutability": "nonpayable",
      "type": "function"
    },
    {
      "inputs": [
        {
          "internalType": "uint256",
          "name": "_lockDurationIfLockNotExists",
          "type": "uint256"
        },
        {
          "internalType": "uint256",
          "name": "_lockDurationIfLockExists",
          "type": "uint256"
        }
      ],
      "name": "claimAll",
      "outputs": [],
      "stateMutability": "nonpayable",
      "type": "function"
    },
    {
      "inputs": [],
      "name": "core",
      "outputs": [
        {
          "internalType": "contract ICore",
          "name": "",
          "type": "address"
        }
      ],
      "stateMutability": "view",
      "type": "function"
    },
    {
      "inputs": [],
      "name": "cycleId",
      "outputs": [
        {
          "internalType": "uint256",
          "name": "",
          "type": "uint256"
        }
      ],
      "stateMutability": "view",
      "type": "function"
    },
    {
      "inputs": [],
      "name": "endBlock",
      "outputs": [
        {
          "internalType": "uint256",
          "name": "",
          "type": "uint256"
        }
      ],
      "stateMutability": "view",
      "type": "function"
    },
    {
      "inputs": [
        {
          "internalType": "uint256",
          "name": "_from",
          "type": "uint256"
        },
        {
          "internalType": "uint256",
          "name": "_to",
          "type": "uint256"
        }
      ],
      "name": "getMultiplier",
      "outputs": [
        {
          "internalType": "uint256",
          "name": "",
          "type": "uint256"
        }
      ],
      "stateMutability": "view",
      "type": "function"
    },
    {
      "inputs": [],
      "name": "massUpdatePools",
      "outputs": [],
      "stateMutability": "nonpayable",
      "type": "function"
    },
    {
      "inputs": [
        {
          "internalType": "uint256",
          "name": "_cid",
          "type": "uint256"
        }
      ],
      "name": "next",
      "outputs": [],
      "stateMutability": "nonpayable",
      "type": "function"
    },
    {
      "inputs": [],
      "name": "pause",
      "outputs": [],
      "stateMutability": "nonpayable",
      "type": "function"
    },
    {
      "inputs": [],
      "name": "paused",
      "outputs": [
        {
          "internalType": "bool",
          "name": "",
          "type": "bool"
        }
      ],
      "stateMutability": "view",
      "type": "function"
    },
    {
      "inputs": [
        {
          "internalType": "address",
          "name": "_user",
          "type": "address"
        },
        {
          "internalType": "uint256",
          "name": "_pid",
          "type": "uint256"
        }
      ],
      "name": "pendingReward",
      "outputs": [
        {
          "internalType": "uint256",
          "name": "",
          "type": "uint256"
        }
      ],
      "stateMutability": "view",
      "type": "function"
    },
    {
      "inputs": [
        {
          "internalType": "uint256",
          "name": "",
          "type": "uint256"
        }
      ],
      "name": "poolInfo",
      "outputs": [
        {
          "internalType": "uint256",
          "name": "allocPoint",
          "type": "uint256"
        }
      ],
      "stateMutability": "view",
      "type": "function"
    },
    {
      "inputs": [],
      "name": "poolLength",
      "outputs": [
        {
          "internalType": "uint256",
          "name": "",
          "type": "uint256"
        }
      ],
      "stateMutability": "view",
      "type": "function"
    },
    {
      "inputs": [
        {
          "internalType": "uint256",
          "name": "",
          "type": "uint256"
        },
        {
          "internalType": "uint256",
          "name": "",
          "type": "uint256"
        }
      ],
      "name": "poolSnapshot",
      "outputs": [
        {
          "internalType": "uint256",
          "name": "totalSupply",
          "type": "uint256"
        },
        {
          "internalType": "uint256",
          "name": "lastRewardBlock",
          "type": "uint256"
        },
        {
          "internalType": "uint256",
          "name": "accRewardPerShare",
          "type": "uint256"
        }
      ],
      "stateMutability": "view",
      "type": "function"
    },
    {
      "inputs": [],
      "name": "rewardPerBlock",
      "outputs": [
        {
          "internalType": "uint256",
          "name": "",
          "type": "uint256"
        }
      ],
      "stateMutability": "view",
      "type": "function"
    },
    {
      "inputs": [],
      "name": "rewardToken",
      "outputs": [
        {
          "internalType": "address",
          "name": "",
          "type": "address"
        }
      ],
      "stateMutability": "view",
      "type": "function"
    },
    {
      "inputs": [],
      "name": "rewarding",
      "outputs": [
        {
          "internalType": "bool",
          "name": "",
          "type": "bool"
        }
      ],
      "stateMutability": "view",
      "type": "function"
    },
    {
      "inputs": [
        {
          "internalType": "uint256",
          "name": "_pid",
          "type": "uint256"
        },
        {
          "internalType": "uint256",
          "name": "_allocPoint",
          "type": "uint256"
        },
        {
          "internalType": "bool",
          "name": "_withUpdate",
          "type": "bool"
        }
      ],
      "name": "set",
      "outputs": [],
      "stateMutability": "nonpayable",
      "type": "function"
    },
    {
      "inputs": [
        {
          "internalType": "address",
          "name": "core_",
          "type": "address"
        }
      ],
      "name": "setCore",
      "outputs": [],
      "stateMutability": "nonpayable",
      "type": "function"
    },
    {
      "inputs": [
        {
          "internalType": "address",
          "name": "_votingEscrow",
          "type": "address"
        }
      ],
      "name": "setVotingEscrow",
      "outputs": [],
      "stateMutability": "nonpayable",
      "type": "function"
    },
    {
      "inputs": [
        {
          "internalType": "uint256",
          "name": "_endBlock",
          "type": "uint256"
        }
      ],
      "name": "start",
      "outputs": [],
      "stateMutability": "nonpayable",
      "type": "function"
    },
    {
      "inputs": [],
      "name": "startBlock",
      "outputs": [
        {
          "internalType": "uint256",
          "name": "",
          "type": "uint256"
        }
      ],
      "stateMutability": "view",
      "type": "function"
    },
    {
      "inputs": [],
      "name": "totalAllocPoint",
      "outputs": [
        {
          "internalType": "uint256",
          "name": "",
          "type": "uint256"
        }
      ],
      "stateMutability": "view",
      "type": "function"
    },
    {
      "inputs": [],
      "name": "unpause",
      "outputs": [],
      "stateMutability": "nonpayable",
      "type": "function"
    },
    {
      "inputs": [
        {
          "internalType": "uint256",
          "name": "_pid",
          "type": "uint256"
        }
      ],
      "name": "updatePool",
      "outputs": [],
      "stateMutability": "nonpayable",
      "type": "function"
    },
    {
      "inputs": [
        {
          "internalType": "uint256",
          "name": "_rewardPerBlock",
          "type": "uint256"
        }
      ],
      "name": "updateRewardPerBlock",
      "outputs": [],
      "stateMutability": "nonpayable",
      "type": "function"
    },
    {
      "inputs": [
        {
          "internalType": "uint256",
          "name": "_pid",
          "type": "uint256"
        },
        {
          "internalType": "address",
          "name": "_account",
          "type": "address"
        },
        {
          "internalType": "uint256",
          "name": "_amount",
          "type": "uint256"
        }
      ],
      "name": "updateStake",
      "outputs": [],
      "stateMutability": "nonpayable",
      "type": "function"
    },
    {
      "inputs": [
        {
          "internalType": "uint256",
          "name": "",
          "type": "uint256"
        },
        {
          "internalType": "address",
          "name": "",
          "type": "address"
        }
      ],
      "name": "userInfo",
      "outputs": [
        {
          "internalType": "uint256",
          "name": "amount",
          "type": "uint256"
        },
        {
          "internalType": "uint256",
          "name": "rewardDebt",
          "type": "uint256"
        },
        {
          "internalType": "uint256",
          "name": "cid",
          "type": "uint256"
        },
        {
          "internalType": "uint256",
          "name": "earned",
          "type": "uint256"
        }
      ],
      "stateMutability": "view",
      "type": "function"
    },
    {
      "inputs": [],
      "name": "votingEscrow",
      "outputs": [
        {
          "internalType": "address",
          "name": "",
          "type": "address"
        }
      ],
      "stateMutability": "view",
      "type": "function"
    }
  ],
  "bytecode": "0x6080604052600060058190556008556009805460ff191690553480156200002557600080fd5b50604051620033b3380380620033b3833981810160405260e08110156200004b57600080fd5b815160208301516040808501516060860151608087015160a0880180519451969895979396929591949293820192846401000000008211156200008d57600080fd5b908301906020820185811115620000a357600080fd5b8251866020820283011164010000000082111715620000c157600080fd5b82525081516020918201928201910280838360005b83811015620000f0578181015183820152602001620000d6565b505050509190910160405250602090810151600080546001600160a01b03808d16610100026001600160a81b03199092169190911790915560018055600380548b83166001600160a01b0319918216811790925560048b905560068a905560078990556002805484861692169190911790819055929550620001849450929116906000199062001fe96200021d821b17901c565b6000805b83518110156200020b57620001c0848281518110620001a357fe5b6020026020010151836200034160201b620021621790919060201c565b9150600a6040518060200160405280868481518110620001dc57fe5b602090810291909101810151909152825460018181018555600094855291909320915191909201550162000188565b50600555506200069095505050505050565b801580620002a7575060408051636eb1769f60e11b81523060048201526001600160a01b03848116602483015291519185169163dd62ed3e91604480820192602092909190829003018186803b1580156200027757600080fd5b505afa1580156200028c573d6000803e3d6000fd5b505050506040513d6020811015620002a357600080fd5b5051155b620002e45760405162461bcd60e51b81526004018080602001828103825260368152602001806200337d6036913960400191505060405180910390fd5b604080516001600160a01b038416602482015260448082018490528251808303909101815260649091019091526020810180516001600160e01b0390811663095ea7b360e01b179091526200033c918591620003a316565b505050565b6000828201838110156200039c576040805162461bcd60e51b815260206004820152601b60248201527f536166654d6174683a206164646974696f6e206f766572666c6f770000000000604482015290519081900360640190fd5b9392505050565b6060620003ff826040518060400160405280602081526020017f5361666545524332303a206c6f772d6c6576656c2063616c6c206661696c6564815250856001600160a01b03166200045f60201b620021bc179092919060201c565b8051909150156200033c578080602001905160208110156200042057600080fd5b50516200033c5760405162461bcd60e51b815260040180806020018281038252602a81526020018062003353602a913960400191505060405180910390fd5b606062000470848460008562000478565b949350505050565b606082471015620004bb5760405162461bcd60e51b81526004018080602001828103825260268152602001806200332d6026913960400191505060405180910390fd5b620004c685620005e0565b62000518576040805162461bcd60e51b815260206004820152601d60248201527f416464726573733a2063616c6c20746f206e6f6e2d636f6e7472616374000000604482015290519081900360640190fd5b60006060866001600160a01b031685876040518082805190602001908083835b60208310620005595780518252601f19909201916020918201910162000538565b6001836020036101000a03801982511681845116808217855250505050505090500191505060006040518083038185875af1925050503d8060008114620005bd576040519150601f19603f3d011682016040523d82523d6000602084013e620005c2565b606091505b509092509050620005d5828286620005e6565b979650505050505050565b3b151590565b60608315620005f75750816200039c565b825115620006085782518084602001fd5b8160405162461bcd60e51b81526004018080602001828103825283818151815260200191508051906020019080838360005b83811015620006545781810151838201526020016200063a565b50505050905090810190601f168015620006825780820380516001836020036101000a031916815260200191505b509250505060405180910390fd5b612c8d80620006a06000396000f3fe608060405234801561001057600080fd5b50600436106101f05760003560e01c806364482f791161010f578063ce5ec92e116100a2578063f288a2e211610071578063f288a2e21461053b578063f2f4eb2614610543578063f430cf0d1461054b578063f7c618c114610584576101f0565b8063ce5ec92e146104ba578063dc224863146104ed578063edd004e5146104f5578063efa9a9be14610512576101f0565b80638dbb1e3a116100de5780638dbb1e3a1461041357806393f1a40b1461043657806395805dad14610495578063be145d48146104b2576101f0565b806364482f79146103a557806380009630146103d05780638456cb59146104035780638ae39cac1461040b576101f0565b80633f4ba83a1161018757806351eb05a61161015657806351eb05a61461035c5780635c975abb1461037957806362e0accb14610395578063630b5ba11461039d576101f0565b80633f4ba83a146102f8578063469d79d01461030057806348cd4cb1146103235780634f2bfe5b1461032b576101f0565b80631526fe27116101c35780631526fe271461025357806315c2fdc91461027057806317caf6f1146102af5780633d42eb6c146102b7576101f0565b806301f8a976146101f5578063081e3eda14610214578063083c63231461022e5780631003e2d214610236575b600080fd5b6102126004803603602081101561020b57600080fd5b503561058c565b005b61021c6106d1565b60408051918252519081900360200190f35b61021c6106d7565b6102126004803603602081101561024c57600080fd5b50356106dd565b61021c6004803603602081101561026957600080fd5b5035610810565b6102126004803603606081101561028657600080fd5b5080359073ffffffffffffffffffffffffffffffffffffffff602082013516906040013561082e565b61021c610b5e565b6102da600480360360408110156102cd57600080fd5b5080359060200135610b64565b60408051938452602084019290925282820152519081900360600190f35b610212610b90565b6102126004803603604081101561031657600080fd5b5080359060200135610d1e565b61021c610e70565b610333610e76565b6040805173ffffffffffffffffffffffffffffffffffffffff9092168252519081900360200190f35b6102126004803603602081101561037257600080fd5b5035610e92565b610381611002565b604080519115158252519081900360200190f35b61021c61100b565b610212611011565b610212600480360360608110156103bb57600080fd5b50803590602081013590604001351515611030565b610212600480360360208110156103e657600080fd5b503573ffffffffffffffffffffffffffffffffffffffff166111fc565b61021261134c565b61021c6114d8565b61021c6004803603604081101561042957600080fd5b50803590602001356114de565b61046f6004803603604081101561044c57600080fd5b508035906020013573ffffffffffffffffffffffffffffffffffffffff166114f3565b604080519485526020850193909352838301919091526060830152519081900360800190f35b610212600480360360208110156104ab57600080fd5b5035611525565b6103816117bb565b610212600480360360208110156104d057600080fd5b503573ffffffffffffffffffffffffffffffffffffffff166117c4565b61021c6119d4565b6102126004803603602081101561050b57600080fd5b50356119f8565b6102126004803603606081101561052857600080fd5b5080359060208101359060400135611cb0565b61021c611de4565b610333611e08565b61021c6004803603604081101561056157600080fd5b5073ffffffffffffffffffffffffffffffffffffffff8135169060200135611e29565b610333611fcd565b600054604080517f91d148540000000000000000000000000000000000000000000000000000000081527ff66846415d2bf9eabda9e84793ff9c0ea96d87f50fc41e66aa16469c6a442f056004820152336024820152905161010090920473ffffffffffffffffffffffffffffffffffffffff16916391d1485491604480820192602092909190829003018186803b15801561062757600080fd5b505afa15801561063b573d6000803e3d6000fd5b505050506040513d602081101561065157600080fd5b505161068e5760405162461bcd60e51b815260040180806020018281038252602f815260200180612bc9602f913960400191505060405180910390fd5b610696611011565b60048190556040805182815290517f232bc60e54c3a684fb69d1cde365a10c51105f4f8ba47a6cd0c5435192010a9c9181900360200190a150565b600a5490565b60075481565b600054604080517fe43581b8000000000000000000000000000000000000000000000000000000008152336004820152905161010090920473ffffffffffffffffffffffffffffffffffffffff169163e43581b891602480820192602092909190829003018186803b15801561075257600080fd5b505afa158015610766573d6000803e3d6000fd5b505050506040513d602081101561077c57600080fd5b50516107b95760405162461bcd60e51b815260040180806020018281038252602f815260200180612ae7602f913960400191505060405180910390fd5b6005546107c69082612162565b6005556040805160208101909152908152600a805460018101825560009190915290517fc65a7bb8d6351c1cf70c95a316cc6a92839c986682d98bc35f958f4883f9d2a890910155565b600a818154811061081d57fe5b600091825260209091200154905081565b600054604080517f91d148540000000000000000000000000000000000000000000000000000000081527f8b8c0776df2c2176edf6f82391c35ea4891146d7a976ee36fd07f1a6fb4ead4c6004820181905233602483015291519192610100900473ffffffffffffffffffffffffffffffffffffffff16916391d1485491604480820192602092909190829003018186803b1580156108cc57600080fd5b505afa1580156108e0573d6000803e3d6000fd5b505050506040513d60208110156108f657600080fd5b5051610949576040805162461bcd60e51b815260206004820152601d60248201527f436f72655265663a3a6f6e6c79526f6c653a204e6f74207065726d6974000000604482015290519081900360640190fd5b600a54849081106109a1576040805162461bcd60e51b815260206004820152601660248201527f76616c69646174655069643a204e6f7420657869737400000000000000000000604482015290519081900360640190fd5b600260015414156109f9576040805162461bcd60e51b815260206004820152601f60248201527f5265656e7472616e637947756172643a207265656e7472616e742063616c6c00604482015290519081900360640190fd5b600260018190556000868152600b6020908152604080832073ffffffffffffffffffffffffffffffffffffffff891684528252808320938401548352600c82528083208984529091529020610a4d87610e92565b6000610a878360010154610a8164e8d4a51000610a7b866002015488600001546121d590919063ffffffff16565b9061222e565b90612295565b90508015610aa4576003830154610a9e9082612162565b60038401555b82600201546008541415610af55782548254610acb918891610ac591612295565b90612162565b82558583556002820154610aeb9064e8d4a5100090610a7b9089906121d5565b6001840155610b50565b6008546000908152600c602090815260408083208b845290915290208054909250610b209087612162565b8255858355600854600280850191909155820154610b4a9064e8d4a5100090610a7b9089906121d5565b60018401555b505060018055505050505050565b60055481565b600c60209081526000928352604080842090915290825290208054600182015460029092015490919083565b600054604080517fe43581b8000000000000000000000000000000000000000000000000000000008152336004820152905161010090920473ffffffffffffffffffffffffffffffffffffffff169163e43581b891602480820192602092909190829003018186803b158015610c0557600080fd5b505afa158015610c19573d6000803e3d6000fd5b505050506040513d6020811015610c2f57600080fd5b505180610cd95750600054604080517f0c68ba21000000000000000000000000000000000000000000000000000000008152336004820152905161010090920473ffffffffffffffffffffffffffffffffffffffff1691630c68ba2191602480820192602092909190829003018186803b158015610cac57600080fd5b505afa158015610cc0573d6000803e3d6000fd5b505050506040513d6020811015610cd657600080fd5b50515b610d145760405162461bcd60e51b8152600401808060200182810382526045815260200180612b846045913960600191505060405180910390fd5b610d1c6122f2565b565b60026001541415610d76576040805162461bcd60e51b815260206004820152601f60248201527f5265656e7472616e637947756172643a207265656e7472616e742063616c6c00604482015290519081900360640190fd5b60026001556000805b600a54811015610e54576000818152600b6020908152604080832033845282528083206002810154808552600c8452828520868652909352922060085490911415610dcd57610dcd83610e92565b600382015415610df1576003820154610de7908590612162565b6000600384015593505b610e2184610ac58460010154610a8164e8d4a51000610a7b876002015489600001546121d590919063ffffffff16565b9350610e4764e8d4a51000610a7b836002015485600001546121d590919063ffffffff16565b6001928301555001610d7f565b508015610e6757610e67338285856123c6565b50506001805550565b60065481565b60025473ffffffffffffffffffffffffffffffffffffffff1681565b600a5481908110610eea576040805162461bcd60e51b815260206004820152601660248201527f76616c69646174655069643a204e6f7420657869737400000000000000000000604482015290519081900360640190fd5b60095460ff16610ef957610ffe565b6000600a8381548110610f0857fe5b600091825260208083206008548452600c82526040808520888652909252922060018101549190920192504311610f40575050610ffe565b600754816001015410610f54575050610ffe565b6000600754431015610f665743610f6a565b6007545b82549091501580610f7a57508254155b15610f8b5760019091015550610ffe565b6000610f9b8360010154436114de565b90506000610fc8600554610a7b8760000154610fc2600454876121d590919063ffffffff16565b906121d5565b8454909150610fef90610fe490610a7b8464e8d4a510006121d5565b600286015490612162565b60028501555050600190910155505b5050565b60005460ff1690565b60085481565b600a5460005b81811015610ffe5761102881610e92565b600101611017565b600054604080517f91d148540000000000000000000000000000000000000000000000000000000081527ff66846415d2bf9eabda9e84793ff9c0ea96d87f50fc41e66aa16469c6a442f056004820152336024820152905161010090920473ffffffffffffffffffffffffffffffffffffffff16916391d1485491604480820192602092909190829003018186803b1580156110cb57600080fd5b505afa1580156110df573d6000803e3d6000fd5b505050506040513d60208110156110f557600080fd5b50516111325760405162461bcd60e51b815260040180806020018281038252602f815260200180612bc9602f913960400191505060405180910390fd5b600a548390811061118a576040805162461bcd60e51b815260206004820152601660248201527f76616c69646174655069643a204e6f7420657869737400000000000000000000604482015290519081900360640190fd5b811561119857611198611011565b6000600a85815481106111a757fe5b9060005260206000200160000154905083600a86815481106111c557fe5b6000918252602090912001558084146111f5576111f184610ac58360055461229590919063ffffffff16565b6005555b5050505050565b600054604080517fe43581b8000000000000000000000000000000000000000000000000000000008152336004820152905161010090920473ffffffffffffffffffffffffffffffffffffffff169163e43581b891602480820192602092909190829003018186803b15801561127157600080fd5b505afa158015611285573d6000803e3d6000fd5b505050506040513d602081101561129b57600080fd5b50516112d85760405162461bcd60e51b815260040180806020018281038252602f815260200180612ae7602f913960400191505060405180910390fd5b600080547fffffffffffffffffffffff0000000000000000000000000000000000000000ff1661010073ffffffffffffffffffffffffffffffffffffffff841690810291909117825560405190917fad9400e618eb1344fde53db22397a1b82c765527ecbba3a5c86bcac15090828b91a250565b600054604080517fe43581b8000000000000000000000000000000000000000000000000000000008152336004820152905161010090920473ffffffffffffffffffffffffffffffffffffffff169163e43581b891602480820192602092909190829003018186803b1580156113c157600080fd5b505afa1580156113d5573d6000803e3d6000fd5b505050506040513d60208110156113eb57600080fd5b5051806114955750600054604080517f0c68ba21000000000000000000000000000000000000000000000000000000008152336004820152905161010090920473ffffffffffffffffffffffffffffffffffffffff1691630c68ba2191602480820192602092909190829003018186803b15801561146857600080fd5b505afa15801561147c573d6000803e3d6000fd5b505050506040513d602081101561149257600080fd5b50515b6114d05760405162461bcd60e51b8152600401808060200182810382526045815260200180612b846045913960600191505060405180910390fd5b610d1c612745565b60045481565b60006114ea8284612295565b90505b92915050565b600b60209081526000928352604080842090915290825290208054600182015460028301546003909301549192909184565b600054604080517f91d148540000000000000000000000000000000000000000000000000000000081527f8b8c0776df2c2176edf6f82391c35ea4891146d7a976ee36fd07f1a6fb4ead4c6004820181905233602483015291519192610100900473ffffffffffffffffffffffffffffffffffffffff16916391d1485491604480820192602092909190829003018186803b1580156115c357600080fd5b505afa1580156115d7573d6000803e3d6000fd5b505050506040513d60208110156115ed57600080fd5b5051611640576040805162461bcd60e51b815260206004820152601d60248201527f436f72655265663a3a6f6e6c79526f6c653a204e6f74207065726d6974000000604482015290519081900360640190fd5b60026001541415611698576040805162461bcd60e51b815260206004820152601f60248201527f5265656e7472616e637947756172643a207265656e7472616e742063616c6c00604482015290519081900360640190fd5b600260015560095460ff16156116f5576040805162461bcd60e51b815260206004820152601460248201527f6379636c6520616c726561647920616374697665000000000000000000000000604482015290519081900360640190fd5b438211611749576040805162461bcd60e51b815260206004820152600d60248201527f656e64426c6f636b206c65737300000000000000000000000000000000000000604482015290519081900360640190fd5b600980547fffffffffffffffffffffffffffffffffffffffffffffffffffffffffffffff00166001179055600782905560005b600a54811015610e67576008546000908152600c602090815260408083208484529091528120436001808301919091556002909101919091550161177c565b60095460ff1681565b600054604080517f91d148540000000000000000000000000000000000000000000000000000000081527ff66846415d2bf9eabda9e84793ff9c0ea96d87f50fc41e66aa16469c6a442f056004820152336024820152905161010090920473ffffffffffffffffffffffffffffffffffffffff16916391d1485491604480820192602092909190829003018186803b15801561185f57600080fd5b505afa158015611873573d6000803e3d6000fd5b505050506040513d602081101561188957600080fd5b50516118c65760405162461bcd60e51b815260040180806020018281038252602f815260200180612bc9602f913960400191505060405180910390fd5b73ffffffffffffffffffffffffffffffffffffffff811661192e576040805162461bcd60e51b815260206004820152600c60248201527f5a65726f20616464726573730000000000000000000000000000000000000000604482015290519081900360640190fd5b6002546003546119599173ffffffffffffffffffffffffffffffffffffffff91821691166000611fe9565b600280547fffffffffffffffffffffffff00000000000000000000000000000000000000001673ffffffffffffffffffffffffffffffffffffffff83811691909117918290556003546119d19290821691167fffffffffffffffffffffffffffffffffffffffffffffffffffffffffffffffff611fe9565b50565b7f8b8c0776df2c2176edf6f82391c35ea4891146d7a976ee36fd07f1a6fb4ead4c81565b600054604080517f91d148540000000000000000000000000000000000000000000000000000000081527f8b8c0776df2c2176edf6f82391c35ea4891146d7a976ee36fd07f1a6fb4ead4c6004820181905233602483015291519192610100900473ffffffffffffffffffffffffffffffffffffffff16916391d1485491604480820192602092909190829003018186803b158015611a9657600080fd5b505afa158015611aaa573d6000803e3d6000fd5b505050506040513d6020811015611ac057600080fd5b5051611b13576040805162461bcd60e51b815260206004820152601d60248201527f436f72655265663a3a6f6e6c79526f6c653a204e6f74207065726d6974000000604482015290519081900360640190fd5b60026001541415611b6b576040805162461bcd60e51b815260206004820152601f60248201527f5265656e7472616e637947756172643a207265656e7472616e742063616c6c00604482015290519081900360640190fd5b600260015560095460ff16611bc7576040805162461bcd60e51b815260206004820152601060248201527f6379636c65206e6f742061637469766500000000000000000000000000000000604482015290519081900360640190fd5b600754431015611c1e576040805162461bcd60e51b815260206004820152601160248201527f6379636c65206e6f742065787069726564000000000000000000000000000000604482015290519081900360640190fd5b611c26611011565b600980547fffffffffffffffffffffffffffffffffffffffffffffffffffffffffffffff00169055600882905560005b600a54811015610e675760408051606081018252600080825260208083018281528385018381526008548452600c835285842087855290925293909120915182559151600180830191909155915160029091015501611c56565b60026001541415611d08576040805162461bcd60e51b815260206004820152601f60248201527f5265656e7472616e637947756172643a207265656e7472616e742063616c6c00604482015290519081900360640190fd5b600260018190556000848152600b60209081526040808320338452825280832093840154808452600c8352818420888552909252822060085492939290911415611d5557611d5586610e92565b611d818260010154610a8164e8d4a51000610a7b856002015487600001546121d590919063ffffffff16565b600383015490935015611da8576003820154611d9e908490612162565b6000600384015592505b8215611dba57611dba338487876123c6565b60028101548254611dd59164e8d4a5100091610a7b916121d5565b60019283015550805550505050565b7ff66846415d2bf9eabda9e84793ff9c0ea96d87f50fc41e66aa16469c6a442f0581565b600054610100900473ffffffffffffffffffffffffffffffffffffffff1690565b600a5460009082908110611e84576040805162461bcd60e51b815260206004820152601660248201527f76616c69646174655069643a204e6f7420657869737400000000000000000000604482015290519081900360640190fd5b6000600a8481548110611e9357fe5b60009182526020808320878452600b8252604080852073ffffffffffffffffffffffffffffffffffffffff8b1686528352808520600280820154808852600c86528388208c895290955291909520908101546008549290940195509291148015611eff575060095460ff165b8015611f0e5750816001015443115b8015611f1a5750815415155b15611f91576000611f428360010154600754431015611f395743611f3d565b6007545b6114de565b90506000611f69600554610a7b8860000154610fc2600454876121d590919063ffffffff16565b8454909150611f8c90611f8590610a7b8464e8d4a510006121d5565b8490612162565b925050505b611fc18360030154610ac58560010154610a8164e8d4a51000610a7b878a600001546121d590919063ffffffff16565b98975050505050505050565b60035473ffffffffffffffffffffffffffffffffffffffff1681565b8015806120955750604080517fdd62ed3e00000000000000000000000000000000000000000000000000000000815230600482015273ffffffffffffffffffffffffffffffffffffffff848116602483015291519185169163dd62ed3e91604480820192602092909190829003018186803b15801561206757600080fd5b505afa15801561207b573d6000803e3d6000fd5b505050506040513d602081101561209157600080fd5b5051155b6120d05760405162461bcd60e51b8152600401808060200182810382526036815260200180612c226036913960400191505060405180910390fd5b6040805173ffffffffffffffffffffffffffffffffffffffff8416602482015260448082018490528251808303909101815260649091019091526020810180517bffffffffffffffffffffffffffffffffffffffffffffffffffffffff167f095ea7b30000000000000000000000000000000000000000000000000000000017905261215d9084906127f3565b505050565b6000828201838110156114ea576040805162461bcd60e51b815260206004820152601b60248201527f536166654d6174683a206164646974696f6e206f766572666c6f770000000000604482015290519081900360640190fd5b60606121cb84846000856128b1565b90505b9392505050565b6000826121e4575060006114ed565b828202828482816121f157fe5b04146114ea5760405162461bcd60e51b8152600401808060200182810382526021815260200180612b636021913960400191505060405180910390fd5b6000808211612284576040805162461bcd60e51b815260206004820152601a60248201527f536166654d6174683a206469766973696f6e206279207a65726f000000000000604482015290519081900360640190fd5b81838161228d57fe5b049392505050565b6000828211156122ec576040805162461bcd60e51b815260206004820152601e60248201527f536166654d6174683a207375627472616374696f6e206f766572666c6f770000604482015290519081900360640190fd5b50900390565b6122fa611002565b61234b576040805162461bcd60e51b815260206004820152601460248201527f5061757361626c653a206e6f7420706175736564000000000000000000000000604482015290519081900360640190fd5b600080547fffffffffffffffffffffffffffffffffffffffffffffffffffffffffffffff001690557f5db9ee0a495bf2e6ff9c91a7834c1ba4fdd244a5e8aa4e537bd38aeae4b073aa61239c612a38565b6040805173ffffffffffffffffffffffffffffffffffffffff9092168252519081900360200190a1565b6000831161241b576040805162461bcd60e51b815260206004820152601260248201527f57544620526577617264206973207a65726f0000000000000000000000000000604482015290519081900360640190fd5b600254604080517f929ec53700000000000000000000000000000000000000000000000000000000815273ffffffffffffffffffffffffffffffffffffffff87811660048301529151600093929092169163929ec53791602480820192602092909190829003018186803b15801561249257600080fd5b505afa1580156124a6573d6000803e3d6000fd5b505050506040513d60208110156124bc57600080fd5b50519050806125b9576000831161251a576040805162461bcd60e51b815260206004820152601b60248201527f4c6f636b206475726174696f6e2063616e2774206265207a65726f0000000000604482015290519081900360640190fd5b600254604080517f29b55ca700000000000000000000000000000000000000000000000000000000815273ffffffffffffffffffffffffffffffffffffffff88811660048301526024820188905260448201879052915191909216916329b55ca791606480830192600092919082900301818387803b15801561259c57600080fd5b505af11580156125b0573d6000803e3d6000fd5b505050506111f5565b600254604080517fb9d5083200000000000000000000000000000000000000000000000000000000815273ffffffffffffffffffffffffffffffffffffffff88811660048301529151600093929092169163b9d5083291602480820192602092909190829003018186803b15801561263057600080fd5b505afa158015612644573d6000803e3d6000fd5b505050506040513d602081101561265a57600080fd5b5051905080156126a357600083116126a35760405162461bcd60e51b8152600401808060200182810382526027815260200180612b3c6027913960400191505060405180910390fd5b600254604080517fff5f200a00000000000000000000000000000000000000000000000000000000815273ffffffffffffffffffffffffffffffffffffffff898116600483015260248201899052604482018790529151919092169163ff5f200a91606480830192600092919082900301818387803b15801561272557600080fd5b505af1158015612739573d6000803e3d6000fd5b50505050505050505050565b61274d611002565b1561279f576040805162461bcd60e51b815260206004820152601060248201527f5061757361626c653a2070617573656400000000000000000000000000000000604482015290519081900360640190fd5b600080547fffffffffffffffffffffffffffffffffffffffffffffffffffffffffffffff001660011790557f62e78cea01bee320cd4e420270b5ea74000d11b0c9f74754ebdbfc544b05a25861239c612a38565b6060612855826040518060400160405280602081526020017f5361666545524332303a206c6f772d6c6576656c2063616c6c206661696c65648152508573ffffffffffffffffffffffffffffffffffffffff166121bc9092919063ffffffff16565b80519091501561215d5780806020019051602081101561287457600080fd5b505161215d5760405162461bcd60e51b815260040180806020018281038252602a815260200180612bf8602a913960400191505060405180910390fd5b6060824710156128f25760405162461bcd60e51b8152600401808060200182810382526026815260200180612b166026913960400191505060405180910390fd5b6128fb85612a3c565b61294c576040805162461bcd60e51b815260206004820152601d60248201527f416464726573733a2063616c6c20746f206e6f6e2d636f6e7472616374000000604482015290519081900360640190fd5b600060608673ffffffffffffffffffffffffffffffffffffffff1685876040518082805190602001908083835b602083106129b657805182527fffffffffffffffffffffffffffffffffffffffffffffffffffffffffffffffe09092019160209182019101612979565b6001836020036101000a03801982511681845116808217855250505050505090500191505060006040518083038185875af1925050503d8060008114612a18576040519150601f19603f3d011682016040523d82523d6000602084013e612a1d565b606091505b5091509150612a2d828286612a42565b979650505050505050565b3390565b3b151590565b60608315612a515750816121ce565b825115612a615782518084602001fd5b8160405162461bcd60e51b81526004018080602001828103825283818151815260200191508051906020019080838360005b83811015612aab578181015183820152602001612a93565b50505050905090810190601f168015612ad85780820380516001836020036101000a031916815260200191505b509250505060405180910390fdfe436f72655265663a3a6f6e6c79476f7665726e6f723a2043616c6c6572206973206e6f74206120676f7665726e6f72416464726573733a20696e73756666696369656e742062616c616e636520666f722063616c6c4e6577206c6f636b206578706972792074696d657374616d702063616e2774206265207a65726f536166654d6174683a206d756c7469706c69636174696f6e206f766572666c6f77436f72655265663a3a6f6e6c79477561726469616e4f72476f7665726e6f723a2043616c6c6572206973206e6f74206120677561726469616e206f7220676f7665726e6f72436f72655265663a3a6f6e6c7954696d656c6f636b3a2043616c6c6572206973206e6f7420612074696d656c6f636b5361666545524332303a204552433230206f7065726174696f6e20646964206e6f7420737563636565645361666545524332303a20617070726f76652066726f6d206e6f6e2d7a65726f20746f206e6f6e2d7a65726f20616c6c6f77616e6365a2646970667358221220340199bf5c409592e442cca24ea73d303854728a7d13e08e7a80f4ea89f0703864736f6c634300060c0033416464726573733a20696e73756666696369656e742062616c616e636520666f722063616c6c5361666545524332303a204552433230206f7065726174696f6e20646964206e6f7420737563636565645361666545524332303a20617070726f76652066726f6d206e6f6e2d7a65726f20746f206e6f6e2d7a65726f20616c6c6f77616e6365",
  "linkReferences": {},
  "deployedLinkReferences": {}
}