{
  "_format": "hh-sol-artifact-1",
  "contractName": "MasterChef",
  "sourceName": "contracts/main/MasterChef.sol",
  "abi": [
    {
      "inputs": [
        {
          "internalType": "address",
          "name": "_core",
          "type": "address"
        },
        {
          "internalType": "address",
          "name": "_rewardToken",
          "type": "address"
        },
        {
          "internalType": "uint256",
          "name": "_rewardPerBlock",
          "type": "uint256"
        },
        {
          "internalType": "uint256",
          "name": "_startBlock",
          "type": "uint256"
        },
        {
          "internalType": "uint256",
          "name": "_endBlock",
          "type": "uint256"
        }
      ],
      "stateMutability": "nonpayable",
      "type": "constructor"
    },
    {
      "anonymous": false,
      "inputs": [
        {
          "indexed": true,
          "internalType": "address",
          "name": "_core",
          "type": "address"
        }
      ],
      "name": "CoreUpdate",
      "type": "event"
    },
    {
      "anonymous": false,
      "inputs": [
        {
          "indexed": true,
          "internalType": "address",
          "name": "previousOwner",
          "type": "address"
        },
        {
          "indexed": true,
          "internalType": "address",
          "name": "newOwner",
          "type": "address"
        }
      ],
      "name": "OwnershipTransferred",
      "type": "event"
    },
    {
      "anonymous": false,
      "inputs": [
        {
          "indexed": false,
          "internalType": "address",
          "name": "account",
          "type": "address"
        }
      ],
      "name": "Paused",
      "type": "event"
    },
    {
      "anonymous": false,
      "inputs": [
        {
          "indexed": false,
          "internalType": "address",
          "name": "account",
          "type": "address"
        }
      ],
      "name": "Unpaused",
      "type": "event"
    },
    {
      "anonymous": false,
      "inputs": [
        {
          "indexed": true,
          "internalType": "address",
          "name": "user",
          "type": "address"
        },
        {
          "indexed": false,
          "internalType": "uint256",
          "name": "endBlock",
          "type": "uint256"
        }
      ],
      "name": "UpdateEndBlock",
      "type": "event"
    },
    {
      "inputs": [],
      "name": "BONUS_MULTIPLIER",
      "outputs": [
        {
          "internalType": "uint256",
          "name": "",
          "type": "uint256"
        }
      ],
      "stateMutability": "view",
      "type": "function"
    },
    {
      "inputs": [
        {
          "internalType": "uint256",
          "name": "_allocPoint",
          "type": "uint256"
        },
        {
          "internalType": "bool",
          "name": "_withUpdate",
          "type": "bool"
        }
      ],
      "name": "add",
      "outputs": [],
      "stateMutability": "nonpayable",
      "type": "function"
    },
    {
      "inputs": [],
      "name": "claim",
      "outputs": [],
      "stateMutability": "nonpayable",
      "type": "function"
    },
    {
      "inputs": [],
      "name": "core",
      "outputs": [
        {
          "internalType": "contract ICore",
          "name": "",
          "type": "address"
        }
      ],
      "stateMutability": "view",
      "type": "function"
    },
    {
      "inputs": [],
      "name": "endBlock",
      "outputs": [
        {
          "internalType": "uint256",
          "name": "",
          "type": "uint256"
        }
      ],
      "stateMutability": "view",
      "type": "function"
    },
    {
      "inputs": [
        {
          "internalType": "uint256",
          "name": "_from",
          "type": "uint256"
        },
        {
          "internalType": "uint256",
          "name": "_to",
          "type": "uint256"
        }
      ],
      "name": "getMultiplier",
      "outputs": [
        {
          "internalType": "uint256",
          "name": "",
          "type": "uint256"
        }
      ],
      "stateMutability": "view",
      "type": "function"
    },
    {
      "inputs": [],
      "name": "massUpdatePools",
      "outputs": [],
      "stateMutability": "nonpayable",
      "type": "function"
    },
    {
      "inputs": [],
      "name": "owner",
      "outputs": [
        {
          "internalType": "address",
          "name": "",
          "type": "address"
        }
      ],
      "stateMutability": "view",
      "type": "function"
    },
    {
      "inputs": [],
      "name": "pause",
      "outputs": [],
      "stateMutability": "nonpayable",
      "type": "function"
    },
    {
      "inputs": [],
      "name": "paused",
      "outputs": [
        {
          "internalType": "bool",
          "name": "",
          "type": "bool"
        }
      ],
      "stateMutability": "view",
      "type": "function"
    },
    {
      "inputs": [
        {
          "internalType": "address",
          "name": "_user",
          "type": "address"
        }
      ],
      "name": "pendingReward",
      "outputs": [
        {
          "internalType": "uint256",
          "name": "pending",
          "type": "uint256"
        }
      ],
      "stateMutability": "view",
      "type": "function"
    },
    {
      "inputs": [
        {
          "internalType": "uint256",
          "name": "",
          "type": "uint256"
        }
      ],
      "name": "poolInfo",
      "outputs": [
        {
          "internalType": "uint256",
          "name": "totalSupply",
          "type": "uint256"
        },
        {
          "internalType": "uint256",
          "name": "allocPoint",
          "type": "uint256"
        },
        {
          "internalType": "uint256",
          "name": "lastRewardBlock",
          "type": "uint256"
        },
        {
          "internalType": "uint256",
          "name": "accRewardPerShare",
          "type": "uint256"
        }
      ],
      "stateMutability": "view",
      "type": "function"
    },
    {
      "inputs": [],
      "name": "poolLength",
      "outputs": [
        {
          "internalType": "uint256",
          "name": "",
          "type": "uint256"
        }
      ],
      "stateMutability": "view",
      "type": "function"
    },
    {
      "inputs": [],
      "name": "renounceOwnership",
      "outputs": [],
      "stateMutability": "nonpayable",
      "type": "function"
    },
    {
      "inputs": [],
      "name": "rewardPerBlock",
      "outputs": [
        {
          "internalType": "uint256",
          "name": "",
          "type": "uint256"
        }
      ],
      "stateMutability": "view",
      "type": "function"
    },
    {
      "inputs": [],
      "name": "rewardToken",
      "outputs": [
        {
          "internalType": "address",
          "name": "",
          "type": "address"
        }
      ],
      "stateMutability": "view",
      "type": "function"
    },
    {
      "inputs": [
        {
          "internalType": "uint256",
          "name": "_pid",
          "type": "uint256"
        },
        {
          "internalType": "uint256",
          "name": "_allocPoint",
          "type": "uint256"
        },
        {
          "internalType": "bool",
          "name": "_withUpdate",
          "type": "bool"
        }
      ],
      "name": "set",
      "outputs": [],
      "stateMutability": "nonpayable",
      "type": "function"
    },
    {
      "inputs": [
        {
          "internalType": "address",
          "name": "core_",
          "type": "address"
        }
      ],
      "name": "setCore",
      "outputs": [],
      "stateMutability": "nonpayable",
      "type": "function"
    },
    {
      "inputs": [],
      "name": "startBlock",
      "outputs": [
        {
          "internalType": "uint256",
          "name": "",
          "type": "uint256"
        }
      ],
      "stateMutability": "view",
      "type": "function"
    },
    {
      "inputs": [],
      "name": "totalAllocPoint",
      "outputs": [
        {
          "internalType": "uint256",
          "name": "",
          "type": "uint256"
        }
      ],
      "stateMutability": "view",
      "type": "function"
    },
    {
      "inputs": [
        {
          "internalType": "address",
          "name": "newOwner",
          "type": "address"
        }
      ],
      "name": "transferOwnership",
      "outputs": [],
      "stateMutability": "nonpayable",
      "type": "function"
    },
    {
      "inputs": [],
      "name": "unpause",
      "outputs": [],
      "stateMutability": "nonpayable",
      "type": "function"
    },
    {
      "inputs": [
        {
          "internalType": "uint256",
          "name": "_endBlock",
          "type": "uint256"
        }
      ],
      "name": "updateEndBlock",
      "outputs": [],
      "stateMutability": "nonpayable",
      "type": "function"
    },
    {
      "inputs": [
        {
          "internalType": "uint256",
          "name": "multiplierNumber",
          "type": "uint256"
        }
      ],
      "name": "updateMultiplier",
      "outputs": [],
      "stateMutability": "nonpayable",
      "type": "function"
    },
    {
      "inputs": [
        {
          "internalType": "uint256",
          "name": "_pid",
          "type": "uint256"
        }
      ],
      "name": "updatePool",
      "outputs": [],
      "stateMutability": "nonpayable",
      "type": "function"
    },
    {
      "inputs": [
        {
          "internalType": "uint256",
          "name": "_pid",
          "type": "uint256"
        },
        {
          "internalType": "address",
          "name": "_account",
          "type": "address"
        },
        {
          "internalType": "uint256",
          "name": "_amount",
          "type": "uint256"
        }
      ],
      "name": "updateStake",
      "outputs": [],
      "stateMutability": "nonpayable",
      "type": "function"
    },
    {
      "inputs": [
        {
          "internalType": "uint256",
          "name": "_rewardPerBlock",
          "type": "uint256"
        }
      ],
      "name": "updaterewardPerBlock",
      "outputs": [],
      "stateMutability": "nonpayable",
      "type": "function"
    },
    {
      "inputs": [
        {
          "internalType": "uint256",
          "name": "",
          "type": "uint256"
        },
        {
          "internalType": "address",
          "name": "",
          "type": "address"
        }
      ],
      "name": "userInfo",
      "outputs": [
        {
          "internalType": "uint256",
          "name": "amount",
          "type": "uint256"
        },
        {
          "internalType": "uint256",
          "name": "rewardDebt",
          "type": "uint256"
        }
      ],
      "stateMutability": "view",
      "type": "function"
    }
  ],
  "bytecode": "0x60806040526001600555600060085534801561001a57600080fd5b506040516122a63803806122a6833981810160405260a081101561003d57600080fd5b50805160208201516040830151606084015160809094015192939192909190846000610067610105565b600080546001600160a01b0319166001600160a01b0383169081178255604051929350917f8be0079c531659141344cd1fd0a4f28419497f9722a3daafe3b4186f6b6457e0908290a3506000805460ff60a01b19169055600180546001600160a01b039283166001600160a01b03199182161782556002919091556003805496909216951694909417909355600491909155600955600a5550610109565b3390565b61218e806101186000396000f3fe608060405234801561001057600080fd5b50600436106101c35760003560e01c806364482f79116100f95780638dbb1e3a11610097578063f2f4eb2611610071578063f2f4eb261461046f578063f2fde38b14610477578063f40f0f52146104aa578063f7c618c1146104dd576101c3565b80638dbb1e3a146103d557806393f1a40b146103f8578063a7d4ed1f1461044a576101c3565b80638456cb59116100d35780638456cb591461038c5780638aa28550146103945780638ae39cac1461039c5780638da5cb5b146103a4576101c3565b806364482f7914610326578063715018a6146103515780638000963014610359576101c3565b806348cd4cb11161016657806354f274cc1161014057806354f274cc146102c85780635c975abb146102e55780635ffe614614610301578063630b5ba11461031e576101c3565b806348cd4cb11461029b5780634e71d92d146102a357806351eb05a6146102ab576101c3565b80631526fe27116101a25780631526fe271461020957806315c2fdc91461024c57806317caf6f11461028b5780633f4ba83a14610293576101c3565b80626f0231146101c8578063081e3eda146101e7578063083c632314610201575b600080fd5b6101e5600480360360208110156101de57600080fd5b50356104e5565b005b6101ef610785565b60408051918252519081900360200190f35b6101ef61078b565b6102266004803603602081101561021f57600080fd5b5035610791565b604080519485526020850193909352838301919091526060830152519081900360800190f35b6101e56004803603606081101561026257600080fd5b5080359073ffffffffffffffffffffffffffffffffffffffff60208201351690604001356107c8565b6101ef610a5a565b6101e5610a60565b6101ef610be6565b6101e5610bec565b6101e5600480360360208110156102c157600080fd5b5035610d15565b6101e5600480360360208110156102de57600080fd5b5035610e5f565b6102ed610fe8565b604080519115158252519081900360200190f35b6101e56004803603602081101561031757600080fd5b5035611009565b6101e56110e6565b6101e56004803603606081101561033c57600080fd5b50803590602081013590604001351515611105565b6101e56112b4565b6101e56004803603602081101561036f57600080fd5b503573ffffffffffffffffffffffffffffffffffffffff166113b1565b6101e56114f8565b6101ef61167c565b6101ef611682565b6103ac611688565b6040805173ffffffffffffffffffffffffffffffffffffffff9092168252519081900360200190f35b6101ef600480360360408110156103eb57600080fd5b50803590602001356116a4565b6104316004803603604081101561040e57600080fd5b508035906020013573ffffffffffffffffffffffffffffffffffffffff166116c1565b6040805192835260208301919091528051918290030190f35b6101e56004803603604081101561046057600080fd5b508035906020013515156116e5565b6103ac6118c7565b6101e56004803603602081101561048d57600080fd5b503573ffffffffffffffffffffffffffffffffffffffff166118e3565b6101ef600480360360208110156104c057600080fd5b503573ffffffffffffffffffffffffffffffffffffffff16611a50565b6103ac611b7b565b600154604080517fe43581b8000000000000000000000000000000000000000000000000000000008152336004820152905173ffffffffffffffffffffffffffffffffffffffff9092169163e43581b891602480820192602092909190829003018186803b15801561055657600080fd5b505afa15801561056a573d6000803e3d6000fd5b505050506040513d602081101561058057600080fd5b5051806106265750600154604080517f0c68ba21000000000000000000000000000000000000000000000000000000008152336004820152905173ffffffffffffffffffffffffffffffffffffffff90921691630c68ba2191602480820192602092909190829003018186803b1580156105f957600080fd5b505afa15801561060d573d6000803e3d6000fd5b505050506040513d602081101561062357600080fd5b50515b6106615760405162461bcd60e51b81526004018080602001828103825260458152602001806120e56045913960600191505060405180910390fd5b60095481116106b7576040805162461bcd60e51b815260206004820152601460248201527f757064617465456e64426c6f636b3a204c657373000000000000000000000000604482015290519081900360640190fd5b60005b60065481101561073e57600681815481106106d157fe5b9060005260206000209060040201600201548211610736576040805162461bcd60e51b815260206004820152601460248201527f757064617465456e64426c6f636b3a204c657373000000000000000000000000604482015290519081900360640190fd5b6001016106ba565b506107476110e6565b600a81905560408051828152905133917f316ee89ca026e5355cff2b64939ee0e5af49bde19b755b42bbde0f5bea039825919081900360200190a250565b60065490565b600a5481565b6006818154811061079e57fe5b60009182526020909120600490910201805460018201546002830154600390930154919350919084565b600154604080517f0c68ba21000000000000000000000000000000000000000000000000000000008152336004820152905173ffffffffffffffffffffffffffffffffffffffff90921691630c68ba2191602480820192602092909190829003018186803b15801561083957600080fd5b505afa15801561084d573d6000803e3d6000fd5b505050506040513d602081101561086357600080fd5b50516108a05760405162461bcd60e51b815260040180806020018281038252602f81526020018061212a602f913960400191505060405180910390fd5b600654839081106108f8576040805162461bcd60e51b815260206004820152601660248201527f76616c69646174655069643a204e6f7420657869737400000000000000000000604482015290519081900360640190fd5b60028054141561094f576040805162461bcd60e51b815260206004820152601f60248201527f5265656e7472616e637947756172643a207265656e7472616e742063616c6c00604482015290519081900360640190fd5b6002808190555060006006858154811061096557fe5b6000918252602080832088845260078252604080852073ffffffffffffffffffffffffffffffffffffffff8a16865290925292208054600490920290920192508414156109b3575050610a4f565b6109bc86610d15565b60006109f682600101546109f064e8d4a510006109ea87600301548760000154611b9790919063ffffffff16565b90611bf0565b90611c57565b90508015610a0a57610a088682611cb4565b505b81548354610a23918791610a1d91611c57565b90611e57565b83558482556003830154610a439064e8d4a51000906109ea908890611b97565b82600101819055505050505b505060016002555050565b60085481565b600154604080517fe43581b8000000000000000000000000000000000000000000000000000000008152336004820152905173ffffffffffffffffffffffffffffffffffffffff9092169163e43581b891602480820192602092909190829003018186803b158015610ad157600080fd5b505afa158015610ae5573d6000803e3d6000fd5b505050506040513d6020811015610afb57600080fd5b505180610ba15750600154604080517f0c68ba21000000000000000000000000000000000000000000000000000000008152336004820152905173ffffffffffffffffffffffffffffffffffffffff90921691630c68ba2191602480820192602092909190829003018186803b158015610b7457600080fd5b505afa158015610b88573d6000803e3d6000fd5b505050506040513d6020811015610b9e57600080fd5b50515b610bdc5760405162461bcd60e51b81526004018080602001828103825260458152602001806120e56045913960600191505060405180910390fd5b610be4611eb1565b565b60095481565b600280541415610c43576040805162461bcd60e51b815260206004820152601f60248201527f5265656e7472616e637947756172643a207265656e7472616e742063616c6c00604482015290519081900360640190fd5b600280556000805b600654811015610cfa57600060068281548110610c6457fe5b60009182526020808320858452600782526040808520338652909252922060049091029091019150610c9583610d15565b610cc181600101546109f064e8d4a510006109ea86600301548660000154611b9790919063ffffffff16565b84019350610ce964e8d4a510006109ea84600301548460000154611b9790919063ffffffff16565b600191820155919091019050610c4b565b508015610d0d57610d0b3382611cb4565b505b506001600255565b60065481908110610d6d576040805162461bcd60e51b815260206004820152601660248201527f76616c69646174655069643a204e6f7420657869737400000000000000000000604482015290519081900360640190fd5b600060068381548110610d7c57fe5b9060005260206000209060040201905080600201544311610d9d5750610e5b565b600a54816002015410610db05750610e5b565b6000600a54431015610dc25743610dc6565b600a545b82549091501580610dd957506001820154155b15610de957600290910155610e5b565b6000610df98360020154436116a4565b90506000610e266008546109ea8660010154610e2060045487611b9790919063ffffffff16565b90611b97565b8454909150610e4d90610e42906109ea8464e8d4a51000611b97565b600386015490611e57565b600385015550506002909101555b5050565b600154604080517fe43581b8000000000000000000000000000000000000000000000000000000008152336004820152905173ffffffffffffffffffffffffffffffffffffffff9092169163e43581b891602480820192602092909190829003018186803b158015610ed057600080fd5b505afa158015610ee4573d6000803e3d6000fd5b505050506040513d6020811015610efa57600080fd5b505180610fa05750600154604080517f0c68ba21000000000000000000000000000000000000000000000000000000008152336004820152905173ffffffffffffffffffffffffffffffffffffffff90921691630c68ba2191602480820192602092909190829003018186803b158015610f7357600080fd5b505afa158015610f87573d6000803e3d6000fd5b505050506040513d6020811015610f9d57600080fd5b50515b610fdb5760405162461bcd60e51b81526004018080602001828103825260458152602001806120e56045913960600191505060405180910390fd5b610fe36110e6565b600455565b60005474010000000000000000000000000000000000000000900460ff1690565b600154604080517fe43581b8000000000000000000000000000000000000000000000000000000008152336004820152905173ffffffffffffffffffffffffffffffffffffffff9092169163e43581b891602480820192602092909190829003018186803b15801561107a57600080fd5b505afa15801561108e573d6000803e3d6000fd5b505050506040513d60208110156110a457600080fd5b50516110e15760405162461bcd60e51b815260040180806020018281038252602f815260200180612072602f913960400191505060405180910390fd5b600555565b60065460005b81811015610e5b576110fd81610d15565b6001016110ec565b600154604080517fe43581b8000000000000000000000000000000000000000000000000000000008152336004820152905173ffffffffffffffffffffffffffffffffffffffff9092169163e43581b891602480820192602092909190829003018186803b15801561117657600080fd5b505afa15801561118a573d6000803e3d6000fd5b505050506040513d60208110156111a057600080fd5b50516111dd5760405162461bcd60e51b815260040180806020018281038252602f815260200180612072602f913960400191505060405180910390fd5b60065483908110611235576040805162461bcd60e51b815260206004820152601660248201527f76616c69646174655069643a204e6f7420657869737400000000000000000000604482015290519081900360640190fd5b8115611243576112436110e6565b60006006858154811061125257fe5b9060005260206000209060040201600101549050836006868154811061127457fe5b9060005260206000209060040201600101819055508381146112ad576112a984610a1d83600854611c5790919063ffffffff16565b6008555b5050505050565b6112bc611f85565b73ffffffffffffffffffffffffffffffffffffffff166112da611688565b73ffffffffffffffffffffffffffffffffffffffff1614611342576040805162461bcd60e51b815260206004820181905260248201527f4f776e61626c653a2063616c6c6572206973206e6f7420746865206f776e6572604482015290519081900360640190fd5b6000805460405173ffffffffffffffffffffffffffffffffffffffff909116907f8be0079c531659141344cd1fd0a4f28419497f9722a3daafe3b4186f6b6457e0908390a3600080547fffffffffffffffffffffffff0000000000000000000000000000000000000000169055565b600154604080517fe43581b8000000000000000000000000000000000000000000000000000000008152336004820152905173ffffffffffffffffffffffffffffffffffffffff9092169163e43581b891602480820192602092909190829003018186803b15801561142257600080fd5b505afa158015611436573d6000803e3d6000fd5b505050506040513d602081101561144c57600080fd5b50516114895760405162461bcd60e51b815260040180806020018281038252602f815260200180612072602f913960400191505060405180910390fd5b600180547fffffffffffffffffffffffff00000000000000000000000000000000000000001673ffffffffffffffffffffffffffffffffffffffff83169081179091556040517fad9400e618eb1344fde53db22397a1b82c765527ecbba3a5c86bcac15090828b90600090a250565b600154604080517fe43581b8000000000000000000000000000000000000000000000000000000008152336004820152905173ffffffffffffffffffffffffffffffffffffffff9092169163e43581b891602480820192602092909190829003018186803b15801561156957600080fd5b505afa15801561157d573d6000803e3d6000fd5b505050506040513d602081101561159357600080fd5b5051806116395750600154604080517f0c68ba21000000000000000000000000000000000000000000000000000000008152336004820152905173ffffffffffffffffffffffffffffffffffffffff90921691630c68ba2191602480820192602092909190829003018186803b15801561160c57600080fd5b505afa158015611620573d6000803e3d6000fd5b505050506040513d602081101561163657600080fd5b50515b6116745760405162461bcd60e51b81526004018080602001828103825260458152602001806120e56045913960600191505060405180910390fd5b610be4611f89565b60055481565b60045481565b60005473ffffffffffffffffffffffffffffffffffffffff1690565b6005546000906116b890610e208486611c57565b90505b92915050565b60076020908152600092835260408084209091529082529020805460019091015482565b600154604080517fe43581b8000000000000000000000000000000000000000000000000000000008152336004820152905173ffffffffffffffffffffffffffffffffffffffff9092169163e43581b891602480820192602092909190829003018186803b15801561175657600080fd5b505afa15801561176a573d6000803e3d6000fd5b505050506040513d602081101561178057600080fd5b50516117bd5760405162461bcd60e51b815260040180806020018281038252602f815260200180612072602f913960400191505060405180910390fd5b80156117cb576117cb6110e6565b600060095443116117de576009546117e0565b435b6008549091506117f09084611e57565b600855604080516080810182526000808252602082019586529181019283526060810182815260068054600181018255935290517ff652222313e28459528d920b65115c16c04f3efc82aaedc97be59f3f377c0d3f60049093029283015593517ff652222313e28459528d920b65115c16c04f3efc82aaedc97be59f3f377c0d4082015590517ff652222313e28459528d920b65115c16c04f3efc82aaedc97be59f3f377c0d4182015591517ff652222313e28459528d920b65115c16c04f3efc82aaedc97be59f3f377c0d429092019190915550565b60015473ffffffffffffffffffffffffffffffffffffffff1690565b6118eb611f85565b73ffffffffffffffffffffffffffffffffffffffff16611909611688565b73ffffffffffffffffffffffffffffffffffffffff1614611971576040805162461bcd60e51b815260206004820181905260248201527f4f776e61626c653a2063616c6c6572206973206e6f7420746865206f776e6572604482015290519081900360640190fd5b73ffffffffffffffffffffffffffffffffffffffff81166119c35760405162461bcd60e51b815260040180806020018281038252602681526020018061204c6026913960400191505060405180910390fd5b6000805460405173ffffffffffffffffffffffffffffffffffffffff808516939216917f8be0079c531659141344cd1fd0a4f28419497f9722a3daafe3b4186f6b6457e091a3600080547fffffffffffffffffffffffff00000000000000000000000000000000000000001673ffffffffffffffffffffffffffffffffffffffff92909216919091179055565b6000805b600654811015611b7557600060068281548110611a6d57fe5b6000918252602080832085845260078252604080852073ffffffffffffffffffffffffffffffffffffffff8a1686529092529220600360049092029092019081015460028201549193509043118015611ac65750825415155b15611b3d576000611aee8460020154600a54431015611ae55743611ae9565b600a545b6116a4565b90506000611b156008546109ea8760010154610e2060045487611b9790919063ffffffff16565b8554909150611b3890611b31906109ea8464e8d4a51000611b97565b8490611e57565b925050505b611b6582600101546109f064e8d4a510006109ea858760000154611b9790919063ffffffff16565b9490940193505050600101611a54565b50919050565b60035473ffffffffffffffffffffffffffffffffffffffff1681565b600082611ba6575060006116bb565b82820282848281611bb357fe5b04146116b85760405162461bcd60e51b81526004018080602001828103825260218152602001806120c46021913960400191505060405180910390fd5b6000808211611c46576040805162461bcd60e51b815260206004820152601a60248201527f536166654d6174683a206469766973696f6e206279207a65726f000000000000604482015290519081900360640190fd5b818381611c4f57fe5b049392505050565b600082821115611cae576040805162461bcd60e51b815260206004820152601e60248201527f536166654d6174683a207375627472616374696f6e206f766572666c6f770000604482015290519081900360640190fd5b50900390565b600354604080517f70a082310000000000000000000000000000000000000000000000000000000081523060048201529051600092839273ffffffffffffffffffffffffffffffffffffffff909116916370a0823191602480820192602092909190829003018186803b158015611d2a57600080fd5b505afa158015611d3e573d6000803e3d6000fd5b505050506040513d6020811015611d5457600080fd5b50519050600081841115611d69575080611d6c565b50825b600354604080517fa9059cbb00000000000000000000000000000000000000000000000000000000815273ffffffffffffffffffffffffffffffffffffffff8881166004830152602482018590529151919092169163a9059cbb9160448083019260209291908290030181600087803b158015611de857600080fd5b505af1158015611dfc573d6000803e3d6000fd5b505050506040513d6020811015611e1257600080fd5b5051611e4f5760405162461bcd60e51b81526004018080602001828103825260238152602001806120a16023913960400191505060405180910390fd5b949350505050565b6000828201838110156116b8576040805162461bcd60e51b815260206004820152601b60248201527f536166654d6174683a206164646974696f6e206f766572666c6f770000000000604482015290519081900360640190fd5b611eb9610fe8565b611f0a576040805162461bcd60e51b815260206004820152601460248201527f5061757361626c653a206e6f7420706175736564000000000000000000000000604482015290519081900360640190fd5b600080547fffffffffffffffffffffff00ffffffffffffffffffffffffffffffffffffffff1690557f5db9ee0a495bf2e6ff9c91a7834c1ba4fdd244a5e8aa4e537bd38aeae4b073aa611f5b611f85565b6040805173ffffffffffffffffffffffffffffffffffffffff9092168252519081900360200190a1565b3390565b611f91610fe8565b15611fe3576040805162461bcd60e51b815260206004820152601060248201527f5061757361626c653a2070617573656400000000000000000000000000000000604482015290519081900360640190fd5b600080547fffffffffffffffffffffff00ffffffffffffffffffffffffffffffffffffffff16740100000000000000000000000000000000000000001790557f62e78cea01bee320cd4e420270b5ea74000d11b0c9f74754ebdbfc544b05a258611f5b611f8556fe4f776e61626c653a206e6577206f776e657220697320746865207a65726f2061646472657373436f72655265663a3a6f6e6c79476f7665726e6f723a2043616c6c6572206973206e6f74206120676f7665726e6f72736166655265776172645472616e736665723a205472616e73666572206661696c6564536166654d6174683a206d756c7469706c69636174696f6e206f766572666c6f77436f72655265663a3a6f6e6c79477561726469616e4f72476f7665726e6f723a2043616c6c6572206973206e6f74206120677561726469616e206f7220676f7665726e6f72436f72655265663a3a6f6e6c79477561726469616e3a2043616c6c6572206973206e6f74206120677561726469616ea264697066735822122083f218885969ccc0ee49ea42c91e7a41f5f927b07f4c982f3f9af57d6746863a64736f6c634300060c0033",
  "linkReferences": {},
  "deployedLinkReferences": {}
}