{
  "_format": "hh-sol-artifact-1",
  "contractName": "MasterChef",
  "sourceName": "contracts/main/MasterChef.sol",
  "abi": [
    {
      "inputs": [
        {
          "internalType": "address",
          "name": "_core",
          "type": "address"
        },
        {
          "internalType": "address",
          "name": "_rewardToken",
          "type": "address"
        },
        {
          "internalType": "uint256",
          "name": "_rewardPerBlock",
          "type": "uint256"
        },
        {
          "internalType": "uint256",
          "name": "_startBlock",
          "type": "uint256"
        },
        {
          "internalType": "uint256",
          "name": "_endBlock",
          "type": "uint256"
        }
      ],
      "stateMutability": "nonpayable",
      "type": "constructor"
    },
    {
      "anonymous": false,
      "inputs": [
        {
          "indexed": true,
          "internalType": "address",
          "name": "_core",
          "type": "address"
        }
      ],
      "name": "CoreUpdate",
      "type": "event"
    },
    {
      "anonymous": false,
      "inputs": [
        {
          "indexed": false,
          "internalType": "address",
          "name": "account",
          "type": "address"
        }
      ],
      "name": "Paused",
      "type": "event"
    },
    {
      "anonymous": false,
      "inputs": [
        {
          "indexed": false,
          "internalType": "address",
          "name": "account",
          "type": "address"
        }
      ],
      "name": "Unpaused",
      "type": "event"
    },
    {
      "inputs": [],
      "name": "BONUS_MULTIPLIER",
      "outputs": [
        {
          "internalType": "uint256",
          "name": "",
          "type": "uint256"
        }
      ],
      "stateMutability": "view",
      "type": "function"
    },
    {
      "inputs": [
        {
          "internalType": "uint256",
          "name": "_allocPoint",
          "type": "uint256"
        }
      ],
      "name": "add",
      "outputs": [],
      "stateMutability": "nonpayable",
      "type": "function"
    },
    {
      "inputs": [
        {
          "internalType": "uint256",
          "name": "_pid",
          "type": "uint256"
        }
      ],
      "name": "claim",
      "outputs": [],
      "stateMutability": "nonpayable",
      "type": "function"
    },
    {
      "inputs": [],
      "name": "claimAll",
      "outputs": [],
      "stateMutability": "nonpayable",
      "type": "function"
    },
    {
      "inputs": [],
      "name": "core",
      "outputs": [
        {
          "internalType": "contract ICore",
          "name": "",
          "type": "address"
        }
      ],
      "stateMutability": "view",
      "type": "function"
    },
    {
      "inputs": [],
      "name": "cycleId",
      "outputs": [
        {
          "internalType": "uint256",
          "name": "",
          "type": "uint256"
        }
      ],
      "stateMutability": "view",
      "type": "function"
    },
    {
      "inputs": [],
      "name": "endBlock",
      "outputs": [
        {
          "internalType": "uint256",
          "name": "",
          "type": "uint256"
        }
      ],
      "stateMutability": "view",
      "type": "function"
    },
    {
      "inputs": [
        {
          "internalType": "uint256",
          "name": "_from",
          "type": "uint256"
        },
        {
          "internalType": "uint256",
          "name": "_to",
          "type": "uint256"
        }
      ],
      "name": "getMultiplier",
      "outputs": [
        {
          "internalType": "uint256",
          "name": "",
          "type": "uint256"
        }
      ],
      "stateMutability": "view",
      "type": "function"
    },
    {
      "inputs": [],
      "name": "massUpdatePools",
      "outputs": [],
      "stateMutability": "nonpayable",
      "type": "function"
    },
    {
      "inputs": [
        {
          "internalType": "uint256",
          "name": "_cid",
          "type": "uint256"
        }
      ],
      "name": "next",
      "outputs": [],
      "stateMutability": "nonpayable",
      "type": "function"
    },
    {
      "inputs": [],
      "name": "pause",
      "outputs": [],
      "stateMutability": "nonpayable",
      "type": "function"
    },
    {
      "inputs": [],
      "name": "paused",
      "outputs": [
        {
          "internalType": "bool",
          "name": "",
          "type": "bool"
        }
      ],
      "stateMutability": "view",
      "type": "function"
    },
    {
      "inputs": [
        {
          "internalType": "address",
          "name": "_user",
          "type": "address"
        },
        {
          "internalType": "uint256",
          "name": "_pid",
          "type": "uint256"
        }
      ],
      "name": "pendingReward",
      "outputs": [
        {
          "internalType": "uint256",
          "name": "",
          "type": "uint256"
        }
      ],
      "stateMutability": "view",
      "type": "function"
    },
    {
      "inputs": [
        {
          "internalType": "uint256",
          "name": "",
          "type": "uint256"
        }
      ],
      "name": "poolInfo",
      "outputs": [
        {
          "internalType": "uint256",
          "name": "allocPoint",
          "type": "uint256"
        }
      ],
      "stateMutability": "view",
      "type": "function"
    },
    {
      "inputs": [],
      "name": "poolLength",
      "outputs": [
        {
          "internalType": "uint256",
          "name": "",
          "type": "uint256"
        }
      ],
      "stateMutability": "view",
      "type": "function"
    },
    {
      "inputs": [
        {
          "internalType": "uint256",
          "name": "",
          "type": "uint256"
        },
        {
          "internalType": "uint256",
          "name": "",
          "type": "uint256"
        }
      ],
      "name": "poolSnapshot",
      "outputs": [
        {
          "internalType": "uint256",
          "name": "totalSupply",
          "type": "uint256"
        },
        {
          "internalType": "uint256",
          "name": "lastRewardBlock",
          "type": "uint256"
        },
        {
          "internalType": "uint256",
          "name": "accRewardPerShare",
          "type": "uint256"
        }
      ],
      "stateMutability": "view",
      "type": "function"
    },
    {
      "inputs": [],
      "name": "rewardPerBlock",
      "outputs": [
        {
          "internalType": "uint256",
          "name": "",
          "type": "uint256"
        }
      ],
      "stateMutability": "view",
      "type": "function"
    },
    {
      "inputs": [],
      "name": "rewardToken",
      "outputs": [
        {
          "internalType": "address",
          "name": "",
          "type": "address"
        }
      ],
      "stateMutability": "view",
      "type": "function"
    },
    {
      "inputs": [],
      "name": "rewarding",
      "outputs": [
        {
          "internalType": "bool",
          "name": "",
          "type": "bool"
        }
      ],
      "stateMutability": "view",
      "type": "function"
    },
    {
      "inputs": [
        {
          "internalType": "uint256",
          "name": "_pid",
          "type": "uint256"
        },
        {
          "internalType": "uint256",
          "name": "_allocPoint",
          "type": "uint256"
        },
        {
          "internalType": "bool",
          "name": "_withUpdate",
          "type": "bool"
        }
      ],
      "name": "set",
      "outputs": [],
      "stateMutability": "nonpayable",
      "type": "function"
    },
    {
      "inputs": [
        {
          "internalType": "address",
          "name": "core_",
          "type": "address"
        }
      ],
      "name": "setCore",
      "outputs": [],
      "stateMutability": "nonpayable",
      "type": "function"
    },
    {
      "inputs": [
        {
          "internalType": "uint256",
          "name": "_endBlock",
          "type": "uint256"
        }
      ],
      "name": "start",
      "outputs": [],
      "stateMutability": "nonpayable",
      "type": "function"
    },
    {
      "inputs": [],
      "name": "startBlock",
      "outputs": [
        {
          "internalType": "uint256",
          "name": "",
          "type": "uint256"
        }
      ],
      "stateMutability": "view",
      "type": "function"
    },
    {
      "inputs": [],
      "name": "totalAllocPoint",
      "outputs": [
        {
          "internalType": "uint256",
          "name": "",
          "type": "uint256"
        }
      ],
      "stateMutability": "view",
      "type": "function"
    },
    {
      "inputs": [],
      "name": "unpause",
      "outputs": [],
      "stateMutability": "nonpayable",
      "type": "function"
    },
    {
      "inputs": [
        {
          "internalType": "uint256",
          "name": "multiplierNumber",
          "type": "uint256"
        }
      ],
      "name": "updateMultiplier",
      "outputs": [],
      "stateMutability": "nonpayable",
      "type": "function"
    },
    {
      "inputs": [
        {
          "internalType": "uint256",
          "name": "_pid",
          "type": "uint256"
        }
      ],
      "name": "updatePool",
      "outputs": [],
      "stateMutability": "nonpayable",
      "type": "function"
    },
    {
      "inputs": [
        {
          "internalType": "uint256",
          "name": "_pid",
          "type": "uint256"
        },
        {
          "internalType": "address",
          "name": "_account",
          "type": "address"
        },
        {
          "internalType": "uint256",
          "name": "_amount",
          "type": "uint256"
        }
      ],
      "name": "updateStake",
      "outputs": [],
      "stateMutability": "nonpayable",
      "type": "function"
    },
    {
      "inputs": [
        {
          "internalType": "uint256",
          "name": "_rewardPerBlock",
          "type": "uint256"
        }
      ],
      "name": "updaterewardPerBlock",
      "outputs": [],
      "stateMutability": "nonpayable",
      "type": "function"
    },
    {
      "inputs": [
        {
          "internalType": "uint256",
          "name": "",
          "type": "uint256"
        },
        {
          "internalType": "address",
          "name": "",
          "type": "address"
        }
      ],
      "name": "userInfo",
      "outputs": [
        {
          "internalType": "uint256",
          "name": "amount",
          "type": "uint256"
        },
        {
          "internalType": "uint256",
          "name": "rewardDebt",
          "type": "uint256"
        },
        {
          "internalType": "uint256",
          "name": "cid",
          "type": "uint256"
        },
        {
          "internalType": "uint256",
          "name": "earned",
          "type": "uint256"
        }
      ],
      "stateMutability": "view",
      "type": "function"
    }
  ],
  "bytecode": "0x60806040526001600455600060058190556008556009805460ff1916905534801561002957600080fd5b5060405161228c38038061228c833981810160405260a081101561004c57600080fd5b508051602082015160408301516060840151608090940151600080546001600160a01b03958616610100026001600160a81b03199091161790556001805560028054949093166001600160a01b0319909416939093179091556003556006919091556007556121cc806100c06000396000f3fe608060405234801561001057600080fd5b50600436106101da5760003560e01c8063630b5ba11161010457806393f1a40b116100a2578063edd004e511610071578063edd004e51461049a578063f2f4eb26146104b7578063f430cf0d146104e8578063f7c618c114610521576101da565b806393f1a40b1461040e57806395805dad1461046d578063be145d481461048a578063d1058e5914610492576101da565b80638456cb59116100de5780638456cb59146103d35780638aa28550146103db5780638ae39cac146103e35780638dbb1e3a146103eb576101da565b8063630b5ba11461036d57806364482f791461037557806380009630146103a0576101da565b80633d42eb6c1161017c57806354f274cc1161014b57806354f274cc1461030f5780635c975abb1461032c5780635ffe61461461034857806362e0accb14610365576101da565b80633d42eb6c146102a15780633f4ba83a146102e257806348cd4cb1146102ea57806351eb05a6146102f2576101da565b80631526fe27116101b85780631526fe271461022057806315c2fdc91461023d57806317caf6f11461027c578063379607f514610284576101da565b8063081e3eda146101df578063083c6323146101f95780631003e2d214610201575b600080fd5b6101e7610529565b60408051918252519081900360200190f35b6101e761052f565b61021e6004803603602081101561021757600080fd5b5035610535565b005b6101e76004803603602081101561023657600080fd5b5035610668565b61021e6004803603606081101561025357600080fd5b5080359073ffffffffffffffffffffffffffffffffffffffff6020820135169060400135610686565b6101e7610976565b61021e6004803603602081101561029a57600080fd5b503561097c565b6102c4600480360360408110156102b757600080fd5b5080359060200135610aae565b60408051938452602084019290925282820152519081900360600190f35b61021e610ada565b6101e7610c68565b61021e6004803603602081101561030857600080fd5b5035610c6e565b61021e6004803603602081101561032557600080fd5b5035610dde565b610334610f6f565b604080519115158252519081900360200190f35b61021e6004803603602081101561035e57600080fd5b5035610f78565b6101e7611059565b61021e61105f565b61021e6004803603606081101561038b57600080fd5b5080359060208101359060400135151561107e565b61021e600480360360208110156103b657600080fd5b503573ffffffffffffffffffffffffffffffffffffffff16611224565b61021e611374565b6101e7611500565b6101e7611506565b6101e76004803603604081101561040157600080fd5b508035906020013561150c565b6104476004803603604081101561042457600080fd5b508035906020013573ffffffffffffffffffffffffffffffffffffffff16611529565b604080519485526020850193909352838301919091526060830152519081900360800190f35b61021e6004803603602081101561048357600080fd5b503561155b565b610334611710565b61021e611719565b61021e600480360360208110156104b057600080fd5b5035611867565b6104bf611a32565b6040805173ffffffffffffffffffffffffffffffffffffffff9092168252519081900360200190f35b6101e7600480360360408110156104fe57600080fd5b5073ffffffffffffffffffffffffffffffffffffffff8135169060200135611a53565b6104bf611bf7565b600a5490565b60075481565b600054604080517fe43581b8000000000000000000000000000000000000000000000000000000008152336004820152905161010090920473ffffffffffffffffffffffffffffffffffffffff169163e43581b891602480820192602092909190829003018186803b1580156105aa57600080fd5b505afa1580156105be573d6000803e3d6000fd5b505050506040513d60208110156105d457600080fd5b50516106115760405162461bcd60e51b815260040180806020018281038252602f8152602001806120b0602f913960400191505060405180910390fd5b60055461061e9082611c13565b6005556040805160208101909152908152600a805460018101825560009190915290517fc65a7bb8d6351c1cf70c95a316cc6a92839c986682d98bc35f958f4883f9d2a890910155565b600a818154811061067557fe5b600091825260209091200154905081565b600054604080517f0c68ba21000000000000000000000000000000000000000000000000000000008152336004820152905161010090920473ffffffffffffffffffffffffffffffffffffffff1691630c68ba2191602480820192602092909190829003018186803b1580156106fb57600080fd5b505afa15801561070f573d6000803e3d6000fd5b505050506040513d602081101561072557600080fd5b50516107625760405162461bcd60e51b815260040180806020018281038252602f815260200180612168602f913960400191505060405180910390fd5b600a54839081106107ba576040805162461bcd60e51b815260206004820152601660248201527f76616c69646174655069643a204e6f7420657869737400000000000000000000604482015290519081900360640190fd5b60026001541415610812576040805162461bcd60e51b815260206004820152601f60248201527f5265656e7472616e637947756172643a207265656e7472616e742063616c6c00604482015290519081900360640190fd5b600260018190556000858152600b6020908152604080832073ffffffffffffffffffffffffffffffffffffffff881684528252808320938401548352600c8252808320888452909152902061086686610c6e565b60006108a0836001015461089a64e8d4a5100061089486600201548860000154611c6d90919063ffffffff16565b90611cc6565b90611d2d565b905080156108bd5760038301546108b79082611c13565b60038401555b8260020154600854141561090e57825482546108e49187916108de91611d2d565b90611c13565b825584835560028201546109049064e8d4a5100090610894908890611c6d565b6001840155610969565b6008546000908152600c602090815260408083208a8452909152902080549092506109399086611c13565b82558483556008546002808501919091558201546109639064e8d4a5100090610894908890611c6d565b60018401555b5050600180555050505050565b60055481565b600260015414156109d4576040805162461bcd60e51b815260206004820152601f60248201527f5265656e7472616e637947756172643a207265656e7472616e742063616c6c00604482015290519081900360640190fd5b600260018190556000828152600b60209081526040808320338452825280832093840154808452600c8352818420868552909252822060085492939290911415610a2157610a2184610c6e565b610a4d826001015461089a64e8d4a5100061089485600201548760000154611c6d90919063ffffffff16565b600383015490935015610a74576003820154610a6a908490611c13565b6000600384015592505b8215610a8657610a843384611d8a565b505b60028101548254610aa19164e8d4a510009161089491611c6d565b6001928301555080555050565b600c60209081526000928352604080842090915290825290208054600182015460029092015490919083565b600054604080517fe43581b8000000000000000000000000000000000000000000000000000000008152336004820152905161010090920473ffffffffffffffffffffffffffffffffffffffff169163e43581b891602480820192602092909190829003018186803b158015610b4f57600080fd5b505afa158015610b63573d6000803e3d6000fd5b505050506040513d6020811015610b7957600080fd5b505180610c235750600054604080517f0c68ba21000000000000000000000000000000000000000000000000000000008152336004820152905161010090920473ffffffffffffffffffffffffffffffffffffffff1691630c68ba2191602480820192602092909190829003018186803b158015610bf657600080fd5b505afa158015610c0a573d6000803e3d6000fd5b505050506040513d6020811015610c2057600080fd5b50515b610c5e5760405162461bcd60e51b81526004018080602001828103825260458152602001806121236045913960600191505060405180910390fd5b610c66611f2d565b565b60065481565b600a5481908110610cc6576040805162461bcd60e51b815260206004820152601660248201527f76616c69646174655069643a204e6f7420657869737400000000000000000000604482015290519081900360640190fd5b60095460ff16610cd557610dda565b6000600a8381548110610ce457fe5b600091825260208083206008548452600c82526040808520888652909252922060018101549190920192504311610d1c575050610dda565b600754816001015410610d30575050610dda565b6000600754431015610d425743610d46565b6007545b82549091501580610d5657508254155b15610d675760019091015550610dda565b6000610d7783600101544361150c565b90506000610da46005546108948760000154610d9e60035487611c6d90919063ffffffff16565b90611c6d565b8454909150610dcb90610dc0906108948464e8d4a51000611c6d565b600286015490611c13565b60028501555050600190910155505b5050565b600054604080517fe43581b8000000000000000000000000000000000000000000000000000000008152336004820152905161010090920473ffffffffffffffffffffffffffffffffffffffff169163e43581b891602480820192602092909190829003018186803b158015610e5357600080fd5b505afa158015610e67573d6000803e3d6000fd5b505050506040513d6020811015610e7d57600080fd5b505180610f275750600054604080517f0c68ba21000000000000000000000000000000000000000000000000000000008152336004820152905161010090920473ffffffffffffffffffffffffffffffffffffffff1691630c68ba2191602480820192602092909190829003018186803b158015610efa57600080fd5b505afa158015610f0e573d6000803e3d6000fd5b505050506040513d6020811015610f2457600080fd5b50515b610f625760405162461bcd60e51b81526004018080602001828103825260458152602001806121236045913960600191505060405180910390fd5b610f6a61105f565b600355565b60005460ff1690565b600054604080517fe43581b8000000000000000000000000000000000000000000000000000000008152336004820152905161010090920473ffffffffffffffffffffffffffffffffffffffff169163e43581b891602480820192602092909190829003018186803b158015610fed57600080fd5b505afa158015611001573d6000803e3d6000fd5b505050506040513d602081101561101757600080fd5b50516110545760405162461bcd60e51b815260040180806020018281038252602f8152602001806120b0602f913960400191505060405180910390fd5b600455565b60085481565b600a5460005b81811015610dda5761107681610c6e565b600101611065565b600054604080517fe43581b8000000000000000000000000000000000000000000000000000000008152336004820152905161010090920473ffffffffffffffffffffffffffffffffffffffff169163e43581b891602480820192602092909190829003018186803b1580156110f357600080fd5b505afa158015611107573d6000803e3d6000fd5b505050506040513d602081101561111d57600080fd5b505161115a5760405162461bcd60e51b815260040180806020018281038252602f8152602001806120b0602f913960400191505060405180910390fd5b600a54839081106111b2576040805162461bcd60e51b815260206004820152601660248201527f76616c69646174655069643a204e6f7420657869737400000000000000000000604482015290519081900360640190fd5b81156111c0576111c061105f565b6000600a85815481106111cf57fe5b9060005260206000200160000154905083600a86815481106111ed57fe5b60009182526020909120015580841461121d57611219846108de83600554611d2d90919063ffffffff16565b6005555b5050505050565b600054604080517fe43581b8000000000000000000000000000000000000000000000000000000008152336004820152905161010090920473ffffffffffffffffffffffffffffffffffffffff169163e43581b891602480820192602092909190829003018186803b15801561129957600080fd5b505afa1580156112ad573d6000803e3d6000fd5b505050506040513d60208110156112c357600080fd5b50516113005760405162461bcd60e51b815260040180806020018281038252602f8152602001806120b0602f913960400191505060405180910390fd5b600080547fffffffffffffffffffffff0000000000000000000000000000000000000000ff1661010073ffffffffffffffffffffffffffffffffffffffff841690810291909117825560405190917fad9400e618eb1344fde53db22397a1b82c765527ecbba3a5c86bcac15090828b91a250565b600054604080517fe43581b8000000000000000000000000000000000000000000000000000000008152336004820152905161010090920473ffffffffffffffffffffffffffffffffffffffff169163e43581b891602480820192602092909190829003018186803b1580156113e957600080fd5b505afa1580156113fd573d6000803e3d6000fd5b505050506040513d602081101561141357600080fd5b5051806114bd5750600054604080517f0c68ba21000000000000000000000000000000000000000000000000000000008152336004820152905161010090920473ffffffffffffffffffffffffffffffffffffffff1691630c68ba2191602480820192602092909190829003018186803b15801561149057600080fd5b505afa1580156114a4573d6000803e3d6000fd5b505050506040513d60208110156114ba57600080fd5b50515b6114f85760405162461bcd60e51b81526004018080602001828103825260458152602001806121236045913960600191505060405180910390fd5b610c66612001565b60045481565b60035481565b60045460009061152090610d9e8486611d2d565b90505b92915050565b600b60209081526000928352604080842090915290825290208054600182015460028301546003909301549192909184565b600054604080517f0c68ba21000000000000000000000000000000000000000000000000000000008152336004820152905161010090920473ffffffffffffffffffffffffffffffffffffffff1691630c68ba2191602480820192602092909190829003018186803b1580156115d057600080fd5b505afa1580156115e4573d6000803e3d6000fd5b505050506040513d60208110156115fa57600080fd5b50516116375760405162461bcd60e51b815260040180806020018281038252602f815260200180612168602f913960400191505060405180910390fd5b6002600154141561168f576040805162461bcd60e51b815260206004820152601f60248201527f5265656e7472616e637947756172643a207265656e7472616e742063616c6c00604482015290519081900360640190fd5b60026001908155600980547fffffffffffffffffffffffffffffffffffffffffffffffffffffffffffffff00169091179055600781905560005b600a54811015611708576008546000908152600c60209081526040808320848452909152812043600180830191909155600290910191909155016116c9565b505060018055565b60095460ff1681565b60026001541415611771576040805162461bcd60e51b815260206004820152601f60248201527f5265656e7472616e637947756172643a207265656e7472616e742063616c6c00604482015290519081900360640190fd5b60026001556000805b600a5481101561184f576000818152600b6020908152604080832033845282528083206002810154808552600c84528285208686529093529220600854909114156117c8576117c883610c6e565b6003820154156117ec5760038201546117e2908590611c13565b6000600384015593505b61181c846108de846001015461089a64e8d4a5100061089487600201548960000154611c6d90919063ffffffff16565b935061184264e8d4a5100061089483600201548560000154611c6d90919063ffffffff16565b600192830155500161177a565b508015611860576117083382611d8a565b5060018055565b600054604080517f0c68ba21000000000000000000000000000000000000000000000000000000008152336004820152905161010090920473ffffffffffffffffffffffffffffffffffffffff1691630c68ba2191602480820192602092909190829003018186803b1580156118dc57600080fd5b505afa1580156118f0573d6000803e3d6000fd5b505050506040513d602081101561190657600080fd5b50516119435760405162461bcd60e51b815260040180806020018281038252602f815260200180612168602f913960400191505060405180910390fd5b6002600154141561199b576040805162461bcd60e51b815260206004820152601f60248201527f5265656e7472616e637947756172643a207265656e7472616e742063616c6c00604482015290519081900360640190fd5b60026001556119a861105f565b600980547fffffffffffffffffffffffffffffffffffffffffffffffffffffffffffffff00169055600881905560005b600a548110156117085760408051606081018252600080825260208083018281528385018381526008548452600c8352858420878552909252939091209151825591516001808301919091559151600290910155016119d8565b600054610100900473ffffffffffffffffffffffffffffffffffffffff1690565b600a5460009082908110611aae576040805162461bcd60e51b815260206004820152601660248201527f76616c69646174655069643a204e6f7420657869737400000000000000000000604482015290519081900360640190fd5b6000600a8481548110611abd57fe5b60009182526020808320878452600b8252604080852073ffffffffffffffffffffffffffffffffffffffff8b1686528352808520600280820154808852600c86528388208c895290955291909520908101546008549290940195509291148015611b29575060095460ff165b8015611b385750816001015443115b8015611b445750815415155b15611bbb576000611b6c8360010154600754431015611b635743611b67565b6007545b61150c565b90506000611b936005546108948860000154610d9e60035487611c6d90919063ffffffff16565b8454909150611bb690611baf906108948464e8d4a51000611c6d565b8490611c13565b925050505b611beb83600301546108de856001015461089a64e8d4a51000610894878a60000154611c6d90919063ffffffff16565b98975050505050505050565b60025473ffffffffffffffffffffffffffffffffffffffff1681565b600082820183811015611520576040805162461bcd60e51b815260206004820152601b60248201527f536166654d6174683a206164646974696f6e206f766572666c6f770000000000604482015290519081900360640190fd5b600082611c7c57506000611523565b82820282848281611c8957fe5b04146115205760405162461bcd60e51b81526004018080602001828103825260218152602001806121026021913960400191505060405180910390fd5b6000808211611d1c576040805162461bcd60e51b815260206004820152601a60248201527f536166654d6174683a206469766973696f6e206279207a65726f000000000000604482015290519081900360640190fd5b818381611d2557fe5b049392505050565b600082821115611d84576040805162461bcd60e51b815260206004820152601e60248201527f536166654d6174683a207375627472616374696f6e206f766572666c6f770000604482015290519081900360640190fd5b50900390565b600254604080517f70a082310000000000000000000000000000000000000000000000000000000081523060048201529051600092839273ffffffffffffffffffffffffffffffffffffffff909116916370a0823191602480820192602092909190829003018186803b158015611e0057600080fd5b505afa158015611e14573d6000803e3d6000fd5b505050506040513d6020811015611e2a57600080fd5b50519050600081841115611e3f575080611e42565b50825b600254604080517fa9059cbb00000000000000000000000000000000000000000000000000000000815273ffffffffffffffffffffffffffffffffffffffff8881166004830152602482018590529151919092169163a9059cbb9160448083019260209291908290030181600087803b158015611ebe57600080fd5b505af1158015611ed2573d6000803e3d6000fd5b505050506040513d6020811015611ee857600080fd5b5051611f255760405162461bcd60e51b81526004018080602001828103825260238152602001806120df6023913960400191505060405180910390fd5b949350505050565b611f35610f6f565b611f86576040805162461bcd60e51b815260206004820152601460248201527f5061757361626c653a206e6f7420706175736564000000000000000000000000604482015290519081900360640190fd5b600080547fffffffffffffffffffffffffffffffffffffffffffffffffffffffffffffff001690557f5db9ee0a495bf2e6ff9c91a7834c1ba4fdd244a5e8aa4e537bd38aeae4b073aa611fd76120ab565b6040805173ffffffffffffffffffffffffffffffffffffffff9092168252519081900360200190a1565b612009610f6f565b1561205b576040805162461bcd60e51b815260206004820152601060248201527f5061757361626c653a2070617573656400000000000000000000000000000000604482015290519081900360640190fd5b600080547fffffffffffffffffffffffffffffffffffffffffffffffffffffffffffffff001660011790557f62e78cea01bee320cd4e420270b5ea74000d11b0c9f74754ebdbfc544b05a258611fd75b339056fe436f72655265663a3a6f6e6c79476f7665726e6f723a2043616c6c6572206973206e6f74206120676f7665726e6f72736166655265776172645472616e736665723a205472616e73666572206661696c6564536166654d6174683a206d756c7469706c69636174696f6e206f766572666c6f77436f72655265663a3a6f6e6c79477561726469616e4f72476f7665726e6f723a2043616c6c6572206973206e6f74206120677561726469616e206f7220676f7665726e6f72436f72655265663a3a6f6e6c79477561726469616e3a2043616c6c6572206973206e6f74206120677561726469616ea26469706673582212209b7a42cfec80788723fef3605a19907bac765903eb3eecedf41740eb9766e04f64736f6c634300060c0033",
  "linkReferences": {},
  "deployedLinkReferences": {}
}