{
  "_format": "hh-sol-artifact-1",
  "contractName": "MasterChef",
  "sourceName": "contracts/main/MasterChef.sol",
  "abi": [
    {
      "inputs": [
        {
          "internalType": "address",
          "name": "_core",
          "type": "address"
        },
        {
          "internalType": "address",
          "name": "_rewardToken",
          "type": "address"
        },
        {
          "internalType": "uint256",
          "name": "_rewardPerBlock",
          "type": "uint256"
        },
        {
          "internalType": "uint256",
          "name": "_startBlock",
          "type": "uint256"
        },
        {
          "internalType": "uint256",
          "name": "_endBlock",
          "type": "uint256"
        }
      ],
      "stateMutability": "nonpayable",
      "type": "constructor"
    },
    {
      "anonymous": false,
      "inputs": [
        {
          "indexed": true,
          "internalType": "address",
          "name": "_core",
          "type": "address"
        }
      ],
      "name": "CoreUpdate",
      "type": "event"
    },
    {
      "anonymous": false,
      "inputs": [
        {
          "indexed": false,
          "internalType": "address",
          "name": "account",
          "type": "address"
        }
      ],
      "name": "Paused",
      "type": "event"
    },
    {
      "anonymous": false,
      "inputs": [
        {
          "indexed": false,
          "internalType": "address",
          "name": "account",
          "type": "address"
        }
      ],
      "name": "Unpaused",
      "type": "event"
    },
    {
      "anonymous": false,
      "inputs": [
        {
          "indexed": true,
          "internalType": "address",
          "name": "user",
          "type": "address"
        },
        {
          "indexed": false,
          "internalType": "uint256",
          "name": "endBlock",
          "type": "uint256"
        }
      ],
      "name": "UpdateEndBlock",
      "type": "event"
    },
    {
      "inputs": [],
      "name": "BONUS_MULTIPLIER",
      "outputs": [
        {
          "internalType": "uint256",
          "name": "",
          "type": "uint256"
        }
      ],
      "stateMutability": "view",
      "type": "function"
    },
    {
      "inputs": [
        {
          "internalType": "uint256",
          "name": "_allocPoint",
          "type": "uint256"
        },
        {
          "internalType": "bool",
          "name": "_withUpdate",
          "type": "bool"
        }
      ],
      "name": "add",
      "outputs": [],
      "stateMutability": "nonpayable",
      "type": "function"
    },
    {
      "inputs": [
        {
          "internalType": "uint256",
          "name": "_pid",
          "type": "uint256"
        }
      ],
      "name": "claim",
      "outputs": [],
      "stateMutability": "nonpayable",
      "type": "function"
    },
    {
      "inputs": [],
      "name": "claimAll",
      "outputs": [],
      "stateMutability": "nonpayable",
      "type": "function"
    },
    {
      "inputs": [],
      "name": "core",
      "outputs": [
        {
          "internalType": "contract ICore",
          "name": "",
          "type": "address"
        }
      ],
      "stateMutability": "view",
      "type": "function"
    },
    {
      "inputs": [],
      "name": "endBlock",
      "outputs": [
        {
          "internalType": "uint256",
          "name": "",
          "type": "uint256"
        }
      ],
      "stateMutability": "view",
      "type": "function"
    },
    {
      "inputs": [
        {
          "internalType": "uint256",
          "name": "_from",
          "type": "uint256"
        },
        {
          "internalType": "uint256",
          "name": "_to",
          "type": "uint256"
        }
      ],
      "name": "getMultiplier",
      "outputs": [
        {
          "internalType": "uint256",
          "name": "",
          "type": "uint256"
        }
      ],
      "stateMutability": "view",
      "type": "function"
    },
    {
      "inputs": [],
      "name": "massUpdatePools",
      "outputs": [],
      "stateMutability": "nonpayable",
      "type": "function"
    },
    {
      "inputs": [],
      "name": "pause",
      "outputs": [],
      "stateMutability": "nonpayable",
      "type": "function"
    },
    {
      "inputs": [],
      "name": "paused",
      "outputs": [
        {
          "internalType": "bool",
          "name": "",
          "type": "bool"
        }
      ],
      "stateMutability": "view",
      "type": "function"
    },
    {
      "inputs": [
        {
          "internalType": "address",
          "name": "_user",
          "type": "address"
        },
        {
          "internalType": "uint256",
          "name": "_pid",
          "type": "uint256"
        }
      ],
      "name": "pendingReward",
      "outputs": [
        {
          "internalType": "uint256",
          "name": "",
          "type": "uint256"
        }
      ],
      "stateMutability": "view",
      "type": "function"
    },
    {
      "inputs": [
        {
          "internalType": "uint256",
          "name": "",
          "type": "uint256"
        }
      ],
      "name": "poolInfo",
      "outputs": [
        {
          "internalType": "uint256",
          "name": "totalSupply",
          "type": "uint256"
        },
        {
          "internalType": "uint256",
          "name": "allocPoint",
          "type": "uint256"
        },
        {
          "internalType": "uint256",
          "name": "lastRewardBlock",
          "type": "uint256"
        },
        {
          "internalType": "uint256",
          "name": "accRewardPerShare",
          "type": "uint256"
        }
      ],
      "stateMutability": "view",
      "type": "function"
    },
    {
      "inputs": [],
      "name": "poolLength",
      "outputs": [
        {
          "internalType": "uint256",
          "name": "",
          "type": "uint256"
        }
      ],
      "stateMutability": "view",
      "type": "function"
    },
    {
      "inputs": [],
      "name": "rewardPerBlock",
      "outputs": [
        {
          "internalType": "uint256",
          "name": "",
          "type": "uint256"
        }
      ],
      "stateMutability": "view",
      "type": "function"
    },
    {
      "inputs": [],
      "name": "rewardToken",
      "outputs": [
        {
          "internalType": "address",
          "name": "",
          "type": "address"
        }
      ],
      "stateMutability": "view",
      "type": "function"
    },
    {
      "inputs": [
        {
          "internalType": "uint256",
          "name": "_pid",
          "type": "uint256"
        },
        {
          "internalType": "uint256",
          "name": "_allocPoint",
          "type": "uint256"
        },
        {
          "internalType": "bool",
          "name": "_withUpdate",
          "type": "bool"
        }
      ],
      "name": "set",
      "outputs": [],
      "stateMutability": "nonpayable",
      "type": "function"
    },
    {
      "inputs": [
        {
          "internalType": "address",
          "name": "core_",
          "type": "address"
        }
      ],
      "name": "setCore",
      "outputs": [],
      "stateMutability": "nonpayable",
      "type": "function"
    },
    {
      "inputs": [],
      "name": "startBlock",
      "outputs": [
        {
          "internalType": "uint256",
          "name": "",
          "type": "uint256"
        }
      ],
      "stateMutability": "view",
      "type": "function"
    },
    {
      "inputs": [],
      "name": "totalAllocPoint",
      "outputs": [
        {
          "internalType": "uint256",
          "name": "",
          "type": "uint256"
        }
      ],
      "stateMutability": "view",
      "type": "function"
    },
    {
      "inputs": [],
      "name": "unpause",
      "outputs": [],
      "stateMutability": "nonpayable",
      "type": "function"
    },
    {
      "inputs": [
        {
          "internalType": "uint256",
          "name": "_endBlock",
          "type": "uint256"
        }
      ],
      "name": "updateEndBlock",
      "outputs": [],
      "stateMutability": "nonpayable",
      "type": "function"
    },
    {
      "inputs": [
        {
          "internalType": "uint256",
          "name": "multiplierNumber",
          "type": "uint256"
        }
      ],
      "name": "updateMultiplier",
      "outputs": [],
      "stateMutability": "nonpayable",
      "type": "function"
    },
    {
      "inputs": [
        {
          "internalType": "uint256",
          "name": "_pid",
          "type": "uint256"
        }
      ],
      "name": "updatePool",
      "outputs": [],
      "stateMutability": "nonpayable",
      "type": "function"
    },
    {
      "inputs": [
        {
          "internalType": "uint256",
          "name": "_pid",
          "type": "uint256"
        },
        {
          "internalType": "address",
          "name": "_account",
          "type": "address"
        },
        {
          "internalType": "uint256",
          "name": "_amount",
          "type": "uint256"
        }
      ],
      "name": "updateStake",
      "outputs": [],
      "stateMutability": "nonpayable",
      "type": "function"
    },
    {
      "inputs": [
        {
          "internalType": "uint256",
          "name": "_rewardPerBlock",
          "type": "uint256"
        }
      ],
      "name": "updaterewardPerBlock",
      "outputs": [],
      "stateMutability": "nonpayable",
      "type": "function"
    },
    {
      "inputs": [
        {
          "internalType": "uint256",
          "name": "",
          "type": "uint256"
        },
        {
          "internalType": "address",
          "name": "",
          "type": "address"
        }
      ],
      "name": "userInfo",
      "outputs": [
        {
          "internalType": "uint256",
          "name": "amount",
          "type": "uint256"
        },
        {
          "internalType": "uint256",
          "name": "rewardDebt",
          "type": "uint256"
        }
      ],
      "stateMutability": "view",
      "type": "function"
    }
  ],
  "bytecode": "0x60806040526001600455600060075534801561001a57600080fd5b5060405161210e38038061210e833981810160405260a081101561003d57600080fd5b508051602082015160408301516060840151608090940151600080546001600160a01b03958616610100026001600160a81b03199091161790556001805560028054949093166001600160a01b03199094169390931790915560035560089190915560095561205d806100b16000396000f3fe608060405234801561001057600080fd5b50600436106101ad5760003560e01c8063630b5ba1116100ee5780638dbb1e3a11610097578063d1058e5911610071578063d1058e5914610435578063f2f4eb261461043d578063f430cf0d1461046e578063f7c618c1146104a7576101ad565b80638dbb1e3a1461039b57806393f1a40b146103be578063a7d4ed1f14610410576101ad565b80638456cb59116100c85780638456cb59146103835780638aa285501461038b5780638ae39cac14610393576101ad565b8063630b5ba11461031d57806364482f79146103255780638000963014610350576101ad565b8063379607f51161015b57806351eb05a61161013557806351eb05a6146102aa57806354f274cc146102c75780635c975abb146102e45780635ffe614614610300576101ad565b8063379607f51461027d5780633f4ba83a1461029a57806348cd4cb1146102a2576101ad565b80631526fe271161018c5780631526fe27146101f357806315c2fdc91461023657806317caf6f114610275576101ad565b80626f0231146101b2578063081e3eda146101d1578063083c6323146101eb575b600080fd5b6101cf600480360360208110156101c857600080fd5b50356104af565b005b6101d9610757565b60408051918252519081900360200190f35b6101d961075d565b6102106004803603602081101561020957600080fd5b5035610763565b604080519485526020850193909352838301919091526060830152519081900360800190f35b6101cf6004803603606081101561024c57600080fd5b5080359073ffffffffffffffffffffffffffffffffffffffff602082013516906040013561079a565b6101d9610a31565b6101cf6004803603602081101561029357600080fd5b5035610a37565b6101cf610b40565b6101d9610cce565b6101cf600480360360208110156102c057600080fd5b5035610cd4565b6101cf600480360360208110156102dd57600080fd5b5035610e1e565b6102ec610faf565b604080519115158252519081900360200190f35b6101cf6004803603602081101561031657600080fd5b5035610fb8565b6101cf611099565b6101cf6004803603606081101561033b57600080fd5b508035906020810135906040013515156110b8565b6101cf6004803603602081101561036657600080fd5b503573ffffffffffffffffffffffffffffffffffffffff1661126b565b6101cf6113bb565b6101d9611547565b6101d961154d565b6101d9600480360360408110156103b157600080fd5b5080359060200135611553565b6103f7600480360360408110156103d457600080fd5b508035906020013573ffffffffffffffffffffffffffffffffffffffff16611570565b6040805192835260208301919091528051918290030190f35b6101cf6004803603604081101561042657600080fd5b50803590602001351515611594565b6101cf6117d0565b6104456118fa565b6040805173ffffffffffffffffffffffffffffffffffffffff9092168252519081900360200190f35b6101d96004803603604081101561048457600080fd5b5073ffffffffffffffffffffffffffffffffffffffff813516906020013561191b565b610445611a88565b600054604080517fe43581b8000000000000000000000000000000000000000000000000000000008152336004820152905161010090920473ffffffffffffffffffffffffffffffffffffffff169163e43581b891602480820192602092909190829003018186803b15801561052457600080fd5b505afa158015610538573d6000803e3d6000fd5b505050506040513d602081101561054e57600080fd5b5051806105f85750600054604080517f0c68ba21000000000000000000000000000000000000000000000000000000008152336004820152905161010090920473ffffffffffffffffffffffffffffffffffffffff1691630c68ba2191602480820192602092909190829003018186803b1580156105cb57600080fd5b505afa1580156105df573d6000803e3d6000fd5b505050506040513d60208110156105f557600080fd5b50515b6106335760405162461bcd60e51b8152600401808060200182810382526045815260200180611fb46045913960600191505060405180910390fd5b6008548111610689576040805162461bcd60e51b815260206004820152601460248201527f757064617465456e64426c6f636b3a204c657373000000000000000000000000604482015290519081900360640190fd5b60005b60055481101561071057600581815481106106a357fe5b9060005260206000209060040201600201548211610708576040805162461bcd60e51b815260206004820152601460248201527f757064617465456e64426c6f636b3a204c657373000000000000000000000000604482015290519081900360640190fd5b60010161068c565b50610719611099565b600981905560408051828152905133917f316ee89ca026e5355cff2b64939ee0e5af49bde19b755b42bbde0f5bea039825919081900360200190a250565b60055490565b60095481565b6005818154811061077057fe5b60009182526020909120600490910201805460018201546002830154600390930154919350919084565b600054604080517f0c68ba21000000000000000000000000000000000000000000000000000000008152336004820152905161010090920473ffffffffffffffffffffffffffffffffffffffff1691630c68ba2191602480820192602092909190829003018186803b15801561080f57600080fd5b505afa158015610823573d6000803e3d6000fd5b505050506040513d602081101561083957600080fd5b50516108765760405162461bcd60e51b815260040180806020018281038252602f815260200180611ff9602f913960400191505060405180910390fd5b600554839081106108ce576040805162461bcd60e51b815260206004820152601660248201527f76616c69646174655069643a204e6f7420657869737400000000000000000000604482015290519081900360640190fd5b60026001541415610926576040805162461bcd60e51b815260206004820152601f60248201527f5265656e7472616e637947756172643a207265656e7472616e742063616c6c00604482015290519081900360640190fd5b600260018190555060006005858154811061093d57fe5b6000918252602080832088845260068252604080852073ffffffffffffffffffffffffffffffffffffffff8a168652909252922080546004909202909201925084141561098b575050610a27565b61099486610cd4565b60006109ce82600101546109c864e8d4a510006109c287600301548760000154611aa490919063ffffffff16565b90611afd565b90611b64565b905080156109e2576109e08682611bc1565b505b815483546109fb9187916109f591611b64565b90611d64565b83558482556003830154610a1b9064e8d4a51000906109c2908890611aa4565b82600101819055505050505b5050600180555050565b60075481565b60026001541415610a8f576040805162461bcd60e51b815260206004820152601f60248201527f5265656e7472616e637947756172643a207265656e7472616e742063616c6c00604482015290519081900360640190fd5b600260018190555060008060058381548110610aa757fe5b60009182526020808320868452600682526040808520338652909252922060049091029091019150610ad884610cd4565b610b0481600101546109c864e8d4a510006109c286600301548660000154611aa490919063ffffffff16565b92508215610b1857610b163384611bc1565b505b60038201548154610b339164e8d4a51000916109c291611aa4565b6001918201558055505050565b600054604080517fe43581b8000000000000000000000000000000000000000000000000000000008152336004820152905161010090920473ffffffffffffffffffffffffffffffffffffffff169163e43581b891602480820192602092909190829003018186803b158015610bb557600080fd5b505afa158015610bc9573d6000803e3d6000fd5b505050506040513d6020811015610bdf57600080fd5b505180610c895750600054604080517f0c68ba21000000000000000000000000000000000000000000000000000000008152336004820152905161010090920473ffffffffffffffffffffffffffffffffffffffff1691630c68ba2191602480820192602092909190829003018186803b158015610c5c57600080fd5b505afa158015610c70573d6000803e3d6000fd5b505050506040513d6020811015610c8657600080fd5b50515b610cc45760405162461bcd60e51b8152600401808060200182810382526045815260200180611fb46045913960600191505060405180910390fd5b610ccc611dbe565b565b60085481565b60055481908110610d2c576040805162461bcd60e51b815260206004820152601660248201527f76616c69646174655069643a204e6f7420657869737400000000000000000000604482015290519081900360640190fd5b600060058381548110610d3b57fe5b9060005260206000209060040201905080600201544311610d5c5750610e1a565b600954816002015410610d6f5750610e1a565b6000600954431015610d815743610d85565b6009545b82549091501580610d9857506001820154155b15610da857600290910155610e1a565b6000610db8836002015443611553565b90506000610de56007546109c28660010154610ddf60035487611aa490919063ffffffff16565b90611aa4565b8454909150610e0c90610e01906109c28464e8d4a51000611aa4565b600386015490611d64565b600385015550506002909101555b5050565b600054604080517fe43581b8000000000000000000000000000000000000000000000000000000008152336004820152905161010090920473ffffffffffffffffffffffffffffffffffffffff169163e43581b891602480820192602092909190829003018186803b158015610e9357600080fd5b505afa158015610ea7573d6000803e3d6000fd5b505050506040513d6020811015610ebd57600080fd5b505180610f675750600054604080517f0c68ba21000000000000000000000000000000000000000000000000000000008152336004820152905161010090920473ffffffffffffffffffffffffffffffffffffffff1691630c68ba2191602480820192602092909190829003018186803b158015610f3a57600080fd5b505afa158015610f4e573d6000803e3d6000fd5b505050506040513d6020811015610f6457600080fd5b50515b610fa25760405162461bcd60e51b8152600401808060200182810382526045815260200180611fb46045913960600191505060405180910390fd5b610faa611099565b600355565b60005460ff1690565b600054604080517fe43581b8000000000000000000000000000000000000000000000000000000008152336004820152905161010090920473ffffffffffffffffffffffffffffffffffffffff169163e43581b891602480820192602092909190829003018186803b15801561102d57600080fd5b505afa158015611041573d6000803e3d6000fd5b505050506040513d602081101561105757600080fd5b50516110945760405162461bcd60e51b815260040180806020018281038252602f815260200180611f41602f913960400191505060405180910390fd5b600455565b60055460005b81811015610e1a576110b081610cd4565b60010161109f565b600054604080517fe43581b8000000000000000000000000000000000000000000000000000000008152336004820152905161010090920473ffffffffffffffffffffffffffffffffffffffff169163e43581b891602480820192602092909190829003018186803b15801561112d57600080fd5b505afa158015611141573d6000803e3d6000fd5b505050506040513d602081101561115757600080fd5b50516111945760405162461bcd60e51b815260040180806020018281038252602f815260200180611f41602f913960400191505060405180910390fd5b600554839081106111ec576040805162461bcd60e51b815260206004820152601660248201527f76616c69646174655069643a204e6f7420657869737400000000000000000000604482015290519081900360640190fd5b81156111fa576111fa611099565b60006005858154811061120957fe5b9060005260206000209060040201600101549050836005868154811061122b57fe5b90600052602060002090600402016001018190555083811461126457611260846109f583600754611b6490919063ffffffff16565b6007555b5050505050565b600054604080517fe43581b8000000000000000000000000000000000000000000000000000000008152336004820152905161010090920473ffffffffffffffffffffffffffffffffffffffff169163e43581b891602480820192602092909190829003018186803b1580156112e057600080fd5b505afa1580156112f4573d6000803e3d6000fd5b505050506040513d602081101561130a57600080fd5b50516113475760405162461bcd60e51b815260040180806020018281038252602f815260200180611f41602f913960400191505060405180910390fd5b600080547fffffffffffffffffffffff0000000000000000000000000000000000000000ff1661010073ffffffffffffffffffffffffffffffffffffffff841690810291909117825560405190917fad9400e618eb1344fde53db22397a1b82c765527ecbba3a5c86bcac15090828b91a250565b600054604080517fe43581b8000000000000000000000000000000000000000000000000000000008152336004820152905161010090920473ffffffffffffffffffffffffffffffffffffffff169163e43581b891602480820192602092909190829003018186803b15801561143057600080fd5b505afa158015611444573d6000803e3d6000fd5b505050506040513d602081101561145a57600080fd5b5051806115045750600054604080517f0c68ba21000000000000000000000000000000000000000000000000000000008152336004820152905161010090920473ffffffffffffffffffffffffffffffffffffffff1691630c68ba2191602480820192602092909190829003018186803b1580156114d757600080fd5b505afa1580156114eb573d6000803e3d6000fd5b505050506040513d602081101561150157600080fd5b50515b61153f5760405162461bcd60e51b8152600401808060200182810382526045815260200180611fb46045913960600191505060405180910390fd5b610ccc611e92565b60045481565b60035481565b60045460009061156790610ddf8486611b64565b90505b92915050565b60066020908152600092835260408084209091529082529020805460019091015482565b600054604080517fe43581b8000000000000000000000000000000000000000000000000000000008152336004820152905161010090920473ffffffffffffffffffffffffffffffffffffffff169163e43581b891602480820192602092909190829003018186803b15801561160957600080fd5b505afa15801561161d573d6000803e3d6000fd5b505050506040513d602081101561163357600080fd5b50516116705760405162461bcd60e51b815260040180806020018281038252602f815260200180611f41602f913960400191505060405180910390fd5b60095443106116c6576040805162461bcd60e51b815260206004820181905260248201527f4d6173746572436865663a3a6164643a2045786365656420656e64626c6f636b604482015290519081900360640190fd5b80156116d4576116d4611099565b600060085443116116e7576008546116e9565b435b6007549091506116f99084611d64565b600755604080516080810182526000808252602082019586529181019283526060810182815260058054600181018255935290517f036b6384b5eca791c62761152d0c79bb0604c104a5fb6f4eb0703f3154bb3db060049093029283015593517f036b6384b5eca791c62761152d0c79bb0604c104a5fb6f4eb0703f3154bb3db182015590517f036b6384b5eca791c62761152d0c79bb0604c104a5fb6f4eb0703f3154bb3db282015591517f036b6384b5eca791c62761152d0c79bb0604c104a5fb6f4eb0703f3154bb3db39092019190915550565b60026001541415611828576040805162461bcd60e51b815260206004820152601f60248201527f5265656e7472616e637947756172643a207265656e7472616e742063616c6c00604482015290519081900360640190fd5b60026001556000805b6005548110156118e05760006005828154811061184a57fe5b6000918252602080832085845260068252604080852033865290925292206004909102909101915061187b83610cd4565b6118a781600101546109c864e8d4a510006109c286600301548660000154611aa490919063ffffffff16565b840193506118cf64e8d4a510006109c284600301548460000154611aa490919063ffffffff16565b600191820155919091019050611831565b5080156118f3576118f13382611bc1565b505b5060018055565b600054610100900473ffffffffffffffffffffffffffffffffffffffff1690565b60055460009082908110611976576040805162461bcd60e51b815260206004820152601660248201527f76616c69646174655069643a204e6f7420657869737400000000000000000000604482015290519081900360640190fd5b60006005848154811061198557fe5b6000918252602080832087845260068252604080852073ffffffffffffffffffffffffffffffffffffffff8b16865290925292206003600490920290920190810154600282015491935090431180156119de5750825415155b15611a55576000611a0684600201546009544310156119fd5743611a01565b6009545b611553565b90506000611a2d6007546109c28760010154610ddf60035487611aa490919063ffffffff16565b8554909150611a5090611a49906109c28464e8d4a51000611aa4565b8490611d64565b925050505b611a7d82600101546109c864e8d4a510006109c2858760000154611aa490919063ffffffff16565b979650505050505050565b60025473ffffffffffffffffffffffffffffffffffffffff1681565b600082611ab35750600061156a565b82820282848281611ac057fe5b04146115675760405162461bcd60e51b8152600401808060200182810382526021815260200180611f936021913960400191505060405180910390fd5b6000808211611b53576040805162461bcd60e51b815260206004820152601a60248201527f536166654d6174683a206469766973696f6e206279207a65726f000000000000604482015290519081900360640190fd5b818381611b5c57fe5b049392505050565b600082821115611bbb576040805162461bcd60e51b815260206004820152601e60248201527f536166654d6174683a207375627472616374696f6e206f766572666c6f770000604482015290519081900360640190fd5b50900390565b600254604080517f70a082310000000000000000000000000000000000000000000000000000000081523060048201529051600092839273ffffffffffffffffffffffffffffffffffffffff909116916370a0823191602480820192602092909190829003018186803b158015611c3757600080fd5b505afa158015611c4b573d6000803e3d6000fd5b505050506040513d6020811015611c6157600080fd5b50519050600081841115611c76575080611c79565b50825b600254604080517fa9059cbb00000000000000000000000000000000000000000000000000000000815273ffffffffffffffffffffffffffffffffffffffff8881166004830152602482018590529151919092169163a9059cbb9160448083019260209291908290030181600087803b158015611cf557600080fd5b505af1158015611d09573d6000803e3d6000fd5b505050506040513d6020811015611d1f57600080fd5b5051611d5c5760405162461bcd60e51b8152600401808060200182810382526023815260200180611f706023913960400191505060405180910390fd5b949350505050565b600082820183811015611567576040805162461bcd60e51b815260206004820152601b60248201527f536166654d6174683a206164646974696f6e206f766572666c6f770000000000604482015290519081900360640190fd5b611dc6610faf565b611e17576040805162461bcd60e51b815260206004820152601460248201527f5061757361626c653a206e6f7420706175736564000000000000000000000000604482015290519081900360640190fd5b600080547fffffffffffffffffffffffffffffffffffffffffffffffffffffffffffffff001690557f5db9ee0a495bf2e6ff9c91a7834c1ba4fdd244a5e8aa4e537bd38aeae4b073aa611e68611f3c565b6040805173ffffffffffffffffffffffffffffffffffffffff9092168252519081900360200190a1565b611e9a610faf565b15611eec576040805162461bcd60e51b815260206004820152601060248201527f5061757361626c653a2070617573656400000000000000000000000000000000604482015290519081900360640190fd5b600080547fffffffffffffffffffffffffffffffffffffffffffffffffffffffffffffff001660011790557f62e78cea01bee320cd4e420270b5ea74000d11b0c9f74754ebdbfc544b05a258611e685b339056fe436f72655265663a3a6f6e6c79476f7665726e6f723a2043616c6c6572206973206e6f74206120676f7665726e6f72736166655265776172645472616e736665723a205472616e73666572206661696c6564536166654d6174683a206d756c7469706c69636174696f6e206f766572666c6f77436f72655265663a3a6f6e6c79477561726469616e4f72476f7665726e6f723a2043616c6c6572206973206e6f74206120677561726469616e206f7220676f7665726e6f72436f72655265663a3a6f6e6c79477561726469616e3a2043616c6c6572206973206e6f74206120677561726469616ea2646970667358221220adb6709efeaad920db20c6617eb360e09fb20276f5df0520b5e0a244300464b864736f6c634300060c0033",
  "linkReferences": {},
  "deployedLinkReferences": {}
}