{
  "_format": "hh-sol-artifact-1",
  "contractName": "Permissions",
  "sourceName": "contracts/core/Permissions.sol",
  "abi": [
    {
      "inputs": [],
      "stateMutability": "nonpayable",
      "type": "constructor"
    },
    {
      "anonymous": false,
      "inputs": [
        {
          "indexed": true,
          "internalType": "bytes32",
          "name": "role",
          "type": "bytes32"
        },
        {
          "indexed": true,
          "internalType": "bytes32",
          "name": "previousAdminRole",
          "type": "bytes32"
        },
        {
          "indexed": true,
          "internalType": "bytes32",
          "name": "newAdminRole",
          "type": "bytes32"
        }
      ],
      "name": "RoleAdminChanged",
      "type": "event"
    },
    {
      "anonymous": false,
      "inputs": [
        {
          "indexed": true,
          "internalType": "bytes32",
          "name": "role",
          "type": "bytes32"
        },
        {
          "indexed": true,
          "internalType": "address",
          "name": "account",
          "type": "address"
        },
        {
          "indexed": true,
          "internalType": "address",
          "name": "sender",
          "type": "address"
        }
      ],
      "name": "RoleGranted",
      "type": "event"
    },
    {
      "anonymous": false,
      "inputs": [
        {
          "indexed": true,
          "internalType": "bytes32",
          "name": "role",
          "type": "bytes32"
        },
        {
          "indexed": true,
          "internalType": "address",
          "name": "account",
          "type": "address"
        },
        {
          "indexed": true,
          "internalType": "address",
          "name": "sender",
          "type": "address"
        }
      ],
      "name": "RoleRevoked",
      "type": "event"
    },
    {
      "inputs": [],
      "name": "DEFAULT_ADMIN_ROLE",
      "outputs": [
        {
          "internalType": "bytes32",
          "name": "",
          "type": "bytes32"
        }
      ],
      "stateMutability": "view",
      "type": "function"
    },
    {
      "inputs": [],
      "name": "GOVERN_ROLE",
      "outputs": [
        {
          "internalType": "bytes32",
          "name": "",
          "type": "bytes32"
        }
      ],
      "stateMutability": "view",
      "type": "function"
    },
    {
      "inputs": [],
      "name": "GUARDIAN_ROLE",
      "outputs": [
        {
          "internalType": "bytes32",
          "name": "",
          "type": "bytes32"
        }
      ],
      "stateMutability": "view",
      "type": "function"
    },
    {
      "inputs": [
        {
          "internalType": "bytes32",
          "name": "role",
          "type": "bytes32"
        },
        {
          "internalType": "bytes32",
          "name": "adminRole",
          "type": "bytes32"
        }
      ],
      "name": "createRole",
      "outputs": [],
      "stateMutability": "nonpayable",
      "type": "function"
    },
    {
      "inputs": [
        {
          "internalType": "bytes32",
          "name": "role",
          "type": "bytes32"
        }
      ],
      "name": "getRoleAdmin",
      "outputs": [
        {
          "internalType": "bytes32",
          "name": "",
          "type": "bytes32"
        }
      ],
      "stateMutability": "view",
      "type": "function"
    },
    {
      "inputs": [
        {
          "internalType": "bytes32",
          "name": "role",
          "type": "bytes32"
        },
        {
          "internalType": "uint256",
          "name": "index",
          "type": "uint256"
        }
      ],
      "name": "getRoleMember",
      "outputs": [
        {
          "internalType": "address",
          "name": "",
          "type": "address"
        }
      ],
      "stateMutability": "view",
      "type": "function"
    },
    {
      "inputs": [
        {
          "internalType": "bytes32",
          "name": "role",
          "type": "bytes32"
        }
      ],
      "name": "getRoleMemberCount",
      "outputs": [
        {
          "internalType": "uint256",
          "name": "",
          "type": "uint256"
        }
      ],
      "stateMutability": "view",
      "type": "function"
    },
    {
      "inputs": [
        {
          "internalType": "address",
          "name": "governor",
          "type": "address"
        }
      ],
      "name": "grantGovernor",
      "outputs": [],
      "stateMutability": "nonpayable",
      "type": "function"
    },
    {
      "inputs": [
        {
          "internalType": "address",
          "name": "guardian",
          "type": "address"
        }
      ],
      "name": "grantGuardian",
      "outputs": [],
      "stateMutability": "nonpayable",
      "type": "function"
    },
    {
      "inputs": [
        {
          "internalType": "bytes32",
          "name": "role",
          "type": "bytes32"
        },
        {
          "internalType": "address",
          "name": "account",
          "type": "address"
        }
      ],
      "name": "grantRole",
      "outputs": [],
      "stateMutability": "nonpayable",
      "type": "function"
    },
    {
      "inputs": [
        {
          "internalType": "bytes32",
          "name": "role",
          "type": "bytes32"
        },
        {
          "internalType": "address",
          "name": "account",
          "type": "address"
        }
      ],
      "name": "hasRole",
      "outputs": [
        {
          "internalType": "bool",
          "name": "",
          "type": "bool"
        }
      ],
      "stateMutability": "view",
      "type": "function"
    },
    {
      "inputs": [
        {
          "internalType": "address",
          "name": "_address",
          "type": "address"
        }
      ],
      "name": "isGovernor",
      "outputs": [
        {
          "internalType": "bool",
          "name": "",
          "type": "bool"
        }
      ],
      "stateMutability": "view",
      "type": "function"
    },
    {
      "inputs": [
        {
          "internalType": "address",
          "name": "_address",
          "type": "address"
        }
      ],
      "name": "isGuardian",
      "outputs": [
        {
          "internalType": "bool",
          "name": "",
          "type": "bool"
        }
      ],
      "stateMutability": "view",
      "type": "function"
    },
    {
      "inputs": [
        {
          "internalType": "bytes32",
          "name": "role",
          "type": "bytes32"
        },
        {
          "internalType": "address",
          "name": "account",
          "type": "address"
        }
      ],
      "name": "renounceRole",
      "outputs": [],
      "stateMutability": "nonpayable",
      "type": "function"
    },
    {
      "inputs": [
        {
          "internalType": "address",
          "name": "governor",
          "type": "address"
        }
      ],
      "name": "revokeGovernor",
      "outputs": [],
      "stateMutability": "nonpayable",
      "type": "function"
    },
    {
      "inputs": [
        {
          "internalType": "address",
          "name": "guardian",
          "type": "address"
        }
      ],
      "name": "revokeGuardian",
      "outputs": [],
      "stateMutability": "nonpayable",
      "type": "function"
    },
    {
      "inputs": [
        {
          "internalType": "bytes32",
          "name": "role",
          "type": "bytes32"
        },
        {
          "internalType": "address",
          "name": "account",
          "type": "address"
        }
      ],
      "name": "revokeRole",
      "outputs": [],
      "stateMutability": "nonpayable",
      "type": "function"
    }
  ],
  "bytecode": "0x60806040523480156200001157600080fd5b506200001d3062000079565b6200003860008051602062000f268339815191528062000097565b620000737f55435dd261a4b9b3364963f7738a7a662ad9c84396d64be3365284bb7f0a504160008051602062000f2683398151915262000097565b620001fd565b6200009460008051602062000f2683398151915282620000e9565b50565b600082815260208190526040808220600201549051839285917fbd79b86ffe0ab8e8776151514217cd7cacd52c909f66475c3af44e129f0b00ff9190a460009182526020829052604090912060020155565b620000f58282620000f9565b5050565b6000828152602081815260409091206200011e918390620006a762000172821b17901c565b15620000f5576200012e62000192565b6001600160a01b0316816001600160a01b0316837f2f8788117e7eff1d82e926ec794901d17c78024a50270940304540a733656f0d60405160405180910390a45050565b600062000189836001600160a01b03841662000196565b90505b92915050565b3390565b6000620001a48383620001e5565b620001dc575081546001818101845560008481526020808220909301849055845484825282860190935260409020919091556200018c565b5060006200018c565b60009081526001919091016020526040902054151590565b610d19806200020d6000396000f3fe608060405234801561001057600080fd5b506004361061011b5760003560e01c80639010d07c116100b2578063af648c3d11610081578063d547741f11610066578063d547741f1461023b578063e43581b81461024e578063e6eb982f146102615761011b565b8063af648c3d14610215578063ca15c873146102285761011b565b80639010d07c146101c757806391d14854146101e757806394b1d2c0146101fa578063a217fddf1461020d5761011b565b806336568abe116100ee57806336568abe1461018657806338b7f44614610199578063395c62e8146101a15780634c9f9384146101b45761011b565b80630c68ba2114610120578063248a9ca31461014957806324ea54f4146101695780632f2ff15d14610171575b600080fd5b61013361012e366004610a29565b610274565b6040516101409190610afe565b60405180910390f35b61015c610157366004610a5d565b6102a6565b6040516101409190610b09565b61015c6102bb565b61018461017f366004610a75565b6102df565b005b610184610194366004610a75565b61034a565b61015c6103c0565b6101846101af366004610a29565b6103e4565b6101846101c2366004610abc565b610450565b6101da6101d5366004610abc565b610499565b6040516101409190610add565b6101336101f5366004610a75565b6104b8565b610184610208366004610a29565b6104d0565b61015c610539565b610184610223366004610a29565b61053e565b61015c610236366004610a5d565b6105a7565b610184610249366004610a75565b6105be565b61013361025c366004610a29565b610612565b61018461026f366004610a29565b61063e565b60006102a07f55435dd261a4b9b3364963f7738a7a662ad9c84396d64be3365284bb7f0a5041836104b8565b92915050565b60009081526020819052604090206002015490565b7f55435dd261a4b9b3364963f7738a7a662ad9c84396d64be3365284bb7f0a504181565b6000828152602081905260409020600201546102fd906101f56106c9565b61033c576040517f08c379a000000000000000000000000000000000000000000000000000000000815260040161033390610b6f565b60405180910390fd5b61034682826106cd565b5050565b6103526106c9565b73ffffffffffffffffffffffffffffffffffffffff168173ffffffffffffffffffffffffffffffffffffffff16146103b6576040517f08c379a000000000000000000000000000000000000000000000000000000000815260040161033390610c86565b6103468282610750565b7f899bd46557473cb80307a9dabc297131ced39608330a2d29b2d52b660c03923e81565b6103ed33610612565b610423576040517f08c379a000000000000000000000000000000000000000000000000000000000815260040161033390610c29565b61044d7f899bd46557473cb80307a9dabc297131ced39608330a2d29b2d52b660c03923e826102df565b50565b61045933610612565b61048f576040517f08c379a000000000000000000000000000000000000000000000000000000000815260040161033390610c29565b61034682826107d3565b60008281526020819052604081206104b19083610825565b9392505050565b60008281526020819052604081206104b19083610831565b6104d933610612565b61050f576040517f08c379a000000000000000000000000000000000000000000000000000000000815260040161033390610c29565b61044d7f55435dd261a4b9b3364963f7738a7a662ad9c84396d64be3365284bb7f0a5041826102df565b600081565b61054733610612565b61057d576040517f08c379a000000000000000000000000000000000000000000000000000000000815260040161033390610c29565b61044d7f55435dd261a4b9b3364963f7738a7a662ad9c84396d64be3365284bb7f0a5041826105be565b60008181526020819052604081206102a090610853565b6000828152602081905260409020600201546105dc906101f56106c9565b6103b6576040517f08c379a000000000000000000000000000000000000000000000000000000000815260040161033390610bcc565b60006102a07f899bd46557473cb80307a9dabc297131ced39608330a2d29b2d52b660c03923e836104b8565b61064733610612565b61067d576040517f08c379a000000000000000000000000000000000000000000000000000000000815260040161033390610c29565b61044d7f899bd46557473cb80307a9dabc297131ced39608330a2d29b2d52b660c03923e826105be565b60006104b18373ffffffffffffffffffffffffffffffffffffffff841661085e565b3390565b60008281526020819052604090206106e590826106a7565b15610346576106f26106c9565b73ffffffffffffffffffffffffffffffffffffffff168173ffffffffffffffffffffffffffffffffffffffff16837f2f8788117e7eff1d82e926ec794901d17c78024a50270940304540a733656f0d60405160405180910390a45050565b600082815260208190526040902061076890826108a8565b15610346576107756106c9565b73ffffffffffffffffffffffffffffffffffffffff168173ffffffffffffffffffffffffffffffffffffffff16837ff6391f5c32d9c69d2a47ea670b442974b53935d1edc7fd64eb21e047a839171b60405160405180910390a45050565b600082815260208190526040808220600201549051839285917fbd79b86ffe0ab8e8776151514217cd7cacd52c909f66475c3af44e129f0b00ff9190a460009182526020829052604090912060020155565b60006104b183836108ca565b60006104b18373ffffffffffffffffffffffffffffffffffffffff8416610929565b60006102a082610941565b600061086a8383610929565b6108a0575081546001818101845560008481526020808220909301849055845484825282860190935260409020919091556102a0565b5060006102a0565b60006104b18373ffffffffffffffffffffffffffffffffffffffff8416610945565b81546000908210610907576040517f08c379a000000000000000000000000000000000000000000000000000000000815260040161033390610b12565b82600001828154811061091657fe5b9060005260206000200154905092915050565b60009081526001919091016020526040902054151590565b5490565b60008181526001830160205260408120548015610a1f5783547fffffffffffffffffffffffffffffffffffffffffffffffffffffffffffffffff808301919081019060009087908390811061099657fe5b90600052602060002001549050808760000184815481106109b357fe5b6000918252602080832090910192909255828152600189810190925260409020908401905586548790806109e357fe5b600190038181906000526020600020016000905590558660010160008781526020019081526020016000206000905560019450505050506102a0565b60009150506102a0565b600060208284031215610a3a578081fd5b813573ffffffffffffffffffffffffffffffffffffffff811681146104b1578182fd5b600060208284031215610a6e578081fd5b5035919050565b60008060408385031215610a87578081fd5b82359150602083013573ffffffffffffffffffffffffffffffffffffffff81168114610ab1578182fd5b809150509250929050565b60008060408385031215610ace578182fd5b50508035926020909101359150565b73ffffffffffffffffffffffffffffffffffffffff91909116815260200190565b901515815260200190565b90815260200190565b60208082526022908201527f456e756d657261626c655365743a20696e646578206f7574206f6620626f756e60408201527f6473000000000000000000000000000000000000000000000000000000000000606082015260800190565b6020808252602f908201527f416363657373436f6e74726f6c3a2073656e646572206d75737420626520616e60408201527f2061646d696e20746f206772616e740000000000000000000000000000000000606082015260800190565b60208082526030908201527f416363657373436f6e74726f6c3a2073656e646572206d75737420626520616e60408201527f2061646d696e20746f207265766f6b6500000000000000000000000000000000606082015260800190565b60208082526033908201527f5065726d697373696f6e733a3a6f6e6c79476f7665726e6f723a2043616c6c6560408201527f72206973206e6f74206120676f7665726e6f7200000000000000000000000000606082015260800190565b6020808252602f908201527f416363657373436f6e74726f6c3a2063616e206f6e6c792072656e6f756e636560408201527f20726f6c657320666f722073656c66000000000000000000000000000000000060608201526080019056fea264697066735822122092a83699ba172aea52a94d3bd490d857ac6be2adf13032aabe58119597a5e51364736f6c634300060c0033899bd46557473cb80307a9dabc297131ced39608330a2d29b2d52b660c03923e",
  "linkReferences": {},
  "deployedLinkReferences": {}
}