{
  "_format": "hh-sol-artifact-1",
  "contractName": "SingleStrategyToken",
  "sourceName": "contracts/strategy/SingleStrategyToken.sol",
  "abi": [
    {
      "inputs": [
        {
          "internalType": "string",
          "name": "name_",
          "type": "string"
        },
        {
          "internalType": "string",
          "name": "symbol_",
          "type": "string"
        },
        {
          "internalType": "address",
          "name": "_token",
          "type": "address"
        },
        {
          "internalType": "address",
          "name": "_strategy",
          "type": "address"
        }
      ],
      "stateMutability": "nonpayable",
      "type": "constructor"
    },
    {
      "anonymous": false,
      "inputs": [
        {
          "indexed": true,
          "internalType": "address",
          "name": "owner",
          "type": "address"
        },
        {
          "indexed": true,
          "internalType": "address",
          "name": "spender",
          "type": "address"
        },
        {
          "indexed": false,
          "internalType": "uint256",
          "name": "value",
          "type": "uint256"
        }
      ],
      "name": "Approval",
      "type": "event"
    },
    {
      "anonymous": false,
      "inputs": [
        {
          "indexed": false,
          "internalType": "address",
          "name": "tokenAddress",
          "type": "address"
        },
        {
          "indexed": false,
          "internalType": "uint256",
          "name": "depositAmount",
          "type": "uint256"
        },
        {
          "indexed": false,
          "internalType": "uint256",
          "name": "sharesMinted",
          "type": "uint256"
        }
      ],
      "name": "Deposit",
      "type": "event"
    },
    {
      "anonymous": false,
      "inputs": [
        {
          "indexed": false,
          "internalType": "uint256",
          "name": "amountSupplied",
          "type": "uint256"
        },
        {
          "indexed": false,
          "internalType": "uint256",
          "name": "amountDeposited",
          "type": "uint256"
        }
      ],
      "name": "Supply",
      "type": "event"
    },
    {
      "anonymous": false,
      "inputs": [
        {
          "indexed": true,
          "internalType": "address",
          "name": "from",
          "type": "address"
        },
        {
          "indexed": true,
          "internalType": "address",
          "name": "to",
          "type": "address"
        },
        {
          "indexed": false,
          "internalType": "uint256",
          "name": "value",
          "type": "uint256"
        }
      ],
      "name": "Transfer",
      "type": "event"
    },
    {
      "anonymous": false,
      "inputs": [
        {
          "indexed": false,
          "internalType": "address",
          "name": "tokenAddress",
          "type": "address"
        },
        {
          "indexed": false,
          "internalType": "uint256",
          "name": "withdrawAmount",
          "type": "uint256"
        },
        {
          "indexed": false,
          "internalType": "uint256",
          "name": "sharesBurnt",
          "type": "uint256"
        }
      ],
      "name": "Withdraw",
      "type": "event"
    },
    {
      "inputs": [
        {
          "internalType": "address",
          "name": "owner",
          "type": "address"
        },
        {
          "internalType": "address",
          "name": "spender",
          "type": "address"
        }
      ],
      "name": "allowance",
      "outputs": [
        {
          "internalType": "uint256",
          "name": "",
          "type": "uint256"
        }
      ],
      "stateMutability": "view",
      "type": "function"
    },
    {
      "inputs": [
        {
          "internalType": "uint256",
          "name": "_amount",
          "type": "uint256"
        }
      ],
      "name": "amountToShares",
      "outputs": [
        {
          "internalType": "uint256",
          "name": "shares",
          "type": "uint256"
        }
      ],
      "stateMutability": "view",
      "type": "function"
    },
    {
      "inputs": [
        {
          "internalType": "address",
          "name": "spender",
          "type": "address"
        },
        {
          "internalType": "uint256",
          "name": "amount",
          "type": "uint256"
        }
      ],
      "name": "approve",
      "outputs": [
        {
          "internalType": "bool",
          "name": "",
          "type": "bool"
        }
      ],
      "stateMutability": "nonpayable",
      "type": "function"
    },
    {
      "inputs": [],
      "name": "approveToken",
      "outputs": [],
      "stateMutability": "nonpayable",
      "type": "function"
    },
    {
      "inputs": [],
      "name": "balance",
      "outputs": [
        {
          "internalType": "uint256",
          "name": "",
          "type": "uint256"
        }
      ],
      "stateMutability": "view",
      "type": "function"
    },
    {
      "inputs": [
        {
          "internalType": "address",
          "name": "account",
          "type": "address"
        }
      ],
      "name": "balanceOf",
      "outputs": [
        {
          "internalType": "uint256",
          "name": "",
          "type": "uint256"
        }
      ],
      "stateMutability": "view",
      "type": "function"
    },
    {
      "inputs": [],
      "name": "balanceStrategy",
      "outputs": [
        {
          "internalType": "uint256",
          "name": "",
          "type": "uint256"
        }
      ],
      "stateMutability": "view",
      "type": "function"
    },
    {
      "inputs": [],
      "name": "calcPoolValueInToken",
      "outputs": [
        {
          "internalType": "uint256",
          "name": "",
          "type": "uint256"
        }
      ],
      "stateMutability": "view",
      "type": "function"
    },
    {
      "inputs": [],
      "name": "decimals",
      "outputs": [
        {
          "internalType": "uint8",
          "name": "",
          "type": "uint8"
        }
      ],
      "stateMutability": "view",
      "type": "function"
    },
    {
      "inputs": [
        {
          "internalType": "address",
          "name": "spender",
          "type": "address"
        },
        {
          "internalType": "uint256",
          "name": "subtractedValue",
          "type": "uint256"
        }
      ],
      "name": "decreaseAllowance",
      "outputs": [
        {
          "internalType": "bool",
          "name": "",
          "type": "bool"
        }
      ],
      "stateMutability": "nonpayable",
      "type": "function"
    },
    {
      "inputs": [
        {
          "internalType": "uint256",
          "name": "_amount",
          "type": "uint256"
        },
        {
          "internalType": "uint256",
          "name": "_minShares",
          "type": "uint256"
        }
      ],
      "name": "deposit",
      "outputs": [],
      "stateMutability": "nonpayable",
      "type": "function"
    },
    {
      "inputs": [],
      "name": "getPricePerFullShare",
      "outputs": [
        {
          "internalType": "uint256",
          "name": "",
          "type": "uint256"
        }
      ],
      "stateMutability": "view",
      "type": "function"
    },
    {
      "inputs": [
        {
          "internalType": "address",
          "name": "spender",
          "type": "address"
        },
        {
          "internalType": "uint256",
          "name": "addedValue",
          "type": "uint256"
        }
      ],
      "name": "increaseAllowance",
      "outputs": [
        {
          "internalType": "bool",
          "name": "",
          "type": "bool"
        }
      ],
      "stateMutability": "nonpayable",
      "type": "function"
    },
    {
      "inputs": [],
      "name": "name",
      "outputs": [
        {
          "internalType": "string",
          "name": "",
          "type": "string"
        }
      ],
      "stateMutability": "view",
      "type": "function"
    },
    {
      "inputs": [
        {
          "internalType": "uint256",
          "name": "_shares",
          "type": "uint256"
        }
      ],
      "name": "sharesToAmount",
      "outputs": [
        {
          "internalType": "uint256",
          "name": "",
          "type": "uint256"
        }
      ],
      "stateMutability": "view",
      "type": "function"
    },
    {
      "inputs": [],
      "name": "strategy",
      "outputs": [
        {
          "internalType": "address",
          "name": "",
          "type": "address"
        }
      ],
      "stateMutability": "view",
      "type": "function"
    },
    {
      "inputs": [],
      "name": "supplyStrategy",
      "outputs": [],
      "stateMutability": "nonpayable",
      "type": "function"
    },
    {
      "inputs": [],
      "name": "symbol",
      "outputs": [
        {
          "internalType": "string",
          "name": "",
          "type": "string"
        }
      ],
      "stateMutability": "view",
      "type": "function"
    },
    {
      "inputs": [],
      "name": "token",
      "outputs": [
        {
          "internalType": "address",
          "name": "",
          "type": "address"
        }
      ],
      "stateMutability": "view",
      "type": "function"
    },
    {
      "inputs": [],
      "name": "totalSupply",
      "outputs": [
        {
          "internalType": "uint256",
          "name": "",
          "type": "uint256"
        }
      ],
      "stateMutability": "view",
      "type": "function"
    },
    {
      "inputs": [
        {
          "internalType": "address",
          "name": "recipient",
          "type": "address"
        },
        {
          "internalType": "uint256",
          "name": "amount",
          "type": "uint256"
        }
      ],
      "name": "transfer",
      "outputs": [
        {
          "internalType": "bool",
          "name": "",
          "type": "bool"
        }
      ],
      "stateMutability": "nonpayable",
      "type": "function"
    },
    {
      "inputs": [
        {
          "internalType": "address",
          "name": "sender",
          "type": "address"
        },
        {
          "internalType": "address",
          "name": "recipient",
          "type": "address"
        },
        {
          "internalType": "uint256",
          "name": "amount",
          "type": "uint256"
        }
      ],
      "name": "transferFrom",
      "outputs": [
        {
          "internalType": "bool",
          "name": "",
          "type": "bool"
        }
      ],
      "stateMutability": "nonpayable",
      "type": "function"
    },
    {
      "inputs": [],
      "name": "updateStrategy",
      "outputs": [],
      "stateMutability": "nonpayable",
      "type": "function"
    },
    {
      "inputs": [
        {
          "internalType": "uint256",
          "name": "_shares",
          "type": "uint256"
        },
        {
          "internalType": "uint256",
          "name": "_minAmount",
          "type": "uint256"
        }
      ],
      "name": "withdraw",
      "outputs": [],
      "stateMutability": "nonpayable",
      "type": "function"
    }
  ],
  "bytecode": "0x60806040523480156200001157600080fd5b506040516200257f3803806200257f833981810160405260808110156200003757600080fd5b81019080805160405193929190846401000000008211156200005857600080fd5b9083019060208201858111156200006e57600080fd5b82516401000000008111828201881017156200008957600080fd5b82525081516020918201929091019080838360005b83811015620000b85781810151838201526020016200009e565b50505050905090810190601f168015620000e65780820380516001836020036101000a031916815260200191505b50604052602001805160405193929190846401000000008211156200010a57600080fd5b9083019060208201858111156200012057600080fd5b82516401000000008111828201881017156200013b57600080fd5b82525081516020918201929091019080838360005b838110156200016a57818101518382015260200162000150565b50505050905090810190601f168015620001985780820380516001836020036101000a031916815260200191505b50604090815260208281015192909101518651929450925085918591620001c59160039185019062000706565b508051620001db90600490602084019062000706565b50506005805460ff19166012179055506001600655600780546001600160a01b038085166001600160a01b0319928316811790935560088054918516919092161790556040805163313ce56760e01b815290516200029a929163313ce567916004808301926020929190829003018186803b1580156200025a57600080fd5b505afa1580156200026f573d6000803e3d6000fd5b505050506040513d60208110156200028657600080fd5b5051620002ae602090811b62000b6f17901c565b620002a4620002c4565b50505050620007a2565b6005805460ff191660ff92909216919091179055565b600854600754620002f1916001600160a01b039182169116600019620002f3602090811b62000ba317901c565b565b8015806200037d575060408051636eb1769f60e11b81523060048201526001600160a01b03848116602483015291519185169163dd62ed3e91604480820192602092909190829003018186803b1580156200034d57600080fd5b505afa15801562000362573d6000803e3d6000fd5b505050506040513d60208110156200037957600080fd5b5051155b620003ba5760405162461bcd60e51b8152600401808060200182810382526036815260200180620025496036913960400191505060405180910390fd5b604080516001600160a01b038416602482015260448082018490528251808303909101815260649091019091526020810180516001600160e01b0390811663095ea7b360e01b17909152620004129185916200041716565b505050565b606062000473826040518060400160405280602081526020017f5361666545524332303a206c6f772d6c6576656c2063616c6c206661696c6564815250856001600160a01b0316620004d360201b62000cfd179092919060201c565b80519091501562000412578080602001905160208110156200049457600080fd5b5051620004125760405162461bcd60e51b815260040180806020018281038252602a8152602001806200251f602a913960400191505060405180910390fd5b6060620004e48484600085620004ee565b90505b9392505050565b606082471015620005315760405162461bcd60e51b8152600401808060200182810382526026815260200180620024f96026913960400191505060405180910390fd5b6200053c8562000656565b6200058e576040805162461bcd60e51b815260206004820152601d60248201527f416464726573733a2063616c6c20746f206e6f6e2d636f6e7472616374000000604482015290519081900360640190fd5b60006060866001600160a01b031685876040518082805190602001908083835b60208310620005cf5780518252601f199092019160209182019101620005ae565b6001836020036101000a03801982511681845116808217855250505050505090500191505060006040518083038185875af1925050503d806000811462000633576040519150601f19603f3d011682016040523d82523d6000602084013e62000638565b606091505b5090925090506200064b8282866200065c565b979650505050505050565b3b151590565b606083156200066d575081620004e7565b8251156200067e5782518084602001fd5b8160405162461bcd60e51b81526004018080602001828103825283818151815260200191508051906020019080838360005b83811015620006ca578181015183820152602001620006b0565b50505050905090810190601f168015620006f85780820380516001836020036101000a031916815260200191505b509250505060405180910390fd5b828054600181600116156101000203166002900490600052602060002090601f016020900481019282601f106200074957805160ff191683800117855562000779565b8280016001018555821562000779579182015b82811115620007795782518255916020019190600101906200075c565b50620007879291506200078b565b5090565b5b808211156200078757600081556001016200078c565b611d4780620007b26000396000f3fe608060405234801561001057600080fd5b50600436106101985760003560e01c806377c7b8fc116100e3578063b233f0481161008c578063dd62ed3e11610066578063dd62ed3e14610435578063e2bbb15814610463578063fc0c546a1461048657610198565b8063b233f04814610408578063b69ef8a814610410578063b811540e1461041857610198565b8063a457c2d7116100bd578063a457c2d71461038c578063a8c62e76146103b8578063a9059cbb146103dc57610198565b806377c7b8fc1461037457806395d89b411461037c57806399b71d5c1461038457610198565b806339509351116101455780635af2ad0a1161011f5780635af2ad0a1461033e57806370a08231146103465780637137ef991461036c57610198565b806339509351146102d2578063441a3e70146102fe578063555d8ebb1461032157610198565b806323b872dd1161017657806323b872dd146102745780632fddd913146102aa578063313ce567146102b457610198565b806306fdde031461019d578063095ea7b31461021a57806318160ddd1461025a575b600080fd5b6101a561048e565b6040805160208082528351818301528351919283929083019185019080838360005b838110156101df5781810151838201526020016101c7565b50505050905090810190601f16801561020c5780820380516001836020036101000a031916815260200191505b509250505060405180910390f35b6102466004803603604081101561023057600080fd5b506001600160a01b038135169060200135610542565b604080519115158252519081900360200190f35b610262610560565b60408051918252519081900360200190f35b6102466004803603606081101561028a57600080fd5b506001600160a01b03813581169160208101359091169060400135610566565b6102b26105ee565b005b6102bc610658565b6040805160ff9092168252519081900360200190f35b610246600480360360408110156102e857600080fd5b506001600160a01b038135169060200135610661565b6102b26004803603604081101561031457600080fd5b50803590602001356106af565b6102626004803603602081101561033757600080fd5b50356106da565b6102626106ff565b6102626004803603602081101561035c57600080fd5b50356001600160a01b031661078e565b6102626107a9565b6102626107c9565b6101a56107f0565b6102b261086f565b610246600480360360408110156103a257600080fd5b506001600160a01b0381351690602001356108ae565b6103c0610916565b604080516001600160a01b039092168252519081900360200190f35b610246600480360360408110156103f257600080fd5b506001600160a01b038135169060200135610925565b6102b2610939565b610262610a0e565b6102626004803603602081101561042e57600080fd5b5035610a72565b6102626004803603604081101561044b57600080fd5b506001600160a01b0381358116916020013516610abd565b6102b26004803603604081101561047957600080fd5b5080359060200135610ae8565b6103c0610b60565b60038054604080516020601f60027fffffffffffffffffffffffffffffffffffffffffffffffffffffffffffffffff6101006001881615020190951694909404938401819004810282018101909252828152606093909290918301828280156105385780601f1061050d57610100808354040283529160200191610538565b820191906000526020600020905b81548152906001019060200180831161051b57829003601f168201915b5050505050905090565b600061055661054f610d14565b8484610d18565b5060015b92915050565b60025490565b6000610573848484610e04565b6105e38461057f610d14565b6105de85604051806060016040528060288152602001611bfb602891396001600160a01b038a166000908152600160205260408120906105bd610d14565b6001600160a01b031681526020810191909152604001600020549190610f5f565b610d18565b5060015b9392505050565b600860009054906101000a90046001600160a01b03166001600160a01b0316632fddd9136040518163ffffffff1660e01b8152600401600060405180830381600087803b15801561063e57600080fd5b505af1158015610652573d6000803e3d6000fd5b50505050565b60055460ff1690565b600061055661066e610d14565b846105de856001600061067f610d14565b6001600160a01b03908116825260208083019390935260409182016000908120918c168152925290205490610ff6565b60006106bb8383611050565b6007549091506106d5906001600160a01b031633836112b8565b505050565b600061055a6106e7610560565b6106f96106f26107a9565b8590611338565b90611391565b600854604080517f42da4eb300000000000000000000000000000000000000000000000000000000815290516000926001600160a01b0316916342da4eb3916004808301926020929190829003018186803b15801561075d57600080fd5b505afa158015610771573d6000803e3d6000fd5b505050506040513d602081101561078757600080fd5b5051905090565b6001600160a01b031660009081526020819052604090205490565b60006107c46107b6610a0e565b6107be6106ff565b90610ff6565b905090565b60006107c46107d6610560565b6106f9670de0b6b3a76400006107ea6107a9565b90611338565b60048054604080516020601f60027fffffffffffffffffffffffffffffffffffffffffffffffffffffffffffffffff6101006001881615020190951694909404938401819004810282018101909252828152606093909290918301828280156105385780601f1061050d57610100808354040283529160200191610538565b6008546007546108ac916001600160a01b0391821691167fffffffffffffffffffffffffffffffffffffffffffffffffffffffffffffffff610ba3565b565b60006105566108bb610d14565b846105de85604051806060016040528060258152602001611ced60259139600160006108e5610d14565b6001600160a01b03908116825260208083019390935260409182016000908120918d16815292529020549190610f5f565b6008546001600160a01b031681565b6000610556610932610d14565b8484610e04565b6109416105ee565b600061094b610a0e565b6008549091506000906001600160a01b031663b6b55f2561096a610a0e565b6040518263ffffffff1660e01b815260040180828152602001915050602060405180830381600087803b1580156109a057600080fd5b505af11580156109b4573d6000803e3d6000fd5b505050506040513d60208110156109ca57600080fd5b5051604080518481526020810183905281519293507f5e2aa66efd74cce82b21852e317e5490d9ecc9e6bb953ae24d90851258cc2f5c929081900390910190a15050565b600754604080517f70a0823100000000000000000000000000000000000000000000000000000000815230600482015290516000926001600160a01b0316916370a08231916024808301926020929190829003018186803b15801561075d57600080fd5b600080610a7d6107a9565b9050610a87610560565b1580610a91575080155b15610a9e57829150610ab7565b610ab4816106f9610aad610560565b8690611338565b91505b50919050565b6001600160a01b03918216600090815260016020908152604080832093909416825291909152205490565b81610b3a576040805162461bcd60e51b815260206004820152601e60248201527f6465706f736974206d7573742062652067726561746572207468616e20300000604482015290519081900360640190fd5b610b4482826113f8565b600754610b5c906001600160a01b0316333085611578565b5050565b6007546001600160a01b031681565b600580547fffffffffffffffffffffffffffffffffffffffffffffffffffffffffffffff001660ff92909216919091179055565b801580610c425750604080517fdd62ed3e0000000000000000000000000000000000000000000000000000000081523060048201526001600160a01b03848116602483015291519185169163dd62ed3e91604480820192602092909190829003018186803b158015610c1457600080fd5b505afa158015610c28573d6000803e3d6000fd5b505050506040513d6020811015610c3e57600080fd5b5051155b610c7d5760405162461bcd60e51b8152600401808060200182810382526036815260200180611cb76036913960400191505060405180910390fd5b604080516001600160a01b038416602482015260448082018490528251808303909101815260649091019091526020810180517bffffffffffffffffffffffffffffffffffffffffffffffffffffffff167f095ea7b3000000000000000000000000000000000000000000000000000000001790526106d59084906115fc565b6060610d0c84846000856116ad565b949350505050565b3390565b6001600160a01b038316610d5d5760405162461bcd60e51b8152600401808060200182810382526024815260200180611c696024913960400191505060405180910390fd5b6001600160a01b038216610da25760405162461bcd60e51b8152600401808060200182810382526022815260200180611b226022913960400191505060405180910390fd5b6001600160a01b03808416600081815260016020908152604080832094871680845294825291829020859055815185815291517f8c5be1e5ebec7d5bd14f71427d1e84f3dd0314c0f7b2291e5b200ac8c7c3b9259281900390910190a3505050565b6001600160a01b038316610e495760405162461bcd60e51b8152600401808060200182810382526025815260200180611c446025913960400191505060405180910390fd5b6001600160a01b038216610e8e5760405162461bcd60e51b8152600401808060200182810382526023815260200180611add6023913960400191505060405180910390fd5b610e998383836106d5565b610ed681604051806060016040528060268152602001611b44602691396001600160a01b0386166000908152602081905260409020549190610f5f565b6001600160a01b038085166000908152602081905260408082209390935590841681522054610f059082610ff6565b6001600160a01b038084166000818152602081815260409182902094909455805185815290519193928716927fddf252ad1be2c89b69c2b068fc378daa952ba7f163c4a11628f55a4df523b3ef92918290030190a3505050565b60008184841115610fee5760405162461bcd60e51b81526004018080602001828103825283818151815260200191508051906020019080838360005b83811015610fb3578181015183820152602001610f9b565b50505050905090810190601f168015610fe05780820380516001836020036101000a031916815260200191505b509250505060405180910390fd5b505050900390565b6000828201838110156105e7576040805162461bcd60e51b815260206004820152601b60248201527f536166654d6174683a206164646974696f6e206f766572666c6f770000000000604482015290519081900360640190fd5b6000600260065414156110aa576040805162461bcd60e51b815260206004820152601f60248201527f5265656e7472616e637947756172643a207265656e7472616e742063616c6c00604482015290519081900360640190fd5b600260065582611101576040805162461bcd60e51b815260206004820152601d60248201527f736861726573206d7573742062652067726561746572207468616e2030000000604482015290519081900360640190fd5b600061110c3361078e565b905080841115611163576040805162461bcd60e51b815260206004820152601460248201527f696e73756666696369656e742062616c616e6365000000000000000000000000604482015290519081900360640190fd5b61116b6105ee565b6000611176856106da565b90506111823386611827565b600061118c610a0e565b90508181101561121f576008546001600160a01b0316632e1a7d4d6111b18484611923565b6040518263ffffffff1660e01b815260040180828152602001915050602060405180830381600087803b1580156111e757600080fd5b505af11580156111fb573d6000803e3d6000fd5b505050506040513d602081101561121157600080fd5b5061121c9050610a0e565b91505b8482101561125e5760405162461bcd60e51b8152600401808060200182810382526025815260200180611b906025913960400191505060405180910390fd5b600754604080516001600160a01b03909216825260208201849052818101889052517ff279e6a1f5e320cca91135676d9cb6e44ca8a08c0b88342bcdb1144f6511b5689181900360600190a1506001600655949350505050565b604080516001600160a01b038416602482015260448082018490528251808303909101815260649091019091526020810180517bffffffffffffffffffffffffffffffffffffffffffffffffffffffff167fa9059cbb000000000000000000000000000000000000000000000000000000001790526106d59084906115fc565b6000826113475750600061055a565b8282028284828161135457fe5b04146105e75760405162461bcd60e51b8152600401808060200182810382526021815260200180611bb56021913960400191505060405180910390fd5b60008082116113e7576040805162461bcd60e51b815260206004820152601a60248201527f536166654d6174683a206469766973696f6e206279207a65726f000000000000604482015290519081900360640190fd5b8183816113f057fe5b049392505050565b60026006541415611450576040805162461bcd60e51b815260206004820152601f60248201527f5265656e7472616e637947756172643a207265656e7472616e742063616c6c00604482015290519081900360640190fd5b6002600655600854604080517f2fddd91300000000000000000000000000000000000000000000000000000000815290516001600160a01b0390921691632fddd9139160048082019260009290919082900301818387803b1580156114b457600080fd5b505af11580156114c8573d6000803e3d6000fd5b5050505060006114d783610a72565b9050818110156115185760405162461bcd60e51b8152600401808060200182810382526025815260200180611bd66025913960400191505060405180910390fd5b6115223382611980565b600754604080516001600160a01b03909216825260208201859052818101839052517f90890809c654f11d6e72a28fa60149770a0d11ec6c92319d6ceb2bb0a4ea1a159181900360600190a15050600160065550565b604080516001600160a01b0380861660248301528416604482015260648082018490528251808303909101815260849091019091526020810180517bffffffffffffffffffffffffffffffffffffffffffffffffffffffff167f23b872dd000000000000000000000000000000000000000000000000000000001790526106529085905b6060611651826040518060400160405280602081526020017f5361666545524332303a206c6f772d6c6576656c2063616c6c206661696c6564815250856001600160a01b0316610cfd9092919063ffffffff16565b8051909150156106d55780806020019051602081101561167057600080fd5b50516106d55760405162461bcd60e51b815260040180806020018281038252602a815260200180611c8d602a913960400191505060405180910390fd5b6060824710156116ee5760405162461bcd60e51b8152600401808060200182810382526026815260200180611b6a6026913960400191505060405180910390fd5b6116f785611a70565b611748576040805162461bcd60e51b815260206004820152601d60248201527f416464726573733a2063616c6c20746f206e6f6e2d636f6e7472616374000000604482015290519081900360640190fd5b60006060866001600160a01b031685876040518082805190602001908083835b602083106117a557805182527fffffffffffffffffffffffffffffffffffffffffffffffffffffffffffffffe09092019160209182019101611768565b6001836020036101000a03801982511681845116808217855250505050505090500191505060006040518083038185875af1925050503d8060008114611807576040519150601f19603f3d011682016040523d82523d6000602084013e61180c565b606091505b509150915061181c828286611a76565b979650505050505050565b6001600160a01b03821661186c5760405162461bcd60e51b8152600401808060200182810382526021815260200180611c236021913960400191505060405180910390fd5b611878826000836106d5565b6118b581604051806060016040528060228152602001611b00602291396001600160a01b0385166000908152602081905260409020549190610f5f565b6001600160a01b0383166000908152602081905260409020556002546118db9082611923565b6002556040805182815290516000916001600160a01b038516917fddf252ad1be2c89b69c2b068fc378daa952ba7f163c4a11628f55a4df523b3ef9181900360200190a35050565b60008282111561197a576040805162461bcd60e51b815260206004820152601e60248201527f536166654d6174683a207375627472616374696f6e206f766572666c6f770000604482015290519081900360640190fd5b50900390565b6001600160a01b0382166119db576040805162461bcd60e51b815260206004820152601f60248201527f45524332303a206d696e7420746f20746865207a65726f206164647265737300604482015290519081900360640190fd5b6119e7600083836106d5565b6002546119f49082610ff6565b6002556001600160a01b038216600090815260208190526040902054611a1a9082610ff6565b6001600160a01b0383166000818152602081815260408083209490945583518581529351929391927fddf252ad1be2c89b69c2b068fc378daa952ba7f163c4a11628f55a4df523b3ef9281900390910190a35050565b3b151590565b60608315611a855750816105e7565b825115611a955782518084602001fd5b60405162461bcd60e51b8152602060048201818152845160248401528451859391928392604401919085019080838360008315610fb3578181015183820152602001610f9b56fe45524332303a207472616e7366657220746f20746865207a65726f206164647265737345524332303a206275726e20616d6f756e7420657863656564732062616c616e636545524332303a20617070726f766520746f20746865207a65726f206164647265737345524332303a207472616e7366657220616d6f756e7420657863656564732062616c616e6365416464726573733a20696e73756666696369656e742062616c616e636520666f722063616c6c646964206e6f74206d656574206d696e696d756d20616d6f756e7420726571756573746564536166654d6174683a206d756c7469706c69636174696f6e206f766572666c6f77646964206e6f74206d656574206d696e696d756d207368617265732072657175657374656445524332303a207472616e7366657220616d6f756e74206578636565647320616c6c6f77616e636545524332303a206275726e2066726f6d20746865207a65726f206164647265737345524332303a207472616e736665722066726f6d20746865207a65726f206164647265737345524332303a20617070726f76652066726f6d20746865207a65726f20616464726573735361666545524332303a204552433230206f7065726174696f6e20646964206e6f7420737563636565645361666545524332303a20617070726f76652066726f6d206e6f6e2d7a65726f20746f206e6f6e2d7a65726f20616c6c6f77616e636545524332303a2064656372656173656420616c6c6f77616e63652062656c6f77207a65726fa264697066735822122044f3859327e781cf00146dba6e669cd5e6ff87caafb7c9092b421bf7ff6a966f64736f6c634300060c0033416464726573733a20696e73756666696369656e742062616c616e636520666f722063616c6c5361666545524332303a204552433230206f7065726174696f6e20646964206e6f7420737563636565645361666545524332303a20617070726f76652066726f6d206e6f6e2d7a65726f20746f206e6f6e2d7a65726f20616c6c6f77616e6365",
  "linkReferences": {},
  "deployedLinkReferences": {}
}