{
  "_format": "hh-sol-artifact-1",
  "contractName": "Strategy",
  "sourceName": "contracts/main/Strategy.sol",
  "abi": [
    {
      "inputs": [
        {
          "internalType": "address",
          "name": "_core",
          "type": "address"
        },
        {
          "internalType": "address",
          "name": "_currency",
          "type": "address"
        }
      ],
      "stateMutability": "nonpayable",
      "type": "constructor"
    },
    {
      "anonymous": false,
      "inputs": [
        {
          "indexed": true,
          "internalType": "address",
          "name": "_core",
          "type": "address"
        }
      ],
      "name": "CoreUpdate",
      "type": "event"
    },
    {
      "anonymous": false,
      "inputs": [
        {
          "indexed": false,
          "internalType": "uint256",
          "name": "amount",
          "type": "uint256"
        }
      ],
      "name": "Farm",
      "type": "event"
    },
    {
      "anonymous": false,
      "inputs": [
        {
          "indexed": true,
          "internalType": "address",
          "name": "previousOwner",
          "type": "address"
        },
        {
          "indexed": true,
          "internalType": "address",
          "name": "newOwner",
          "type": "address"
        }
      ],
      "name": "OwnershipTransferred",
      "type": "event"
    },
    {
      "anonymous": false,
      "inputs": [
        {
          "indexed": false,
          "internalType": "address",
          "name": "account",
          "type": "address"
        }
      ],
      "name": "Paused",
      "type": "event"
    },
    {
      "anonymous": false,
      "inputs": [
        {
          "indexed": false,
          "internalType": "uint256",
          "name": "amount",
          "type": "uint256"
        }
      ],
      "name": "Redeem",
      "type": "event"
    },
    {
      "anonymous": false,
      "inputs": [
        {
          "indexed": false,
          "internalType": "address",
          "name": "account",
          "type": "address"
        }
      ],
      "name": "Unpaused",
      "type": "event"
    },
    {
      "inputs": [],
      "name": "AlpacaFarm",
      "outputs": [
        {
          "internalType": "address",
          "name": "",
          "type": "address"
        }
      ],
      "stateMutability": "view",
      "type": "function"
    },
    {
      "inputs": [],
      "name": "AlpacaToken",
      "outputs": [
        {
          "internalType": "address",
          "name": "",
          "type": "address"
        }
      ],
      "stateMutability": "view",
      "type": "function"
    },
    {
      "inputs": [],
      "name": "CreamFarm",
      "outputs": [
        {
          "internalType": "address",
          "name": "",
          "type": "address"
        }
      ],
      "stateMutability": "view",
      "type": "function"
    },
    {
      "inputs": [],
      "name": "PancakeRouter",
      "outputs": [
        {
          "internalType": "address",
          "name": "",
          "type": "address"
        }
      ],
      "stateMutability": "view",
      "type": "function"
    },
    {
      "inputs": [],
      "name": "PercentageParamScale",
      "outputs": [
        {
          "internalType": "uint256",
          "name": "",
          "type": "uint256"
        }
      ],
      "stateMutability": "view",
      "type": "function"
    },
    {
      "inputs": [],
      "name": "PercentageScale",
      "outputs": [
        {
          "internalType": "uint256",
          "name": "",
          "type": "uint256"
        }
      ],
      "stateMutability": "view",
      "type": "function"
    },
    {
      "inputs": [],
      "name": "VenusFarm",
      "outputs": [
        {
          "internalType": "address",
          "name": "",
          "type": "address"
        }
      ],
      "stateMutability": "view",
      "type": "function"
    },
    {
      "inputs": [],
      "name": "VenusToken",
      "outputs": [
        {
          "internalType": "address",
          "name": "",
          "type": "address"
        }
      ],
      "stateMutability": "view",
      "type": "function"
    },
    {
      "inputs": [],
      "name": "core",
      "outputs": [
        {
          "internalType": "contract ICore",
          "name": "",
          "type": "address"
        }
      ],
      "stateMutability": "view",
      "type": "function"
    },
    {
      "inputs": [],
      "name": "currency",
      "outputs": [
        {
          "internalType": "address",
          "name": "",
          "type": "address"
        }
      ],
      "stateMutability": "view",
      "type": "function"
    },
    {
      "inputs": [
        {
          "internalType": "uint256",
          "name": "amount",
          "type": "uint256"
        }
      ],
      "name": "farm",
      "outputs": [],
      "stateMutability": "nonpayable",
      "type": "function"
    },
    {
      "inputs": [],
      "name": "owner",
      "outputs": [
        {
          "internalType": "address",
          "name": "",
          "type": "address"
        }
      ],
      "stateMutability": "view",
      "type": "function"
    },
    {
      "inputs": [],
      "name": "pause",
      "outputs": [],
      "stateMutability": "nonpayable",
      "type": "function"
    },
    {
      "inputs": [],
      "name": "paused",
      "outputs": [
        {
          "internalType": "bool",
          "name": "",
          "type": "bool"
        }
      ],
      "stateMutability": "view",
      "type": "function"
    },
    {
      "inputs": [],
      "name": "redeem",
      "outputs": [
        {
          "internalType": "uint256",
          "name": "",
          "type": "uint256"
        }
      ],
      "stateMutability": "nonpayable",
      "type": "function"
    },
    {
      "inputs": [],
      "name": "renounceOwnership",
      "outputs": [],
      "stateMutability": "nonpayable",
      "type": "function"
    },
    {
      "inputs": [
        {
          "internalType": "address",
          "name": "a",
          "type": "address"
        }
      ],
      "name": "setAlpacaToken",
      "outputs": [],
      "stateMutability": "nonpayable",
      "type": "function"
    },
    {
      "inputs": [
        {
          "internalType": "address",
          "name": "core_",
          "type": "address"
        }
      ],
      "name": "setCore",
      "outputs": [],
      "stateMutability": "nonpayable",
      "type": "function"
    },
    {
      "inputs": [
        {
          "internalType": "address",
          "name": "cream",
          "type": "address"
        },
        {
          "internalType": "uint256",
          "name": "s1",
          "type": "uint256"
        },
        {
          "internalType": "address",
          "name": "venus",
          "type": "address"
        },
        {
          "internalType": "uint256",
          "name": "s2",
          "type": "uint256"
        },
        {
          "internalType": "address",
          "name": "alpaca",
          "type": "address"
        },
        {
          "internalType": "uint256",
          "name": "s3",
          "type": "uint256"
        }
      ],
      "name": "setFarms",
      "outputs": [],
      "stateMutability": "nonpayable",
      "type": "function"
    },
    {
      "inputs": [
        {
          "internalType": "address",
          "name": "a",
          "type": "address"
        }
      ],
      "name": "setPancakeRouter",
      "outputs": [],
      "stateMutability": "nonpayable",
      "type": "function"
    },
    {
      "inputs": [
        {
          "internalType": "address",
          "name": "a",
          "type": "address"
        }
      ],
      "name": "setVenusToken",
      "outputs": [],
      "stateMutability": "nonpayable",
      "type": "function"
    },
    {
      "inputs": [
        {
          "internalType": "address",
          "name": "newOwner",
          "type": "address"
        }
      ],
      "name": "transferOwnership",
      "outputs": [],
      "stateMutability": "nonpayable",
      "type": "function"
    },
    {
      "inputs": [],
      "name": "unpause",
      "outputs": [],
      "stateMutability": "nonpayable",
      "type": "function"
    }
  ],
  "bytecode": "0x60806040523480156200001157600080fd5b5060405162002e8e38038062002e8e833981810160405260408110156200003757600080fd5b5080516020909101518160006200004d6200032f565b600080546001600160a01b0319166001600160a01b0383169081178255604051929350917f8be0079c531659141344cd1fd0a4f28419497f9722a3daafe3b4186f6b6457e0908290a3506000805460ff60a01b19169055600180546001600160a01b039283166001600160a01b03199182161782556002919091556003805484841690831617815560058054831673b316f4f692d3bc53b79c83c97fdd45bc94255f5317908190556006805484167395c78222b3d6e262426483d42cfa53685a67ab9d17905560078054841673cf6bb5389c92bdda8a3747ddb454cb7a64626c63179055600880548416737c9e73d4c71dae564d41f78d56439bb4ba87592f179055600980548416738f0528ce5ef7b51152a59745befdd91d97091d2f179055600a80549093167310ed43c718714eb63d5aa57b78b54704e256024e178355604080518082019091529316835260049291602080840192620001dc9291620001c891670de0b6b3a764000091620012a962000333821b17901c565b620003b460201b6200130b1790919060201c565b90528154600180820184556000938452602093849020835160029093020180546001600160a01b0319166001600160a01b0393841617815592840151920191909155604080518082019091526006549091168152600491818101906200026090600a90620001c890670de0b6b3a76400009060039062000333811b620012a917901c565b90528154600180820184556000938452602093849020835160029093020180546001600160a01b0319166001600160a01b039384161781559284015192019190915560408051808201909152600854909116815260049181810190620002e390600a90620001c890670de0b6b3a764000090879062000333811b620012a917901c565b90528154600180820184556000938452602093849020835160029093020180546001600160a01b0319166001600160a01b03909316929092178255919092015191015550620004379050565b3390565b6000826200034457506000620003ae565b828202828482816200035257fe5b0414620003ab576040517f08c379a000000000000000000000000000000000000000000000000000000000815260040180806020018281038252602181526020018062002e6d6021913960400191505060405180910390fd5b90505b92915050565b60008082116200042557604080517f08c379a000000000000000000000000000000000000000000000000000000000815260206004820152601a60248201527f536166654d6174683a206469766973696f6e206279207a65726f000000000000604482015290519081900360640190fd5b8183816200042f57fe5b049392505050565b612a2680620004476000396000f3fe608060405234801561001057600080fd5b506004361061018d5760003560e01c8063a76b6dab116100e3578063e5a6b10f1161008c578063f2fde38b11610066578063f2fde38b14610307578063f8316c901461032d578063fe11dfdb146103535761018d565b8063e5a6b10f146102ef578063eda0228f146102f7578063f2f4eb26146102ff5761018d565b8063be040fb0116100bd578063be040fb0146102d7578063cf8db46b146102df578063e06b48ee146102e75761018d565b8063a76b6dab146102bf578063abe07bc7146102c7578063b94db6af146102cf5761018d565b8063715018a6116101455780638da5cb5b1161011f5780638da5cb5b14610249578063939480c614610251578063a557a9fe146102775761018d565b8063715018a614610213578063800096301461021b5780638456cb59146102415761018d565b8063538a85a111610176578063538a85a1146101c05780635c975abb146101dd5780635cd90e58146101f95761018d565b80630d32a551146101925780633f4ba83a146101b6575b600080fd5b61019a610379565b604080516001600160a01b039092168252519081900360200190f35b6101be610388565b005b6101be600480360360208110156101d657600080fd5b50356104f4565b6101e5610643565b604080519115158252519081900360200190f35b610201610664565b60408051918252519081900360200190f35b6101be610670565b6101be6004803603602081101561023157600080fd5b50356001600160a01b0316610746565b6101be610873565b61019a6109dd565b6101be6004803603602081101561026757600080fd5b50356001600160a01b03166109ec565b6101be600480360360c081101561028d57600080fd5b506001600160a01b03813581169160208101359160408201358116916060810135916080820135169060a00135610af1565b61019a610daf565b61019a610dbe565b610201610dcd565b610201610dd4565b61019a610f28565b61019a610f37565b61019a610f46565b61019a610f55565b61019a610f64565b6101be6004803603602081101561031d57600080fd5b50356001600160a01b0316610f73565b6101be6004803603602081101561034357600080fd5b50356001600160a01b031661109f565b6101be6004803603602081101561036957600080fd5b50356001600160a01b03166111a4565b6005546001600160a01b031681565b600154604080517fe43581b800000000000000000000000000000000000000000000000000000000815233600482015290516001600160a01b039092169163e43581b891602480820192602092909190829003018186803b1580156103ec57600080fd5b505afa158015610400573d6000803e3d6000fd5b505050506040513d602081101561041657600080fd5b5051806104af5750600154604080517f0c68ba2100000000000000000000000000000000000000000000000000000000815233600482015290516001600160a01b0390921691630c68ba2191602480820192602092909190829003018186803b15801561048257600080fd5b505afa158015610496573d6000803e3d6000fd5b505050506040513d60208110156104ac57600080fd5b50515b6104ea5760405162461bcd60e51b81526004018080602001828103825260458152602001806129536045913960600191505060405180910390fd5b6104f2611372565b565b600154604080517f0c68ba2100000000000000000000000000000000000000000000000000000000815233600482015290516001600160a01b0390921691630c68ba2191602480820192602092909190829003018186803b15801561055857600080fd5b505afa15801561056c573d6000803e3d6000fd5b505050506040513d602081101561058257600080fd5b50516105bf5760405162461bcd60e51b815260040180806020018281038252602f815260200180612998602f913960400191505060405180910390fd5b600280541415610616576040805162461bcd60e51b815260206004820152601f60248201527f5265656e7472616e637947756172643a207265656e7472616e742063616c6c00604482015290519081900360640190fd5b60028055600354610632906001600160a01b0316333084611439565b61063b816114c7565b506001600255565b60005474010000000000000000000000000000000000000000900460ff1690565b670de0b6b3a764000081565b6106786119af565b6001600160a01b03166106896109dd565b6001600160a01b0316146106e4576040805162461bcd60e51b815260206004820181905260248201527f4f776e61626c653a2063616c6c6572206973206e6f7420746865206f776e6572604482015290519081900360640190fd5b600080546040516001600160a01b03909116907f8be0079c531659141344cd1fd0a4f28419497f9722a3daafe3b4186f6b6457e0908390a3600080547fffffffffffffffffffffffff0000000000000000000000000000000000000000169055565b600154604080517fe43581b800000000000000000000000000000000000000000000000000000000815233600482015290516001600160a01b039092169163e43581b891602480820192602092909190829003018186803b1580156107aa57600080fd5b505afa1580156107be573d6000803e3d6000fd5b505050506040513d60208110156107d457600080fd5b50516108115760405162461bcd60e51b815260040180806020018281038252602f8152602001806128dd602f913960400191505060405180910390fd5b600180547fffffffffffffffffffffffff0000000000000000000000000000000000000000166001600160a01b0383169081179091556040517fad9400e618eb1344fde53db22397a1b82c765527ecbba3a5c86bcac15090828b90600090a250565b600154604080517fe43581b800000000000000000000000000000000000000000000000000000000815233600482015290516001600160a01b039092169163e43581b891602480820192602092909190829003018186803b1580156108d757600080fd5b505afa1580156108eb573d6000803e3d6000fd5b505050506040513d602081101561090157600080fd5b50518061099a5750600154604080517f0c68ba2100000000000000000000000000000000000000000000000000000000815233600482015290516001600160a01b0390921691630c68ba2191602480820192602092909190829003018186803b15801561096d57600080fd5b505afa158015610981573d6000803e3d6000fd5b505050506040513d602081101561099757600080fd5b50515b6109d55760405162461bcd60e51b81526004018080602001828103825260458152602001806129536045913960600191505060405180910390fd5b6104f26119b3565b6000546001600160a01b031690565b600154604080517fe43581b800000000000000000000000000000000000000000000000000000000815233600482015290516001600160a01b039092169163e43581b891602480820192602092909190829003018186803b158015610a5057600080fd5b505afa158015610a64573d6000803e3d6000fd5b505050506040513d6020811015610a7a57600080fd5b5051610ab75760405162461bcd60e51b815260040180806020018281038252602f8152602001806128dd602f913960400191505060405180910390fd5b600780547fffffffffffffffffffffffff0000000000000000000000000000000000000000166001600160a01b0392909216919091179055565b600154604080517fe43581b800000000000000000000000000000000000000000000000000000000815233600482015290516001600160a01b039092169163e43581b891602480820192602092909190829003018186803b158015610b5557600080fd5b505afa158015610b69573d6000803e3d6000fd5b505050506040513d6020811015610b7f57600080fd5b5051610bbc5760405162461bcd60e51b815260040180806020018281038252602f8152602001806128dd602f913960400191505060405180910390fd5b600580546001600160a01b038089167fffffffffffffffffffffffff00000000000000000000000000000000000000009283161790925560068054878416908316179055600880549285169290911691909117905560048054879190600090610c2157fe5b906000526020600020906002020160000160006101000a8154816001600160a01b0302191690836001600160a01b03160217905550836004600181548110610c6557fe5b906000526020600020906002020160000160006101000a8154816001600160a01b0302191690836001600160a01b03160217905550816004600281548110610ca957fe5b6000918252602090912060029091020180547fffffffffffffffffffffffff0000000000000000000000000000000000000000166001600160a01b0392909216919091179055610d0e620186a0610d0887670de0b6b3a76400006112a9565b9061130b565b6004600081548110610d1c57fe5b6000918252602090912060016002909202010155610d49620186a0610d0885670de0b6b3a76400006112a9565b6004600181548110610d5757fe5b6000918252602090912060016002909202010155610d84620186a0610d0883670de0b6b3a76400006112a9565b6004600281548110610d9257fe5b906000526020600020906002020160010181905550505050505050565b6007546001600160a01b031681565b6008546001600160a01b031681565b620186a081565b600154604080517f0c68ba2100000000000000000000000000000000000000000000000000000000815233600482015290516000926001600160a01b031691630c68ba21916024808301926020929190829003018186803b158015610e3857600080fd5b505afa158015610e4c573d6000803e3d6000fd5b505050506040513d6020811015610e6257600080fd5b5051610e9f5760405162461bcd60e51b815260040180806020018281038252602f815260200180612998602f913960400191505060405180910390fd5b600280541415610ef6576040805162461bcd60e51b815260206004820152601f60248201527f5265656e7472616e637947756172643a207265656e7472616e742063616c6c00604482015290519081900360640190fd5b600280556000610f04611a75565b600354909150610f1e906001600160a01b03163383612297565b9050600160025590565b6009546001600160a01b031681565b6006546001600160a01b031681565b6003546001600160a01b031681565b600a546001600160a01b031681565b6001546001600160a01b031690565b610f7b6119af565b6001600160a01b0316610f8c6109dd565b6001600160a01b031614610fe7576040805162461bcd60e51b815260206004820181905260248201527f4f776e61626c653a2063616c6c6572206973206e6f7420746865206f776e6572604482015290519081900360640190fd5b6001600160a01b03811661102c5760405162461bcd60e51b81526004018080602001828103825260268152602001806128b76026913960400191505060405180910390fd5b600080546040516001600160a01b03808516939216917f8be0079c531659141344cd1fd0a4f28419497f9722a3daafe3b4186f6b6457e091a3600080547fffffffffffffffffffffffff0000000000000000000000000000000000000000166001600160a01b0392909216919091179055565b600154604080517fe43581b800000000000000000000000000000000000000000000000000000000815233600482015290516001600160a01b039092169163e43581b891602480820192602092909190829003018186803b15801561110357600080fd5b505afa158015611117573d6000803e3d6000fd5b505050506040513d602081101561112d57600080fd5b505161116a5760405162461bcd60e51b815260040180806020018281038252602f8152602001806128dd602f913960400191505060405180910390fd5b600a80547fffffffffffffffffffffffff0000000000000000000000000000000000000000166001600160a01b0392909216919091179055565b600154604080517fe43581b800000000000000000000000000000000000000000000000000000000815233600482015290516001600160a01b039092169163e43581b891602480820192602092909190829003018186803b15801561120857600080fd5b505afa15801561121c573d6000803e3d6000fd5b505050506040513d602081101561123257600080fd5b505161126f5760405162461bcd60e51b815260040180806020018281038252602f8152602001806128dd602f913960400191505060405180910390fd5b600980547fffffffffffffffffffffffff0000000000000000000000000000000000000000166001600160a01b0392909216919091179055565b6000826112b857506000611305565b828202828482816112c557fe5b04146113025760405162461bcd60e51b81526004018080602001828103825260218152602001806129326021913960400191505060405180910390fd5b90505b92915050565b6000808211611361576040805162461bcd60e51b815260206004820152601a60248201527f536166654d6174683a206469766973696f6e206279207a65726f000000000000604482015290519081900360640190fd5b81838161136a57fe5b049392505050565b61137a610643565b6113cb576040805162461bcd60e51b815260206004820152601460248201527f5061757361626c653a206e6f7420706175736564000000000000000000000000604482015290519081900360640190fd5b600080547fffffffffffffffffffffff00ffffffffffffffffffffffffffffffffffffffff1690557f5db9ee0a495bf2e6ff9c91a7834c1ba4fdd244a5e8aa4e537bd38aeae4b073aa61141c6119af565b604080516001600160a01b039092168252519081900360200190a1565b604080516001600160a01b0380861660248301528416604482015260648082018490528251808303909101815260849091019091526020810180517bffffffffffffffffffffffffffffffffffffffffffffffffffffffff167f23b872dd000000000000000000000000000000000000000000000000000000001790526114c190859061231c565b50505050565b806114d1576119ac565b600080611512670de0b6b3a7640000610d0860046000815481106114f157fe5b906000526020600020906002020160010154866112a990919063ffffffff16565b600354600480549293506001600160a01b039091169163095ea7b3919060009061153857fe5b60009182526020808320600290920290910154604080517fffffffff0000000000000000000000000000000000000000000000000000000060e087901b1681526001600160a01b039092166004830152602482018790525160448083019491928390030190829087803b1580156115ae57600080fd5b505af11580156115c2573d6000803e3d6000fd5b505050506040513d60208110156115d857600080fd5b5050600480546000906115e757fe5b906000526020600020906002020160000160009054906101000a90046001600160a01b03166001600160a01b031663a0712d68826040518263ffffffff1660e01b815260040180828152602001915050602060405180830381600087803b15801561165157600080fd5b505af1158015611665573d6000803e3d6000fd5b505050506040513d602081101561167b57600080fd5b505060048054928201926116a391670de0b6b3a764000091610d08919060019081106114f157fe5b600354600480549293506001600160a01b039091169163095ea7b3919060019081106116cb57fe5b60009182526020808320600290920290910154604080517fffffffff0000000000000000000000000000000000000000000000000000000060e087901b1681526001600160a01b039092166004830152602482018790525160448083019491928390030190829087803b15801561174157600080fd5b505af1158015611755573d6000803e3d6000fd5b505050506040513d602081101561176b57600080fd5b505060048054600190811061177c57fe5b906000526020600020906002020160000160009054906101000a90046001600160a01b03166001600160a01b031663a0712d68826040518263ffffffff1660e01b815260040180828152602001915050602060405180830381600087803b1580156117e657600080fd5b505af11580156117fa573d6000803e3d6000fd5b505050506040513d602081101561181057600080fd5b5050600354600480549390920192838503926001600160a01b039092169163095ea7b391600290811061183f57fe5b60009182526020808320600290920290910154604080517fffffffff0000000000000000000000000000000000000000000000000000000060e087901b1681526001600160a01b039092166004830152602482018790525160448083019491928390030190829087803b1580156118b557600080fd5b505af11580156118c9573d6000803e3d6000fd5b505050506040513d60208110156118df57600080fd5b50506004805460029081106118f057fe5b60009182526020822060029091020154604080517fb6b55f250000000000000000000000000000000000000000000000000000000081526004810185905290516001600160a01b039092169263b6b55f259260248084019382900301818387803b15801561195d57600080fd5b505af1158015611971573d6000803e3d6000fd5b50506040805186815290517fc217459869eed80bfbe5c11e78ab58912eedfd106342671821b6e96d1615dc7f9350908190036020019150a150505b50565b3390565b6119bb610643565b15611a0d576040805162461bcd60e51b815260206004820152601060248201527f5061757361626c653a2070617573656400000000000000000000000000000000604482015290519081900360640190fd5b600080547fffffffffffffffffffffff00ffffffffffffffffffffffffffffffffffffffff16740100000000000000000000000000000000000000001790557f62e78cea01bee320cd4e420270b5ea74000d11b0c9f74754ebdbfc544b05a25861141c6119af565b600354604080517f70a08231000000000000000000000000000000000000000000000000000000008152306004820152905160009283926001600160a01b03909116916370a0823191602480820192602092909190829003018186803b158015611ade57600080fd5b505afa158015611af2573d6000803e3d6000fd5b505050506040513d6020811015611b0857600080fd5b5051600954604080517f70a0823100000000000000000000000000000000000000000000000000000000815230600482015290519293506000926001600160a01b03909216916370a0823191602480820192602092909190829003018186803b158015611b7457600080fd5b505afa158015611b88573d6000803e3d6000fd5b505050506040513d6020811015611b9e57600080fd5b5051600754604080517f70a0823100000000000000000000000000000000000000000000000000000000815230600482015290519293506000926001600160a01b03909216916370a0823191602480820192602092909190829003018186803b158015611c0a57600080fd5b505afa158015611c1e573d6000803e3d6000fd5b505050506040513d6020811015611c3457600080fd5b5051600480549192506000918290611c4857fe5b600091825260209182902060029091020154604080517f70a0823100000000000000000000000000000000000000000000000000000000815230600482015290516001600160a01b03909216926370a0823192602480840193829003018186803b158015611cb557600080fd5b505afa158015611cc9573d6000803e3d6000fd5b505050506040513d6020811015611cdf57600080fd5b505190508015611d8e576004600081548110611cf757fe5b906000526020600020906002020160000160009054906101000a90046001600160a01b03166001600160a01b031663db006a75826040518263ffffffff1660e01b815260040180828152602001915050602060405180830381600087803b158015611d6157600080fd5b505af1158015611d75573d6000803e3d6000fd5b505050506040513d6020811015611d8b57600080fd5b50505b6004600181548110611d9c57fe5b600091825260209182902060029091020154604080517f70a0823100000000000000000000000000000000000000000000000000000000815230600482015290516001600160a01b03909216926370a0823192602480840193829003018186803b158015611e0957600080fd5b505afa158015611e1d573d6000803e3d6000fd5b505050506040513d6020811015611e3357600080fd5b505190508015611ee2576004600181548110611e4b57fe5b906000526020600020906002020160000160009054906101000a90046001600160a01b03166001600160a01b031663db006a75826040518263ffffffff1660e01b815260040180828152602001915050602060405180830381600087803b158015611eb557600080fd5b505af1158015611ec9573d6000803e3d6000fd5b505050506040513d6020811015611edf57600080fd5b50505b6004600281548110611ef057fe5b600091825260209182902060029091020154604080517f70a0823100000000000000000000000000000000000000000000000000000000815230600482015290516001600160a01b03909216926370a0823192602480840193829003018186803b158015611f5d57600080fd5b505afa158015611f71573d6000803e3d6000fd5b505050506040513d6020811015611f8757600080fd5b505190508015612025576004600281548110611f9f57fe5b60009182526020822060029091020154604080517f2e1a7d4d0000000000000000000000000000000000000000000000000000000081526004810185905290516001600160a01b0390921692632e1a7d4d9260248084019382900301818387803b15801561200c57600080fd5b505af1158015612020573d6000803e3d6000fd5b505050505b600954604080517f70a0823100000000000000000000000000000000000000000000000000000000815230600482015290516001600160a01b03909216916370a0823191602480820192602092909190829003018186803b15801561208957600080fd5b505afa15801561209d573d6000803e3d6000fd5b505050506040513d60208110156120b357600080fd5b5051905060006120c382856123cd565b11156120f1576009546003546120ef916001600160a01b0390811691166120ea84876123cd565b61242a565b505b600754604080517f70a0823100000000000000000000000000000000000000000000000000000000815230600482015290516001600160a01b03909216916370a0823191602480820192602092909190829003018186803b15801561215557600080fd5b505afa158015612169573d6000803e3d6000fd5b505050506040513d602081101561217f57600080fd5b50519050600061218f82846123cd565b11156121b8576007546003546121b6916001600160a01b0390811691166120ea84866123cd565b505b600354604080517f70a0823100000000000000000000000000000000000000000000000000000000815230600482015290516000926122579288926001600160a01b03909216916370a0823191602480820192602092909190829003018186803b15801561222557600080fd5b505afa158015612239573d6000803e3d6000fd5b505050506040513d602081101561224f57600080fd5b5051906123cd565b6040805182815290519192507f702d5967f45f6513a38ffc42d6ba9bf230bd40e8f53b16363c7eb4fd2deb9a44919081900360200190a194505050505090565b604080516001600160a01b038416602482015260448082018490528251808303909101815260649091019091526020810180517bffffffffffffffffffffffffffffffffffffffffffffffffffffffff167fa9059cbb0000000000000000000000000000000000000000000000000000000017905261231790849061231c565b505050565b6060612371826040518060400160405280602081526020017f5361666545524332303a206c6f772d6c6576656c2063616c6c206661696c6564815250856001600160a01b031661267a9092919063ffffffff16565b8051909150156123175780806020019051602081101561239057600080fd5b50516123175760405162461bcd60e51b815260040180806020018281038252602a8152602001806129c7602a913960400191505060405180910390fd5b600082821115612424576040805162461bcd60e51b815260206004820152601e60248201527f536166654d6174683a207375627472616374696f6e206f766572666c6f770000604482015290519081900360640190fd5b50900390565b6040805160028082526060808301845260009390929190602083019080368337019050509050848160008151811061245e57fe5b60200260200101906001600160a01b031690816001600160a01b031681525050838160018151811061248c57fe5b6001600160a01b03928316602091820292909201810191909152600a546040517f38ed173900000000000000000000000000000000000000000000000000000000815260048101878152600160248301819052306064840181905260c842016084850181905260a060448601908152895160a4870152895160609997909716976338ed1739978d9795968c9690939260c490910191878201910280838360005b8381101561254457818101518382015260200161252c565b505050509050019650505050505050600060405180830381600087803b15801561256d57600080fd5b505af1158015612581573d6000803e3d6000fd5b505050506040513d6000823e601f3d9081017fffffffffffffffffffffffffffffffffffffffffffffffffffffffffffffffe016820160405260208110156125c857600080fd5b81019080805160405193929190846401000000008211156125e857600080fd5b9083019060208201858111156125fd57600080fd5b825186602082028301116401000000008211171561261a57600080fd5b82525081516020918201928201910280838360005b8381101561264757818101518382015260200161262f565b5050505090500160405250505090508060018251038151811061266657fe5b6020026020010151925050505b9392505050565b60606126898484600085612691565b949350505050565b606030318311156126d35760405162461bcd60e51b815260040180806020018281038252602681526020018061290c6026913960400191505060405180910390fd5b6126dc8561280c565b61272d576040805162461bcd60e51b815260206004820152601d60248201527f416464726573733a2063616c6c20746f206e6f6e2d636f6e7472616374000000604482015290519081900360640190fd5b60006060866001600160a01b031685876040518082805190602001908083835b6020831061278a57805182527fffffffffffffffffffffffffffffffffffffffffffffffffffffffffffffffe0909201916020918201910161274d565b6001836020036101000a03801982511681845116808217855250505050505090500191505060006040518083038185875af1925050503d80600081146127ec576040519150601f19603f3d011682016040523d82523d6000602084013e6127f1565b606091505b5091509150612801828286612812565b979650505050505050565b3b151590565b60608315612821575081612673565b8251156128315782518084602001fd5b8160405162461bcd60e51b81526004018080602001828103825283818151815260200191508051906020019080838360005b8381101561287b578181015183820152602001612863565b50505050905090810190601f1680156128a85780820380516001836020036101000a031916815260200191505b509250505060405180910390fdfe4f776e61626c653a206e6577206f776e657220697320746865207a65726f2061646472657373436f72655265663a3a6f6e6c79476f7665726e6f723a2043616c6c6572206973206e6f74206120676f7665726e6f72416464726573733a20696e73756666696369656e742062616c616e636520666f722063616c6c536166654d6174683a206d756c7469706c69636174696f6e206f766572666c6f77436f72655265663a3a6f6e6c79477561726469616e4f72476f7665726e6f723a2043616c6c6572206973206e6f74206120677561726469616e206f7220676f7665726e6f72436f72655265663a3a6f6e6c79477561726469616e3a2043616c6c6572206973206e6f74206120677561726469616e5361666545524332303a204552433230206f7065726174696f6e20646964206e6f742073756363656564a2646970667358221220cf12f08f9437e3b0ae9910362d1f30da53962f524601e6054e0a64338466e58164736f6c634300060c0033536166654d6174683a206d756c7469706c69636174696f6e206f766572666c6f77",
  "linkReferences": {},
  "deployedLinkReferences": {}
}