{
  "_format": "hh-sol-artifact-1",
  "contractName": "Strategy",
  "sourceName": "contracts/main/Strategy.sol",
  "abi": [
    {
      "inputs": [
        {
          "internalType": "address",
          "name": "_core",
          "type": "address"
        },
        {
          "internalType": "address",
          "name": "_currency",
          "type": "address"
        }
      ],
      "stateMutability": "nonpayable",
      "type": "constructor"
    },
    {
      "anonymous": false,
      "inputs": [
        {
          "indexed": true,
          "internalType": "address",
          "name": "_core",
          "type": "address"
        }
      ],
      "name": "CoreUpdate",
      "type": "event"
    },
    {
      "anonymous": false,
      "inputs": [
        {
          "indexed": false,
          "internalType": "uint256",
          "name": "amount",
          "type": "uint256"
        }
      ],
      "name": "Farm",
      "type": "event"
    },
    {
      "anonymous": false,
      "inputs": [
        {
          "indexed": false,
          "internalType": "address",
          "name": "account",
          "type": "address"
        }
      ],
      "name": "Paused",
      "type": "event"
    },
    {
      "anonymous": false,
      "inputs": [
        {
          "indexed": false,
          "internalType": "uint256",
          "name": "amount",
          "type": "uint256"
        }
      ],
      "name": "Redeem",
      "type": "event"
    },
    {
      "anonymous": false,
      "inputs": [
        {
          "indexed": false,
          "internalType": "address",
          "name": "account",
          "type": "address"
        }
      ],
      "name": "Unpaused",
      "type": "event"
    },
    {
      "inputs": [],
      "name": "AlpacaFarm",
      "outputs": [
        {
          "internalType": "address",
          "name": "",
          "type": "address"
        }
      ],
      "stateMutability": "view",
      "type": "function"
    },
    {
      "inputs": [],
      "name": "AlpacaToken",
      "outputs": [
        {
          "internalType": "address",
          "name": "",
          "type": "address"
        }
      ],
      "stateMutability": "view",
      "type": "function"
    },
    {
      "inputs": [],
      "name": "CreamFarm",
      "outputs": [
        {
          "internalType": "address",
          "name": "",
          "type": "address"
        }
      ],
      "stateMutability": "view",
      "type": "function"
    },
    {
      "inputs": [],
      "name": "PancakeRouter",
      "outputs": [
        {
          "internalType": "address",
          "name": "",
          "type": "address"
        }
      ],
      "stateMutability": "view",
      "type": "function"
    },
    {
      "inputs": [],
      "name": "PercentageParamScale",
      "outputs": [
        {
          "internalType": "uint256",
          "name": "",
          "type": "uint256"
        }
      ],
      "stateMutability": "view",
      "type": "function"
    },
    {
      "inputs": [],
      "name": "PercentageScale",
      "outputs": [
        {
          "internalType": "uint256",
          "name": "",
          "type": "uint256"
        }
      ],
      "stateMutability": "view",
      "type": "function"
    },
    {
      "inputs": [],
      "name": "VenusFarm",
      "outputs": [
        {
          "internalType": "address",
          "name": "",
          "type": "address"
        }
      ],
      "stateMutability": "view",
      "type": "function"
    },
    {
      "inputs": [],
      "name": "VenusToken",
      "outputs": [
        {
          "internalType": "address",
          "name": "",
          "type": "address"
        }
      ],
      "stateMutability": "view",
      "type": "function"
    },
    {
      "inputs": [],
      "name": "core",
      "outputs": [
        {
          "internalType": "contract ICore",
          "name": "",
          "type": "address"
        }
      ],
      "stateMutability": "view",
      "type": "function"
    },
    {
      "inputs": [],
      "name": "currency",
      "outputs": [
        {
          "internalType": "address",
          "name": "",
          "type": "address"
        }
      ],
      "stateMutability": "view",
      "type": "function"
    },
    {
      "inputs": [
        {
          "internalType": "uint256",
          "name": "amount",
          "type": "uint256"
        }
      ],
      "name": "farm",
      "outputs": [],
      "stateMutability": "nonpayable",
      "type": "function"
    },
    {
      "inputs": [
        {
          "internalType": "uint256",
          "name": "",
          "type": "uint256"
        }
      ],
      "name": "farms",
      "outputs": [
        {
          "internalType": "address",
          "name": "addr",
          "type": "address"
        },
        {
          "internalType": "uint256",
          "name": "shares",
          "type": "uint256"
        }
      ],
      "stateMutability": "view",
      "type": "function"
    },
    {
      "inputs": [],
      "name": "pause",
      "outputs": [],
      "stateMutability": "nonpayable",
      "type": "function"
    },
    {
      "inputs": [],
      "name": "paused",
      "outputs": [
        {
          "internalType": "bool",
          "name": "",
          "type": "bool"
        }
      ],
      "stateMutability": "view",
      "type": "function"
    },
    {
      "inputs": [],
      "name": "redeem",
      "outputs": [
        {
          "internalType": "uint256",
          "name": "",
          "type": "uint256"
        }
      ],
      "stateMutability": "nonpayable",
      "type": "function"
    },
    {
      "inputs": [
        {
          "internalType": "address",
          "name": "a",
          "type": "address"
        }
      ],
      "name": "setAlpacaToken",
      "outputs": [],
      "stateMutability": "nonpayable",
      "type": "function"
    },
    {
      "inputs": [
        {
          "internalType": "address",
          "name": "core_",
          "type": "address"
        }
      ],
      "name": "setCore",
      "outputs": [],
      "stateMutability": "nonpayable",
      "type": "function"
    },
    {
      "inputs": [
        {
          "internalType": "address",
          "name": "cream",
          "type": "address"
        },
        {
          "internalType": "uint256",
          "name": "s1",
          "type": "uint256"
        },
        {
          "internalType": "address",
          "name": "venus",
          "type": "address"
        },
        {
          "internalType": "uint256",
          "name": "s2",
          "type": "uint256"
        },
        {
          "internalType": "address",
          "name": "alpaca",
          "type": "address"
        },
        {
          "internalType": "uint256",
          "name": "s3",
          "type": "uint256"
        }
      ],
      "name": "setFarms",
      "outputs": [],
      "stateMutability": "nonpayable",
      "type": "function"
    },
    {
      "inputs": [
        {
          "internalType": "address",
          "name": "a",
          "type": "address"
        }
      ],
      "name": "setPancakeRouter",
      "outputs": [],
      "stateMutability": "nonpayable",
      "type": "function"
    },
    {
      "inputs": [
        {
          "internalType": "address",
          "name": "a",
          "type": "address"
        }
      ],
      "name": "setVenusToken",
      "outputs": [],
      "stateMutability": "nonpayable",
      "type": "function"
    },
    {
      "inputs": [],
      "name": "unpause",
      "outputs": [],
      "stateMutability": "nonpayable",
      "type": "function"
    }
  ],
  "bytecode": "0x60806040523480156200001157600080fd5b5060405162002c0438038062002c04833981810160405260408110156200003757600080fd5b508051602091820151600080546001600160a01b03808516610100026001600160a81b03199092169190911790915560018055600280548284166001600160a01b03199182161790915560048054821673b316f4f692d3bc53b79c83c97fdd45bc94255f5317908190556005805483167395c78222b3d6e262426483d42cfa53685a67ab9d17905560068054831673cf6bb5389c92bdda8a3747ddb454cb7a64626c63179055600780548316737c9e73d4c71dae564d41f78d56439bb4ba87592f179055600880548316738f0528ce5ef7b51152a59745befdd91d97091d2f179055600980549092167310ed43c718714eb63d5aa57b78b54704e256024e17909155604080518082019091529116815291929091600391818101906200018e90600a906200017a90670de0b6b3a7640000908790620010e2620002e1821b17901c565b6200034860201b620011441790919060201c565b90528154600180820184556000938452602093849020835160029093020180546001600160a01b0319166001600160a01b0393841617815592840151920191909155604080518082019091526005549091168152600391818101906200021190600a906200017a90670de0b6b3a7640000908790620002e1811b620010e217901c565b90528154600180820184556000938452602093849020835160029093020180546001600160a01b0319166001600160a01b0393841617815592840151920191909155604080518082019091526007549091168152600391818101906200029590600a906200017a90670de0b6b3a764000090600490620002e1811b620010e217901c565b90528154600180820184556000938452602093849020835160029093020180546001600160a01b0319166001600160a01b03909316929092178255919092015191015550620003b19050565b600082620002f25750600062000342565b828202828482816200030057fe5b04146200033f5760405162461bcd60e51b815260040180806020018281038252602181526020018062002be36021913960400191505060405180910390fd5b90505b92915050565b60008082116200039f576040805162461bcd60e51b815260206004820152601a60248201527f536166654d6174683a206469766973696f6e206279207a65726f000000000000604482015290519081900360640190fd5b818381620003a957fe5b049392505050565b61282280620003c16000396000f3fe608060405234801561001057600080fd5b50600436106101775760003560e01c8063a76b6dab116100d8578063e06b48ee1161008c578063f2f4eb2611610066578063f2f4eb2614610319578063f8316c9014610321578063fe11dfdb1461034757610177565b8063e06b48ee14610301578063e5a6b10f14610309578063eda0228f1461031157610177565b8063b94db6af116100bd578063b94db6af146102e9578063be040fb0146102f1578063cf8db46b146102f957610177565b8063a76b6dab146102d9578063abe07bc7146102e157610177565b80637da470ea1161012f5780638456cb59116101145780638456cb5914610263578063939480c61461026b578063a557a9fe1461029157610177565b80637da470ea146101fd578063800096301461023d57610177565b8063538a85a111610160578063538a85a1146101aa5780635c975abb146101c75780635cd90e58146101e357610177565b80630d32a5511461017c5780633f4ba83a146101a0575b600080fd5b61018461036d565b604080516001600160a01b039092168252519081900360200190f35b6101a861037c565b005b6101a8600480360360208110156101c057600080fd5b50356104f0565b6101cf610644565b604080519115158252519081900360200190f35b6101eb61064d565b60408051918252519081900360200190f35b61021a6004803603602081101561021357600080fd5b5035610659565b604080516001600160a01b03909316835260208301919091528051918290030190f35b6101a86004803603602081101561025357600080fd5b50356001600160a01b031661068e565b6101a86107c4565b6101a86004803603602081101561028157600080fd5b50356001600160a01b0316610936565b6101a8600480360360c08110156102a757600080fd5b506001600160a01b03813581169160208101359160408201358116916060810135916080820135169060a00135610a3f565b610184610d01565b610184610d10565b6101eb610d1f565b6101eb610d26565b610184610e80565b610184610e8f565b610184610e9e565b610184610ead565b610184610ebc565b6101a86004803603602081101561033757600080fd5b50356001600160a01b0316610ed0565b6101a86004803603602081101561035d57600080fd5b50356001600160a01b0316610fd9565b6004546001600160a01b031681565b600054604080517fe43581b800000000000000000000000000000000000000000000000000000000815233600482015290516101009092046001600160a01b03169163e43581b891602480820192602092909190829003018186803b1580156103e457600080fd5b505afa1580156103f8573d6000803e3d6000fd5b505050506040513d602081101561040e57600080fd5b5051806104ab5750600054604080517f0c68ba2100000000000000000000000000000000000000000000000000000000815233600482015290516101009092046001600160a01b031691630c68ba2191602480820192602092909190829003018186803b15801561047e57600080fd5b505afa158015610492573d6000803e3d6000fd5b505050506040513d60208110156104a857600080fd5b50515b6104e65760405162461bcd60e51b815260040180806020018281038252604581526020018061274f6045913960600191505060405180910390fd5b6104ee6111ab565b565b600054604080517f0c68ba2100000000000000000000000000000000000000000000000000000000815233600482015290516101009092046001600160a01b031691630c68ba2191602480820192602092909190829003018186803b15801561055857600080fd5b505afa15801561056c573d6000803e3d6000fd5b505050506040513d602081101561058257600080fd5b50516105bf5760405162461bcd60e51b815260040180806020018281038252602f815260200180612794602f913960400191505060405180910390fd5b60026001541415610617576040805162461bcd60e51b815260206004820152601f60248201527f5265656e7472616e637947756172643a207265656e7472616e742063616c6c00604482015290519081900360640190fd5b6002600181905554610634906001600160a01b0316333084611272565b61063d81611300565b5060018055565b60005460ff1690565b670de0b6b3a764000081565b6003818154811061066657fe5b6000918252602090912060029091020180546001909101546001600160a01b03909116915082565b600054604080517fe43581b800000000000000000000000000000000000000000000000000000000815233600482015290516101009092046001600160a01b03169163e43581b891602480820192602092909190829003018186803b1580156106f657600080fd5b505afa15801561070a573d6000803e3d6000fd5b505050506040513d602081101561072057600080fd5b505161075d5760405162461bcd60e51b815260040180806020018281038252602f8152602001806126d9602f913960400191505060405180910390fd5b600080547fffffffffffffffffffffff0000000000000000000000000000000000000000ff166101006001600160a01b03841690810291909117825560405190917fad9400e618eb1344fde53db22397a1b82c765527ecbba3a5c86bcac15090828b91a250565b600054604080517fe43581b800000000000000000000000000000000000000000000000000000000815233600482015290516101009092046001600160a01b03169163e43581b891602480820192602092909190829003018186803b15801561082c57600080fd5b505afa158015610840573d6000803e3d6000fd5b505050506040513d602081101561085657600080fd5b5051806108f35750600054604080517f0c68ba2100000000000000000000000000000000000000000000000000000000815233600482015290516101009092046001600160a01b031691630c68ba2191602480820192602092909190829003018186803b1580156108c657600080fd5b505afa1580156108da573d6000803e3d6000fd5b505050506040513d60208110156108f057600080fd5b50515b61092e5760405162461bcd60e51b815260040180806020018281038252604581526020018061274f6045913960600191505060405180910390fd5b6104ee6117e6565b600054604080517fe43581b800000000000000000000000000000000000000000000000000000000815233600482015290516101009092046001600160a01b03169163e43581b891602480820192602092909190829003018186803b15801561099e57600080fd5b505afa1580156109b2573d6000803e3d6000fd5b505050506040513d60208110156109c857600080fd5b5051610a055760405162461bcd60e51b815260040180806020018281038252602f8152602001806126d9602f913960400191505060405180910390fd5b600680547fffffffffffffffffffffffff0000000000000000000000000000000000000000166001600160a01b0392909216919091179055565b600054604080517fe43581b800000000000000000000000000000000000000000000000000000000815233600482015290516101009092046001600160a01b03169163e43581b891602480820192602092909190829003018186803b158015610aa757600080fd5b505afa158015610abb573d6000803e3d6000fd5b505050506040513d6020811015610ad157600080fd5b5051610b0e5760405162461bcd60e51b815260040180806020018281038252602f8152602001806126d9602f913960400191505060405180910390fd5b600480546001600160a01b038089167fffffffffffffffffffffffff00000000000000000000000000000000000000009283161790925560058054878416908316179055600780549285169290911691909117905560038054879190600090610b7357fe5b906000526020600020906002020160000160006101000a8154816001600160a01b0302191690836001600160a01b03160217905550836003600181548110610bb757fe5b906000526020600020906002020160000160006101000a8154816001600160a01b0302191690836001600160a01b03160217905550816003600281548110610bfb57fe5b6000918252602090912060029091020180547fffffffffffffffffffffffff0000000000000000000000000000000000000000166001600160a01b0392909216919091179055610c60620186a0610c5a87670de0b6b3a76400006110e2565b90611144565b6003600081548110610c6e57fe5b6000918252602090912060016002909202010155610c9b620186a0610c5a85670de0b6b3a76400006110e2565b6003600181548110610ca957fe5b6000918252602090912060016002909202010155610cd6620186a0610c5a83670de0b6b3a76400006110e2565b6003600281548110610ce457fe5b906000526020600020906002020160010181905550505050505050565b6006546001600160a01b031681565b6007546001600160a01b031681565b620186a081565b60008054604080517f0c68ba2100000000000000000000000000000000000000000000000000000000815233600482015290516101009092046001600160a01b031691630c68ba2191602480820192602092909190829003018186803b158015610d8f57600080fd5b505afa158015610da3573d6000803e3d6000fd5b505050506040513d6020811015610db957600080fd5b5051610df65760405162461bcd60e51b815260040180806020018281038252602f815260200180612794602f913960400191505060405180910390fd5b60026001541415610e4e576040805162461bcd60e51b815260206004820152601f60248201527f5265656e7472616e637947756172643a207265656e7472616e742063616c6c00604482015290519081900360640190fd5b60026001556000610e5d611894565b600254909150610e77906001600160a01b031633836120b6565b90506001805590565b6008546001600160a01b031681565b6005546001600160a01b031681565b6002546001600160a01b031681565b6009546001600160a01b031681565b60005461010090046001600160a01b031690565b600054604080517fe43581b800000000000000000000000000000000000000000000000000000000815233600482015290516101009092046001600160a01b03169163e43581b891602480820192602092909190829003018186803b158015610f3857600080fd5b505afa158015610f4c573d6000803e3d6000fd5b505050506040513d6020811015610f6257600080fd5b5051610f9f5760405162461bcd60e51b815260040180806020018281038252602f8152602001806126d9602f913960400191505060405180910390fd5b600980547fffffffffffffffffffffffff0000000000000000000000000000000000000000166001600160a01b0392909216919091179055565b600054604080517fe43581b800000000000000000000000000000000000000000000000000000000815233600482015290516101009092046001600160a01b03169163e43581b891602480820192602092909190829003018186803b15801561104157600080fd5b505afa158015611055573d6000803e3d6000fd5b505050506040513d602081101561106b57600080fd5b50516110a85760405162461bcd60e51b815260040180806020018281038252602f8152602001806126d9602f913960400191505060405180910390fd5b600880547fffffffffffffffffffffffff0000000000000000000000000000000000000000166001600160a01b0392909216919091179055565b6000826110f15750600061113e565b828202828482816110fe57fe5b041461113b5760405162461bcd60e51b815260040180806020018281038252602181526020018061272e6021913960400191505060405180910390fd5b90505b92915050565b600080821161119a576040805162461bcd60e51b815260206004820152601a60248201527f536166654d6174683a206469766973696f6e206279207a65726f000000000000604482015290519081900360640190fd5b8183816111a357fe5b049392505050565b6111b3610644565b611204576040805162461bcd60e51b815260206004820152601460248201527f5061757361626c653a206e6f7420706175736564000000000000000000000000604482015290519081900360640190fd5b600080547fffffffffffffffffffffffffffffffffffffffffffffffffffffffffffffff001690557f5db9ee0a495bf2e6ff9c91a7834c1ba4fdd244a5e8aa4e537bd38aeae4b073aa61125561213b565b604080516001600160a01b039092168252519081900360200190a1565b604080516001600160a01b0380861660248301528416604482015260648082018490528251808303909101815260849091019091526020810180517bffffffffffffffffffffffffffffffffffffffffffffffffffffffff167f23b872dd000000000000000000000000000000000000000000000000000000001790526112fa90859061213f565b50505050565b8061130a576117e3565b60008061134b670de0b6b3a7640000610c5a600360008154811061132a57fe5b906000526020600020906002020160010154866110e290919063ffffffff16565b600254600380549293506001600160a01b039091169163095ea7b3919060009061137157fe5b60009182526020808320600290920290910154604080517fffffffff0000000000000000000000000000000000000000000000000000000060e087901b1681526001600160a01b039092166004830152602482018790525160448083019491928390030190829087803b1580156113e757600080fd5b505af11580156113fb573d6000803e3d6000fd5b505050506040513d602081101561141157600080fd5b50506003805460009061142057fe5b906000526020600020906002020160000160009054906101000a90046001600160a01b03166001600160a01b031663a0712d68826040518263ffffffff1660e01b815260040180828152602001915050602060405180830381600087803b15801561148a57600080fd5b505af115801561149e573d6000803e3d6000fd5b505050506040513d60208110156114b457600080fd5b505060038054928201926114dc91670de0b6b3a764000091610c5a9190600190811061132a57fe5b600254600380549293506001600160a01b039091169163095ea7b39190600190811061150457fe5b60009182526020808320600290920290910154604080517fffffffff0000000000000000000000000000000000000000000000000000000060e087901b1681526001600160a01b039092166004830152602482018790525160448083019491928390030190829087803b15801561157a57600080fd5b505af115801561158e573d6000803e3d6000fd5b505050506040513d60208110156115a457600080fd5b50506003805460019081106115b557fe5b906000526020600020906002020160000160009054906101000a90046001600160a01b03166001600160a01b031663a0712d68826040518263ffffffff1660e01b815260040180828152602001915050602060405180830381600087803b15801561161f57600080fd5b505af1158015611633573d6000803e3d6000fd5b505050506040513d602081101561164957600080fd5b505060028054600380549390940193848603936001600160a01b039092169263095ea7b392811061167657fe5b60009182526020808320600290920290910154604080517fffffffff0000000000000000000000000000000000000000000000000000000060e087901b1681526001600160a01b039092166004830152602482018790525160448083019491928390030190829087803b1580156116ec57600080fd5b505af1158015611700573d6000803e3d6000fd5b505050506040513d602081101561171657600080fd5b505060038054600290811061172757fe5b60009182526020822060029091020154604080517fb6b55f250000000000000000000000000000000000000000000000000000000081526004810185905290516001600160a01b039092169263b6b55f259260248084019382900301818387803b15801561179457600080fd5b505af11580156117a8573d6000803e3d6000fd5b50506040805186815290517fc217459869eed80bfbe5c11e78ab58912eedfd106342671821b6e96d1615dc7f9350908190036020019150a150505b50565b6117ee610644565b15611840576040805162461bcd60e51b815260206004820152601060248201527f5061757361626c653a2070617573656400000000000000000000000000000000604482015290519081900360640190fd5b600080547fffffffffffffffffffffffffffffffffffffffffffffffffffffffffffffff001660011790557f62e78cea01bee320cd4e420270b5ea74000d11b0c9f74754ebdbfc544b05a25861125561213b565b600254604080517f70a08231000000000000000000000000000000000000000000000000000000008152306004820152905160009283926001600160a01b03909116916370a0823191602480820192602092909190829003018186803b1580156118fd57600080fd5b505afa158015611911573d6000803e3d6000fd5b505050506040513d602081101561192757600080fd5b5051600854604080517f70a0823100000000000000000000000000000000000000000000000000000000815230600482015290519293506000926001600160a01b03909216916370a0823191602480820192602092909190829003018186803b15801561199357600080fd5b505afa1580156119a7573d6000803e3d6000fd5b505050506040513d60208110156119bd57600080fd5b5051600654604080517f70a0823100000000000000000000000000000000000000000000000000000000815230600482015290519293506000926001600160a01b03909216916370a0823191602480820192602092909190829003018186803b158015611a2957600080fd5b505afa158015611a3d573d6000803e3d6000fd5b505050506040513d6020811015611a5357600080fd5b5051600380549192506000918290611a6757fe5b600091825260209182902060029091020154604080517f70a0823100000000000000000000000000000000000000000000000000000000815230600482015290516001600160a01b03909216926370a0823192602480840193829003018186803b158015611ad457600080fd5b505afa158015611ae8573d6000803e3d6000fd5b505050506040513d6020811015611afe57600080fd5b505190508015611bad576003600081548110611b1657fe5b906000526020600020906002020160000160009054906101000a90046001600160a01b03166001600160a01b031663db006a75826040518263ffffffff1660e01b815260040180828152602001915050602060405180830381600087803b158015611b8057600080fd5b505af1158015611b94573d6000803e3d6000fd5b505050506040513d6020811015611baa57600080fd5b50505b6003600181548110611bbb57fe5b600091825260209182902060029091020154604080517f70a0823100000000000000000000000000000000000000000000000000000000815230600482015290516001600160a01b03909216926370a0823192602480840193829003018186803b158015611c2857600080fd5b505afa158015611c3c573d6000803e3d6000fd5b505050506040513d6020811015611c5257600080fd5b505190508015611d01576003600181548110611c6a57fe5b906000526020600020906002020160000160009054906101000a90046001600160a01b03166001600160a01b031663db006a75826040518263ffffffff1660e01b815260040180828152602001915050602060405180830381600087803b158015611cd457600080fd5b505af1158015611ce8573d6000803e3d6000fd5b505050506040513d6020811015611cfe57600080fd5b50505b6003600281548110611d0f57fe5b600091825260209182902060029091020154604080517f70a0823100000000000000000000000000000000000000000000000000000000815230600482015290516001600160a01b03909216926370a0823192602480840193829003018186803b158015611d7c57600080fd5b505afa158015611d90573d6000803e3d6000fd5b505050506040513d6020811015611da657600080fd5b505190508015611e44576003600281548110611dbe57fe5b60009182526020822060029091020154604080517f2e1a7d4d0000000000000000000000000000000000000000000000000000000081526004810185905290516001600160a01b0390921692632e1a7d4d9260248084019382900301818387803b158015611e2b57600080fd5b505af1158015611e3f573d6000803e3d6000fd5b505050505b600854604080517f70a0823100000000000000000000000000000000000000000000000000000000815230600482015290516001600160a01b03909216916370a0823191602480820192602092909190829003018186803b158015611ea857600080fd5b505afa158015611ebc573d6000803e3d6000fd5b505050506040513d6020811015611ed257600080fd5b505190506000611ee282856121f0565b1115611f1057600854600254611f0e916001600160a01b039081169116611f0984876121f0565b61224d565b505b600654604080517f70a0823100000000000000000000000000000000000000000000000000000000815230600482015290516001600160a01b03909216916370a0823191602480820192602092909190829003018186803b158015611f7457600080fd5b505afa158015611f88573d6000803e3d6000fd5b505050506040513d6020811015611f9e57600080fd5b505190506000611fae82846121f0565b1115611fd757600654600254611fd5916001600160a01b039081169116611f0984866121f0565b505b600254604080517f70a0823100000000000000000000000000000000000000000000000000000000815230600482015290516000926120769288926001600160a01b03909216916370a0823191602480820192602092909190829003018186803b15801561204457600080fd5b505afa158015612058573d6000803e3d6000fd5b505050506040513d602081101561206e57600080fd5b5051906121f0565b6040805182815290519192507f702d5967f45f6513a38ffc42d6ba9bf230bd40e8f53b16363c7eb4fd2deb9a44919081900360200190a194505050505090565b604080516001600160a01b038416602482015260448082018490528251808303909101815260649091019091526020810180517bffffffffffffffffffffffffffffffffffffffffffffffffffffffff167fa9059cbb0000000000000000000000000000000000000000000000000000000017905261213690849061213f565b505050565b3390565b6060612194826040518060400160405280602081526020017f5361666545524332303a206c6f772d6c6576656c2063616c6c206661696c6564815250856001600160a01b031661249d9092919063ffffffff16565b805190915015612136578080602001905160208110156121b357600080fd5b50516121365760405162461bcd60e51b815260040180806020018281038252602a8152602001806127c3602a913960400191505060405180910390fd5b600082821115612247576040805162461bcd60e51b815260206004820152601e60248201527f536166654d6174683a207375627472616374696f6e206f766572666c6f770000604482015290519081900360640190fd5b50900390565b6040805160028082526060808301845260009390929190602083019080368337019050509050848160008151811061228157fe5b60200260200101906001600160a01b031690816001600160a01b03168152505083816001815181106122af57fe5b6001600160a01b039283166020918202929092018101919091526009546040517f38ed173900000000000000000000000000000000000000000000000000000000815260048101878152600160248301819052306064840181905260c842016084850181905260a060448601908152895160a4870152895160609997909716976338ed1739978d9795968c9690939260c490910191878201910280838360005b8381101561236757818101518382015260200161234f565b505050509050019650505050505050600060405180830381600087803b15801561239057600080fd5b505af11580156123a4573d6000803e3d6000fd5b505050506040513d6000823e601f3d9081017fffffffffffffffffffffffffffffffffffffffffffffffffffffffffffffffe016820160405260208110156123eb57600080fd5b810190808051604051939291908464010000000082111561240b57600080fd5b90830190602082018581111561242057600080fd5b825186602082028301116401000000008211171561243d57600080fd5b82525081516020918201928201910280838360005b8381101561246a578181015183820152602001612452565b5050505090500160405250505090508060018251038151811061248957fe5b6020026020010151925050505b9392505050565b60606124ac84846000856124b4565b949350505050565b6060824710156124f55760405162461bcd60e51b81526004018080602001828103825260268152602001806127086026913960400191505060405180910390fd5b6124fe8561262e565b61254f576040805162461bcd60e51b815260206004820152601d60248201527f416464726573733a2063616c6c20746f206e6f6e2d636f6e7472616374000000604482015290519081900360640190fd5b60006060866001600160a01b031685876040518082805190602001908083835b602083106125ac57805182527fffffffffffffffffffffffffffffffffffffffffffffffffffffffffffffffe0909201916020918201910161256f565b6001836020036101000a03801982511681845116808217855250505050505090500191505060006040518083038185875af1925050503d806000811461260e576040519150601f19603f3d011682016040523d82523d6000602084013e612613565b606091505b5091509150612623828286612634565b979650505050505050565b3b151590565b60608315612643575081612496565b8251156126535782518084602001fd5b8160405162461bcd60e51b81526004018080602001828103825283818151815260200191508051906020019080838360005b8381101561269d578181015183820152602001612685565b50505050905090810190601f1680156126ca5780820380516001836020036101000a031916815260200191505b509250505060405180910390fdfe436f72655265663a3a6f6e6c79476f7665726e6f723a2043616c6c6572206973206e6f74206120676f7665726e6f72416464726573733a20696e73756666696369656e742062616c616e636520666f722063616c6c536166654d6174683a206d756c7469706c69636174696f6e206f766572666c6f77436f72655265663a3a6f6e6c79477561726469616e4f72476f7665726e6f723a2043616c6c6572206973206e6f74206120677561726469616e206f7220676f7665726e6f72436f72655265663a3a6f6e6c79477561726469616e3a2043616c6c6572206973206e6f74206120677561726469616e5361666545524332303a204552433230206f7065726174696f6e20646964206e6f742073756363656564a2646970667358221220a44c819bf7a94b3512a3aa6b111d72db5a8938467dd47371fa7458bad2470c2664736f6c634300060c0033536166654d6174683a206d756c7469706c69636174696f6e206f766572666c6f77",
  "linkReferences": {},
  "deployedLinkReferences": {}
}