{
  "_format": "hh-sol-artifact-1",
  "contractName": "TrancheMaster",
  "sourceName": "contracts/main/TrancheMaster.sol",
  "abi": [
    {
      "inputs": [
        {
          "internalType": "address",
          "name": "_core",
          "type": "address"
        },
        {
          "internalType": "address",
          "name": "_currency",
          "type": "address"
        }
      ],
      "stateMutability": "nonpayable",
      "type": "constructor"
    },
    {
      "anonymous": false,
      "inputs": [
        {
          "indexed": true,
          "internalType": "address",
          "name": "_core",
          "type": "address"
        }
      ],
      "name": "CoreUpdate",
      "type": "event"
    },
    {
      "anonymous": false,
      "inputs": [
        {
          "indexed": false,
          "internalType": "address",
          "name": "account",
          "type": "address"
        },
        {
          "indexed": false,
          "internalType": "uint256",
          "name": "amount",
          "type": "uint256"
        }
      ],
      "name": "Deposit",
      "type": "event"
    },
    {
      "anonymous": false,
      "inputs": [
        {
          "indexed": false,
          "internalType": "address",
          "name": "account",
          "type": "address"
        },
        {
          "indexed": false,
          "internalType": "uint256",
          "name": "tid",
          "type": "uint256"
        },
        {
          "indexed": false,
          "internalType": "uint256",
          "name": "amount",
          "type": "uint256"
        }
      ],
      "name": "Invest",
      "type": "event"
    },
    {
      "anonymous": false,
      "inputs": [
        {
          "indexed": true,
          "internalType": "address",
          "name": "previousOwner",
          "type": "address"
        },
        {
          "indexed": true,
          "internalType": "address",
          "name": "newOwner",
          "type": "address"
        }
      ],
      "name": "OwnershipTransferred",
      "type": "event"
    },
    {
      "anonymous": false,
      "inputs": [
        {
          "indexed": false,
          "internalType": "address",
          "name": "account",
          "type": "address"
        }
      ],
      "name": "Paused",
      "type": "event"
    },
    {
      "anonymous": false,
      "inputs": [
        {
          "indexed": false,
          "internalType": "address",
          "name": "account",
          "type": "address"
        },
        {
          "indexed": false,
          "internalType": "uint256",
          "name": "amount",
          "type": "uint256"
        }
      ],
      "name": "Redeem",
      "type": "event"
    },
    {
      "anonymous": false,
      "inputs": [
        {
          "indexed": false,
          "internalType": "uint256",
          "name": "tid",
          "type": "uint256"
        },
        {
          "indexed": false,
          "internalType": "uint256",
          "name": "target",
          "type": "uint256"
        },
        {
          "indexed": false,
          "internalType": "uint256",
          "name": "apy",
          "type": "uint256"
        },
        {
          "indexed": false,
          "internalType": "uint256",
          "name": "fee",
          "type": "uint256"
        }
      ],
      "name": "TrancheAdd",
      "type": "event"
    },
    {
      "anonymous": false,
      "inputs": [
        {
          "indexed": true,
          "internalType": "uint256",
          "name": "trancheID",
          "type": "uint256"
        },
        {
          "indexed": true,
          "internalType": "uint256",
          "name": "cycle",
          "type": "uint256"
        },
        {
          "indexed": false,
          "internalType": "uint256",
          "name": "principal",
          "type": "uint256"
        },
        {
          "indexed": false,
          "internalType": "uint256",
          "name": "capital",
          "type": "uint256"
        },
        {
          "indexed": false,
          "internalType": "uint256",
          "name": "exchangerate",
          "type": "uint256"
        }
      ],
      "name": "TrancheSettle",
      "type": "event"
    },
    {
      "anonymous": false,
      "inputs": [
        {
          "indexed": false,
          "internalType": "uint256",
          "name": "cycle",
          "type": "uint256"
        },
        {
          "indexed": false,
          "internalType": "uint256",
          "name": "invest",
          "type": "uint256"
        }
      ],
      "name": "TrancheStart",
      "type": "event"
    },
    {
      "anonymous": false,
      "inputs": [
        {
          "indexed": false,
          "internalType": "uint256",
          "name": "tid",
          "type": "uint256"
        },
        {
          "indexed": false,
          "internalType": "uint256",
          "name": "target",
          "type": "uint256"
        },
        {
          "indexed": false,
          "internalType": "uint256",
          "name": "apy",
          "type": "uint256"
        },
        {
          "indexed": false,
          "internalType": "uint256",
          "name": "fee",
          "type": "uint256"
        }
      ],
      "name": "TrancheUpdated",
      "type": "event"
    },
    {
      "anonymous": false,
      "inputs": [
        {
          "indexed": false,
          "internalType": "address",
          "name": "account",
          "type": "address"
        }
      ],
      "name": "Unpaused",
      "type": "event"
    },
    {
      "anonymous": false,
      "inputs": [
        {
          "indexed": false,
          "internalType": "address",
          "name": "account",
          "type": "address"
        },
        {
          "indexed": false,
          "internalType": "uint256",
          "name": "amount",
          "type": "uint256"
        }
      ],
      "name": "Withdraw",
      "type": "event"
    },
    {
      "anonymous": false,
      "inputs": [
        {
          "indexed": false,
          "internalType": "address",
          "name": "account",
          "type": "address"
        },
        {
          "indexed": false,
          "internalType": "uint256",
          "name": "amount",
          "type": "uint256"
        }
      ],
      "name": "WithdrawFee",
      "type": "event"
    },
    {
      "inputs": [],
      "name": "PercentageParamScale",
      "outputs": [
        {
          "internalType": "uint256",
          "name": "",
          "type": "uint256"
        }
      ],
      "stateMutability": "view",
      "type": "function"
    },
    {
      "inputs": [],
      "name": "PercentageScale",
      "outputs": [
        {
          "internalType": "uint256",
          "name": "",
          "type": "uint256"
        }
      ],
      "stateMutability": "view",
      "type": "function"
    },
    {
      "inputs": [],
      "name": "active",
      "outputs": [
        {
          "internalType": "bool",
          "name": "",
          "type": "bool"
        }
      ],
      "stateMutability": "view",
      "type": "function"
    },
    {
      "inputs": [],
      "name": "actualStartAt",
      "outputs": [
        {
          "internalType": "uint256",
          "name": "",
          "type": "uint256"
        }
      ],
      "stateMutability": "view",
      "type": "function"
    },
    {
      "inputs": [
        {
          "internalType": "uint256",
          "name": "target",
          "type": "uint256"
        },
        {
          "internalType": "uint256",
          "name": "apy",
          "type": "uint256"
        },
        {
          "internalType": "uint256",
          "name": "fee",
          "type": "uint256"
        }
      ],
      "name": "add",
      "outputs": [],
      "stateMutability": "nonpayable",
      "type": "function"
    },
    {
      "inputs": [
        {
          "internalType": "address",
          "name": "account",
          "type": "address"
        }
      ],
      "name": "balanceOf",
      "outputs": [
        {
          "internalType": "uint256",
          "name": "balance",
          "type": "uint256"
        },
        {
          "internalType": "uint256",
          "name": "invested",
          "type": "uint256"
        }
      ],
      "stateMutability": "view",
      "type": "function"
    },
    {
      "inputs": [],
      "name": "core",
      "outputs": [
        {
          "internalType": "contract ICore",
          "name": "",
          "type": "address"
        }
      ],
      "stateMutability": "view",
      "type": "function"
    },
    {
      "inputs": [],
      "name": "currency",
      "outputs": [
        {
          "internalType": "address",
          "name": "",
          "type": "address"
        }
      ],
      "stateMutability": "view",
      "type": "function"
    },
    {
      "inputs": [],
      "name": "cycle",
      "outputs": [
        {
          "internalType": "uint256",
          "name": "",
          "type": "uint256"
        }
      ],
      "stateMutability": "view",
      "type": "function"
    },
    {
      "inputs": [
        {
          "internalType": "uint256",
          "name": "amount",
          "type": "uint256"
        }
      ],
      "name": "deposit",
      "outputs": [],
      "stateMutability": "nonpayable",
      "type": "function"
    },
    {
      "inputs": [],
      "name": "duration",
      "outputs": [
        {
          "internalType": "uint256",
          "name": "",
          "type": "uint256"
        }
      ],
      "stateMutability": "view",
      "type": "function"
    },
    {
      "inputs": [
        {
          "internalType": "uint256",
          "name": "tid",
          "type": "uint256"
        }
      ],
      "name": "getInvest",
      "outputs": [
        {
          "internalType": "uint256",
          "name": "",
          "type": "uint256"
        }
      ],
      "stateMutability": "view",
      "type": "function"
    },
    {
      "inputs": [
        {
          "internalType": "uint256",
          "name": "tid",
          "type": "uint256"
        },
        {
          "internalType": "uint256",
          "name": "amount",
          "type": "uint256"
        },
        {
          "internalType": "bool",
          "name": "returnLeft",
          "type": "bool"
        }
      ],
      "name": "invest",
      "outputs": [],
      "stateMutability": "nonpayable",
      "type": "function"
    },
    {
      "inputs": [],
      "name": "owner",
      "outputs": [
        {
          "internalType": "address",
          "name": "",
          "type": "address"
        }
      ],
      "stateMutability": "view",
      "type": "function"
    },
    {
      "inputs": [],
      "name": "pause",
      "outputs": [],
      "stateMutability": "nonpayable",
      "type": "function"
    },
    {
      "inputs": [],
      "name": "paused",
      "outputs": [
        {
          "internalType": "bool",
          "name": "",
          "type": "bool"
        }
      ],
      "stateMutability": "view",
      "type": "function"
    },
    {
      "inputs": [],
      "name": "producedFee",
      "outputs": [
        {
          "internalType": "uint256",
          "name": "",
          "type": "uint256"
        }
      ],
      "stateMutability": "view",
      "type": "function"
    },
    {
      "inputs": [
        {
          "internalType": "uint256",
          "name": "tid",
          "type": "uint256"
        }
      ],
      "name": "redeem",
      "outputs": [],
      "stateMutability": "nonpayable",
      "type": "function"
    },
    {
      "inputs": [],
      "name": "renounceOwnership",
      "outputs": [],
      "stateMutability": "nonpayable",
      "type": "function"
    },
    {
      "inputs": [
        {
          "internalType": "uint256",
          "name": "tid",
          "type": "uint256"
        },
        {
          "internalType": "uint256",
          "name": "target",
          "type": "uint256"
        },
        {
          "internalType": "uint256",
          "name": "apy",
          "type": "uint256"
        },
        {
          "internalType": "uint256",
          "name": "fee",
          "type": "uint256"
        }
      ],
      "name": "set",
      "outputs": [],
      "stateMutability": "nonpayable",
      "type": "function"
    },
    {
      "inputs": [
        {
          "internalType": "address",
          "name": "core_",
          "type": "address"
        }
      ],
      "name": "setCore",
      "outputs": [],
      "stateMutability": "nonpayable",
      "type": "function"
    },
    {
      "inputs": [
        {
          "internalType": "address",
          "name": "_staker",
          "type": "address"
        }
      ],
      "name": "setStaker",
      "outputs": [],
      "stateMutability": "nonpayable",
      "type": "function"
    },
    {
      "inputs": [
        {
          "internalType": "address",
          "name": "_strategy",
          "type": "address"
        }
      ],
      "name": "setStrategy",
      "outputs": [],
      "stateMutability": "nonpayable",
      "type": "function"
    },
    {
      "inputs": [],
      "name": "staker",
      "outputs": [
        {
          "internalType": "address",
          "name": "",
          "type": "address"
        }
      ],
      "stateMutability": "view",
      "type": "function"
    },
    {
      "inputs": [],
      "name": "stop",
      "outputs": [],
      "stateMutability": "nonpayable",
      "type": "function"
    },
    {
      "inputs": [],
      "name": "strategy",
      "outputs": [
        {
          "internalType": "address",
          "name": "",
          "type": "address"
        }
      ],
      "stateMutability": "view",
      "type": "function"
    },
    {
      "inputs": [
        {
          "internalType": "uint256",
          "name": "",
          "type": "uint256"
        },
        {
          "internalType": "uint256",
          "name": "",
          "type": "uint256"
        }
      ],
      "name": "trancheSnapshots",
      "outputs": [
        {
          "internalType": "uint256",
          "name": "target",
          "type": "uint256"
        },
        {
          "internalType": "uint256",
          "name": "principal",
          "type": "uint256"
        },
        {
          "internalType": "uint256",
          "name": "capital",
          "type": "uint256"
        },
        {
          "internalType": "uint256",
          "name": "rate",
          "type": "uint256"
        },
        {
          "internalType": "uint256",
          "name": "apy",
          "type": "uint256"
        },
        {
          "internalType": "uint256",
          "name": "fee",
          "type": "uint256"
        },
        {
          "internalType": "uint256",
          "name": "startAt",
          "type": "uint256"
        },
        {
          "internalType": "uint256",
          "name": "stopAt",
          "type": "uint256"
        }
      ],
      "stateMutability": "view",
      "type": "function"
    },
    {
      "inputs": [
        {
          "internalType": "uint256",
          "name": "",
          "type": "uint256"
        }
      ],
      "name": "tranches",
      "outputs": [
        {
          "internalType": "uint256",
          "name": "target",
          "type": "uint256"
        },
        {
          "internalType": "uint256",
          "name": "principal",
          "type": "uint256"
        },
        {
          "internalType": "uint256",
          "name": "apy",
          "type": "uint256"
        },
        {
          "internalType": "uint256",
          "name": "fee",
          "type": "uint256"
        }
      ],
      "stateMutability": "view",
      "type": "function"
    },
    {
      "inputs": [
        {
          "internalType": "address",
          "name": "newOwner",
          "type": "address"
        }
      ],
      "name": "transferOwnership",
      "outputs": [],
      "stateMutability": "nonpayable",
      "type": "function"
    },
    {
      "inputs": [],
      "name": "unpause",
      "outputs": [],
      "stateMutability": "nonpayable",
      "type": "function"
    },
    {
      "inputs": [
        {
          "internalType": "address",
          "name": "",
          "type": "address"
        }
      ],
      "name": "userInfo",
      "outputs": [
        {
          "internalType": "uint256",
          "name": "balance",
          "type": "uint256"
        }
      ],
      "stateMutability": "view",
      "type": "function"
    },
    {
      "inputs": [
        {
          "internalType": "address",
          "name": "",
          "type": "address"
        },
        {
          "internalType": "uint256",
          "name": "",
          "type": "uint256"
        }
      ],
      "name": "userInvest",
      "outputs": [
        {
          "internalType": "uint256",
          "name": "cycle",
          "type": "uint256"
        },
        {
          "internalType": "uint256",
          "name": "principal",
          "type": "uint256"
        }
      ],
      "stateMutability": "view",
      "type": "function"
    },
    {
      "inputs": [
        {
          "internalType": "uint256",
          "name": "amount",
          "type": "uint256"
        }
      ],
      "name": "withdraw",
      "outputs": [],
      "stateMutability": "nonpayable",
      "type": "function"
    },
    {
      "inputs": [
        {
          "internalType": "uint256",
          "name": "amount",
          "type": "uint256"
        }
      ],
      "name": "withdrawFee",
      "outputs": [],
      "stateMutability": "nonpayable",
      "type": "function"
    }
  ],
  "bytecode": "0x608060405262093a806004553480156200001857600080fd5b5060405162003449380380620034498339810160408190526200003b91620000e2565b600080546001600160a81b0319166101006001600160a01b0385160217815562000064620000de565b600180546001600160a01b0319166001600160a01b038316908117909155604051919250906000907f8be0079c531659141344cd1fd0a4f28419497f9722a3daafe3b4186f6b6457e0908290a3506001600255600980546001600160a01b0319166001600160a01b03929092169190911790555062000139565b3390565b60008060408385031215620000f5578182fd5b8251620001028162000120565b6020840151909250620001158162000120565b809150509250929050565b6001600160a01b03811681146200013657600080fd5b50565b61330080620001496000396000f3fe608060405234801561001057600080fd5b50600436106102265760003560e01c806370a082311161012a578063ae4f9c74116100bd578063db006a751161008c578063f2f4eb2611610071578063f2f4eb2614610437578063f2fde38b1461043f578063f8fa9cdb1461045257610226565b8063db006a751461041c578063e5a6b10f1461042f57610226565b8063ae4f9c74146103c7578063b6b55f25146103ee578063b94db6af14610401578063be3576161461040957610226565b80638456cb59116100f95780638456cb591461039c5780638da5cb5b146103a4578063a29a43bb146103ac578063a8c62e76146103bf57610226565b806370a082311461035b578063715018a61461036e57806372ca567114610376578063800096301461038957610226565b806333a100ca116101bd5780635cd90e581161018c578063606ce3bf11610171578063606ce3bf1461031f5780636190c9d51461033257806370907ef01461033a57610226565b80635cd90e58146103025780635ebaf1db1461030a57610226565b806333a100ca146102cc5780633f4ba83a146102df578063505fb46c146102e75780635c975abb146102fa57610226565b806322d5c4e4116101f957806322d5c4e41461027b57806326c259621461028e57806327e79c44146102b15780632e1a7d4d146102b957610226565b806302fb0c5e1461022b57806307da68f5146102495780630fb5a6b4146102535780631959a00214610268575b600080fd5b61023361045a565b6040516102409190612af6565b60405180910390f35b610251610463565b005b61025b6104c3565b60405161024091906131f0565b61025b610276366004612922565b6104c9565b6102516102893660046129d4565b6104db565b6102a161029c366004612983565b610791565b604051610240949392919061323c565b61025b6107c8565b6102516102c7366004612983565b6107ce565b6102516102da366004612922565b6108b3565b6102516109a6565b6102516102f5366004612a0c565b610b0c565b610233610d17565b61025b610d21565b610312610d2d565b6040516102409190612a84565b61025161032d366004612a37565b610d3c565b61025b610f68565b61034d61034836600461293d565b610f6e565b604051610240929190613218565b61034d610369366004612922565b610f92565b6102516110c8565b61025b610384366004612983565b611169565b610251610397366004612922565b6111cb565b6102516112eb565b61031261144f565b6102516103ba366004612922565b61145e565b610312611551565b6103da6103d53660046129b3565b611560565b604051610240989796959493929190613257565b6102516103fc366004612983565b6115b5565b61025b61166c565b610251610417366004612983565b611673565b61025161042a366004612983565b6117b1565b61031261198d565b61031261199c565b61025161044d366004612922565b6119b0565b61025b611a89565b60075460ff1681565b60075460ff1661048e5760405162461bcd60e51b815260040161048590612cc2565b60405180910390fd5b6002805414156104b05760405162461bcd60e51b8152600401610485906131b9565b600280556104bc611a8f565b6001600255565b60045481565b600c6020526000908152604090205481565b600854839081106104fe5760405162461bcd60e51b815260040161048590613182565b60075460ff16156105215760405162461bcd60e51b815260040161048590612bf7565b61053161052c611af0565b611af4565b6002805414156105535760405162461bcd60e51b8152600401610485906131b9565b60028055826105745760405162461bcd60e51b815260040161048590612cf9565b336000908152600c6020526040902080548411156105a45760405162461bcd60e51b815260040161048590612bc0565b6000600886815481106105b357fe5b906000526020600020906004020190506105da858260010154611c9d90919063ffffffff16565b815410156105fa5760405162461bcd60e51b815260040161048590613034565b336000908152600d60209081526040808320898452909152902060018101546106239087611c9d565b600182015582546106349087611ccb565b835560018201546106459087611c9d565b600180840191909155600a54908201546040517f15c2fdc90000000000000000000000000000000000000000000000000000000081526001600160a01b03909216916315c2fdc99161069d918b9133916004016131f9565b600060405180830381600087803b1580156106b757600080fd5b505af11580156106cb573d6000803e3d6000fd5b505050507f4ae4bd7655e0d350876a23cd90c4227b13db560e34435c6a488150a9c844bf5f33888860405161070293929190612ab1565b60405180910390a18480156107175750825415155b1561077a57825460095461073a916001600160a01b039091169030903390611cf3565b82546040517f884edad9ce6fa2440d8a54cc123490eb96d2768479d49ff9c7366125a94243649161076d91339190612a98565b60405180910390a1600083555b610782611d9c565b50506001600255505050505050565b6008818154811061079e57fe5b60009182526020909120600490910201805460018201546002830154600390930154919350919084565b60065481565b6107d961052c611af0565b6002805414156107fb5760405162461bcd60e51b8152600401610485906131b9565b600280558061081c5760405162461bcd60e51b815260040161048590612cf9565b336000908152600c60205260409020805482111561084c5760405162461bcd60e51b815260040161048590612bc0565b80546108589083611ccb565b8155600954610871906001600160a01b03163384611e35565b7f884edad9ce6fa2440d8a54cc123490eb96d2768479d49ff9c7366125a942436433836040516108a2929190612a98565b60405180910390a150506001600255565b6000546040517fe43581b80000000000000000000000000000000000000000000000000000000081526101009091046001600160a01b03169063e43581b890610900903390600401612a84565b60206040518083038186803b15801561091857600080fd5b505afa15801561092c573d6000803e3d6000fd5b505050506040513d601f19601f820116820180604052508101906109509190612967565b61096c5760405162461bcd60e51b815260040161048590612d67565b600b80547fffffffffffffffffffffffff0000000000000000000000000000000000000000166001600160a01b0392909216919091179055565b6000546040517fe43581b80000000000000000000000000000000000000000000000000000000081526101009091046001600160a01b03169063e43581b8906109f3903390600401612a84565b60206040518083038186803b158015610a0b57600080fd5b505afa158015610a1f573d6000803e3d6000fd5b505050506040513d601f19601f82011682018060405250810190610a439190612967565b80610ae657506000546040517f0c68ba210000000000000000000000000000000000000000000000000000000081526101009091046001600160a01b031690630c68ba2190610a96903390600401612a84565b60206040518083038186803b158015610aae57600080fd5b505afa158015610ac2573d6000803e3d6000fd5b505050506040513d601f19601f82011682018060405250810190610ae69190612967565b610b025760405162461bcd60e51b81526004016104859061306b565b610b0a611e54565b565b6000546040517fe43581b80000000000000000000000000000000000000000000000000000000081526101009091046001600160a01b03169063e43581b890610b59903390600401612a84565b60206040518083038186803b158015610b7157600080fd5b505afa158015610b85573d6000803e3d6000fd5b505050506040513d601f19601f82011682018060405250810190610ba99190612967565b610bc55760405162461bcd60e51b815260040161048590612d67565b60008311610be55760405162461bcd60e51b815260040161048590612ec6565b620186a0821115610c085760405162461bcd60e51b815260040161048590612fc8565b612710811115610c2a5760405162461bcd60e51b815260040161048590612e8f565b60408051608081018252848152600060208201526008918101610c62620186a0610c5c87670de0b6b3a7640000611ee0565b90611f1a565b8152602090810184905282546001818101855560009485529382902083516004909202019081559082015192810192909255604080820151600284015560609091015160039092019190915560085490517f955a633dc66049432428ae39d030e5001c5608eb3a6325bfe8e8231a3bc7356f91610d0a917fffffffffffffffffffffffffffffffffffffffffffffffffffffffffffffffff919091019086908690869061323c565b60405180910390a1505050565b60005460ff165b90565b670de0b6b3a764000081565b600a546001600160a01b031681565b6000546040517fe43581b80000000000000000000000000000000000000000000000000000000081526101009091046001600160a01b03169063e43581b890610d89903390600401612a84565b60206040518083038186803b158015610da157600080fd5b505afa158015610db5573d6000803e3d6000fd5b505050506040513d601f19601f82011682018060405250810190610dd99190612967565b610df55760405162461bcd60e51b815260040161048590612d67565b60085484908110610e185760405162461bcd60e51b815260040161048590613182565b60088581548110610e2557fe5b906000526020600020906004020160010154841015610e565760405162461bcd60e51b815260040161048590612ec6565b600083118015610e695750620186a08311155b610e855760405162461bcd60e51b815260040161048590612fc8565b612710821115610ea75760405162461bcd60e51b815260040161048590612e8f565b8360088681548110610eb557fe5b6000918252602090912060049091020155610edf620186a0610c5c85670de0b6b3a7640000611ee0565b60088681548110610eec57fe5b9060005260206000209060040201600201819055508160088681548110610f0f57fe5b9060005260206000209060040201600301819055507f7304cbcbe24a231d4a97516e7a4b3fc85c6d88dae51fc6134c035870ef66bb9485858585604051610f59949392919061323c565b60405180910390a15050505050565b60055481565b600d6020908152600092835260408084209091529082529020805460019091015482565b6001600160a01b0381166000908152600c6020526040812080549190815b6008548110156110c1576001600160a01b0385166000908152600d6020908152604080832084845290915290206001810154156110b857600554815410156110a557610ffa61289e565b5080546000908152600e602090815260408083208584528252808320815161010081018352815481526001808301549482019490945260028201549281019290925260038101546060830181905260048201546080840152600582015460a0840152600682015460c084015260079091015460e08301529184015490929161109091670de0b6b3a764000091610c5c9190611ee0565b905061109c8782611c9d565b965050506110b8565b60018101546110b5908590611c9d565b93505b50600101610fb0565b5050915091565b6110d0611af0565b6001600160a01b03166110e161144f565b6001600160a01b0316146111075760405162461bcd60e51b815260040161048590612fff565b6001546040516000916001600160a01b0316907f8be0079c531659141344cd1fd0a4f28419497f9722a3daafe3b4186f6b6457e0908390a3600180547fffffffffffffffffffffffff0000000000000000000000000000000000000000169055565b6008546000908290811061118f5760405162461bcd60e51b815260040161048590613182565b336000908152600d602090815260408083208684529091529020600554815410156111be5760009250506111c5565b6001015491505b50919050565b6000546040517fe43581b80000000000000000000000000000000000000000000000000000000081526101009091046001600160a01b03169063e43581b890611218903390600401612a84565b60206040518083038186803b15801561123057600080fd5b505afa158015611244573d6000803e3d6000fd5b505050506040513d601f19601f820116820180604052508101906112689190612967565b6112845760405162461bcd60e51b815260040161048590612d67565b600080547fffffffffffffffffffffff0000000000000000000000000000000000000000ff166101006001600160a01b03841690810291909117825560405190917fad9400e618eb1344fde53db22397a1b82c765527ecbba3a5c86bcac15090828b91a250565b6000546040517fe43581b80000000000000000000000000000000000000000000000000000000081526101009091046001600160a01b03169063e43581b890611338903390600401612a84565b60206040518083038186803b15801561135057600080fd5b505afa158015611364573d6000803e3d6000fd5b505050506040513d601f19601f820116820180604052508101906113889190612967565b8061142b57506000546040517f0c68ba210000000000000000000000000000000000000000000000000000000081526101009091046001600160a01b031690630c68ba21906113db903390600401612a84565b60206040518083038186803b1580156113f357600080fd5b505afa158015611407573d6000803e3d6000fd5b505050506040513d601f19601f8201168201806040525081019061142b9190612967565b6114475760405162461bcd60e51b81526004016104859061306b565b610b0a611f4c565b6001546001600160a01b031690565b6000546040517fe43581b80000000000000000000000000000000000000000000000000000000081526101009091046001600160a01b03169063e43581b8906114ab903390600401612a84565b60206040518083038186803b1580156114c357600080fd5b505afa1580156114d7573d6000803e3d6000fd5b505050506040513d601f19601f820116820180604052508101906114fb9190612967565b6115175760405162461bcd60e51b815260040161048590612d67565b600a80547fffffffffffffffffffffffff0000000000000000000000000000000000000000166001600160a01b0392909216919091179055565b600b546001600160a01b031681565b600e602052816000526040600020602052806000526040600020600091509150508060000154908060010154908060020154908060030154908060040154908060050154908060060154908060070154905088565b6115c061052c611af0565b6002805414156115e25760405162461bcd60e51b8152600401610485906131b9565b60028055806116035760405162461bcd60e51b815260040161048590612cf9565b336000818152600c60205260409020600954909161162c916001600160a01b0316903085611cf3565b80546116389083611c9d565b81556040517fe1fffcc4923d04b559f4d29a8bfc6cda04eb5b0d3c460751c2402c5c5cc9109c906108a29033908590612a98565b620186a081565b6000546040517fe43581b80000000000000000000000000000000000000000000000000000000081526101009091046001600160a01b03169063e43581b8906116c0903390600401612a84565b60206040518083038186803b1580156116d857600080fd5b505afa1580156116ec573d6000803e3d6000fd5b505050506040513d601f19601f820116820180604052508101906117109190612967565b61172c5760405162461bcd60e51b815260040161048590612d67565b60035481111561174e5760405162461bcd60e51b815260040161048590612d30565b60035461175b9082611ccb565b600355600954611775906001600160a01b03163383611e35565b7f66bf9186b00db666fc37aaffbb95a050c66e599e000c785c1dff0467d868f1b133826040516117a6929190612a98565b60405180910390a150565b600854819081106117d45760405162461bcd60e51b815260040161048590613182565b60075460ff16156117f75760405162461bcd60e51b815260040161048590612bf7565b61180261052c611af0565b6002805414156118245760405162461bcd60e51b8152600401610485906131b9565b60028055336000908152600c60209081526040808320600d8352818420868552909252909120600181015461186b5760405162461bcd60e51b815260040161048590612f34565b60006008858154811061187a57fe5b906000526020600020906004020190506118a582600101548460000154611c9d90919063ffffffff16565b8355600180830154908201546118ba91611ccb565b6001820155600a546040517f15c2fdc90000000000000000000000000000000000000000000000000000000081526001600160a01b03909116906315c2fdc99061190d90889033906000906004016131f9565b600060405180830381600087803b15801561192757600080fd5b505af115801561193b573d6000803e3d6000fd5b505050507f222838db2794d11532d940e8dec38ae307ed0b63cd97c233322e221f998767a6338360010154604051611974929190612a98565b60405180910390a1506000600191820155600255505050565b6009546001600160a01b031681565b60005461010090046001600160a01b031690565b6119b8611af0565b6001600160a01b03166119c961144f565b6001600160a01b0316146119ef5760405162461bcd60e51b815260040161048590612fff565b6001600160a01b038116611a155760405162461bcd60e51b815260040161048590612c2e565b6001546040516001600160a01b038084169216907f8be0079c531659141344cd1fd0a4f28419497f9722a3daafe3b4186f6b6457e090600090a3600180547fffffffffffffffffffffffff0000000000000000000000000000000000000000166001600160a01b0392909216919091179055565b60035481565b60045460065401421015611ab55760405162461bcd60e51b815260040161048590612b52565b611abd611fc5565b600780547fffffffffffffffffffffffffffffffffffffffffffffffffffffffffffffff00169055600580546001019055565b3390565b6001600160a01b0381166000908152600c60205260408120905b600854811015611c98576001600160a01b0383166000908152600d60209081526040808320848452909152902060055481541015611c8f57600181015415611c8957611b5861289e565b5080546000908152600e602090815260408083208584528252808320815161010081018352815481526001808301549482019490945260028201549281019290925260038101546060830181905260048201546080840152600582015460a0840152600682015460c084015260079091015460e083015291840154909291611bee91670de0b6b3a764000091610c5c9190611ee0565b8554909150611bfd9082611c9d565b8555600060018401819055600a546040517f15c2fdc90000000000000000000000000000000000000000000000000000000081526001600160a01b03909116916315c2fdc991611c549188918b91906004016131f9565b600060405180830381600087803b158015611c6e57600080fd5b505af1158015611c82573d6000803e3d6000fd5b5050505050505b60055481555b50600101611b0e565b505050565b600082820183811015611cc25760405162461bcd60e51b815260040161048590612c8b565b90505b92915050565b600082821115611ced5760405162461bcd60e51b815260040161048590612dc4565b50900390565b611d96846323b872dd60e01b858585604051602401611d1493929190612ad2565b604080517fffffffffffffffffffffffffffffffffffffffffffffffffffffffffffffffe08184030181529190526020810180517bffffffffffffffffffffffffffffffffffffffffffffffffffffffff167fffffffff000000000000000000000000000000000000000000000000000000009093169290921790915261244e565b50505050565b6000805b600854811015611e2657611db26128e3565b60088281548110611dbf57fe5b90600052602060002090600402016040518060800160405290816000820154815260200160018201548152602001600282015481526020016003820154815250509050806000015181602001511015611e1d57600092505050610d1e565b50600101611da0565b50611e2f6124dd565b50600190565b611c988363a9059cbb60e01b8484604051602401611d14929190612a98565b611e5c610d17565b611e785760405162461bcd60e51b815260040161048590612b89565b600080547fffffffffffffffffffffffffffffffffffffffffffffffffffffffffffffff001690557f5db9ee0a495bf2e6ff9c91a7834c1ba4fdd244a5e8aa4e537bd38aeae4b073aa611ec9611af0565b604051611ed69190612a84565b60405180910390a1565b600082611eef57506000611cc5565b82820282848281611efc57fe5b0414611cc25760405162461bcd60e51b815260040161048590612f6b565b6000808211611f3b5760405162461bcd60e51b815260040161048590612e58565b818381611f4457fe5b049392505050565b611f54610d17565b15611f715760405162461bcd60e51b815260040161048590612efd565b600080547fffffffffffffffffffffffffffffffffffffffffffffffffffffffffffffff001660011790557f62e78cea01bee320cd4e420270b5ea74000d11b0c9f74754ebdbfc544b05a258611ec9611af0565b600b54604080517fbe040fb000000000000000000000000000000000000000000000000000000000815290516000926001600160a01b03169163be040fb091600480830192602092919082900301818787803b15801561202457600080fd5b505af1158015612038573d6000803e3d6000fd5b505050506040513d601f19601f8201168201806040525081019061205c919061299b565b9050806000808042815b6008547fffffffffffffffffffffffffffffffffffffffffffffffffffffffffffffffff018110156122a3576000600882815481106120a157fe5b90600052602060002090600402019050600093506120f7670de0b6b3a7640000610c5c62015180610c5c61016d610c5c6006548a036120f189600201548a60010154611ee090919063ffffffff16565b90611ee0565b95506000612112878360010154611c9d90919063ffffffff16565b90508088101580612127576000989550612139565b90945084906121368983611ccb565b98505b801561218057600061215f620186a0610c5c86600301548a611ee090919063ffffffff16565b60035490915061216f9082611c9d565b60035561217c8782611ccb565b9650505b61218e868460010154612708565b965060405180610100016040528084600001548152602001846001015481526020018781526020018881526020018460020154815260200184600301548152602001600654815260200186815250600e600060055481526020019081526020016000206000868152602001908152602001600020600082015181600001556020820151816001015560408201518160020155606082015181600301556080820151816004015560a0820151816005015560c0820151816006015560e08201518160070155905050600554847f465c3a6938113f4f2bbb78cd69c8a81b4553da4fcd68e420b3c9cd8e5b58cb478560010154898b60405161229093929190613226565b60405180910390a3505050600101612066565b50600880547fffffffffffffffffffffffffffffffffffffffffffffffffffffffffffffffff810191600091839081106122d957fe5b90600052602060002090600402019050869350600061230c620186a0610c5c846003015488611ee090919063ffffffff16565b60035490915061231c9082611c9d565b6003556123298582611ccb565b9450612339858360010154612708565b955060405180610100016040528083600001548152602001836001015481526020018681526020018781526020018360020154815260200183600301548152602001600654815260200142815250600e600060055481526020019081526020016000206000858152602001908152602001600020600082015181600001556020820151816001015560408201518160020155606082015181600301556080820151816004015560a0820151816005015560c0820151816006015560e08201518160070155905050600554837f465c3a6938113f4f2bbb78cd69c8a81b4553da4fcd68e420b3c9cd8e5b58cb478460010154888a60405161243b93929190613226565b60405180910390a3505050505050505050565b60606124a3826040518060400160405280602081526020017f5361666545524332303a206c6f772d6c6576656c2063616c6c206661696c6564815250856001600160a01b03166127849092919063ffffffff16565b805190915015611c9857808060200190518101906124c19190612967565b611c985760405162461bcd60e51b815260040161048590613125565b60075460ff16156125005760405162461bcd60e51b815260040161048590612bf7565b6000805b600854811015612588576125166128e3565b6008828154811061252357fe5b9060005260206000209060040201604051806080016040529081600082015481526020016001820154815260200160028201548152602001600382015481525050905061257d816020015184611c9d90919063ffffffff16565b925050600101612504565b50600954600b546040517f095ea7b30000000000000000000000000000000000000000000000000000000081526001600160a01b039283169263095ea7b3926125d8929116908590600401612a98565b602060405180830381600087803b1580156125f257600080fd5b505af1158015612606573d6000803e3d6000fd5b505050506040513d601f19601f8201168201806040525081019061262a9190612967565b50600b546040517f538a85a10000000000000000000000000000000000000000000000000000000081526001600160a01b039091169063538a85a1906126749084906004016131f0565b600060405180830381600087803b15801561268e57600080fd5b505af11580156126a2573d6000803e3d6000fd5b5050426006555050600780547fffffffffffffffffffffffffffffffffffffffffffffffffffffffffffffff001660011790556005546040517f383e7129881c27d653405708c1e4217e074fd5b69b4b9b5a39b638275e084a03916117a6918490613218565b6000818314156127215750670de0b6b3a7640000611cc5565b8183111561275a5761275361274483610c5c818703670de0b6b3a7640000611ee0565b670de0b6b3a764000090611c9d565b9050611cc5565b61275361277583610c5c868203670de0b6b3a7640000611ee0565b670de0b6b3a764000090611ccb565b6060612793848460008561279d565b90505b9392505050565b606030318311156127c05760405162461bcd60e51b815260040161048590612dfb565b6127c98561285f565b6127e55760405162461bcd60e51b8152600401610485906130ee565b60006060866001600160a01b031685876040516128029190612a68565b60006040518083038185875af1925050503d806000811461283f576040519150601f19603f3d011682016040523d82523d6000602084013e612844565b606091505b5091509150612854828286612865565b979650505050505050565b3b151590565b60608315612874575081612796565b8251156128845782518084602001fd5b8160405162461bcd60e51b81526004016104859190612b01565b60405180610100016040528060008152602001600081526020016000815260200160008152602001600081526020016000815260200160008152602001600081525090565b6040518060800160405280600081526020016000815260200160008152602001600081525090565b80356001600160a01b0381168114611cc557600080fd5b600060208284031215612933578081fd5b612796838361290b565b6000806040838503121561294f578081fd5b612959848461290b565b946020939093013593505050565b600060208284031215612978578081fd5b8151611cc2816132b9565b600060208284031215612994578081fd5b5035919050565b6000602082840312156129ac578081fd5b5051919050565b600080604083850312156129c5578182fd5b50508035926020909101359150565b6000806000606084860312156129e8578081fd5b83359250602084013591506040840135612a01816132b9565b809150509250925092565b600080600060608486031215612a20578283fd5b505081359360208301359350604090920135919050565b60008060008060808587031215612a4c578081fd5b5050823594602084013594506040840135936060013592509050565b60008251612a7a81846020870161328d565b9190910192915050565b6001600160a01b0391909116815260200190565b6001600160a01b03929092168252602082015260400190565b6001600160a01b039390931683526020830191909152604082015260600190565b6001600160a01b039384168152919092166020820152604081019190915260600190565b901515815260200190565b6000602082528251806020840152612b2081604085016020870161328d565b601f017fffffffffffffffffffffffffffffffffffffffffffffffffffffffffffffffe0169190910160400192915050565b60208082526011908201527f6379636c65206e6f742065787069726564000000000000000000000000000000604082015260600190565b60208082526014908201527f5061757361626c653a206e6f7420706175736564000000000000000000000000604082015260600190565b60208082526012908201527f62616c616e6365206e6f7420656e6f7567680000000000000000000000000000604082015260600190565b6020808252600e908201527f616c726561647920616374697665000000000000000000000000000000000000604082015260600190565b60208082526026908201527f4f776e61626c653a206e6577206f776e657220697320746865207a65726f206160408201527f6464726573730000000000000000000000000000000000000000000000000000606082015260800190565b6020808252601b908201527f536166654d6174683a206164646974696f6e206f766572666c6f770000000000604082015260600190565b6020808252600a908201527f6e6f742061637469766500000000000000000000000000000000000000000000604082015260600190565b6020808252600e908201527f696e76616c696420616d6f756e74000000000000000000000000000000000000604082015260600190565b6020808252601a908201527f6e6f7420656e6f7567682062616c616e636520666f7220666565000000000000604082015260600190565b6020808252602f908201527f436f72655265663a3a6f6e6c79476f7665726e6f723a2043616c6c657220697360408201527f206e6f74206120676f7665726e6f720000000000000000000000000000000000606082015260800190565b6020808252601e908201527f536166654d6174683a207375627472616374696f6e206f766572666c6f770000604082015260600190565b60208082526026908201527f416464726573733a20696e73756666696369656e742062616c616e636520666f60408201527f722063616c6c0000000000000000000000000000000000000000000000000000606082015260800190565b6020808252601a908201527f536166654d6174683a206469766973696f6e206279207a65726f000000000000604082015260600190565b6020808252600b908201527f696e76616c696420666565000000000000000000000000000000000000000000604082015260600190565b6020808252600e908201527f696e76616c696420746172676574000000000000000000000000000000000000604082015260600190565b60208082526010908201527f5061757361626c653a2070617573656400000000000000000000000000000000604082015260600190565b60208082526014908201527f6e6f7420656e6f756768207072696e636970616c000000000000000000000000604082015260600190565b60208082526021908201527f536166654d6174683a206d756c7469706c69636174696f6e206f766572666c6f60408201527f7700000000000000000000000000000000000000000000000000000000000000606082015260800190565b6020808252600b908201527f696e76616c696420415059000000000000000000000000000000000000000000604082015260600190565b6020808252818101527f4f776e61626c653a2063616c6c6572206973206e6f7420746865206f776e6572604082015260600190565b60208082526010908201527f6e6f7420656e6f7567682071756f746100000000000000000000000000000000604082015260600190565b60208082526045908201527f436f72655265663a3a6f6e6c79477561726469616e4f72476f7665726e6f723a60408201527f2043616c6c6572206973206e6f74206120677561726469616e206f7220676f7660608201527f65726e6f72000000000000000000000000000000000000000000000000000000608082015260a00190565b6020808252601d908201527f416464726573733a2063616c6c20746f206e6f6e2d636f6e7472616374000000604082015260600190565b6020808252602a908201527f5361666545524332303a204552433230206f7065726174696f6e20646964206e60408201527f6f74207375636365656400000000000000000000000000000000000000000000606082015260800190565b60208082526012908201527f696e76616c6964207472616e6368652069640000000000000000000000000000604082015260600190565b6020808252601f908201527f5265656e7472616e637947756172643a207265656e7472616e742063616c6c00604082015260600190565b90815260200190565b9283526001600160a01b03919091166020830152604082015260600190565b918252602082015260400190565b9283526020830191909152604082015260600190565b93845260208401929092526040830152606082015260800190565b978852602088019690965260408701949094526060860192909252608085015260a084015260c083015260e08201526101000190565b60005b838110156132a8578181015183820152602001613290565b83811115611d965750506000910152565b80151581146132c757600080fd5b5056fea26469706673582212205e0492ff748d9838d841756dd06e640aeea29b6da154cf7ce53579f93f91cdf064736f6c634300060c0033",
  "linkReferences": {},
  "deployedLinkReferences": {}
}