{
  "_format": "hh-sol-artifact-1",
  "contractName": "TrancheMaster",
  "sourceName": "contracts/main/TrancheMaster.sol",
  "abi": [
    {
      "inputs": [
        {
          "internalType": "address",
          "name": "_core",
          "type": "address"
        },
        {
          "internalType": "address",
          "name": "_currency",
          "type": "address"
        }
      ],
      "stateMutability": "nonpayable",
      "type": "constructor"
    },
    {
      "anonymous": false,
      "inputs": [
        {
          "indexed": true,
          "internalType": "address",
          "name": "_core",
          "type": "address"
        }
      ],
      "name": "CoreUpdate",
      "type": "event"
    },
    {
      "anonymous": false,
      "inputs": [
        {
          "indexed": false,
          "internalType": "address",
          "name": "account",
          "type": "address"
        },
        {
          "indexed": false,
          "internalType": "uint256",
          "name": "amount",
          "type": "uint256"
        }
      ],
      "name": "Deposit",
      "type": "event"
    },
    {
      "anonymous": false,
      "inputs": [
        {
          "indexed": false,
          "internalType": "address",
          "name": "account",
          "type": "address"
        },
        {
          "indexed": false,
          "internalType": "uint256",
          "name": "tid",
          "type": "uint256"
        },
        {
          "indexed": false,
          "internalType": "uint256",
          "name": "cycle",
          "type": "uint256"
        },
        {
          "indexed": false,
          "internalType": "uint256",
          "name": "principal",
          "type": "uint256"
        },
        {
          "indexed": false,
          "internalType": "uint256",
          "name": "capital",
          "type": "uint256"
        }
      ],
      "name": "Harvest",
      "type": "event"
    },
    {
      "anonymous": false,
      "inputs": [
        {
          "indexed": false,
          "internalType": "address",
          "name": "account",
          "type": "address"
        },
        {
          "indexed": false,
          "internalType": "uint256",
          "name": "tid",
          "type": "uint256"
        },
        {
          "indexed": false,
          "internalType": "uint256",
          "name": "cycle",
          "type": "uint256"
        },
        {
          "indexed": false,
          "internalType": "uint256",
          "name": "amount",
          "type": "uint256"
        }
      ],
      "name": "Invest",
      "type": "event"
    },
    {
      "anonymous": false,
      "inputs": [
        {
          "indexed": false,
          "internalType": "address",
          "name": "account",
          "type": "address"
        }
      ],
      "name": "Paused",
      "type": "event"
    },
    {
      "anonymous": false,
      "inputs": [
        {
          "indexed": false,
          "internalType": "address",
          "name": "account",
          "type": "address"
        },
        {
          "indexed": false,
          "internalType": "uint256",
          "name": "tid",
          "type": "uint256"
        },
        {
          "indexed": false,
          "internalType": "uint256",
          "name": "cycle",
          "type": "uint256"
        },
        {
          "indexed": false,
          "internalType": "uint256",
          "name": "amount",
          "type": "uint256"
        }
      ],
      "name": "Redeem",
      "type": "event"
    },
    {
      "anonymous": false,
      "inputs": [
        {
          "indexed": false,
          "internalType": "uint256",
          "name": "tid",
          "type": "uint256"
        },
        {
          "indexed": false,
          "internalType": "uint256",
          "name": "target",
          "type": "uint256"
        },
        {
          "indexed": false,
          "internalType": "uint256",
          "name": "apy",
          "type": "uint256"
        },
        {
          "indexed": false,
          "internalType": "uint256",
          "name": "fee",
          "type": "uint256"
        }
      ],
      "name": "TrancheAdd",
      "type": "event"
    },
    {
      "anonymous": false,
      "inputs": [
        {
          "indexed": false,
          "internalType": "uint256",
          "name": "tid",
          "type": "uint256"
        },
        {
          "indexed": false,
          "internalType": "uint256",
          "name": "cycle",
          "type": "uint256"
        },
        {
          "indexed": false,
          "internalType": "uint256",
          "name": "principal",
          "type": "uint256"
        },
        {
          "indexed": false,
          "internalType": "uint256",
          "name": "capital",
          "type": "uint256"
        },
        {
          "indexed": false,
          "internalType": "uint256",
          "name": "rate",
          "type": "uint256"
        }
      ],
      "name": "TrancheSettle",
      "type": "event"
    },
    {
      "anonymous": false,
      "inputs": [
        {
          "indexed": false,
          "internalType": "uint256",
          "name": "tid",
          "type": "uint256"
        },
        {
          "indexed": false,
          "internalType": "uint256",
          "name": "cycle",
          "type": "uint256"
        },
        {
          "indexed": false,
          "internalType": "uint256",
          "name": "principal",
          "type": "uint256"
        }
      ],
      "name": "TrancheStart",
      "type": "event"
    },
    {
      "anonymous": false,
      "inputs": [
        {
          "indexed": false,
          "internalType": "uint256",
          "name": "tid",
          "type": "uint256"
        },
        {
          "indexed": false,
          "internalType": "uint256",
          "name": "target",
          "type": "uint256"
        },
        {
          "indexed": false,
          "internalType": "uint256",
          "name": "apy",
          "type": "uint256"
        },
        {
          "indexed": false,
          "internalType": "uint256",
          "name": "fee",
          "type": "uint256"
        }
      ],
      "name": "TrancheUpdated",
      "type": "event"
    },
    {
      "anonymous": false,
      "inputs": [
        {
          "indexed": false,
          "internalType": "address",
          "name": "account",
          "type": "address"
        }
      ],
      "name": "Unpaused",
      "type": "event"
    },
    {
      "anonymous": false,
      "inputs": [
        {
          "indexed": false,
          "internalType": "address",
          "name": "account",
          "type": "address"
        },
        {
          "indexed": false,
          "internalType": "uint256",
          "name": "amount",
          "type": "uint256"
        }
      ],
      "name": "Withdraw",
      "type": "event"
    },
    {
      "anonymous": false,
      "inputs": [
        {
          "indexed": false,
          "internalType": "address",
          "name": "account",
          "type": "address"
        },
        {
          "indexed": false,
          "internalType": "uint256",
          "name": "amount",
          "type": "uint256"
        }
      ],
      "name": "WithdrawFee",
      "type": "event"
    },
    {
      "inputs": [],
      "name": "PercentageParamScale",
      "outputs": [
        {
          "internalType": "uint256",
          "name": "",
          "type": "uint256"
        }
      ],
      "stateMutability": "view",
      "type": "function"
    },
    {
      "inputs": [],
      "name": "PercentageScale",
      "outputs": [
        {
          "internalType": "uint256",
          "name": "",
          "type": "uint256"
        }
      ],
      "stateMutability": "view",
      "type": "function"
    },
    {
      "inputs": [],
      "name": "active",
      "outputs": [
        {
          "internalType": "bool",
          "name": "",
          "type": "bool"
        }
      ],
      "stateMutability": "view",
      "type": "function"
    },
    {
      "inputs": [],
      "name": "actualStartAt",
      "outputs": [
        {
          "internalType": "uint256",
          "name": "",
          "type": "uint256"
        }
      ],
      "stateMutability": "view",
      "type": "function"
    },
    {
      "inputs": [
        {
          "internalType": "uint256",
          "name": "target",
          "type": "uint256"
        },
        {
          "internalType": "uint256",
          "name": "apy",
          "type": "uint256"
        },
        {
          "internalType": "uint256",
          "name": "fee",
          "type": "uint256"
        }
      ],
      "name": "add",
      "outputs": [],
      "stateMutability": "nonpayable",
      "type": "function"
    },
    {
      "inputs": [
        {
          "internalType": "address",
          "name": "account",
          "type": "address"
        }
      ],
      "name": "balanceOf",
      "outputs": [
        {
          "internalType": "uint256",
          "name": "balance",
          "type": "uint256"
        },
        {
          "internalType": "uint256",
          "name": "invested",
          "type": "uint256"
        }
      ],
      "stateMutability": "view",
      "type": "function"
    },
    {
      "inputs": [],
      "name": "core",
      "outputs": [
        {
          "internalType": "contract ICore",
          "name": "",
          "type": "address"
        }
      ],
      "stateMutability": "view",
      "type": "function"
    },
    {
      "inputs": [],
      "name": "currency",
      "outputs": [
        {
          "internalType": "address",
          "name": "",
          "type": "address"
        }
      ],
      "stateMutability": "view",
      "type": "function"
    },
    {
      "inputs": [],
      "name": "cycle",
      "outputs": [
        {
          "internalType": "uint256",
          "name": "",
          "type": "uint256"
        }
      ],
      "stateMutability": "view",
      "type": "function"
    },
    {
      "inputs": [
        {
          "internalType": "uint256",
          "name": "amount",
          "type": "uint256"
        }
      ],
      "name": "deposit",
      "outputs": [],
      "stateMutability": "nonpayable",
      "type": "function"
    },
    {
      "inputs": [],
      "name": "duration",
      "outputs": [
        {
          "internalType": "uint256",
          "name": "",
          "type": "uint256"
        }
      ],
      "stateMutability": "view",
      "type": "function"
    },
    {
      "inputs": [
        {
          "internalType": "uint256",
          "name": "tid",
          "type": "uint256"
        }
      ],
      "name": "getInvest",
      "outputs": [
        {
          "internalType": "uint256",
          "name": "",
          "type": "uint256"
        }
      ],
      "stateMutability": "view",
      "type": "function"
    },
    {
      "inputs": [
        {
          "internalType": "uint256",
          "name": "tid",
          "type": "uint256"
        },
        {
          "internalType": "uint256",
          "name": "amount",
          "type": "uint256"
        },
        {
          "internalType": "bool",
          "name": "returnLeft",
          "type": "bool"
        }
      ],
      "name": "invest",
      "outputs": [],
      "stateMutability": "nonpayable",
      "type": "function"
    },
    {
      "inputs": [
        {
          "internalType": "uint256",
          "name": "amountIn",
          "type": "uint256"
        },
        {
          "internalType": "uint256",
          "name": "tid",
          "type": "uint256"
        },
        {
          "internalType": "uint256",
          "name": "amountInvest",
          "type": "uint256"
        }
      ],
      "name": "investDirect",
      "outputs": [],
      "stateMutability": "nonpayable",
      "type": "function"
    },
    {
      "inputs": [],
      "name": "pause",
      "outputs": [],
      "stateMutability": "nonpayable",
      "type": "function"
    },
    {
      "inputs": [],
      "name": "paused",
      "outputs": [
        {
          "internalType": "bool",
          "name": "",
          "type": "bool"
        }
      ],
      "stateMutability": "view",
      "type": "function"
    },
    {
      "inputs": [],
      "name": "producedFee",
      "outputs": [
        {
          "internalType": "uint256",
          "name": "",
          "type": "uint256"
        }
      ],
      "stateMutability": "view",
      "type": "function"
    },
    {
      "inputs": [
        {
          "internalType": "uint256",
          "name": "tid",
          "type": "uint256"
        }
      ],
      "name": "redeem",
      "outputs": [],
      "stateMutability": "nonpayable",
      "type": "function"
    },
    {
      "inputs": [
        {
          "internalType": "uint256",
          "name": "tid",
          "type": "uint256"
        }
      ],
      "name": "redeemDirect",
      "outputs": [],
      "stateMutability": "nonpayable",
      "type": "function"
    },
    {
      "inputs": [
        {
          "internalType": "uint256",
          "name": "tid",
          "type": "uint256"
        },
        {
          "internalType": "uint256",
          "name": "target",
          "type": "uint256"
        },
        {
          "internalType": "uint256",
          "name": "apy",
          "type": "uint256"
        },
        {
          "internalType": "uint256",
          "name": "fee",
          "type": "uint256"
        }
      ],
      "name": "set",
      "outputs": [],
      "stateMutability": "nonpayable",
      "type": "function"
    },
    {
      "inputs": [
        {
          "internalType": "address",
          "name": "core_",
          "type": "address"
        }
      ],
      "name": "setCore",
      "outputs": [],
      "stateMutability": "nonpayable",
      "type": "function"
    },
    {
      "inputs": [
        {
          "internalType": "uint256",
          "name": "_duration",
          "type": "uint256"
        }
      ],
      "name": "setDuration",
      "outputs": [],
      "stateMutability": "nonpayable",
      "type": "function"
    },
    {
      "inputs": [
        {
          "internalType": "address",
          "name": "_staker",
          "type": "address"
        }
      ],
      "name": "setStaker",
      "outputs": [],
      "stateMutability": "nonpayable",
      "type": "function"
    },
    {
      "inputs": [
        {
          "internalType": "address",
          "name": "_strategy",
          "type": "address"
        }
      ],
      "name": "setStrategy",
      "outputs": [],
      "stateMutability": "nonpayable",
      "type": "function"
    },
    {
      "inputs": [],
      "name": "staker",
      "outputs": [
        {
          "internalType": "address",
          "name": "",
          "type": "address"
        }
      ],
      "stateMutability": "view",
      "type": "function"
    },
    {
      "inputs": [],
      "name": "stop",
      "outputs": [],
      "stateMutability": "nonpayable",
      "type": "function"
    },
    {
      "inputs": [],
      "name": "strategy",
      "outputs": [
        {
          "internalType": "address",
          "name": "",
          "type": "address"
        }
      ],
      "stateMutability": "view",
      "type": "function"
    },
    {
      "inputs": [
        {
          "internalType": "uint256",
          "name": "",
          "type": "uint256"
        },
        {
          "internalType": "uint256",
          "name": "",
          "type": "uint256"
        }
      ],
      "name": "trancheSnapshots",
      "outputs": [
        {
          "internalType": "uint256",
          "name": "target",
          "type": "uint256"
        },
        {
          "internalType": "uint256",
          "name": "principal",
          "type": "uint256"
        },
        {
          "internalType": "uint256",
          "name": "capital",
          "type": "uint256"
        },
        {
          "internalType": "uint256",
          "name": "rate",
          "type": "uint256"
        },
        {
          "internalType": "uint256",
          "name": "apy",
          "type": "uint256"
        },
        {
          "internalType": "uint256",
          "name": "fee",
          "type": "uint256"
        },
        {
          "internalType": "uint256",
          "name": "startAt",
          "type": "uint256"
        },
        {
          "internalType": "uint256",
          "name": "stopAt",
          "type": "uint256"
        }
      ],
      "stateMutability": "view",
      "type": "function"
    },
    {
      "inputs": [
        {
          "internalType": "uint256",
          "name": "",
          "type": "uint256"
        }
      ],
      "name": "tranches",
      "outputs": [
        {
          "internalType": "uint256",
          "name": "target",
          "type": "uint256"
        },
        {
          "internalType": "uint256",
          "name": "principal",
          "type": "uint256"
        },
        {
          "internalType": "uint256",
          "name": "apy",
          "type": "uint256"
        },
        {
          "internalType": "uint256",
          "name": "fee",
          "type": "uint256"
        }
      ],
      "stateMutability": "view",
      "type": "function"
    },
    {
      "inputs": [],
      "name": "unpause",
      "outputs": [],
      "stateMutability": "nonpayable",
      "type": "function"
    },
    {
      "inputs": [
        {
          "internalType": "address",
          "name": "",
          "type": "address"
        }
      ],
      "name": "userInfo",
      "outputs": [
        {
          "internalType": "uint256",
          "name": "balance",
          "type": "uint256"
        }
      ],
      "stateMutability": "view",
      "type": "function"
    },
    {
      "inputs": [
        {
          "internalType": "address",
          "name": "",
          "type": "address"
        },
        {
          "internalType": "uint256",
          "name": "",
          "type": "uint256"
        }
      ],
      "name": "userInvest",
      "outputs": [
        {
          "internalType": "uint256",
          "name": "cycle",
          "type": "uint256"
        },
        {
          "internalType": "uint256",
          "name": "principal",
          "type": "uint256"
        }
      ],
      "stateMutability": "view",
      "type": "function"
    },
    {
      "inputs": [
        {
          "internalType": "uint256",
          "name": "amount",
          "type": "uint256"
        }
      ],
      "name": "withdraw",
      "outputs": [],
      "stateMutability": "nonpayable",
      "type": "function"
    },
    {
      "inputs": [
        {
          "internalType": "uint256",
          "name": "amount",
          "type": "uint256"
        }
      ],
      "name": "withdrawFee",
      "outputs": [],
      "stateMutability": "nonpayable",
      "type": "function"
    }
  ],
  "bytecode": "0x608060405262093a806003553480156200001857600080fd5b5060405162003988380380620039888339810160408190526200003b916200007a565b600080546001600160a81b0319166101006001600160a01b039485160217905560018055600880546001600160a01b03191691909216179055620000d1565b600080604083850312156200008d578182fd5b82516200009a81620000b8565b6020840151909250620000ad81620000b8565b809150509250929050565b6001600160a01b0381168114620000ce57600080fd5b50565b6138a780620000e16000396000f3fe608060405234801561001057600080fd5b50600436106102265760003560e01c80636190c9d51161012a578063ae4f9c74116100bd578063db006a751161008c578063f2f4eb2611610071578063f2f4eb261461044d578063f6be71d114610455578063f8fa9cdb1461046857610226565b8063db006a7514610432578063e5a6b10f1461044557610226565b8063ae4f9c74146103dd578063b6b55f2514610404578063b94db6af14610417578063be3576161461041f57610226565b806380009630116100f957806380009630146103a75780638456cb59146103ba578063a29a43bb146103c2578063a8c62e76146103d557610226565b80636190c9d51461035857806370907ef01461036057806370a082311461038157806372ca56711461039457610226565b80632ebbec1e116101bd5780635c975abb1161018c5780635ebaf1db116101715780635ebaf1db1461031d5780635f5d217d14610332578063606ce3bf1461034557610226565b80635c975abb1461030d5780635cd90e581461031557610226565b80632ebbec1e146102cc57806333a100ca146102df5780633f4ba83a146102f2578063505fb46c146102fa57610226565b806322d5c4e4116101f957806322d5c4e41461027b57806326c259621461028e57806327e79c44146102b15780632e1a7d4d146102b957610226565b806302fb0c5e1461022b57806307da68f5146102495780630fb5a6b4146102535780631959a00214610268575b600080fd5b610233610470565b6040516102409190613091565b60405180910390f35b610251610479565b005b61025b6104da565b6040516102409190613767565b61025b610276366004612e49565b6104e0565b610251610289366004612efb565b6104f2565b6102a161029c366004612eaa565b6105a2565b60405161024094939291906137c0565b61025b6105d9565b6102516102c7366004612eaa565b6105df565b6102516102da366004612f33565b6106d2565b6102516102ed366004612e49565b610847565b610251610954565b610251610308366004612f33565b610ad4565b610233610cec565b61025b610cf6565b610325610d02565b6040516102409190612fab565b610251610340366004612eaa565b610d1e565b610251610353366004612f5e565b610e2a565b61025b611057565b61037361036e366004612e64565b61105d565b60405161024092919061379c565b61037361038f366004612e49565b611081565b61025b6103a2366004612eaa565b6111d1565b6102516103b5366004612e49565b611233565b61025161136d565b6102516103d0366004612e49565b6114eb565b6103256115f8565b6103f06103eb366004612eda565b611614565b6040516102409897969594939291906137fe565b610251610412366004612eaa565b611669565b61025b61172f565b61025161042d366004612eaa565b611736565b610251610440366004612eaa565b61188e565b610325611919565b610325611935565b610251610463366004612eaa565b611956565b61025b611a21565b60065460ff1681565b60065460ff166104a45760405162461bcd60e51b815260040161049b90613200565b60405180910390fd5b600260015414156104c75760405162461bcd60e51b815260040161049b90613730565b60026001556104d4611a27565b60018055565b60035481565b600b6020526000908152604090205481565b600754839081106105155760405162461bcd60e51b815260040161049b906136f9565b60065460ff16156105385760405162461bcd60e51b815260040161049b90613192565b610548610543611b0f565b611b13565b6002600154141561056b5760405162461bcd60e51b815260040161049b90613730565b60026001558261058d5760405162461bcd60e51b815260040161049b90613237565b610598848484611d21565b5050600180555050565b600781815481106105af57fe5b60009182526020909120600490910201805460018201546002830154600390930154919350919084565b60055481565b6105ea610543611b0f565b6002600154141561060d5760405162461bcd60e51b815260040161049b90613730565b60026001558061062f5760405162461bcd60e51b815260040161049b90613237565b336000908152600b60205260409020805482111561065f5760405162461bcd60e51b815260040161049b9061315b565b805461066b9083611f56565b81556008546106919073ffffffffffffffffffffffffffffffffffffffff163384611f83565b7f884edad9ce6fa2440d8a54cc123490eb96d2768479d49ff9c7366125a942436433836040516106c2929190612fcc565b60405180910390a1505060018055565b600754829081106106f55760405162461bcd60e51b815260040161049b906136f9565b60065460ff16156107185760405162461bcd60e51b815260040161049b90613192565b610723610543611b0f565b600260015414156107465760405162461bcd60e51b815260040161049b90613730565b6002600155836107685760405162461bcd60e51b815260040161049b906135f7565b600082116107885760405162461bcd60e51b815260040161049b9061362e565b336000908152600b60205260409020805483906107a59087612024565b10156107c35760405162461bcd60e51b815260040161049b9061315b565b6008546107e89073ffffffffffffffffffffffffffffffffffffffff16333088612050565b80546107f49086612024565b81556040517fe1fffcc4923d04b559f4d29a8bfc6cda04eb5b0d3c460751c2402c5c5cc9109c906108289033908890612fcc565b60405180910390a161083c84846000611d21565b505060018055505050565b6000546040517fe43581b800000000000000000000000000000000000000000000000000000000815261010090910473ffffffffffffffffffffffffffffffffffffffff169063e43581b8906108a1903390600401612fab565b60206040518083038186803b1580156108b957600080fd5b505afa1580156108cd573d6000803e3d6000fd5b505050506040513d601f19601f820116820180604052508101906108f19190612e8e565b61090d5760405162461bcd60e51b815260040161049b906132a5565b600a80547fffffffffffffffffffffffff00000000000000000000000000000000000000001673ffffffffffffffffffffffffffffffffffffffff92909216919091179055565b6000546040517fe43581b800000000000000000000000000000000000000000000000000000000815261010090910473ffffffffffffffffffffffffffffffffffffffff169063e43581b8906109ae903390600401612fab565b60206040518083038186803b1580156109c657600080fd5b505afa1580156109da573d6000803e3d6000fd5b505050506040513d601f19601f820116820180604052508101906109fe9190612e8e565b80610aae57506000546040517f0c68ba2100000000000000000000000000000000000000000000000000000000815261010090910473ffffffffffffffffffffffffffffffffffffffff1690630c68ba2190610a5e903390600401612fab565b60206040518083038186803b158015610a7657600080fd5b505afa158015610a8a573d6000803e3d6000fd5b505050506040513d601f19601f82011682018060405250810190610aae9190612e8e565b610aca5760405162461bcd60e51b815260040161049b90613574565b610ad2612071565b565b6000546040517fe43581b800000000000000000000000000000000000000000000000000000000815261010090910473ffffffffffffffffffffffffffffffffffffffff169063e43581b890610b2e903390600401612fab565b60206040518083038186803b158015610b4657600080fd5b505afa158015610b5a573d6000803e3d6000fd5b505050506040513d601f19601f82011682018060405250810190610b7e9190612e8e565b610b9a5760405162461bcd60e51b815260040161049b906132a5565b60008311610bba5760405162461bcd60e51b815260040161049b90613404565b620186a0821115610bdd5760405162461bcd60e51b815260040161049b90613506565b612710811115610bff5760405162461bcd60e51b815260040161049b906133cd565b60408051608081018252848152600060208201526007918101610c37620186a0610c3187670de0b6b3a76400006120fd565b90612137565b8152602090810184905282546001818101855560009485529382902083516004909202019081559082015192810192909255604080820151600284015560609091015160039092019190915560075490517f955a633dc66049432428ae39d030e5001c5608eb3a6325bfe8e8231a3bc7356f91610cdf917fffffffffffffffffffffffffffffffffffffffffffffffffffffffffffffffff91909101908690869086906137c0565b60405180910390a1505050565b60005460ff165b90565b670de0b6b3a764000081565b60095473ffffffffffffffffffffffffffffffffffffffff1681565b60075481908110610d415760405162461bcd60e51b815260040161049b906136f9565b60065460ff1615610d645760405162461bcd60e51b815260040161049b90613192565b610d6f610543611b0f565b60026001541415610d925760405162461bcd60e51b815260040161049b90613730565b60026001556000610da283612169565b336000908152600b60205260409020805491925090610dc19083611f56565b8155600854610de79073ffffffffffffffffffffffffffffffffffffffff163384611f83565b7f884edad9ce6fa2440d8a54cc123490eb96d2768479d49ff9c7366125a94243643383604051610e18929190612fcc565b60405180910390a15050600180555050565b6000546040517fe43581b800000000000000000000000000000000000000000000000000000000815261010090910473ffffffffffffffffffffffffffffffffffffffff169063e43581b890610e84903390600401612fab565b60206040518083038186803b158015610e9c57600080fd5b505afa158015610eb0573d6000803e3d6000fd5b505050506040513d601f19601f82011682018060405250810190610ed49190612e8e565b610ef05760405162461bcd60e51b815260040161049b906132a5565b60075484908110610f135760405162461bcd60e51b815260040161049b906136f9565b60078581548110610f2057fe5b906000526020600020906004020160010154841015610f515760405162461bcd60e51b815260040161049b90613404565b620186a0831115610f745760405162461bcd60e51b815260040161049b90613506565b612710821115610f965760405162461bcd60e51b815260040161049b906133cd565b8360078681548110610fa457fe5b6000918252602090912060049091020155610fce620186a0610c3185670de0b6b3a76400006120fd565b60078681548110610fdb57fe5b9060005260206000209060040201600201819055508160078681548110610ffe57fe5b9060005260206000209060040201600301819055507f7304cbcbe24a231d4a97516e7a4b3fc85c6d88dae51fc6134c035870ef66bb948585858560405161104894939291906137c0565b60405180910390a15050505050565b60045481565b600c6020908152600092835260408084209091529082529020805460019091015482565b73ffffffffffffffffffffffffffffffffffffffff81166000908152600b6020526040812080549190815b6007548110156111ca5773ffffffffffffffffffffffffffffffffffffffff85166000908152600c6020908152604080832084845290915290206001810154156111c157600454815410156111ae57611103612db8565b5080546000908152600d602090815260408083208584528252808320815161010081018352815481526001808301549482019490945260028201549281019290925260038101546060830181905260048201546080840152600582015460a0840152600682015460c084015260079091015460e08301529184015490929161119991670de0b6b3a764000091610c3191906120fd565b90506111a58782612024565b965050506111c1565b60018101546111be908590612024565b93505b506001016110ac565b5050915091565b600754600090829081106111f75760405162461bcd60e51b815260040161049b906136f9565b336000908152600c6020908152604080832086845290915290206004548154101561122657600092505061122d565b6001015491505b50919050565b6000546040517fe43581b800000000000000000000000000000000000000000000000000000000815261010090910473ffffffffffffffffffffffffffffffffffffffff169063e43581b89061128d903390600401612fab565b60206040518083038186803b1580156112a557600080fd5b505afa1580156112b9573d6000803e3d6000fd5b505050506040513d601f19601f820116820180604052508101906112dd9190612e8e565b6112f95760405162461bcd60e51b815260040161049b906132a5565b600080547fffffffffffffffffffffff0000000000000000000000000000000000000000ff1661010073ffffffffffffffffffffffffffffffffffffffff841690810291909117825560405190917fad9400e618eb1344fde53db22397a1b82c765527ecbba3a5c86bcac15090828b91a250565b6000546040517fe43581b800000000000000000000000000000000000000000000000000000000815261010090910473ffffffffffffffffffffffffffffffffffffffff169063e43581b8906113c7903390600401612fab565b60206040518083038186803b1580156113df57600080fd5b505afa1580156113f3573d6000803e3d6000fd5b505050506040513d601f19601f820116820180604052508101906114179190612e8e565b806114c757506000546040517f0c68ba2100000000000000000000000000000000000000000000000000000000815261010090910473ffffffffffffffffffffffffffffffffffffffff1690630c68ba2190611477903390600401612fab565b60206040518083038186803b15801561148f57600080fd5b505afa1580156114a3573d6000803e3d6000fd5b505050506040513d601f19601f820116820180604052508101906114c79190612e8e565b6114e35760405162461bcd60e51b815260040161049b90613574565b610ad26122cb565b6000546040517fe43581b800000000000000000000000000000000000000000000000000000000815261010090910473ffffffffffffffffffffffffffffffffffffffff169063e43581b890611545903390600401612fab565b60206040518083038186803b15801561155d57600080fd5b505afa158015611571573d6000803e3d6000fd5b505050506040513d601f19601f820116820180604052508101906115959190612e8e565b6115b15760405162461bcd60e51b815260040161049b906132a5565b600980547fffffffffffffffffffffffff00000000000000000000000000000000000000001673ffffffffffffffffffffffffffffffffffffffff92909216919091179055565b600a5473ffffffffffffffffffffffffffffffffffffffff1681565b600d602052816000526040600020602052806000526040600020600091509150508060000154908060010154908060020154908060030154908060040154908060050154908060060154908060070154905088565b611674610543611b0f565b600260015414156116975760405162461bcd60e51b815260040161049b90613730565b6002600155806116b95760405162461bcd60e51b815260040161049b90613237565b336000818152600b6020526040902060085490916116ef9173ffffffffffffffffffffffffffffffffffffffff16903085612050565b80546116fb9083612024565b81556040517fe1fffcc4923d04b559f4d29a8bfc6cda04eb5b0d3c460751c2402c5c5cc9109c906106c29033908590612fcc565b620186a081565b6000546040517fe43581b800000000000000000000000000000000000000000000000000000000815261010090910473ffffffffffffffffffffffffffffffffffffffff169063e43581b890611790903390600401612fab565b60206040518083038186803b1580156117a857600080fd5b505afa1580156117bc573d6000803e3d6000fd5b505050506040513d601f19601f820116820180604052508101906117e09190612e8e565b6117fc5760405162461bcd60e51b815260040161049b906132a5565b60025481111561181e5760405162461bcd60e51b815260040161049b9061326e565b60025461182b9082611f56565b6002556008546118529073ffffffffffffffffffffffffffffffffffffffff163383611f83565b7f66bf9186b00db666fc37aaffbb95a050c66e599e000c785c1dff0467d868f1b13382604051611883929190612fcc565b60405180910390a150565b600754819081106118b15760405162461bcd60e51b815260040161049b906136f9565b60065460ff16156118d45760405162461bcd60e51b815260040161049b90613192565b6118df610543611b0f565b600260015414156119025760405162461bcd60e51b815260040161049b90613730565b600260015561191082612169565b50506001805550565b60085473ffffffffffffffffffffffffffffffffffffffff1681565b600054610100900473ffffffffffffffffffffffffffffffffffffffff1690565b6000546040517fe43581b800000000000000000000000000000000000000000000000000000000815261010090910473ffffffffffffffffffffffffffffffffffffffff169063e43581b8906119b0903390600401612fab565b60206040518083038186803b1580156119c857600080fd5b505afa1580156119dc573d6000803e3d6000fd5b505050506040513d601f19601f82011682018060405250810190611a009190612e8e565b611a1c5760405162461bcd60e51b815260040161049b906132a5565b600355565b60025481565b60035460055401421015611a4d5760405162461bcd60e51b815260040161049b906130ed565b611a55612344565b600680547fffffffffffffffffffffffffffffffffffffffffffffffffffffffffffffff00169055600480546001018082556009546040517fedd004e500000000000000000000000000000000000000000000000000000000815273ffffffffffffffffffffffffffffffffffffffff9091169263edd004e592611adb92909101613767565b600060405180830381600087803b158015611af557600080fd5b505af1158015611b09573d6000803e3d6000fd5b50505050565b3390565b73ffffffffffffffffffffffffffffffffffffffff81166000908152600b60205260408120905b600754811015611d1c5773ffffffffffffffffffffffffffffffffffffffff83166000908152600c60209081526040808320848452909152902060045481541015611d135760018101548015611d0c57611b92612db8565b5081546000908152600d6020908152604080832086845282528083208151610100810183528154815260018201549381019390935260028101549183019190915260038101546060830181905260048201546080840152600582015460a0840152600682015460c084015260079091015460e0830152909190611c2490670de0b6b3a764000090610c319086906120fd565b8654909150611c339082612024565b86556000600185018190556009546040517f15c2fdc900000000000000000000000000000000000000000000000000000000815273ffffffffffffffffffffffffffffffffffffffff909116916315c2fdc991611c979189918c9190600401613770565b600060405180830381600087803b158015611cb157600080fd5b505af1158015611cc5573d6000803e3d6000fd5b505085546040517f7baefe19499ec89bdfeffd0fc7335c9d0ea87f8ca40bb82c956184634ba170fd9350611d0192508a91899188908790613056565b60405180910390a150505b5060045481555b50600101611b3a565b505050565b336000908152600b602052604090208054831115611d515760405162461bcd60e51b815260040161049b9061315b565b600060078581548110611d6057fe5b90600052602060002090600402019050611d8784826001015461202490919063ffffffff16565b81541015611da75760405162461bcd60e51b815260040161049b9061353d565b336000908152600c6020908152604080832088845290915290206001810154611dd09086612024565b60018201558254611de19086611f56565b83556001820154611df29086612024565b600180840191909155600954908201546040517f15c2fdc900000000000000000000000000000000000000000000000000000000815273ffffffffffffffffffffffffffffffffffffffff909216916315c2fdc991611e57918a913391600401613770565b600060405180830381600087803b158015611e7157600080fd5b505af1158015611e85573d6000803e3d6000fd5b505050507f4df9cbfa66cbbabb528375b3af00207b446225af5a96b8a4b5c413b18226fb95338760045488604051611ec09493929190612ff2565b60405180910390a1838015611ed55750825415155b15611f45578254600854611f059173ffffffffffffffffffffffffffffffffffffffff9091169030903390612050565b82546040517f884edad9ce6fa2440d8a54cc123490eb96d2768479d49ff9c7366125a942436491611f3891339190612fcc565b60405180910390a1600083555b611f4d6127dd565b50505050505050565b600082821115611f785760405162461bcd60e51b815260040161049b90613302565b508082035b92915050565b611d1c8363a9059cbb60e01b8484604051602401611fa2929190612fcc565b604080517fffffffffffffffffffffffffffffffffffffffffffffffffffffffffffffffe08184030181529190526020810180517bffffffffffffffffffffffffffffffffffffffffffffffffffffffff167fffffffff0000000000000000000000000000000000000000000000000000000090931692909217909152612876565b6000828201838110156120495760405162461bcd60e51b815260040161049b906131c9565b9392505050565b611b09846323b872dd60e01b858585604051602401611fa293929190613025565b612079610cec565b6120955760405162461bcd60e51b815260040161049b90613124565b600080547fffffffffffffffffffffffffffffffffffffffffffffffffffffffffffffff001690557f5db9ee0a495bf2e6ff9c91a7834c1ba4fdd244a5e8aa4e537bd38aeae4b073aa6120e6611b0f565b6040516120f39190612fab565b60405180910390a1565b60008261210c57506000611f7d565b8282028284828161211957fe5b04146120495760405162461bcd60e51b815260040161049b906134a9565b60008082116121585760405162461bcd60e51b815260040161049b90613396565b81838161216157fe5b049392505050565b336000908152600b60209081526040808320600c835281842085855290925282206001810154806121ac5760405162461bcd60e51b815260040161049b90613472565b6000600786815481106121bb57fe5b60009182526020909120855460049092020191506121d99083612024565b845560018101546121ea9083611f56565b60018201556009546040517f15c2fdc900000000000000000000000000000000000000000000000000000000815273ffffffffffffffffffffffffffffffffffffffff909116906315c2fdc99061224a9089903390600090600401613770565b600060405180830381600087803b15801561226457600080fd5b505af1158015612278573d6000803e3d6000fd5b50506000600186015550506004546040517fbd5034ffbd47e4e72a94baa2cdb74c6fad73cb3bcdc13036b72ec8306f5a7646916122ba9133918a918790612ff2565b60405180910390a150949350505050565b6122d3610cec565b156122f05760405162461bcd60e51b815260040161049b9061343b565b600080547fffffffffffffffffffffffffffffffffffffffffffffffffffffffffffffff001660011790557f62e78cea01bee320cd4e420270b5ea74000d11b0c9f74754ebdbfc544b05a2586120e6611b0f565b600a54604080517fbe040fb0000000000000000000000000000000000000000000000000000000008152905160009273ffffffffffffffffffffffffffffffffffffffff169163be040fb091600480830192602092919082900301818787803b1580156123b057600080fd5b505af11580156123c4573d6000803e3d6000fd5b505050506040513d601f19601f820116820180604052508101906123e89190612ec2565b905080600080808042815b6007547fffffffffffffffffffffffffffffffffffffffffffffffffffffffffffffffff0181101561262a5760006007828154811061242e57fe5b90600052602060002090600402019050806001015493506000945061248b670de0b6b3a7640000610c3162015180610c3161016d610c316005548a0361248589600201548a600101546120fd90919063ffffffff16565b906120fd565b965060006124998589612024565b905080891015806124ae5760009996506124c0565b90955085906124bd8a83611f56565b99505b80156125075760006124e6620186a0610c3186600301548b6120fd90919063ffffffff16565b6002549091506124f69082612024565b6002556125038882611f56565b9750505b6125118787612912565b9750604051806101000160405280846000015481526020018781526020018881526020018981526020018460020154815260200184600301548152602001600554815260200186815250600d600060045481526020019081526020016000206000868152602001908152602001600020600082015181600001556020820151816001015560408201518160020155606082015181600301556080820151816004015560a0820151816005015560c0820151816006015560e08201518160070155905050600083600101819055507f465c3a6938113f4f2bbb78cd69c8a81b4553da4fcd68e420b3c9cd8e5b58cb4784600454888a8c6040516126179594939291906137db565b60405180910390a15050506001016123f3565b50600780547fffffffffffffffffffffffffffffffffffffffffffffffffffffffffffffffff8101916000918390811061266057fe5b9060005260206000209060040201905080600101549350879450600061269a620186a0610c318460030154896120fd90919063ffffffff16565b6002549091506126aa9082612024565b6002556126b78682611f56565b95506126c38686612912565b9650604051806101000160405280836000015481526020018681526020018781526020018881526020018360020154815260200183600301548152602001600554815260200142815250600d600060045481526020019081526020016000206000858152602001908152602001600020600082015181600001556020820151816001015560408201518160020155606082015181600301556080820151816004015560a0820151816005015560c0820151816006015560e08201518160070155905050600082600101819055507f465c3a6938113f4f2bbb78cd69c8a81b4553da4fcd68e420b3c9cd8e5b58cb478360045487898b6040516127c99594939291906137db565b60405180910390a150505050505050505050565b6000805b600754811015612867576127f3612dfd565b6007828154811061280057fe5b9060005260206000209060040201604051806080016040529081600082015481526020016001820154815260200160028201548152602001600382015481525050905080600001518160200151101561285e57600092505050610cf3565b506001016127e1565b5061287061298e565b50600190565b60606128d8826040518060400160405280602081526020017f5361666545524332303a206c6f772d6c6576656c2063616c6c206661696c65648152508573ffffffffffffffffffffffffffffffffffffffff16612c949092919063ffffffff16565b805190915015611d1c57808060200190518101906128f69190612e8e565b611d1c5760405162461bcd60e51b815260040161049b9061369c565b60008183141561292b5750670de0b6b3a7640000611f7d565b818311156129645761295d61294e83610c31818703670de0b6b3a76400006120fd565b670de0b6b3a764000090612024565b9050611f7d565b61295d61297f83610c31868203670de0b6b3a76400006120fd565b670de0b6b3a764000090611f56565b60065460ff16156129b15760405162461bcd60e51b815260040161049b90613192565b6000805b600754811015612a39576129c7612dfd565b600782815481106129d457fe5b90600052602060002090600402016040518060800160405290816000820154815260200160018201548152602001600282015481526020016003820154815250509050612a2e81602001518461202490919063ffffffff16565b9250506001016129b5565b50600854600a546040517f095ea7b300000000000000000000000000000000000000000000000000000000815273ffffffffffffffffffffffffffffffffffffffff9283169263095ea7b392612a96929116908590600401612fcc565b602060405180830381600087803b158015612ab057600080fd5b505af1158015612ac4573d6000803e3d6000fd5b505050506040513d601f19601f82011682018060405250810190612ae89190612e8e565b50600a546040517f538a85a100000000000000000000000000000000000000000000000000000000815273ffffffffffffffffffffffffffffffffffffffff9091169063538a85a190612b3f908490600401613767565b600060405180830381600087803b158015612b5957600080fd5b505af1158015612b6d573d6000803e3d6000fd5b5050426005555050600680547fffffffffffffffffffffffffffffffffffffffffffffffffffffffffffffff0016600117905560005b600754811015612c10577fe97925046c59e2f2794eb00954f027c43cea916eaa06f9f194cc45e212c028cd8160045460078481548110612bdf57fe5b906000526020600020906004020160010154604051612c00939291906137aa565b60405180910390a1600101612ba3565b5060095460035460055473ffffffffffffffffffffffffffffffffffffffff909216916395805dad91612c439190612024565b6040518263ffffffff1660e01b8152600401612c5f9190613767565b600060405180830381600087803b158015612c7957600080fd5b505af1158015612c8d573d6000803e3d6000fd5b5050505050565b6060612ca38484600085612cab565b949350505050565b606082471015612ccd5760405162461bcd60e51b815260040161049b90613339565b612cd685612d79565b612cf25760405162461bcd60e51b815260040161049b90613665565b600060608673ffffffffffffffffffffffffffffffffffffffff168587604051612d1c9190612f8f565b60006040518083038185875af1925050503d8060008114612d59576040519150601f19603f3d011682016040523d82523d6000602084013e612d5e565b606091505b5091509150612d6e828286612d7f565b979650505050505050565b3b151590565b60608315612d8e575081612049565b825115612d9e5782518084602001fd5b8160405162461bcd60e51b815260040161049b919061309c565b60405180610100016040528060008152602001600081526020016000815260200160008152602001600081526020016000815260200160008152602001600081525090565b6040518060800160405280600081526020016000815260200160008152602001600081525090565b803573ffffffffffffffffffffffffffffffffffffffff81168114611f7d57600080fd5b600060208284031215612e5a578081fd5b6120498383612e25565b60008060408385031215612e76578081fd5b612e808484612e25565b946020939093013593505050565b600060208284031215612e9f578081fd5b815161204981613860565b600060208284031215612ebb578081fd5b5035919050565b600060208284031215612ed3578081fd5b5051919050565b60008060408385031215612eec578182fd5b50508035926020909101359150565b600080600060608486031215612f0f578081fd5b83359250602084013591506040840135612f2881613860565b809150509250925092565b600080600060608486031215612f47578283fd5b505081359360208301359350604090920135919050565b60008060008060808587031215612f73578081fd5b5050823594602084013594506040840135936060013592509050565b60008251612fa1818460208701613834565b9190910192915050565b73ffffffffffffffffffffffffffffffffffffffff91909116815260200190565b73ffffffffffffffffffffffffffffffffffffffff929092168252602082015260400190565b73ffffffffffffffffffffffffffffffffffffffff94909416845260208401929092526040830152606082015260800190565b73ffffffffffffffffffffffffffffffffffffffff9384168152919092166020820152604081019190915260600190565b73ffffffffffffffffffffffffffffffffffffffff959095168552602085019390935260408401919091526060830152608082015260a00190565b901515815260200190565b60006020825282518060208401526130bb816040850160208701613834565b601f017fffffffffffffffffffffffffffffffffffffffffffffffffffffffffffffffe0169190910160400192915050565b60208082526011908201527f6379636c65206e6f742065787069726564000000000000000000000000000000604082015260600190565b60208082526014908201527f5061757361626c653a206e6f7420706175736564000000000000000000000000604082015260600190565b60208082526012908201527f62616c616e6365206e6f7420656e6f7567680000000000000000000000000000604082015260600190565b6020808252600e908201527f616c726561647920616374697665000000000000000000000000000000000000604082015260600190565b6020808252601b908201527f536166654d6174683a206164646974696f6e206f766572666c6f770000000000604082015260600190565b6020808252600a908201527f6e6f742061637469766500000000000000000000000000000000000000000000604082015260600190565b6020808252600e908201527f696e76616c696420616d6f756e74000000000000000000000000000000000000604082015260600190565b6020808252601a908201527f6e6f7420656e6f7567682062616c616e636520666f7220666565000000000000604082015260600190565b6020808252602f908201527f436f72655265663a3a6f6e6c79476f7665726e6f723a2043616c6c657220697360408201527f206e6f74206120676f7665726e6f720000000000000000000000000000000000606082015260800190565b6020808252601e908201527f536166654d6174683a207375627472616374696f6e206f766572666c6f770000604082015260600190565b60208082526026908201527f416464726573733a20696e73756666696369656e742062616c616e636520666f60408201527f722063616c6c0000000000000000000000000000000000000000000000000000606082015260800190565b6020808252601a908201527f536166654d6174683a206469766973696f6e206279207a65726f000000000000604082015260600190565b6020808252600b908201527f696e76616c696420666565000000000000000000000000000000000000000000604082015260600190565b6020808252600e908201527f696e76616c696420746172676574000000000000000000000000000000000000604082015260600190565b60208082526010908201527f5061757361626c653a2070617573656400000000000000000000000000000000604082015260600190565b60208082526014908201527f6e6f7420656e6f756768207072696e636970616c000000000000000000000000604082015260600190565b60208082526021908201527f536166654d6174683a206d756c7469706c69636174696f6e206f766572666c6f60408201527f7700000000000000000000000000000000000000000000000000000000000000606082015260800190565b6020808252600b908201527f696e76616c696420415059000000000000000000000000000000000000000000604082015260600190565b60208082526010908201527f6e6f7420656e6f7567682071756f746100000000000000000000000000000000604082015260600190565b60208082526045908201527f436f72655265663a3a6f6e6c79477561726469616e4f72476f7665726e6f723a60408201527f2043616c6c6572206973206e6f74206120677561726469616e206f7220676f7660608201527f65726e6f72000000000000000000000000000000000000000000000000000000608082015260a00190565b60208082526010908201527f696e76616c696420616d6f756e74496e00000000000000000000000000000000604082015260600190565b60208082526014908201527f696e76616c696420616d6f756e74496e76657374000000000000000000000000604082015260600190565b6020808252601d908201527f416464726573733a2063616c6c20746f206e6f6e2d636f6e7472616374000000604082015260600190565b6020808252602a908201527f5361666545524332303a204552433230206f7065726174696f6e20646964206e60408201527f6f74207375636365656400000000000000000000000000000000000000000000606082015260800190565b60208082526012908201527f696e76616c6964207472616e6368652069640000000000000000000000000000604082015260600190565b6020808252601f908201527f5265656e7472616e637947756172643a207265656e7472616e742063616c6c00604082015260600190565b90815260200190565b92835273ffffffffffffffffffffffffffffffffffffffff919091166020830152604082015260600190565b918252602082015260400190565b9283526020830191909152604082015260600190565b93845260208401929092526040830152606082015260800190565b948552602085019390935260408401919091526060830152608082015260a00190565b978852602088019690965260408701949094526060860192909252608085015260a084015260c083015260e08201526101000190565b60005b8381101561384f578181015183820152602001613837565b83811115611b095750506000910152565b801515811461386e57600080fd5b5056fea2646970667358221220faaa8b9b0713b477e17d508fafd05cf44caa679d2903c842a56032492d586c8964736f6c634300060c0033",
  "linkReferences": {},
  "deployedLinkReferences": {}
}