{
  "_format": "hh-sol-artifact-1",
  "contractName": "TrancheMaster",
  "sourceName": "contracts/main/TrancheMaster.sol",
  "abi": [
    {
      "inputs": [
        {
          "internalType": "address",
          "name": "_core",
          "type": "address"
        },
        {
          "internalType": "address",
          "name": "_currency",
          "type": "address"
        }
      ],
      "stateMutability": "nonpayable",
      "type": "constructor"
    },
    {
      "anonymous": false,
      "inputs": [
        {
          "indexed": true,
          "internalType": "address",
          "name": "_core",
          "type": "address"
        }
      ],
      "name": "CoreUpdate",
      "type": "event"
    },
    {
      "anonymous": false,
      "inputs": [
        {
          "indexed": false,
          "internalType": "address",
          "name": "account",
          "type": "address"
        },
        {
          "indexed": false,
          "internalType": "uint256",
          "name": "amount",
          "type": "uint256"
        }
      ],
      "name": "Deposit",
      "type": "event"
    },
    {
      "anonymous": false,
      "inputs": [
        {
          "indexed": false,
          "internalType": "address",
          "name": "account",
          "type": "address"
        },
        {
          "indexed": false,
          "internalType": "uint256",
          "name": "tid",
          "type": "uint256"
        },
        {
          "indexed": false,
          "internalType": "uint256",
          "name": "cycle",
          "type": "uint256"
        },
        {
          "indexed": false,
          "internalType": "uint256",
          "name": "amount",
          "type": "uint256"
        }
      ],
      "name": "Invest",
      "type": "event"
    },
    {
      "anonymous": false,
      "inputs": [
        {
          "indexed": false,
          "internalType": "address",
          "name": "account",
          "type": "address"
        }
      ],
      "name": "Paused",
      "type": "event"
    },
    {
      "anonymous": false,
      "inputs": [
        {
          "indexed": false,
          "internalType": "address",
          "name": "account",
          "type": "address"
        },
        {
          "indexed": false,
          "internalType": "uint256",
          "name": "tid",
          "type": "uint256"
        },
        {
          "indexed": false,
          "internalType": "uint256",
          "name": "cycle",
          "type": "uint256"
        },
        {
          "indexed": false,
          "internalType": "uint256",
          "name": "amount",
          "type": "uint256"
        }
      ],
      "name": "Redeem",
      "type": "event"
    },
    {
      "anonymous": false,
      "inputs": [
        {
          "indexed": false,
          "internalType": "uint256",
          "name": "tid",
          "type": "uint256"
        },
        {
          "indexed": false,
          "internalType": "uint256",
          "name": "target",
          "type": "uint256"
        },
        {
          "indexed": false,
          "internalType": "uint256",
          "name": "apy",
          "type": "uint256"
        },
        {
          "indexed": false,
          "internalType": "uint256",
          "name": "fee",
          "type": "uint256"
        }
      ],
      "name": "TrancheAdd",
      "type": "event"
    },
    {
      "anonymous": false,
      "inputs": [
        {
          "indexed": false,
          "internalType": "uint256",
          "name": "tid",
          "type": "uint256"
        },
        {
          "indexed": false,
          "internalType": "uint256",
          "name": "cycle",
          "type": "uint256"
        },
        {
          "indexed": false,
          "internalType": "uint256",
          "name": "principal",
          "type": "uint256"
        },
        {
          "indexed": false,
          "internalType": "uint256",
          "name": "capital",
          "type": "uint256"
        },
        {
          "indexed": false,
          "internalType": "uint256",
          "name": "rate",
          "type": "uint256"
        }
      ],
      "name": "TrancheSettle",
      "type": "event"
    },
    {
      "anonymous": false,
      "inputs": [
        {
          "indexed": false,
          "internalType": "uint256",
          "name": "tid",
          "type": "uint256"
        },
        {
          "indexed": false,
          "internalType": "uint256",
          "name": "cycle",
          "type": "uint256"
        },
        {
          "indexed": false,
          "internalType": "uint256",
          "name": "principal",
          "type": "uint256"
        }
      ],
      "name": "TrancheStart",
      "type": "event"
    },
    {
      "anonymous": false,
      "inputs": [
        {
          "indexed": false,
          "internalType": "uint256",
          "name": "tid",
          "type": "uint256"
        },
        {
          "indexed": false,
          "internalType": "uint256",
          "name": "target",
          "type": "uint256"
        },
        {
          "indexed": false,
          "internalType": "uint256",
          "name": "apy",
          "type": "uint256"
        },
        {
          "indexed": false,
          "internalType": "uint256",
          "name": "fee",
          "type": "uint256"
        }
      ],
      "name": "TrancheUpdated",
      "type": "event"
    },
    {
      "anonymous": false,
      "inputs": [
        {
          "indexed": false,
          "internalType": "address",
          "name": "account",
          "type": "address"
        }
      ],
      "name": "Unpaused",
      "type": "event"
    },
    {
      "anonymous": false,
      "inputs": [
        {
          "indexed": false,
          "internalType": "address",
          "name": "account",
          "type": "address"
        },
        {
          "indexed": false,
          "internalType": "uint256",
          "name": "amount",
          "type": "uint256"
        }
      ],
      "name": "Withdraw",
      "type": "event"
    },
    {
      "anonymous": false,
      "inputs": [
        {
          "indexed": false,
          "internalType": "address",
          "name": "account",
          "type": "address"
        },
        {
          "indexed": false,
          "internalType": "uint256",
          "name": "amount",
          "type": "uint256"
        }
      ],
      "name": "WithdrawFee",
      "type": "event"
    },
    {
      "inputs": [],
      "name": "PercentageParamScale",
      "outputs": [
        {
          "internalType": "uint256",
          "name": "",
          "type": "uint256"
        }
      ],
      "stateMutability": "view",
      "type": "function"
    },
    {
      "inputs": [],
      "name": "PercentageScale",
      "outputs": [
        {
          "internalType": "uint256",
          "name": "",
          "type": "uint256"
        }
      ],
      "stateMutability": "view",
      "type": "function"
    },
    {
      "inputs": [],
      "name": "active",
      "outputs": [
        {
          "internalType": "bool",
          "name": "",
          "type": "bool"
        }
      ],
      "stateMutability": "view",
      "type": "function"
    },
    {
      "inputs": [],
      "name": "actualStartAt",
      "outputs": [
        {
          "internalType": "uint256",
          "name": "",
          "type": "uint256"
        }
      ],
      "stateMutability": "view",
      "type": "function"
    },
    {
      "inputs": [
        {
          "internalType": "uint256",
          "name": "target",
          "type": "uint256"
        },
        {
          "internalType": "uint256",
          "name": "apy",
          "type": "uint256"
        },
        {
          "internalType": "uint256",
          "name": "fee",
          "type": "uint256"
        }
      ],
      "name": "add",
      "outputs": [],
      "stateMutability": "nonpayable",
      "type": "function"
    },
    {
      "inputs": [
        {
          "internalType": "address",
          "name": "account",
          "type": "address"
        }
      ],
      "name": "balanceOf",
      "outputs": [
        {
          "internalType": "uint256",
          "name": "balance",
          "type": "uint256"
        },
        {
          "internalType": "uint256",
          "name": "invested",
          "type": "uint256"
        }
      ],
      "stateMutability": "view",
      "type": "function"
    },
    {
      "inputs": [],
      "name": "core",
      "outputs": [
        {
          "internalType": "contract ICore",
          "name": "",
          "type": "address"
        }
      ],
      "stateMutability": "view",
      "type": "function"
    },
    {
      "inputs": [],
      "name": "currency",
      "outputs": [
        {
          "internalType": "address",
          "name": "",
          "type": "address"
        }
      ],
      "stateMutability": "view",
      "type": "function"
    },
    {
      "inputs": [],
      "name": "cycle",
      "outputs": [
        {
          "internalType": "uint256",
          "name": "",
          "type": "uint256"
        }
      ],
      "stateMutability": "view",
      "type": "function"
    },
    {
      "inputs": [
        {
          "internalType": "uint256",
          "name": "amount",
          "type": "uint256"
        }
      ],
      "name": "deposit",
      "outputs": [],
      "stateMutability": "nonpayable",
      "type": "function"
    },
    {
      "inputs": [],
      "name": "duration",
      "outputs": [
        {
          "internalType": "uint256",
          "name": "",
          "type": "uint256"
        }
      ],
      "stateMutability": "view",
      "type": "function"
    },
    {
      "inputs": [
        {
          "internalType": "uint256",
          "name": "tid",
          "type": "uint256"
        }
      ],
      "name": "getInvest",
      "outputs": [
        {
          "internalType": "uint256",
          "name": "",
          "type": "uint256"
        }
      ],
      "stateMutability": "view",
      "type": "function"
    },
    {
      "inputs": [
        {
          "internalType": "uint256",
          "name": "tid",
          "type": "uint256"
        },
        {
          "internalType": "uint256",
          "name": "amount",
          "type": "uint256"
        },
        {
          "internalType": "bool",
          "name": "returnLeft",
          "type": "bool"
        }
      ],
      "name": "invest",
      "outputs": [],
      "stateMutability": "nonpayable",
      "type": "function"
    },
    {
      "inputs": [
        {
          "internalType": "uint256",
          "name": "amountIn",
          "type": "uint256"
        },
        {
          "internalType": "uint256",
          "name": "tid",
          "type": "uint256"
        },
        {
          "internalType": "uint256",
          "name": "amountInvest",
          "type": "uint256"
        }
      ],
      "name": "investDirect",
      "outputs": [],
      "stateMutability": "nonpayable",
      "type": "function"
    },
    {
      "inputs": [],
      "name": "pause",
      "outputs": [],
      "stateMutability": "nonpayable",
      "type": "function"
    },
    {
      "inputs": [],
      "name": "paused",
      "outputs": [
        {
          "internalType": "bool",
          "name": "",
          "type": "bool"
        }
      ],
      "stateMutability": "view",
      "type": "function"
    },
    {
      "inputs": [],
      "name": "producedFee",
      "outputs": [
        {
          "internalType": "uint256",
          "name": "",
          "type": "uint256"
        }
      ],
      "stateMutability": "view",
      "type": "function"
    },
    {
      "inputs": [
        {
          "internalType": "uint256",
          "name": "tid",
          "type": "uint256"
        }
      ],
      "name": "redeem",
      "outputs": [],
      "stateMutability": "nonpayable",
      "type": "function"
    },
    {
      "inputs": [
        {
          "internalType": "uint256",
          "name": "tid",
          "type": "uint256"
        },
        {
          "internalType": "uint256",
          "name": "target",
          "type": "uint256"
        },
        {
          "internalType": "uint256",
          "name": "apy",
          "type": "uint256"
        },
        {
          "internalType": "uint256",
          "name": "fee",
          "type": "uint256"
        }
      ],
      "name": "set",
      "outputs": [],
      "stateMutability": "nonpayable",
      "type": "function"
    },
    {
      "inputs": [
        {
          "internalType": "address",
          "name": "core_",
          "type": "address"
        }
      ],
      "name": "setCore",
      "outputs": [],
      "stateMutability": "nonpayable",
      "type": "function"
    },
    {
      "inputs": [
        {
          "internalType": "uint256",
          "name": "_duration",
          "type": "uint256"
        }
      ],
      "name": "setDuration",
      "outputs": [],
      "stateMutability": "nonpayable",
      "type": "function"
    },
    {
      "inputs": [
        {
          "internalType": "address",
          "name": "_staker",
          "type": "address"
        }
      ],
      "name": "setStaker",
      "outputs": [],
      "stateMutability": "nonpayable",
      "type": "function"
    },
    {
      "inputs": [
        {
          "internalType": "address",
          "name": "_strategy",
          "type": "address"
        }
      ],
      "name": "setStrategy",
      "outputs": [],
      "stateMutability": "nonpayable",
      "type": "function"
    },
    {
      "inputs": [],
      "name": "staker",
      "outputs": [
        {
          "internalType": "address",
          "name": "",
          "type": "address"
        }
      ],
      "stateMutability": "view",
      "type": "function"
    },
    {
      "inputs": [],
      "name": "stop",
      "outputs": [],
      "stateMutability": "nonpayable",
      "type": "function"
    },
    {
      "inputs": [],
      "name": "strategy",
      "outputs": [
        {
          "internalType": "address",
          "name": "",
          "type": "address"
        }
      ],
      "stateMutability": "view",
      "type": "function"
    },
    {
      "inputs": [
        {
          "internalType": "uint256",
          "name": "",
          "type": "uint256"
        },
        {
          "internalType": "uint256",
          "name": "",
          "type": "uint256"
        }
      ],
      "name": "trancheSnapshots",
      "outputs": [
        {
          "internalType": "uint256",
          "name": "target",
          "type": "uint256"
        },
        {
          "internalType": "uint256",
          "name": "principal",
          "type": "uint256"
        },
        {
          "internalType": "uint256",
          "name": "capital",
          "type": "uint256"
        },
        {
          "internalType": "uint256",
          "name": "rate",
          "type": "uint256"
        },
        {
          "internalType": "uint256",
          "name": "apy",
          "type": "uint256"
        },
        {
          "internalType": "uint256",
          "name": "fee",
          "type": "uint256"
        },
        {
          "internalType": "uint256",
          "name": "startAt",
          "type": "uint256"
        },
        {
          "internalType": "uint256",
          "name": "stopAt",
          "type": "uint256"
        }
      ],
      "stateMutability": "view",
      "type": "function"
    },
    {
      "inputs": [
        {
          "internalType": "uint256",
          "name": "",
          "type": "uint256"
        }
      ],
      "name": "tranches",
      "outputs": [
        {
          "internalType": "uint256",
          "name": "target",
          "type": "uint256"
        },
        {
          "internalType": "uint256",
          "name": "principal",
          "type": "uint256"
        },
        {
          "internalType": "uint256",
          "name": "apy",
          "type": "uint256"
        },
        {
          "internalType": "uint256",
          "name": "fee",
          "type": "uint256"
        }
      ],
      "stateMutability": "view",
      "type": "function"
    },
    {
      "inputs": [],
      "name": "unpause",
      "outputs": [],
      "stateMutability": "nonpayable",
      "type": "function"
    },
    {
      "inputs": [
        {
          "internalType": "address",
          "name": "",
          "type": "address"
        }
      ],
      "name": "userInfo",
      "outputs": [
        {
          "internalType": "uint256",
          "name": "balance",
          "type": "uint256"
        }
      ],
      "stateMutability": "view",
      "type": "function"
    },
    {
      "inputs": [
        {
          "internalType": "address",
          "name": "",
          "type": "address"
        },
        {
          "internalType": "uint256",
          "name": "",
          "type": "uint256"
        }
      ],
      "name": "userInvest",
      "outputs": [
        {
          "internalType": "uint256",
          "name": "cycle",
          "type": "uint256"
        },
        {
          "internalType": "uint256",
          "name": "principal",
          "type": "uint256"
        }
      ],
      "stateMutability": "view",
      "type": "function"
    },
    {
      "inputs": [
        {
          "internalType": "uint256",
          "name": "amount",
          "type": "uint256"
        }
      ],
      "name": "withdraw",
      "outputs": [],
      "stateMutability": "nonpayable",
      "type": "function"
    },
    {
      "inputs": [
        {
          "internalType": "uint256",
          "name": "amount",
          "type": "uint256"
        }
      ],
      "name": "withdrawFee",
      "outputs": [],
      "stateMutability": "nonpayable",
      "type": "function"
    }
  ],
  "bytecode": "0x608060405262093a806003553480156200001857600080fd5b50604051620036cb380380620036cb8339810160408190526200003b916200007a565b600080546001600160a81b0319166101006001600160a01b039485160217905560018055600880546001600160a01b03191691909216179055620000d1565b600080604083850312156200008d578182fd5b82516200009a81620000b8565b6020840151909250620000ad81620000b8565b809150509250929050565b6001600160a01b0381168114620000ce57600080fd5b50565b6135ea80620000e16000396000f3fe608060405234801561001057600080fd5b506004361061020b5760003560e01c80636190c9d51161012a578063ae4f9c74116100bd578063db006a751161008c578063f2f4eb2611610071578063f2f4eb261461041f578063f6be71d114610427578063f8fa9cdb1461043a5761020b565b8063db006a7514610404578063e5a6b10f146104175761020b565b8063ae4f9c74146103af578063b6b55f25146103d6578063b94db6af146103e9578063be357616146103f15761020b565b806380009630116100f957806380009630146103795780638456cb591461038c578063a29a43bb14610394578063a8c62e76146103a75761020b565b80636190c9d51461032a57806370907ef01461033257806370a082311461035357806372ca5671146103665761020b565b80632ebbec1e116101a25780635c975abb116101715780635c975abb146102f25780635cd90e58146102fa5780635ebaf1db14610302578063606ce3bf146103175761020b565b80632ebbec1e146102b157806333a100ca146102c45780633f4ba83a146102d7578063505fb46c146102df5761020b565b806322d5c4e4116101de57806322d5c4e41461026057806326c259621461027357806327e79c44146102965780632e1a7d4d1461029e5761020b565b806302fb0c5e1461021057806307da68f51461022e5780630fb5a6b4146102385780631959a0021461024d575b600080fd5b610218610442565b6040516102259190612dd4565b60405180910390f35b61023661044b565b005b6102406104ac565b60405161022591906134aa565b61024061025b366004612bc7565b6104b2565b61023661026e366004612c79565b6104c4565b610286610281366004612c28565b610574565b6040516102259493929190613503565b6102406105ab565b6102366102ac366004612c28565b6105b1565b6102366102bf366004612cb1565b6106a4565b6102366102d2366004612bc7565b610819565b610236610926565b6102366102ed366004612cb1565b610aa6565b610218610cbe565b610240610cc8565b61030a610cd4565b6040516102259190612d29565b610236610325366004612cdc565b610cf0565b610240610f1d565b610345610340366004612be2565b610f23565b6040516102259291906134df565b610345610361366004612bc7565b610f47565b610240610374366004612c28565b611097565b610236610387366004612bc7565b6110f9565b610236611233565b6102366103a2366004612bc7565b6113b1565b61030a6114be565b6103c26103bd366004612c58565b6114da565b604051610225989796959493929190613541565b6102366103e4366004612c28565b61152f565b6102406115f5565b6102366103ff366004612c28565b6115fc565b610236610412366004612c28565b611754565b61030a611937565b61030a611953565b610236610435366004612c28565b611974565b610240611a3f565b60065460ff1681565b60065460ff166104765760405162461bcd60e51b815260040161046d90612f43565b60405180910390fd5b600260015414156104995760405162461bcd60e51b815260040161046d90613473565b60026001556104a6611a45565b60018055565b60035481565b600b6020526000908152604090205481565b600754839081106104e75760405162461bcd60e51b815260040161046d9061343c565b60065460ff161561050a5760405162461bcd60e51b815260040161046d90612ed5565b61051a610515611aa6565b611aaa565b6002600154141561053d5760405162461bcd60e51b815260040161046d90613473565b60026001558261055f5760405162461bcd60e51b815260040161046d90612f7a565b61056a848484611c7a565b5050600180555050565b6007818154811061058157fe5b60009182526020909120600490910201805460018201546002830154600390930154919350919084565b60055481565b6105bc610515611aa6565b600260015414156105df5760405162461bcd60e51b815260040161046d90613473565b6002600155806106015760405162461bcd60e51b815260040161046d90612f7a565b336000908152600b6020526040902080548211156106315760405162461bcd60e51b815260040161046d90612e9e565b805461063d9083611eaf565b81556008546106639073ffffffffffffffffffffffffffffffffffffffff163384611edc565b7f884edad9ce6fa2440d8a54cc123490eb96d2768479d49ff9c7366125a94243643383604051610694929190612d4a565b60405180910390a1505060018055565b600754829081106106c75760405162461bcd60e51b815260040161046d9061343c565b60065460ff16156106ea5760405162461bcd60e51b815260040161046d90612ed5565b6106f5610515611aa6565b600260015414156107185760405162461bcd60e51b815260040161046d90613473565b60026001558361073a5760405162461bcd60e51b815260040161046d9061333a565b6000821161075a5760405162461bcd60e51b815260040161046d90613371565b336000908152600b60205260409020805483906107779087611f7d565b10156107955760405162461bcd60e51b815260040161046d90612e9e565b6008546107ba9073ffffffffffffffffffffffffffffffffffffffff16333088611fa9565b80546107c69086611f7d565b81556040517fe1fffcc4923d04b559f4d29a8bfc6cda04eb5b0d3c460751c2402c5c5cc9109c906107fa9033908890612d4a565b60405180910390a161080e84846000611c7a565b505060018055505050565b6000546040517fe43581b800000000000000000000000000000000000000000000000000000000815261010090910473ffffffffffffffffffffffffffffffffffffffff169063e43581b890610873903390600401612d29565b60206040518083038186803b15801561088b57600080fd5b505afa15801561089f573d6000803e3d6000fd5b505050506040513d601f19601f820116820180604052508101906108c39190612c0c565b6108df5760405162461bcd60e51b815260040161046d90612fe8565b600a80547fffffffffffffffffffffffff00000000000000000000000000000000000000001673ffffffffffffffffffffffffffffffffffffffff92909216919091179055565b6000546040517fe43581b800000000000000000000000000000000000000000000000000000000815261010090910473ffffffffffffffffffffffffffffffffffffffff169063e43581b890610980903390600401612d29565b60206040518083038186803b15801561099857600080fd5b505afa1580156109ac573d6000803e3d6000fd5b505050506040513d601f19601f820116820180604052508101906109d09190612c0c565b80610a8057506000546040517f0c68ba2100000000000000000000000000000000000000000000000000000000815261010090910473ffffffffffffffffffffffffffffffffffffffff1690630c68ba2190610a30903390600401612d29565b60206040518083038186803b158015610a4857600080fd5b505afa158015610a5c573d6000803e3d6000fd5b505050506040513d601f19601f82011682018060405250810190610a809190612c0c565b610a9c5760405162461bcd60e51b815260040161046d906132b7565b610aa4611fd0565b565b6000546040517fe43581b800000000000000000000000000000000000000000000000000000000815261010090910473ffffffffffffffffffffffffffffffffffffffff169063e43581b890610b00903390600401612d29565b60206040518083038186803b158015610b1857600080fd5b505afa158015610b2c573d6000803e3d6000fd5b505050506040513d601f19601f82011682018060405250810190610b509190612c0c565b610b6c5760405162461bcd60e51b815260040161046d90612fe8565b60008311610b8c5760405162461bcd60e51b815260040161046d90613147565b620186a0821115610baf5760405162461bcd60e51b815260040161046d90613249565b612710811115610bd15760405162461bcd60e51b815260040161046d90613110565b60408051608081018252848152600060208201526007918101610c09620186a0610c0387670de0b6b3a764000061205c565b90612096565b8152602090810184905282546001818101855560009485529382902083516004909202019081559082015192810192909255604080820151600284015560609091015160039092019190915560075490517f955a633dc66049432428ae39d030e5001c5608eb3a6325bfe8e8231a3bc7356f91610cb1917fffffffffffffffffffffffffffffffffffffffffffffffffffffffffffffffff9190910190869086908690613503565b60405180910390a1505050565b60005460ff165b90565b670de0b6b3a764000081565b60095473ffffffffffffffffffffffffffffffffffffffff1681565b6000546040517fe43581b800000000000000000000000000000000000000000000000000000000815261010090910473ffffffffffffffffffffffffffffffffffffffff169063e43581b890610d4a903390600401612d29565b60206040518083038186803b158015610d6257600080fd5b505afa158015610d76573d6000803e3d6000fd5b505050506040513d601f19601f82011682018060405250810190610d9a9190612c0c565b610db65760405162461bcd60e51b815260040161046d90612fe8565b60075484908110610dd95760405162461bcd60e51b815260040161046d9061343c565b60078581548110610de657fe5b906000526020600020906004020160010154841015610e175760405162461bcd60e51b815260040161046d90613147565b620186a0831115610e3a5760405162461bcd60e51b815260040161046d90613249565b612710821115610e5c5760405162461bcd60e51b815260040161046d90613110565b8360078681548110610e6a57fe5b6000918252602090912060049091020155610e94620186a0610c0385670de0b6b3a764000061205c565b60078681548110610ea157fe5b9060005260206000209060040201600201819055508160078681548110610ec457fe5b9060005260206000209060040201600301819055507f7304cbcbe24a231d4a97516e7a4b3fc85c6d88dae51fc6134c035870ef66bb9485858585604051610f0e9493929190613503565b60405180910390a15050505050565b60045481565b600c6020908152600092835260408084209091529082529020805460019091015482565b73ffffffffffffffffffffffffffffffffffffffff81166000908152600b6020526040812080549190815b6007548110156110905773ffffffffffffffffffffffffffffffffffffffff85166000908152600c602090815260408083208484529091529020600181015415611087576004548154101561107457610fc9612b36565b5080546000908152600d602090815260408083208584528252808320815161010081018352815481526001808301549482019490945260028201549281019290925260038101546060830181905260048201546080840152600582015460a0840152600682015460c084015260079091015460e08301529184015490929161105f91670de0b6b3a764000091610c03919061205c565b905061106b8782611f7d565b96505050611087565b6001810154611084908590611f7d565b93505b50600101610f72565b5050915091565b600754600090829081106110bd5760405162461bcd60e51b815260040161046d9061343c565b336000908152600c602090815260408083208684529091529020600454815410156110ec5760009250506110f3565b6001015491505b50919050565b6000546040517fe43581b800000000000000000000000000000000000000000000000000000000815261010090910473ffffffffffffffffffffffffffffffffffffffff169063e43581b890611153903390600401612d29565b60206040518083038186803b15801561116b57600080fd5b505afa15801561117f573d6000803e3d6000fd5b505050506040513d601f19601f820116820180604052508101906111a39190612c0c565b6111bf5760405162461bcd60e51b815260040161046d90612fe8565b600080547fffffffffffffffffffffff0000000000000000000000000000000000000000ff1661010073ffffffffffffffffffffffffffffffffffffffff841690810291909117825560405190917fad9400e618eb1344fde53db22397a1b82c765527ecbba3a5c86bcac15090828b91a250565b6000546040517fe43581b800000000000000000000000000000000000000000000000000000000815261010090910473ffffffffffffffffffffffffffffffffffffffff169063e43581b89061128d903390600401612d29565b60206040518083038186803b1580156112a557600080fd5b505afa1580156112b9573d6000803e3d6000fd5b505050506040513d601f19601f820116820180604052508101906112dd9190612c0c565b8061138d57506000546040517f0c68ba2100000000000000000000000000000000000000000000000000000000815261010090910473ffffffffffffffffffffffffffffffffffffffff1690630c68ba219061133d903390600401612d29565b60206040518083038186803b15801561135557600080fd5b505afa158015611369573d6000803e3d6000fd5b505050506040513d601f19601f8201168201806040525081019061138d9190612c0c565b6113a95760405162461bcd60e51b815260040161046d906132b7565b610aa46120c8565b6000546040517fe43581b800000000000000000000000000000000000000000000000000000000815261010090910473ffffffffffffffffffffffffffffffffffffffff169063e43581b89061140b903390600401612d29565b60206040518083038186803b15801561142357600080fd5b505afa158015611437573d6000803e3d6000fd5b505050506040513d601f19601f8201168201806040525081019061145b9190612c0c565b6114775760405162461bcd60e51b815260040161046d90612fe8565b600980547fffffffffffffffffffffffff00000000000000000000000000000000000000001673ffffffffffffffffffffffffffffffffffffffff92909216919091179055565b600a5473ffffffffffffffffffffffffffffffffffffffff1681565b600d602052816000526040600020602052806000526040600020600091509150508060000154908060010154908060020154908060030154908060040154908060050154908060060154908060070154905088565b61153a610515611aa6565b6002600154141561155d5760405162461bcd60e51b815260040161046d90613473565b60026001558061157f5760405162461bcd60e51b815260040161046d90612f7a565b336000818152600b6020526040902060085490916115b59173ffffffffffffffffffffffffffffffffffffffff16903085611fa9565b80546115c19083611f7d565b81556040517fe1fffcc4923d04b559f4d29a8bfc6cda04eb5b0d3c460751c2402c5c5cc9109c906106949033908590612d4a565b620186a081565b6000546040517fe43581b800000000000000000000000000000000000000000000000000000000815261010090910473ffffffffffffffffffffffffffffffffffffffff169063e43581b890611656903390600401612d29565b60206040518083038186803b15801561166e57600080fd5b505afa158015611682573d6000803e3d6000fd5b505050506040513d601f19601f820116820180604052508101906116a69190612c0c565b6116c25760405162461bcd60e51b815260040161046d90612fe8565b6002548111156116e45760405162461bcd60e51b815260040161046d90612fb1565b6002546116f19082611eaf565b6002556008546117189073ffffffffffffffffffffffffffffffffffffffff163383611edc565b7f66bf9186b00db666fc37aaffbb95a050c66e599e000c785c1dff0467d868f1b13382604051611749929190612d4a565b60405180910390a150565b600754819081106117775760405162461bcd60e51b815260040161046d9061343c565b60065460ff161561179a5760405162461bcd60e51b815260040161046d90612ed5565b6117a5610515611aa6565b600260015414156117c85760405162461bcd60e51b815260040161046d90613473565b60026001908155336000908152600b60209081526040808320600c835281842087855290925290912091820154909190806118155760405162461bcd60e51b815260040161046d906131b5565b60006007868154811061182457fe5b60009182526020909120855460049092020191506118429083611f7d565b845560018101546118539083611eaf565b60018201556009546040517f15c2fdc900000000000000000000000000000000000000000000000000000000815273ffffffffffffffffffffffffffffffffffffffff909116906315c2fdc9906118b390899033906000906004016134b3565b600060405180830381600087803b1580156118cd57600080fd5b505af11580156118e1573d6000803e3d6000fd5b50506000600186015550506004546040517fbd5034ffbd47e4e72a94baa2cdb74c6fad73cb3bcdc13036b72ec8306f5a7646916119239133918a918790612d70565b60405180910390a150506001805550505050565b60085473ffffffffffffffffffffffffffffffffffffffff1681565b600054610100900473ffffffffffffffffffffffffffffffffffffffff1690565b6000546040517fe43581b800000000000000000000000000000000000000000000000000000000815261010090910473ffffffffffffffffffffffffffffffffffffffff169063e43581b8906119ce903390600401612d29565b60206040518083038186803b1580156119e657600080fd5b505afa1580156119fa573d6000803e3d6000fd5b505050506040513d601f19601f82011682018060405250810190611a1e9190612c0c565b611a3a5760405162461bcd60e51b815260040161046d90612fe8565b600355565b60025481565b60035460055401421015611a6b5760405162461bcd60e51b815260040161046d90612e30565b611a73612141565b600680547fffffffffffffffffffffffffffffffffffffffffffffffffffffffffffffff00169055600480546001019055565b3390565b73ffffffffffffffffffffffffffffffffffffffff81166000908152600b60205260408120905b600754811015611c755773ffffffffffffffffffffffffffffffffffffffff83166000908152600c60209081526040808320848452909152902060045481541015611c6c57600181015415611c6657611b28612b36565b5080546000908152600d602090815260408083208584528252808320815161010081018352815481526001808301549482019490945260028201549281019290925260038101546060830181905260048201546080840152600582015460a0840152600682015460c084015260079091015460e083015291840154909291611bbe91670de0b6b3a764000091610c03919061205c565b8554909150611bcd9082611f7d565b85556000600184018190556009546040517f15c2fdc900000000000000000000000000000000000000000000000000000000815273ffffffffffffffffffffffffffffffffffffffff909116916315c2fdc991611c319188918b91906004016134b3565b600060405180830381600087803b158015611c4b57600080fd5b505af1158015611c5f573d6000803e3d6000fd5b5050505050505b60045481555b50600101611ad1565b505050565b336000908152600b602052604090208054831115611caa5760405162461bcd60e51b815260040161046d90612e9e565b600060078581548110611cb957fe5b90600052602060002090600402019050611ce0848260010154611f7d90919063ffffffff16565b81541015611d005760405162461bcd60e51b815260040161046d90613280565b336000908152600c6020908152604080832088845290915290206001810154611d299086611f7d565b60018201558254611d3a9086611eaf565b83556001820154611d4b9086611f7d565b600180840191909155600954908201546040517f15c2fdc900000000000000000000000000000000000000000000000000000000815273ffffffffffffffffffffffffffffffffffffffff909216916315c2fdc991611db0918a9133916004016134b3565b600060405180830381600087803b158015611dca57600080fd5b505af1158015611dde573d6000803e3d6000fd5b505050507f4df9cbfa66cbbabb528375b3af00207b446225af5a96b8a4b5c413b18226fb95338760045488604051611e199493929190612d70565b60405180910390a1838015611e2e5750825415155b15611e9e578254600854611e5e9173ffffffffffffffffffffffffffffffffffffffff9091169030903390611fa9565b82546040517f884edad9ce6fa2440d8a54cc123490eb96d2768479d49ff9c7366125a942436491611e9191339190612d4a565b60405180910390a1600083555b611ea66125db565b50505050505050565b600082821115611ed15760405162461bcd60e51b815260040161046d90613045565b508082035b92915050565b611c758363a9059cbb60e01b8484604051602401611efb929190612d4a565b604080517fffffffffffffffffffffffffffffffffffffffffffffffffffffffffffffffe08184030181529190526020810180517bffffffffffffffffffffffffffffffffffffffffffffffffffffffff167fffffffff0000000000000000000000000000000000000000000000000000000090931692909217909152612674565b600082820183811015611fa25760405162461bcd60e51b815260040161046d90612f0c565b9392505050565b611fca846323b872dd60e01b858585604051602401611efb93929190612da3565b50505050565b611fd8610cbe565b611ff45760405162461bcd60e51b815260040161046d90612e67565b600080547fffffffffffffffffffffffffffffffffffffffffffffffffffffffffffffff001690557f5db9ee0a495bf2e6ff9c91a7834c1ba4fdd244a5e8aa4e537bd38aeae4b073aa612045611aa6565b6040516120529190612d29565b60405180910390a1565b60008261206b57506000611ed6565b8282028284828161207857fe5b0414611fa25760405162461bcd60e51b815260040161046d906131ec565b60008082116120b75760405162461bcd60e51b815260040161046d906130d9565b8183816120c057fe5b049392505050565b6120d0610cbe565b156120ed5760405162461bcd60e51b815260040161046d9061317e565b600080547fffffffffffffffffffffffffffffffffffffffffffffffffffffffffffffff001660011790557f62e78cea01bee320cd4e420270b5ea74000d11b0c9f74754ebdbfc544b05a258612045611aa6565b600a54604080517fbe040fb0000000000000000000000000000000000000000000000000000000008152905160009273ffffffffffffffffffffffffffffffffffffffff169163be040fb091600480830192602092919082900301818787803b1580156121ad57600080fd5b505af11580156121c1573d6000803e3d6000fd5b505050506040513d601f19601f820116820180604052508101906121e59190612c40565b9050806000808042815b6007547fffffffffffffffffffffffffffffffffffffffffffffffffffffffffffffffff0181101561242e5760006007828154811061222a57fe5b9060005260206000209060040201905060009350612280670de0b6b3a7640000610c0362015180610c0361016d610c036005548a0361227a89600201548a6001015461205c90919063ffffffff16565b9061205c565b9550600061229b878360010154611f7d90919063ffffffff16565b905080881015806122b05760009895506122c2565b90945084906122bf8983611eaf565b98505b80156123095760006122e8620186a0610c0386600301548a61205c90919063ffffffff16565b6002549091506122f89082611f7d565b6002556123058782611eaf565b9650505b612317868460010154612710565b965060405180610100016040528084600001548152602001846001015481526020018781526020018881526020018460020154815260200184600301548152602001600554815260200186815250600d600060045481526020019081526020016000206000868152602001908152602001600020600082015181600001556020820151816001015560408201518160020155606082015181600301556080820151816004015560a0820151816005015560c0820151816006015560e082015181600701559050507f465c3a6938113f4f2bbb78cd69c8a81b4553da4fcd68e420b3c9cd8e5b58cb47846004548560010154898b60405161241b95949392919061351e565b60405180910390a15050506001016121ef565b50600780547fffffffffffffffffffffffffffffffffffffffffffffffffffffffffffffffff8101916000918390811061246457fe5b906000526020600020906004020190508693506000612497620186a0610c0384600301548861205c90919063ffffffff16565b6002549091506124a79082611f7d565b6002556124b48582611eaf565b94506124c4858360010154612710565b955060405180610100016040528083600001548152602001836001015481526020018681526020018781526020018360020154815260200183600301548152602001600554815260200142815250600d600060045481526020019081526020016000206000858152602001908152602001600020600082015181600001556020820151816001015560408201518160020155606082015181600301556080820151816004015560a0820151816005015560c0820151816006015560e082015181600701559050507f465c3a6938113f4f2bbb78cd69c8a81b4553da4fcd68e420b3c9cd8e5b58cb47836004548460010154888a6040516125c895949392919061351e565b60405180910390a1505050505050505050565b6000805b600754811015612665576125f1612b7b565b600782815481106125fe57fe5b9060005260206000209060040201604051806080016040529081600082015481526020016001820154815260200160028201548152602001600382015481525050905080600001518160200151101561265c57600092505050610cc5565b506001016125df565b5061266e61278c565b50600190565b60606126d6826040518060400160405280602081526020017f5361666545524332303a206c6f772d6c6576656c2063616c6c206661696c65648152508573ffffffffffffffffffffffffffffffffffffffff16612a129092919063ffffffff16565b805190915015611c7557808060200190518101906126f49190612c0c565b611c755760405162461bcd60e51b815260040161046d906133df565b6000818314156127295750670de0b6b3a7640000611ed6565b818311156127625761275b61274c83610c03818703670de0b6b3a764000061205c565b670de0b6b3a764000090611f7d565b9050611ed6565b61275b61277d83610c03868203670de0b6b3a764000061205c565b670de0b6b3a764000090611eaf565b60065460ff16156127af5760405162461bcd60e51b815260040161046d90612ed5565b6000805b600754811015612837576127c5612b7b565b600782815481106127d257fe5b9060005260206000209060040201604051806080016040529081600082015481526020016001820154815260200160028201548152602001600382015481525050905061282c816020015184611f7d90919063ffffffff16565b9250506001016127b3565b50600854600a546040517f095ea7b300000000000000000000000000000000000000000000000000000000815273ffffffffffffffffffffffffffffffffffffffff9283169263095ea7b392612894929116908590600401612d4a565b602060405180830381600087803b1580156128ae57600080fd5b505af11580156128c2573d6000803e3d6000fd5b505050506040513d601f19601f820116820180604052508101906128e69190612c0c565b50600a546040517f538a85a100000000000000000000000000000000000000000000000000000000815273ffffffffffffffffffffffffffffffffffffffff9091169063538a85a19061293d9084906004016134aa565b600060405180830381600087803b15801561295757600080fd5b505af115801561296b573d6000803e3d6000fd5b5050426005555050600680547fffffffffffffffffffffffffffffffffffffffffffffffffffffffffffffff0016600117905560005b600754811015612a0e577fe97925046c59e2f2794eb00954f027c43cea916eaa06f9f194cc45e212c028cd81600454600784815481106129dd57fe5b9060005260206000209060040201600101546040516129fe939291906134ed565b60405180910390a16001016129a1565b5050565b6060612a218484600085612a29565b949350505050565b606082471015612a4b5760405162461bcd60e51b815260040161046d9061307c565b612a5485612af7565b612a705760405162461bcd60e51b815260040161046d906133a8565b600060608673ffffffffffffffffffffffffffffffffffffffff168587604051612a9a9190612d0d565b60006040518083038185875af1925050503d8060008114612ad7576040519150601f19603f3d011682016040523d82523d6000602084013e612adc565b606091505b5091509150612aec828286612afd565b979650505050505050565b3b151590565b60608315612b0c575081611fa2565b825115612b1c5782518084602001fd5b8160405162461bcd60e51b815260040161046d9190612ddf565b60405180610100016040528060008152602001600081526020016000815260200160008152602001600081526020016000815260200160008152602001600081525090565b6040518060800160405280600081526020016000815260200160008152602001600081525090565b803573ffffffffffffffffffffffffffffffffffffffff81168114611ed657600080fd5b600060208284031215612bd8578081fd5b611fa28383612ba3565b60008060408385031215612bf4578081fd5b612bfe8484612ba3565b946020939093013593505050565b600060208284031215612c1d578081fd5b8151611fa2816135a3565b600060208284031215612c39578081fd5b5035919050565b600060208284031215612c51578081fd5b5051919050565b60008060408385031215612c6a578182fd5b50508035926020909101359150565b600080600060608486031215612c8d578081fd5b83359250602084013591506040840135612ca6816135a3565b809150509250925092565b600080600060608486031215612cc5578283fd5b505081359360208301359350604090920135919050565b60008060008060808587031215612cf1578081fd5b5050823594602084013594506040840135936060013592509050565b60008251612d1f818460208701613577565b9190910192915050565b73ffffffffffffffffffffffffffffffffffffffff91909116815260200190565b73ffffffffffffffffffffffffffffffffffffffff929092168252602082015260400190565b73ffffffffffffffffffffffffffffffffffffffff94909416845260208401929092526040830152606082015260800190565b73ffffffffffffffffffffffffffffffffffffffff9384168152919092166020820152604081019190915260600190565b901515815260200190565b6000602082528251806020840152612dfe816040850160208701613577565b601f017fffffffffffffffffffffffffffffffffffffffffffffffffffffffffffffffe0169190910160400192915050565b60208082526011908201527f6379636c65206e6f742065787069726564000000000000000000000000000000604082015260600190565b60208082526014908201527f5061757361626c653a206e6f7420706175736564000000000000000000000000604082015260600190565b60208082526012908201527f62616c616e6365206e6f7420656e6f7567680000000000000000000000000000604082015260600190565b6020808252600e908201527f616c726561647920616374697665000000000000000000000000000000000000604082015260600190565b6020808252601b908201527f536166654d6174683a206164646974696f6e206f766572666c6f770000000000604082015260600190565b6020808252600a908201527f6e6f742061637469766500000000000000000000000000000000000000000000604082015260600190565b6020808252600e908201527f696e76616c696420616d6f756e74000000000000000000000000000000000000604082015260600190565b6020808252601a908201527f6e6f7420656e6f7567682062616c616e636520666f7220666565000000000000604082015260600190565b6020808252602f908201527f436f72655265663a3a6f6e6c79476f7665726e6f723a2043616c6c657220697360408201527f206e6f74206120676f7665726e6f720000000000000000000000000000000000606082015260800190565b6020808252601e908201527f536166654d6174683a207375627472616374696f6e206f766572666c6f770000604082015260600190565b60208082526026908201527f416464726573733a20696e73756666696369656e742062616c616e636520666f60408201527f722063616c6c0000000000000000000000000000000000000000000000000000606082015260800190565b6020808252601a908201527f536166654d6174683a206469766973696f6e206279207a65726f000000000000604082015260600190565b6020808252600b908201527f696e76616c696420666565000000000000000000000000000000000000000000604082015260600190565b6020808252600e908201527f696e76616c696420746172676574000000000000000000000000000000000000604082015260600190565b60208082526010908201527f5061757361626c653a2070617573656400000000000000000000000000000000604082015260600190565b60208082526014908201527f6e6f7420656e6f756768207072696e636970616c000000000000000000000000604082015260600190565b60208082526021908201527f536166654d6174683a206d756c7469706c69636174696f6e206f766572666c6f60408201527f7700000000000000000000000000000000000000000000000000000000000000606082015260800190565b6020808252600b908201527f696e76616c696420415059000000000000000000000000000000000000000000604082015260600190565b60208082526010908201527f6e6f7420656e6f7567682071756f746100000000000000000000000000000000604082015260600190565b60208082526045908201527f436f72655265663a3a6f6e6c79477561726469616e4f72476f7665726e6f723a60408201527f2043616c6c6572206973206e6f74206120677561726469616e206f7220676f7660608201527f65726e6f72000000000000000000000000000000000000000000000000000000608082015260a00190565b60208082526010908201527f696e76616c696420616d6f756e74496e00000000000000000000000000000000604082015260600190565b60208082526014908201527f696e76616c696420616d6f756e74496e76657374000000000000000000000000604082015260600190565b6020808252601d908201527f416464726573733a2063616c6c20746f206e6f6e2d636f6e7472616374000000604082015260600190565b6020808252602a908201527f5361666545524332303a204552433230206f7065726174696f6e20646964206e60408201527f6f74207375636365656400000000000000000000000000000000000000000000606082015260800190565b60208082526012908201527f696e76616c6964207472616e6368652069640000000000000000000000000000604082015260600190565b6020808252601f908201527f5265656e7472616e637947756172643a207265656e7472616e742063616c6c00604082015260600190565b90815260200190565b92835273ffffffffffffffffffffffffffffffffffffffff919091166020830152604082015260600190565b918252602082015260400190565b9283526020830191909152604082015260600190565b93845260208401929092526040830152606082015260800190565b948552602085019390935260408401919091526060830152608082015260a00190565b978852602088019690965260408701949094526060860192909252608085015260a084015260c083015260e08201526101000190565b60005b8381101561359257818101518382015260200161357a565b83811115611fca5750506000910152565b80151581146135b157600080fd5b5056fea26469706673582212201dda26d8eabb08c2e5d639a4ebbe47a68bb32f27e72d0f01f176b8ce14c0b20a64736f6c634300060c0033",
  "linkReferences": {},
  "deployedLinkReferences": {}
}