{
  "_format": "hh-sol-artifact-1",
  "contractName": "UniswapV2Router02",
  "sourceName": "contracts/mock/UniswapV2Router02.sol",
  "abi": [
    {
      "inputs": [
        {
          "internalType": "address",
          "name": "_currency",
          "type": "address"
        }
      ],
      "stateMutability": "nonpayable",
      "type": "constructor"
    },
    {
      "inputs": [],
      "name": "currency",
      "outputs": [
        {
          "internalType": "address",
          "name": "",
          "type": "address"
        }
      ],
      "stateMutability": "view",
      "type": "function"
    },
    {
      "inputs": [
        {
          "internalType": "uint256",
          "name": "amountIn",
          "type": "uint256"
        },
        {
          "internalType": "uint256",
          "name": "amountOutMin",
          "type": "uint256"
        },
        {
          "internalType": "address[]",
          "name": "path",
          "type": "address[]"
        },
        {
          "internalType": "address",
          "name": "to",
          "type": "address"
        },
        {
          "internalType": "uint256",
          "name": "deadline",
          "type": "uint256"
        }
      ],
      "name": "swapExactTokensForTokens",
      "outputs": [
        {
          "internalType": "uint256[]",
          "name": "amounts",
          "type": "uint256[]"
        }
      ],
      "stateMutability": "nonpayable",
      "type": "function"
    }
  ],
  "bytecode": "0x608060405234801561001057600080fd5b506040516107d53803806107d583398101604081905261002f91610054565b600080546001600160a01b0319166001600160a01b0392909216919091179055610082565b600060208284031215610065578081fd5b81516001600160a01b038116811461007b578182fd5b9392505050565b610744806100916000396000f3fe608060405234801561001057600080fd5b50600436106100365760003560e01c806338ed17391461003b578063e5a6b10f14610064575b600080fd5b61004e61004936600461043d565b610079565b60405161005b9190610558565b60405180910390f35b61006c610127565b60405161005b9190610511565b60608367ffffffffffffffff8111801561009257600080fd5b506040519080825280602002602001820160405280156100bc578160200160208202803683370190505b50600054909150878702906100e89073ffffffffffffffffffffffffffffffffffffffff168583610143565b87826000815181106100f657fe5b602002602001018181525050808260018151811061011057fe5b602002602001018181525050509695505050505050565b60005473ffffffffffffffffffffffffffffffffffffffff1681565b6101e48363a9059cbb60e01b8484604051602401610162929190610532565b604080517fffffffffffffffffffffffffffffffffffffffffffffffffffffffffffffffe08184030181529190526020810180517bffffffffffffffffffffffffffffffffffffffffffffffffffffffff167fffffffff00000000000000000000000000000000000000000000000000000000909316929092179091526101e9565b505050565b606061024b826040518060400160405280602081526020017f5361666545524332303a206c6f772d6c6576656c2063616c6c206661696c65648152508573ffffffffffffffffffffffffffffffffffffffff166102a89092919063ffffffff16565b8051909150156101e45780806020019051810190610269919061041d565b6101e4576040517f08c379a000000000000000000000000000000000000000000000000000000000815260040161029f90610681565b60405180910390fd5b60606102b784846000856102c1565b90505b9392505050565b606030318311156102fe576040517f08c379a000000000000000000000000000000000000000000000000000000000815260040161029f906105ed565b610307856103c4565b61033d576040517f08c379a000000000000000000000000000000000000000000000000000000000815260040161029f9061064a565b600060608673ffffffffffffffffffffffffffffffffffffffff16858760405161036791906104f5565b60006040518083038185875af1925050503d80600081146103a4576040519150601f19603f3d011682016040523d82523d6000602084013e6103a9565b606091505b50915091506103b98282866103ca565b979650505050505050565b3b151590565b606083156103d95750816102ba565b8251156103e95782518084602001fd5b816040517f08c379a000000000000000000000000000000000000000000000000000000000815260040161029f919061059c565b60006020828403121561042e578081fd5b815180151581146102ba578182fd5b60008060008060008060a08789031215610455578182fd5b8635955060208701359450604087013567ffffffffffffffff8082111561047a578384fd5b818901915089601f83011261048d578384fd5b81358181111561049b578485fd5b8a602080830285010111156104ae578485fd5b602083019650809550505050606087013573ffffffffffffffffffffffffffffffffffffffff811681146104e0578283fd5b80925050608087013590509295509295509295565b600082516105078184602087016106de565b9190910192915050565b73ffffffffffffffffffffffffffffffffffffffff91909116815260200190565b73ffffffffffffffffffffffffffffffffffffffff929092168252602082015260400190565b6020808252825182820181905260009190848201906040850190845b8181101561059057835183529284019291840191600101610574565b50909695505050505050565b60006020825282518060208401526105bb8160408501602087016106de565b601f017fffffffffffffffffffffffffffffffffffffffffffffffffffffffffffffffe0169190910160400192915050565b60208082526026908201527f416464726573733a20696e73756666696369656e742062616c616e636520666f60408201527f722063616c6c0000000000000000000000000000000000000000000000000000606082015260800190565b6020808252601d908201527f416464726573733a2063616c6c20746f206e6f6e2d636f6e7472616374000000604082015260600190565b6020808252602a908201527f5361666545524332303a204552433230206f7065726174696f6e20646964206e60408201527f6f74207375636365656400000000000000000000000000000000000000000000606082015260800190565b60005b838110156106f95781810151838201526020016106e1565b83811115610708576000848401525b5050505056fea2646970667358221220d12bc468ef845fa3c18e69dbf07e5463230c3a09bce8d9e163d89998447221ff64736f6c634300060c0033",
  "linkReferences": {},
  "deployedLinkReferences": {}
}