{
  "_format": "hh-sol-artifact-1",
  "contractName": "VEWTF",
  "sourceName": "contracts/VeWTF.sol",
  "abi": [
    {
      "inputs": [
        {
          "internalType": "string",
          "name": "name_",
          "type": "string"
        },
        {
          "internalType": "string",
          "name": "symbol_",
          "type": "string"
        }
      ],
      "stateMutability": "nonpayable",
      "type": "constructor"
    },
    {
      "anonymous": false,
      "inputs": [
        {
          "indexed": true,
          "internalType": "address",
          "name": "delegator",
          "type": "address"
        },
        {
          "indexed": true,
          "internalType": "address",
          "name": "fromDelegate",
          "type": "address"
        },
        {
          "indexed": true,
          "internalType": "address",
          "name": "toDelegate",
          "type": "address"
        }
      ],
      "name": "DelegateChanged",
      "type": "event"
    },
    {
      "anonymous": false,
      "inputs": [
        {
          "indexed": true,
          "internalType": "address",
          "name": "delegate",
          "type": "address"
        },
        {
          "indexed": false,
          "internalType": "uint256",
          "name": "previousBalance",
          "type": "uint256"
        },
        {
          "indexed": false,
          "internalType": "uint256",
          "name": "newBalance",
          "type": "uint256"
        }
      ],
      "name": "DelegateVotesChanged",
      "type": "event"
    },
    {
      "anonymous": false,
      "inputs": [
        {
          "indexed": true,
          "internalType": "address",
          "name": "from",
          "type": "address"
        },
        {
          "indexed": true,
          "internalType": "address",
          "name": "to",
          "type": "address"
        },
        {
          "indexed": false,
          "internalType": "uint256",
          "name": "value",
          "type": "uint256"
        }
      ],
      "name": "Transfer",
      "type": "event"
    },
    {
      "inputs": [
        {
          "internalType": "address",
          "name": "account",
          "type": "address"
        }
      ],
      "name": "balanceOf",
      "outputs": [
        {
          "internalType": "uint256",
          "name": "",
          "type": "uint256"
        }
      ],
      "stateMutability": "view",
      "type": "function"
    },
    {
      "inputs": [
        {
          "internalType": "address",
          "name": "",
          "type": "address"
        },
        {
          "internalType": "uint256",
          "name": "",
          "type": "uint256"
        }
      ],
      "name": "checkpoints",
      "outputs": [
        {
          "internalType": "uint256",
          "name": "fromBlock",
          "type": "uint256"
        },
        {
          "internalType": "uint256",
          "name": "votes",
          "type": "uint256"
        }
      ],
      "stateMutability": "view",
      "type": "function"
    },
    {
      "inputs": [],
      "name": "decimals",
      "outputs": [
        {
          "internalType": "uint8",
          "name": "",
          "type": "uint8"
        }
      ],
      "stateMutability": "view",
      "type": "function"
    },
    {
      "inputs": [
        {
          "internalType": "address",
          "name": "delegatee",
          "type": "address"
        }
      ],
      "name": "delegate",
      "outputs": [],
      "stateMutability": "nonpayable",
      "type": "function"
    },
    {
      "inputs": [
        {
          "internalType": "address",
          "name": "",
          "type": "address"
        }
      ],
      "name": "delegates",
      "outputs": [
        {
          "internalType": "address",
          "name": "",
          "type": "address"
        }
      ],
      "stateMutability": "view",
      "type": "function"
    },
    {
      "inputs": [
        {
          "internalType": "address",
          "name": "account",
          "type": "address"
        }
      ],
      "name": "getCurrentVotes",
      "outputs": [
        {
          "internalType": "uint256",
          "name": "",
          "type": "uint256"
        }
      ],
      "stateMutability": "view",
      "type": "function"
    },
    {
      "inputs": [
        {
          "internalType": "address",
          "name": "account",
          "type": "address"
        },
        {
          "internalType": "uint256",
          "name": "blockNumber",
          "type": "uint256"
        }
      ],
      "name": "getPriorVotes",
      "outputs": [
        {
          "internalType": "uint256",
          "name": "",
          "type": "uint256"
        }
      ],
      "stateMutability": "view",
      "type": "function"
    },
    {
      "inputs": [],
      "name": "name",
      "outputs": [
        {
          "internalType": "string",
          "name": "",
          "type": "string"
        }
      ],
      "stateMutability": "view",
      "type": "function"
    },
    {
      "inputs": [
        {
          "internalType": "address",
          "name": "",
          "type": "address"
        }
      ],
      "name": "numCheckpoints",
      "outputs": [
        {
          "internalType": "uint256",
          "name": "",
          "type": "uint256"
        }
      ],
      "stateMutability": "view",
      "type": "function"
    },
    {
      "inputs": [],
      "name": "symbol",
      "outputs": [
        {
          "internalType": "string",
          "name": "",
          "type": "string"
        }
      ],
      "stateMutability": "view",
      "type": "function"
    },
    {
      "inputs": [],
      "name": "totalSupply",
      "outputs": [
        {
          "internalType": "uint256",
          "name": "",
          "type": "uint256"
        }
      ],
      "stateMutability": "view",
      "type": "function"
    }
  ],
  "bytecode": "0x60806040523480156200001157600080fd5b5060405162000e4038038062000e408339810160408190526200003491620001b9565b81516200004990600390602085019062000068565b5080516200005f90600490602084019062000068565b50505062000273565b828054620000769062000220565b90600052602060002090601f0160209004810192826200009a5760008555620000e5565b82601f10620000b557805160ff1916838001178555620000e5565b82800160010185558215620000e5579182015b82811115620000e5578251825591602001919060010190620000c8565b50620000f3929150620000f7565b5090565b5b80821115620000f35760008155600101620000f8565b600082601f8301126200011f578081fd5b81516001600160401b03808211156200013c576200013c6200025d565b6040516020601f8401601f19168201810183811183821017156200016457620001646200025d565b60405283825285840181018710156200017b578485fd5b8492505b838310156200019e57858301810151828401820152918201916200017f565b83831115620001af57848185840101525b5095945050505050565b60008060408385031215620001cc578182fd5b82516001600160401b0380821115620001e3578384fd5b620001f1868387016200010e565b9350602085015191508082111562000207578283fd5b5062000216858286016200010e565b9150509250929050565b6002810460018216806200023557607f821691505b602082108114156200025757634e487b7160e01b600052602260045260246000fd5b50919050565b634e487b7160e01b600052604160045260246000fd5b610bbd80620002836000396000f3fe608060405234801561001057600080fd5b50600436106100a95760003560e01c80635c19a95c116100715780635c19a95c146101375780636fcfff451461014c57806370a082311461015f578063782d6fe11461017257806395d89b4114610185578063b4b5ea571461018d576100a9565b806306fdde03146100ae5780630cdfebfa146100cc57806318160ddd146100ed578063313ce56714610102578063587cde1e14610117575b600080fd5b6100b66101a0565b6040516100c39190610a38565b60405180910390f35b6100df6100da3660046109fb565b610232565b6040516100c3929190610acb565b6100f561026e565b6040516100c39190610ac2565b61010a610274565b6040516100c39190610ad9565b61012a6101253660046109e1565b610279565b6040516100c39190610a24565b61014a6101453660046109e1565b610294565b005b6100f561015a3660046109e1565b6102a1565b6100f561016d3660046109e1565b6102b3565b6100f56101803660046109fb565b6102d2565b6100b6610571565b6100f561019b3660046109e1565b610580565b6060600380546101af90610b36565b80601f01602080910402602001604051908101604052809291908181526020018280546101db90610b36565b80156102285780601f106101fd57610100808354040283529160200191610228565b820191906000526020600020905b81548152906001019060200180831161020b57829003601f168201915b5050505050905090565b6005602052816000526040600020818154811061024e57600080fd5b600091825260209091206002909102018054600190910154909250905082565b60025490565b601290565b6007602052600090815260409020546001600160a01b031681565b61029e3382610600565b50565b60066020526000908152604090205481565b6001600160a01b0381166000908152602081905260409020545b919050565b60004382106102fc5760405162461bcd60e51b81526004016102f390610a8b565b60405180910390fd5b6001600160a01b0383166000908152600660205260409020548061032457600091505061056b565b6001600160a01b03841660009081526005602052604090208390610349600184610b1f565b8154811061036757634e487b7160e01b600052603260045260246000fd5b906000526020600020906002020160000154116103d9576001600160a01b03841660009081526005602052604090206103a1600183610b1f565b815481106103bf57634e487b7160e01b600052603260045260246000fd5b90600052602060002090600202016001015491505061056b565b6001600160a01b0384166000908152600560205260408120805485929061041057634e487b7160e01b600052603260045260246000fd5b906000526020600020906002020160000154111561043257600091505061056b565b600080610440600184610b1f565b90505b8181111561051b57600060026104598484610b1f565b6104639190610aff565b61046d9083610b1f565b6001600160a01b038816600090815260056020526040812080549293509091839081106104aa57634e487b7160e01b600052603260045260246000fd5b906000526020600020906002020160405180604001604052908160008201548152602001600182015481525050905086816000015114156104f55760200151945061056b9350505050565b805187111561050657819350610514565b610511600183610b1f565b92505b5050610443565b6001600160a01b038616600090815260056020526040902080548390811061055357634e487b7160e01b600052603260045260246000fd5b90600052602060002090600202016001015493505050505b92915050565b6060600480546101af90610b36565b6001600160a01b038116600090815260066020526040812054806105a55760006105f9565b6001600160a01b03831660009081526005602052604090206105c8600183610b1f565b815481106105e657634e487b7160e01b600052603260045260246000fd5b9060005260206000209060020201600101545b9392505050565b6001600160a01b0380831660009081526007602052604081205490911690610627846102b3565b6001600160a01b03858116600090815260076020526040902080546001600160a01b03191691861691909117905590506106628284836106b2565b826001600160a01b0316826001600160a01b0316856001600160a01b03167f3134e8a2e6d97e929a7e54011ea5485d7d196dd5f0ba4d4ef95803e8e3fc257f60405160405180910390a450505050565b816001600160a01b0316836001600160a01b0316141580156106d45750600081115b1561082b576001600160a01b03831615610782576001600160a01b038316600090815260066020526040812054908161070e576000610762565b6001600160a01b0385166000908152600560205260409020610731600184610b1f565b8154811061074f57634e487b7160e01b600052603260045260246000fd5b9060005260206000209060020201600101545b905060006107708285610830565b905061077e8684848461083c565b5050505b6001600160a01b0382161561082b576001600160a01b03821660009081526006602052604081205490816107b757600061080b565b6001600160a01b03841660009081526005602052604090206107da600184610b1f565b815481106107f857634e487b7160e01b600052603260045260246000fd5b9060005260206000209060020201600101545b9050600061081982856109be565b90506108278584848461083c565b5050505b505050565b60006105f98284610b1f565b43831580159061089e57506001600160a01b0385166000908152600560205260409020819061086c600187610b1f565b8154811061088a57634e487b7160e01b600052603260045260246000fd5b906000526020600020906002020160000154145b15610900576001600160a01b038516600090815260056020526040902082906108c8600187610b1f565b815481106108e657634e487b7160e01b600052603260045260246000fd5b906000526020600020906002020160010181905550610974565b6001600160a01b03851660009081526005602090815260408083208151808301909252848252818301868152815460018181018455928652939094209151600290930290910191825591519082015561095a908590610ae7565b6001600160a01b0386166000908152600660205260409020555b846001600160a01b03167fdec2bacdd2f05b59de34da9b523dff8be42e5e38e818c82fdb0bae774387a72484846040516109af929190610acb565b60405180910390a25050505050565b60006105f98284610ae7565b80356001600160a01b03811681146102cd57600080fd5b6000602082840312156109f2578081fd5b6105f9826109ca565b60008060408385031215610a0d578081fd5b610a16836109ca565b946020939093013593505050565b6001600160a01b0391909116815260200190565b6000602080835283518082850152825b81811015610a6457858101830151858201604001528201610a48565b81811115610a755783604083870101525b50601f01601f1916929092016040019392505050565b60208082526019908201527f56655754463a206e6f74207965742064657465726d696e656400000000000000604082015260600190565b90815260200190565b918252602082015260400190565b60ff91909116815260200190565b60008219821115610afa57610afa610b71565b500190565b600082610b1a57634e487b7160e01b81526012600452602481fd5b500490565b600082821015610b3157610b31610b71565b500390565b600281046001821680610b4a57607f821691505b60208210811415610b6b57634e487b7160e01b600052602260045260246000fd5b50919050565b634e487b7160e01b600052601160045260246000fdfea26469706673582212205493028528eab42a2732293853cf30701b0ca34b2bb20a4bc58251cbd8f0d9b964736f6c63430008000033",
  "linkReferences": {},
  "deployedLinkReferences": {}
}