{
  "_format": "hh-sol-artifact-1",
  "contractName": "VotingEscrow",
  "sourceName": "contracts/VotingEscrow.sol",
  "abi": [
    {
      "inputs": [
        {
          "internalType": "address",
          "name": "_wtf",
          "type": "address"
        }
      ],
      "stateMutability": "nonpayable",
      "type": "constructor"
    },
    {
      "anonymous": false,
      "inputs": [
        {
          "indexed": true,
          "internalType": "address",
          "name": "delegator",
          "type": "address"
        },
        {
          "indexed": true,
          "internalType": "address",
          "name": "fromDelegate",
          "type": "address"
        },
        {
          "indexed": true,
          "internalType": "address",
          "name": "toDelegate",
          "type": "address"
        }
      ],
      "name": "DelegateChanged",
      "type": "event"
    },
    {
      "anonymous": false,
      "inputs": [
        {
          "indexed": true,
          "internalType": "address",
          "name": "delegate",
          "type": "address"
        },
        {
          "indexed": false,
          "internalType": "uint256",
          "name": "previousBalance",
          "type": "uint256"
        },
        {
          "indexed": false,
          "internalType": "uint256",
          "name": "newBalance",
          "type": "uint256"
        }
      ],
      "name": "DelegateVotesChanged",
      "type": "event"
    },
    {
      "anonymous": false,
      "inputs": [
        {
          "indexed": true,
          "internalType": "address",
          "name": "account",
          "type": "address"
        },
        {
          "indexed": false,
          "internalType": "uint256",
          "name": "increasedAmount",
          "type": "uint256"
        }
      ],
      "name": "LockAmountIncreased",
      "type": "event"
    },
    {
      "anonymous": false,
      "inputs": [
        {
          "indexed": true,
          "internalType": "address",
          "name": "account",
          "type": "address"
        },
        {
          "indexed": false,
          "internalType": "uint256",
          "name": "amount",
          "type": "uint256"
        },
        {
          "indexed": false,
          "internalType": "uint256",
          "name": "startTimestamp",
          "type": "uint256"
        },
        {
          "indexed": false,
          "internalType": "uint256",
          "name": "expiryTimestamp",
          "type": "uint256"
        }
      ],
      "name": "LockCreated",
      "type": "event"
    },
    {
      "anonymous": false,
      "inputs": [
        {
          "indexed": true,
          "internalType": "address",
          "name": "account",
          "type": "address"
        },
        {
          "indexed": false,
          "internalType": "uint256",
          "name": "amount",
          "type": "uint256"
        },
        {
          "indexed": false,
          "internalType": "uint256",
          "name": "newExpiryTimestamp",
          "type": "uint256"
        }
      ],
      "name": "LockExtended",
      "type": "event"
    },
    {
      "anonymous": false,
      "inputs": [
        {
          "indexed": true,
          "internalType": "address",
          "name": "previousOwner",
          "type": "address"
        },
        {
          "indexed": true,
          "internalType": "address",
          "name": "newOwner",
          "type": "address"
        }
      ],
      "name": "OwnershipTransferred",
      "type": "event"
    },
    {
      "anonymous": false,
      "inputs": [
        {
          "indexed": false,
          "internalType": "address",
          "name": "wtfRewards",
          "type": "address"
        },
        {
          "indexed": false,
          "internalType": "address",
          "name": "feeRewards",
          "type": "address"
        }
      ],
      "name": "StakingSet",
      "type": "event"
    },
    {
      "anonymous": false,
      "inputs": [
        {
          "indexed": true,
          "internalType": "address",
          "name": "from",
          "type": "address"
        },
        {
          "indexed": true,
          "internalType": "address",
          "name": "to",
          "type": "address"
        },
        {
          "indexed": false,
          "internalType": "uint256",
          "name": "value",
          "type": "uint256"
        }
      ],
      "name": "Transfer",
      "type": "event"
    },
    {
      "anonymous": false,
      "inputs": [
        {
          "indexed": true,
          "internalType": "address",
          "name": "account",
          "type": "address"
        },
        {
          "indexed": false,
          "internalType": "uint256",
          "name": "amount",
          "type": "uint256"
        }
      ],
      "name": "Unlocked",
      "type": "event"
    },
    {
      "inputs": [],
      "name": "MAX_LOCK_TIME",
      "outputs": [
        {
          "internalType": "uint256",
          "name": "",
          "type": "uint256"
        }
      ],
      "stateMutability": "view",
      "type": "function"
    },
    {
      "inputs": [],
      "name": "MIN_LOCK_TIME",
      "outputs": [
        {
          "internalType": "uint256",
          "name": "",
          "type": "uint256"
        }
      ],
      "stateMutability": "view",
      "type": "function"
    },
    {
      "inputs": [
        {
          "internalType": "address",
          "name": "account",
          "type": "address"
        }
      ],
      "name": "balanceOf",
      "outputs": [
        {
          "internalType": "uint256",
          "name": "",
          "type": "uint256"
        }
      ],
      "stateMutability": "view",
      "type": "function"
    },
    {
      "inputs": [
        {
          "internalType": "address",
          "name": "",
          "type": "address"
        },
        {
          "internalType": "uint256",
          "name": "",
          "type": "uint256"
        }
      ],
      "name": "checkpoints",
      "outputs": [
        {
          "internalType": "uint256",
          "name": "fromBlock",
          "type": "uint256"
        },
        {
          "internalType": "uint256",
          "name": "votes",
          "type": "uint256"
        }
      ],
      "stateMutability": "view",
      "type": "function"
    },
    {
      "inputs": [
        {
          "internalType": "uint256",
          "name": "_amount",
          "type": "uint256"
        },
        {
          "internalType": "uint256",
          "name": "duration",
          "type": "uint256"
        }
      ],
      "name": "createLock",
      "outputs": [],
      "stateMutability": "nonpayable",
      "type": "function"
    },
    {
      "inputs": [],
      "name": "decimals",
      "outputs": [
        {
          "internalType": "uint8",
          "name": "",
          "type": "uint8"
        }
      ],
      "stateMutability": "view",
      "type": "function"
    },
    {
      "inputs": [
        {
          "internalType": "address",
          "name": "delegatee",
          "type": "address"
        }
      ],
      "name": "delegate",
      "outputs": [],
      "stateMutability": "nonpayable",
      "type": "function"
    },
    {
      "inputs": [
        {
          "internalType": "address",
          "name": "",
          "type": "address"
        }
      ],
      "name": "delegates",
      "outputs": [
        {
          "internalType": "address",
          "name": "",
          "type": "address"
        }
      ],
      "stateMutability": "view",
      "type": "function"
    },
    {
      "inputs": [],
      "name": "feeRewards",
      "outputs": [
        {
          "internalType": "contract IRewards",
          "name": "",
          "type": "address"
        }
      ],
      "stateMutability": "view",
      "type": "function"
    },
    {
      "inputs": [
        {
          "internalType": "address",
          "name": "account",
          "type": "address"
        }
      ],
      "name": "getCurrentVotes",
      "outputs": [
        {
          "internalType": "uint256",
          "name": "",
          "type": "uint256"
        }
      ],
      "stateMutability": "view",
      "type": "function"
    },
    {
      "inputs": [
        {
          "internalType": "address",
          "name": "account",
          "type": "address"
        }
      ],
      "name": "getLockData",
      "outputs": [
        {
          "components": [
            {
              "internalType": "uint256",
              "name": "startTimestamp",
              "type": "uint256"
            },
            {
              "internalType": "uint256",
              "name": "expiryTimestamp",
              "type": "uint256"
            },
            {
              "internalType": "uint256",
              "name": "amount",
              "type": "uint256"
            }
          ],
          "internalType": "struct VotingEscrow.Lock",
          "name": "lock",
          "type": "tuple"
        }
      ],
      "stateMutability": "view",
      "type": "function"
    },
    {
      "inputs": [
        {
          "internalType": "address",
          "name": "account",
          "type": "address"
        }
      ],
      "name": "getLockedAmount",
      "outputs": [
        {
          "internalType": "uint256",
          "name": "",
          "type": "uint256"
        }
      ],
      "stateMutability": "view",
      "type": "function"
    },
    {
      "inputs": [
        {
          "internalType": "address",
          "name": "account",
          "type": "address"
        },
        {
          "internalType": "uint256",
          "name": "blockNumber",
          "type": "uint256"
        }
      ],
      "name": "getPriorVotes",
      "outputs": [
        {
          "internalType": "uint256",
          "name": "",
          "type": "uint256"
        }
      ],
      "stateMutability": "view",
      "type": "function"
    },
    {
      "inputs": [
        {
          "internalType": "uint256",
          "name": "_amount",
          "type": "uint256"
        }
      ],
      "name": "increaseAmount",
      "outputs": [],
      "stateMutability": "nonpayable",
      "type": "function"
    },
    {
      "inputs": [
        {
          "internalType": "uint256",
          "name": "_amount",
          "type": "uint256"
        },
        {
          "internalType": "uint256",
          "name": "_newExpiryTimestamp",
          "type": "uint256"
        }
      ],
      "name": "increaseTimeAndAmount",
      "outputs": [],
      "stateMutability": "nonpayable",
      "type": "function"
    },
    {
      "inputs": [],
      "name": "name",
      "outputs": [
        {
          "internalType": "string",
          "name": "",
          "type": "string"
        }
      ],
      "stateMutability": "view",
      "type": "function"
    },
    {
      "inputs": [
        {
          "internalType": "address",
          "name": "",
          "type": "address"
        }
      ],
      "name": "numCheckpoints",
      "outputs": [
        {
          "internalType": "uint256",
          "name": "",
          "type": "uint256"
        }
      ],
      "stateMutability": "view",
      "type": "function"
    },
    {
      "inputs": [],
      "name": "owner",
      "outputs": [
        {
          "internalType": "address",
          "name": "",
          "type": "address"
        }
      ],
      "stateMutability": "view",
      "type": "function"
    },
    {
      "inputs": [],
      "name": "renounceOwnership",
      "outputs": [],
      "stateMutability": "nonpayable",
      "type": "function"
    },
    {
      "inputs": [
        {
          "internalType": "address",
          "name": "_wtfRewards",
          "type": "address"
        },
        {
          "internalType": "address",
          "name": "_feeRewards",
          "type": "address"
        }
      ],
      "name": "setStaking",
      "outputs": [],
      "stateMutability": "nonpayable",
      "type": "function"
    },
    {
      "inputs": [],
      "name": "symbol",
      "outputs": [
        {
          "internalType": "string",
          "name": "",
          "type": "string"
        }
      ],
      "stateMutability": "view",
      "type": "function"
    },
    {
      "inputs": [],
      "name": "totalLocked",
      "outputs": [
        {
          "internalType": "uint256",
          "name": "",
          "type": "uint256"
        }
      ],
      "stateMutability": "view",
      "type": "function"
    },
    {
      "inputs": [],
      "name": "totalSupply",
      "outputs": [
        {
          "internalType": "uint256",
          "name": "",
          "type": "uint256"
        }
      ],
      "stateMutability": "view",
      "type": "function"
    },
    {
      "inputs": [
        {
          "internalType": "address",
          "name": "newOwner",
          "type": "address"
        }
      ],
      "name": "transferOwnership",
      "outputs": [],
      "stateMutability": "nonpayable",
      "type": "function"
    },
    {
      "inputs": [],
      "name": "unlock",
      "outputs": [],
      "stateMutability": "nonpayable",
      "type": "function"
    },
    {
      "inputs": [],
      "name": "wtf",
      "outputs": [
        {
          "internalType": "contract IERC20",
          "name": "",
          "type": "address"
        }
      ],
      "stateMutability": "view",
      "type": "function"
    },
    {
      "inputs": [],
      "name": "wtfRewards",
      "outputs": [
        {
          "internalType": "contract IRewards",
          "name": "",
          "type": "address"
        }
      ],
      "stateMutability": "view",
      "type": "function"
    }
  ],
  "bytecode": "0x60806040523480156200001157600080fd5b50604051620027ed380380620027ed8339810160408190526200003491620001e9565b6040518060400160405280601181526020017057544620566f74696e6720457363726f7760781b815250604051806040016040528060058152602001642b32abaa2360d91b8152506200009662000090620000ef60201b60201c565b620000f3565b600180558151620000af90600590602085019062000143565b508051620000c590600690602084019062000143565b5050600a80546001600160a01b0319166001600160a01b0393909316929092179091555062000256565b3390565b600080546001600160a01b038381166001600160a01b0319831681178455604051919092169283917f8be0079c531659141344cd1fd0a4f28419497f9722a3daafe3b4186f6b6457e09190a35050565b828054620001519062000219565b90600052602060002090601f016020900481019282620001755760008555620001c0565b82601f106200019057805160ff1916838001178555620001c0565b82800160010185558215620001c0579182015b82811115620001c0578251825591602001919060010190620001a3565b50620001ce929150620001d2565b5090565b5b80821115620001ce5760008155600101620001d3565b600060208284031215620001fb578081fd5b81516001600160a01b038116811462000212578182fd5b9392505050565b6002810460018216806200022e57607f821691505b602082108114156200025057634e487b7160e01b600052602260045260246000fd5b50919050565b61258780620002666000396000f3fe608060405234801561001057600080fd5b50600436106101a95760003560e01c806370a08231116100f9578063b4b5ea5711610097578063c622233111610071578063c62223311461032c578063ebe066b61461034c578063f2fde38b1461035f578063fa78668f14610372576101a9565b8063b4b5ea57146102fe578063b52c05fe14610311578063c375a48b14610324576101a9565b80638da5cb5b116100d35780638da5cb5b146102d3578063929ec537146102db57806395d89b41146102ee578063a69df4b5146102f6576101a9565b806370a08231146102a5578063715018a6146102b8578063782d6fe1146102c0576101a9565b806336b6228811610166578063587cde1e11610140578063587cde1e146102645780635c19a95c146102775780636bfdb2781461028a5780636fcfff4514610292576101a9565b806336b622881461023f5780633ff0320714610254578063568914121461025c576101a9565b806306fdde03146101ae5780630906a252146101cc5780630cdfebfa146101e157806315456eba1461020257806318160ddd14610215578063313ce5671461022a575b600080fd5b6101b661037a565b6040516101c39190611d80565b60405180910390f35b6101df6101da366004611cd8565b61040c565b005b6101f46101ef366004611c5f565b610642565b6040516101c3929190612434565b6101df610210366004611ca8565b61067e565b61021d6107d6565b6040516101c3919061242b565b6102326107dc565b6040516101c39190612458565b6102476107e1565b6040516101c39190611d15565b61021d6107f0565b61021d6107f7565b610247610272366004611c13565b61087d565b6101df610285366004611c13565b610898565b6102476108a5565b61021d6102a0366004611c13565b6108b4565b61021d6102b3366004611c13565b6108c6565b6101df6108e5565b61021d6102ce366004611c5f565b610930565b610247610bc6565b61021d6102e9366004611c13565b610bd5565b6101b6610bf3565b6101df610c02565b61021d61030c366004611c13565b610d1c565b6101df61031f366004611cd8565b610d9c565b610247610f07565b61033f61033a366004611c13565b610f16565b6040516101c3919061240a565b6101df61035a366004611c2d565b610f60565b6101df61036d366004611c13565b611049565b61021d6110b7565b60606005805461038990612500565b80601f01602080910402602001604051908101604052809291908181526020018280546103b590612500565b80156104025780601f106103d757610100808354040283529160200191610402565b820191906000526020600020905b8154815290600101906020018083116103e557829003601f168201915b5050505050905090565b600260015414156104385760405162461bcd60e51b815260040161042f90612365565b60405180910390fd5b60026001819055336000908152600d602052604090209081015461046e5760405162461bcd60e51b815260040161042f90611ec6565b61047b81600101546110bf565b156104985760405162461bcd60e51b815260040161042f9061207c565b60018101546104aa9062278d006110c4565b8210156104c95760405162461bcd60e51b815260040161042f906121ca565b80546301e13380906104dc9084906110d0565b11156104fa5760405162461bcd60e51b815260040161042f90612162565b60006105138260010154846110d090919063ffffffff16565b9050600084156105bf57600061052985426110d0565b905060006105456301e1338061053f89856110dc565b906110e8565b905060006105686301e1338061053f8789600201546110dc90919063ffffffff16565b905061057481836110c4565b600287015490945061058690896110c4565b6002870155600a546105a3906001600160a01b031633308b6110f4565b6105ad3385611152565b6105b7338561122b565b5050506105f4565b6105de6301e1338061053f8486600201546110dc90919063ffffffff16565b90506105ea3382611152565b6105f4338261122b565b6001830184905560405133907f050932e79e5bc73d7c0e6856f9b80ae760803919f72fdb530c47608b3c2ffbd89061062f9088908890612434565b60405180910390a2505060018055505050565b6007602052816000526040600020818154811061065e57600080fd5b600091825260209091206002909102018054600190910154909250905082565b600260015414156106a15760405162461bcd60e51b815260040161042f90612365565b6002600155336000908152600d60205260409020816106d25760405162461bcd60e51b815260040161042f90611f9a565b60008160020154116106f65760405162461bcd60e51b815260040161042f90611ec6565b61070381600101546110bf565b156107205760405162461bcd60e51b815260040161042f9061207c565b600181015460009061073290426110d0565b905060006107486301e1338061053f86856110dc565b600284015490915061075a90856110c4565b6002840155600a54610777906001600160a01b03163330876110f4565b6107813382611152565b61078b338261122b565b336001600160a01b03167fea61c3b66d1b521d412995113fb2d02e1f83da97103751ff25a4e0689f3e937e856040516107c4919061242b565b60405180910390a25050600180555050565b60045490565b601290565b600a546001600160a01b031681565b62278d0081565b600a546040516370a0823160e01b81526000916001600160a01b0316906370a0823190610828903090600401611d15565b60206040518083038186803b15801561084057600080fd5b505afa158015610854573d6000803e3d6000fd5b505050506040513d601f19601f820116820180604052508101906108789190611cc0565b905090565b6009602052600090815260409020546001600160a01b031681565b6108a23382611430565b50565b600b546001600160a01b031681565b60086020526000908152604090205481565b6001600160a01b0381166000908152600260205260409020545b919050565b6108ed6114e2565b6001600160a01b03166108fe610bc6565b6001600160a01b0316146109245760405162461bcd60e51b815260040161042f90612227565b61092e60006114e6565b565b60004382106109515760405162461bcd60e51b815260040161042f9061239c565b6001600160a01b03831660009081526008602052604090205480610979576000915050610bc0565b6001600160a01b0384166000908152600760205260409020839061099e6001846124bd565b815481106109bc57634e487b7160e01b600052603260045260246000fd5b90600052602060002090600202016000015411610a2e576001600160a01b03841660009081526007602052604090206109f66001836124bd565b81548110610a1457634e487b7160e01b600052603260045260246000fd5b906000526020600020906002020160010154915050610bc0565b6001600160a01b03841660009081526007602052604081208054859290610a6557634e487b7160e01b600052603260045260246000fd5b9060005260206000209060020201600001541115610a87576000915050610bc0565b600080610a956001846124bd565b90505b81811115610b705760006002610aae84846124bd565b610ab8919061247e565b610ac290836124bd565b6001600160a01b03881660009081526007602052604081208054929350909183908110610aff57634e487b7160e01b600052603260045260246000fd5b90600052602060002090600202016040518060400160405290816000820154815260200160018201548152505090508681600001511415610b4a57602001519450610bc09350505050565b8051871115610b5b57819350610b69565b610b666001836124bd565b92505b5050610a98565b6001600160a01b0386166000908152600760205260409020805483908110610ba857634e487b7160e01b600052603260045260246000fd5b90600052602060002090600202016001015493505050505b92915050565b6000546001600160a01b031690565b6001600160a01b03166000908152600d602052604090206002015490565b60606006805461038990612500565b60026001541415610c255760405162461bcd60e51b815260040161042f90612365565b60026001818155336000908152600d602052604090209182015490820154610c4c906110bf565b610c685760405162461bcd60e51b815260040161042f9061210d565b6000610c73336108c6565b905060008111610c955760405162461bcd60e51b815260040161042f90611f52565b610c9f3382611536565b610ca93382611643565b6002830154600a54610cc8916001600160a01b039091169033906116fc565b600060028401819055808455600184015560405133907f0f0bc5b519ddefdd8e5f9e6423433aa2b869738de2ae34d58ebc796fc749fa0d90610d0b90859061242b565b60405180910390a250506001805550565b6001600160a01b03811660009081526008602052604081205480610d41576000610d95565b6001600160a01b0383166000908152600760205260409020610d646001836124bd565b81548110610d8257634e487b7160e01b600052603260045260246000fd5b9060005260206000209060020201600101545b9392505050565b60026001541415610dbf5760405162461bcd60e51b815260040161042f90612365565b6002600155610dcc61171b565b336000908152600d6020526040902082610df85760405162461bcd60e51b815260040161042f90611fe6565b600281015415610e1a5760405162461bcd60e51b815260040161042f90611df5565b62278d00821015610e3d5760405162461bcd60e51b815260040161042f906120be565b6301e13380821115610e615760405162461bcd60e51b815260040161042f9061202c565b6000610e756301e1338061053f86866110dc565b42808455909150610e8690846110c4565b600183015560028201849055600a54610eaa906001600160a01b03163330876110f4565b610eb43382611152565b610ebe338261122b565b336001600160a01b03167f71fc552ee832a9004ea0bdb07cb6dd9d641eb2cb53b3cfe88c8fdcff886734a08360020154846000015485600101546040516107c493929190612442565b600c546001600160a01b031681565b610f1e611bdb565b506001600160a01b03166000908152600d6020908152604091829020825160608101845281548152600182015492810192909252600201549181019190915290565b610f686114e2565b6001600160a01b0316610f79610bc6565b6001600160a01b031614610f9f5760405162461bcd60e51b815260040161042f90612227565b6001600160a01b03821615801590610fbf57506001600160a01b03811615155b610fdb5760405162461bcd60e51b815260040161042f9061229d565b600b80546001600160a01b038085166001600160a01b031992831617909255600c8054928416929091169190911790556040517fea27d6b3cb3f0dde9edb63442052d5981948e7c888d4fd746e5a2885173b3c7d9061103d9084908490611d29565b60405180910390a15050565b6110516114e2565b6001600160a01b0316611062610bc6565b6001600160a01b0316146110885760405162461bcd60e51b815260040161042f90612227565b6001600160a01b0381166110ae5760405162461bcd60e51b815260040161042f90611e80565b6108a2816114e6565b6301e1338081565b421190565b6000610d958284612466565b6000610d9582846124bd565b6000610d95828461249e565b6000610d95828461247e565b61114c846323b872dd60e01b85858560405160240161111593929190611d43565b60408051601f198184030181529190526020810180516001600160e01b03166001600160e01b03199093169290921790915261173f565b50505050565b6001600160a01b0382166111785760405162461bcd60e51b815260040161042f906123d3565b806004600082825461118a9190612466565b90915550506001600160a01b038216600090815260026020526040812080548392906111b7908490612466565b90915550506040516001600160a01b038316906000907fddf252ad1be2c89b69c2b068fc378daa952ba7f163c4a11628f55a4df523b3ef906111fa90859061242b565b60405180910390a36001600160a01b038083166000908152600960205260408120546112279216836117ce565b5050565b600b546001600160a01b03161561132c57600b60009054906101000a90046001600160a01b03166001600160a01b031663df868ed36040518163ffffffff1660e01b815260040160206040518083038186803b15801561128a57600080fd5b505afa15801561129e573d6000803e3d6000fd5b505050506040513d601f19601f820116820180604052508101906112c29190611c88565b1561132c57600b546040516356e4bb9760e11b81526001600160a01b039091169063adc9772e906112f99085908590600401611d67565b600060405180830381600087803b15801561131357600080fd5b505af1158015611327573d6000803e3d6000fd5b505050505b600c546001600160a01b03161561122757600c60009054906101000a90046001600160a01b03166001600160a01b031663df868ed36040518163ffffffff1660e01b815260040160206040518083038186803b15801561138b57600080fd5b505afa15801561139f573d6000803e3d6000fd5b505050506040513d601f19601f820116820180604052508101906113c39190611c88565b1561122757600c546040516356e4bb9760e11b81526001600160a01b039091169063adc9772e906113fa9085908590600401611d67565b600060405180830381600087803b15801561141457600080fd5b505af1158015611428573d6000803e3d6000fd5b505050505050565b6001600160a01b0380831660009081526009602052604081205490911690611457846108c6565b6001600160a01b03858116600090815260096020526040902080546001600160a01b03191691861691909117905590506114928284836117ce565b826001600160a01b0316826001600160a01b0316856001600160a01b03167f3134e8a2e6d97e929a7e54011ea5485d7d196dd5f0ba4d4ef95803e8e3fc257f60405160405180910390a450505050565b3390565b600080546001600160a01b038381166001600160a01b0319831681178455604051919092169283917f8be0079c531659141344cd1fd0a4f28419497f9722a3daafe3b4186f6b6457e09190a35050565b6001600160a01b03821661155c5760405162461bcd60e51b815260040161042f9061225c565b6001600160a01b038216600090815260026020526040902054818110156115955760405162461bcd60e51b815260040161042f90611db3565b61159f82826124bd565b6001600160a01b038416600090815260026020526040812091909155600480548492906115cd9084906124bd565b90915550506040516000906001600160a01b038516907fddf252ad1be2c89b69c2b068fc378daa952ba7f163c4a11628f55a4df523b3ef9061161090869061242b565b60405180910390a36001600160a01b0380841660009081526009602052604081205461163e921690846117ce565b505050565b600b546001600160a01b0316156116b957600b54604051630615339760e51b81526001600160a01b039091169063c2a672e0906116869085908590600401611d67565b600060405180830381600087803b1580156116a057600080fd5b505af11580156116b4573d6000803e3d6000fd5b505050505b600c546001600160a01b03161561122757600c54604051630615339760e51b81526001600160a01b039091169063c2a672e0906113fa9085908590600401611d67565b61163e8363a9059cbb60e01b8484604051602401611115929190611d67565b33321461173a5760405162461bcd60e51b815260040161042f90611e3b565b61092e565b6000611794826040518060400160405280602081526020017f5361666545524332303a206c6f772d6c6576656c2063616c6c206661696c6564815250856001600160a01b03166119439092919063ffffffff16565b80519091501561163e57808060200190518101906117b29190611c88565b61163e5760405162461bcd60e51b815260040161042f9061231b565b816001600160a01b0316836001600160a01b0316141580156117f05750600081115b1561163e576001600160a01b0383161561189e576001600160a01b038316600090815260086020526040812054908161182a57600061187e565b6001600160a01b038516600090815260076020526040902061184d6001846124bd565b8154811061186b57634e487b7160e01b600052603260045260246000fd5b9060005260206000209060020201600101545b9050600061188c82856110d0565b905061189a8684848461195a565b5050505b6001600160a01b0382161561163e576001600160a01b03821660009081526008602052604081205490816118d3576000611927565b6001600160a01b03841660009081526007602052604090206118f66001846124bd565b8154811061191457634e487b7160e01b600052603260045260246000fd5b9060005260206000209060020201600101545b9050600061193582856110c4565b90506114288584848461195a565b60606119528484600085611adc565b949350505050565b4383158015906119bc57506001600160a01b0385166000908152600760205260409020819061198a6001876124bd565b815481106119a857634e487b7160e01b600052603260045260246000fd5b906000526020600020906002020160000154145b15611a1e576001600160a01b038516600090815260076020526040902082906119e66001876124bd565b81548110611a0457634e487b7160e01b600052603260045260246000fd5b906000526020600020906002020160010181905550611a92565b6001600160a01b038516600090815260076020908152604080832081518083019092528482528183018681528154600181810184559286529390942091516002909302909101918255915190820155611a78908590612466565b6001600160a01b0386166000908152600860205260409020555b846001600160a01b03167fdec2bacdd2f05b59de34da9b523dff8be42e5e38e818c82fdb0bae774387a7248484604051611acd929190612434565b60405180910390a25050505050565b606082471015611afe5760405162461bcd60e51b815260040161042f90611f0c565b611b0785611b9c565b611b235760405162461bcd60e51b815260040161042f906122e4565b600080866001600160a01b03168587604051611b3f9190611cf9565b60006040518083038185875af1925050503d8060008114611b7c576040519150601f19603f3d011682016040523d82523d6000602084013e611b81565b606091505b5091509150611b91828286611ba2565b979650505050505050565b3b151590565b60608315611bb1575081610d95565b825115611bc15782518084602001fd5b8160405162461bcd60e51b815260040161042f9190611d80565b60405180606001604052806000815260200160008152602001600081525090565b80356001600160a01b03811681146108e057600080fd5b600060208284031215611c24578081fd5b610d9582611bfc565b60008060408385031215611c3f578081fd5b611c4883611bfc565b9150611c5660208401611bfc565b90509250929050565b60008060408385031215611c71578182fd5b611c7a83611bfc565b946020939093013593505050565b600060208284031215611c99578081fd5b81518015158114610d95578182fd5b600060208284031215611cb9578081fd5b5035919050565b600060208284031215611cd1578081fd5b5051919050565b60008060408385031215611cea578182fd5b50508035926020909101359150565b60008251611d0b8184602087016124d4565b9190910192915050565b6001600160a01b0391909116815260200190565b6001600160a01b0392831681529116602082015260400190565b6001600160a01b039384168152919092166020820152604081019190915260600190565b6001600160a01b03929092168252602082015260400190565b6000602082528251806020840152611d9f8160408501602087016124d4565b601f01601f19169190910160400192915050565b60208082526022908201527f45524332303a206275726e20616d6f756e7420657863656564732062616c616e604082015261636560f01b606082015260800190565b60208082526026908201527f57544620566f74696e6720457363726f773a204c6f636b20616c72656164792060408201526565786973747360d01b606082015260800190565b60208082526025908201527f536d61727420636f6e7472616374206465706f7369746f7273206e6f7420616c6040820152641b1bddd95960da1b606082015260800190565b60208082526026908201527f4f776e61626c653a206e6577206f776e657220697320746865207a65726f206160408201526564647265737360d01b606082015260800190565b60208082526026908201527f57544620566f74696e6720457363726f773a204c6f636b20646f6573206e6f7460408201526508195e1a5cdd60d21b606082015260800190565b60208082526026908201527f416464726573733a20696e73756666696369656e742062616c616e636520666f6040820152651c8818d85b1b60d21b606082015260800190565b60208082526028908201527f57544620566f74696e6720457363726f773a2056655754462062616c616e6365604082015267206973207a65726f60c01b606082015260800190565b6020808252602c908201527f57544620566f74696e6720457363726f773a20416d6f756e742073686f756c6460408201526b20626520706f73697469766560a01b606082015260800190565b60208082526026908201527f57544620566f74696e6720457363726f773a204c6f636b20616d6f756e74206960408201526573207a65726f60d01b606082015260800190565b60208082526030908201527f57544620566f74696e6720457363726f773a204d6178696d756d206c6f636b2060408201526f74696d6520697320333635206461797360801b606082015260800190565b60208082526022908201527f57544620566f74696e6720457363726f773a204c6f636b206973206578706972604082015261195960f21b606082015260800190565b6020808252602f908201527f57544620566f74696e6720457363726f773a204d696e696d756d206c6f636b2060408201526e74696d65206973203330206461797360881b606082015260800190565b60208082526035908201527f57544620566f74696e6720457363726f773a2043616e6e6f7420756e6c6f636b60408201527420746f6b656e73206265666f72652065787069727960581b606082015260800190565b60208082526042908201527f57544620566f74696e6720457363726f773a204e6577206c6f636b206475726160408201527f74696f6e2069732067726561746572207468616e204d41585f4c4f434b5f54496060820152614d4560f01b608082015260a00190565b6020808252603f908201527f57544620566f74696e6720457363726f773a20457874656e646564206475726160408201527f74696f6e206973206c657373207468616e204d494e5f4c4f434b5f54494d4500606082015260800190565b6020808252818101527f4f776e61626c653a2063616c6c6572206973206e6f7420746865206f776e6572604082015260600190565b60208082526021908201527f45524332303a206275726e2066726f6d20746865207a65726f206164647265736040820152607360f81b606082015260800190565b60208082526027908201527f57544620566f74696e6720457363726f773a207374616b696e67207a65726f206040820152666164647265737360c81b606082015260800190565b6020808252601d908201527f416464726573733a2063616c6c20746f206e6f6e2d636f6e7472616374000000604082015260600190565b6020808252602a908201527f5361666545524332303a204552433230206f7065726174696f6e20646964206e6040820152691bdd081cdd58d8d9595960b21b606082015260800190565b6020808252601f908201527f5265656e7472616e637947756172643a207265656e7472616e742063616c6c00604082015260600190565b60208082526019908201527f56655754463a206e6f74207965742064657465726d696e656400000000000000604082015260600190565b6020808252601f908201527f45524332303a206d696e7420746f20746865207a65726f206164647265737300604082015260600190565b81518152602080830151908201526040918201519181019190915260600190565b90815260200190565b918252602082015260400190565b9283526020830191909152604082015260600190565b60ff91909116815260200190565b600082198211156124795761247961253b565b500190565b60008261249957634e487b7160e01b81526012600452602481fd5b500490565b60008160001904831182151516156124b8576124b861253b565b500290565b6000828210156124cf576124cf61253b565b500390565b60005b838110156124ef5781810151838201526020016124d7565b8381111561114c5750506000910152565b60028104600182168061251457607f821691505b6020821081141561253557634e487b7160e01b600052602260045260246000fd5b50919050565b634e487b7160e01b600052601160045260246000fdfea2646970667358221220a4e5829aedfe6e9c33006a1c4187843664f8b4f7425bc30eb9e3d62ddb9691ec64736f6c63430008000033",
  "linkReferences": {},
  "deployedLinkReferences": {}
}