{
  "_format": "hh-sol-artifact-1",
  "contractName": "WTF",
  "sourceName": "contracts/main/WTF.sol",
  "abi": [
    {
      "inputs": [
        {
          "internalType": "string",
          "name": "name_",
          "type": "string"
        },
        {
          "internalType": "string",
          "name": "symbol_",
          "type": "string"
        },
        {
          "internalType": "address",
          "name": "faucet",
          "type": "address"
        },
        {
          "internalType": "uint256",
          "name": "cap_",
          "type": "uint256"
        }
      ],
      "stateMutability": "nonpayable",
      "type": "constructor"
    },
    {
      "anonymous": false,
      "inputs": [
        {
          "indexed": true,
          "internalType": "address",
          "name": "owner",
          "type": "address"
        },
        {
          "indexed": true,
          "internalType": "address",
          "name": "spender",
          "type": "address"
        },
        {
          "indexed": false,
          "internalType": "uint256",
          "name": "value",
          "type": "uint256"
        }
      ],
      "name": "Approval",
      "type": "event"
    },
    {
      "anonymous": false,
      "inputs": [
        {
          "indexed": true,
          "internalType": "address",
          "name": "from",
          "type": "address"
        },
        {
          "indexed": true,
          "internalType": "address",
          "name": "to",
          "type": "address"
        },
        {
          "indexed": false,
          "internalType": "uint256",
          "name": "value",
          "type": "uint256"
        }
      ],
      "name": "Transfer",
      "type": "event"
    },
    {
      "inputs": [
        {
          "internalType": "address",
          "name": "owner",
          "type": "address"
        },
        {
          "internalType": "address",
          "name": "spender",
          "type": "address"
        }
      ],
      "name": "allowance",
      "outputs": [
        {
          "internalType": "uint256",
          "name": "",
          "type": "uint256"
        }
      ],
      "stateMutability": "view",
      "type": "function"
    },
    {
      "inputs": [
        {
          "internalType": "address",
          "name": "spender",
          "type": "address"
        },
        {
          "internalType": "uint256",
          "name": "amount",
          "type": "uint256"
        }
      ],
      "name": "approve",
      "outputs": [
        {
          "internalType": "bool",
          "name": "",
          "type": "bool"
        }
      ],
      "stateMutability": "nonpayable",
      "type": "function"
    },
    {
      "inputs": [
        {
          "internalType": "address",
          "name": "account",
          "type": "address"
        }
      ],
      "name": "balanceOf",
      "outputs": [
        {
          "internalType": "uint256",
          "name": "",
          "type": "uint256"
        }
      ],
      "stateMutability": "view",
      "type": "function"
    },
    {
      "inputs": [],
      "name": "cap",
      "outputs": [
        {
          "internalType": "uint256",
          "name": "",
          "type": "uint256"
        }
      ],
      "stateMutability": "view",
      "type": "function"
    },
    {
      "inputs": [],
      "name": "decimals",
      "outputs": [
        {
          "internalType": "uint8",
          "name": "",
          "type": "uint8"
        }
      ],
      "stateMutability": "view",
      "type": "function"
    },
    {
      "inputs": [
        {
          "internalType": "address",
          "name": "spender",
          "type": "address"
        },
        {
          "internalType": "uint256",
          "name": "subtractedValue",
          "type": "uint256"
        }
      ],
      "name": "decreaseAllowance",
      "outputs": [
        {
          "internalType": "bool",
          "name": "",
          "type": "bool"
        }
      ],
      "stateMutability": "nonpayable",
      "type": "function"
    },
    {
      "inputs": [
        {
          "internalType": "address",
          "name": "spender",
          "type": "address"
        },
        {
          "internalType": "uint256",
          "name": "addedValue",
          "type": "uint256"
        }
      ],
      "name": "increaseAllowance",
      "outputs": [
        {
          "internalType": "bool",
          "name": "",
          "type": "bool"
        }
      ],
      "stateMutability": "nonpayable",
      "type": "function"
    },
    {
      "inputs": [],
      "name": "name",
      "outputs": [
        {
          "internalType": "string",
          "name": "",
          "type": "string"
        }
      ],
      "stateMutability": "view",
      "type": "function"
    },
    {
      "inputs": [],
      "name": "symbol",
      "outputs": [
        {
          "internalType": "string",
          "name": "",
          "type": "string"
        }
      ],
      "stateMutability": "view",
      "type": "function"
    },
    {
      "inputs": [],
      "name": "totalSupply",
      "outputs": [
        {
          "internalType": "uint256",
          "name": "",
          "type": "uint256"
        }
      ],
      "stateMutability": "view",
      "type": "function"
    },
    {
      "inputs": [
        {
          "internalType": "address",
          "name": "recipient",
          "type": "address"
        },
        {
          "internalType": "uint256",
          "name": "amount",
          "type": "uint256"
        }
      ],
      "name": "transfer",
      "outputs": [
        {
          "internalType": "bool",
          "name": "",
          "type": "bool"
        }
      ],
      "stateMutability": "nonpayable",
      "type": "function"
    },
    {
      "inputs": [
        {
          "internalType": "address",
          "name": "sender",
          "type": "address"
        },
        {
          "internalType": "address",
          "name": "recipient",
          "type": "address"
        },
        {
          "internalType": "uint256",
          "name": "amount",
          "type": "uint256"
        }
      ],
      "name": "transferFrom",
      "outputs": [
        {
          "internalType": "bool",
          "name": "",
          "type": "bool"
        }
      ],
      "stateMutability": "nonpayable",
      "type": "function"
    }
  ],
  "bytecode": "0x60806040523480156200001157600080fd5b50604051620011f1380380620011f1833981810160405260808110156200003757600080fd5b81019080805160405193929190846401000000008211156200005857600080fd5b9083019060208201858111156200006e57600080fd5b82516401000000008111828201881017156200008957600080fd5b82525081516020918201929091019080838360005b83811015620000b85781810151838201526020016200009e565b50505050905090810190601f168015620000e65780820380516001836020036101000a031916815260200191505b50604052602001805160405193929190846401000000008211156200010a57600080fd5b9083019060208201858111156200012057600080fd5b82516401000000008111828201881017156200013b57600080fd5b82525081516020918201929091019080838360005b838110156200016a57818101518382015260200162000150565b50505050905090810190601f168015620001985780820380516001836020036101000a031916815260200191505b506040908152602082810151929091015186519294509250829186918691620001c8916003919085019062000484565b508051620001de90600490602084019062000484565b50506005805460ff19166012179055508062000241576040805162461bcd60e51b815260206004820152601560248201527f45524332304361707065643a2063617020697320300000000000000000000000604482015290519081900360640190fd5b6006556200025082826200025a565b5050505062000520565b6001600160a01b038216620002b6576040805162461bcd60e51b815260206004820152601f60248201527f45524332303a206d696e7420746f20746865207a65726f206164647265737300604482015290519081900360640190fd5b620002c46000838362000369565b620002e0816002546200041660201b620006911790919060201c565b6002556001600160a01b03821660009081526020818152604090912054620003139183906200069162000416821b17901c565b6001600160a01b0383166000818152602081815260408083209490945583518581529351929391927fddf252ad1be2c89b69c2b068fc378daa952ba7f163c4a11628f55a4df523b3ef9281900390910190a35050565b620003818383836200041160201b6200070c1760201c565b6001600160a01b03831662000411576200039a62000478565b620003bd82620003a96200047e565b6200041660201b620006911790919060201c565b111562000411576040805162461bcd60e51b815260206004820152601960248201527f45524332304361707065643a2063617020657863656564656400000000000000604482015290519081900360640190fd5b505050565b60008282018381101562000471576040805162461bcd60e51b815260206004820152601b60248201527f536166654d6174683a206164646974696f6e206f766572666c6f770000000000604482015290519081900360640190fd5b9392505050565b60065490565b60025490565b828054600181600116156101000203166002900490600052602060002090601f016020900481019282601f10620004c757805160ff1916838001178555620004f7565b82800160010185558215620004f7579182015b82811115620004f7578251825591602001919060010190620004da565b506200050592915062000509565b5090565b5b808211156200050557600081556001016200050a565b610cc180620005306000396000f3fe608060405234801561001057600080fd5b50600436106100d45760003560e01c80633950935111610081578063a457c2d71161005b578063a457c2d71461029a578063a9059cbb146102d3578063dd62ed3e1461030c576100d4565b8063395093511461022657806370a082311461025f57806395d89b4114610292576100d4565b806323b872dd116100b257806323b872dd146101bd578063313ce56714610200578063355274ea1461021e576100d4565b806306fdde03146100d9578063095ea7b31461015657806318160ddd146101a3575b600080fd5b6100e1610347565b6040805160208082528351818301528351919283929083019185019080838360005b8381101561011b578181015183820152602001610103565b50505050905090810190601f1680156101485780820380516001836020036101000a031916815260200191505b509250505060405180910390f35b61018f6004803603604081101561016c57600080fd5b5073ffffffffffffffffffffffffffffffffffffffff81351690602001356103fb565b604080519115158252519081900360200190f35b6101ab610418565b60408051918252519081900360200190f35b61018f600480360360608110156101d357600080fd5b5073ffffffffffffffffffffffffffffffffffffffff81358116916020810135909116906040013561041e565b6102086104bf565b6040805160ff9092168252519081900360200190f35b6101ab6104c8565b61018f6004803603604081101561023c57600080fd5b5073ffffffffffffffffffffffffffffffffffffffff81351690602001356104ce565b6101ab6004803603602081101561027557600080fd5b503573ffffffffffffffffffffffffffffffffffffffff16610529565b6100e1610551565b61018f600480360360408110156102b057600080fd5b5073ffffffffffffffffffffffffffffffffffffffff81351690602001356105d0565b61018f600480360360408110156102e957600080fd5b5073ffffffffffffffffffffffffffffffffffffffff8135169060200135610645565b6101ab6004803603604081101561032257600080fd5b5073ffffffffffffffffffffffffffffffffffffffff81358116916020013516610659565b60038054604080516020601f60027fffffffffffffffffffffffffffffffffffffffffffffffffffffffffffffffff6101006001881615020190951694909404938401819004810282018101909252828152606093909290918301828280156103f15780601f106103c6576101008083540402835291602001916103f1565b820191906000526020600020905b8154815290600101906020018083116103d457829003601f168201915b5050505050905090565b600061040f610408610711565b8484610715565b50600192915050565b60025490565b600061042b84848461085c565b6104b584610437610711565b6104b085604051806060016040528060288152602001610bf66028913973ffffffffffffffffffffffffffffffffffffffff8a16600090815260016020526040812090610482610711565b73ffffffffffffffffffffffffffffffffffffffff1681526020810191909152604001600020549190610a2c565b610715565b5060019392505050565b60055460ff1690565b60065490565b600061040f6104db610711565b846104b085600160006104ec610711565b73ffffffffffffffffffffffffffffffffffffffff908116825260208083019390935260409182016000908120918c168152925290205490610691565b73ffffffffffffffffffffffffffffffffffffffff1660009081526020819052604090205490565b60048054604080516020601f60027fffffffffffffffffffffffffffffffffffffffffffffffffffffffffffffffff6101006001881615020190951694909404938401819004810282018101909252828152606093909290918301828280156103f15780601f106103c6576101008083540402835291602001916103f1565b600061040f6105dd610711565b846104b085604051806060016040528060258152602001610c676025913960016000610607610711565b73ffffffffffffffffffffffffffffffffffffffff908116825260208083019390935260409182016000908120918d16815292529020549190610a2c565b600061040f610652610711565b848461085c565b73ffffffffffffffffffffffffffffffffffffffff918216600090815260016020908152604080832093909416825291909152205490565b60008282018381101561070557604080517f08c379a000000000000000000000000000000000000000000000000000000000815260206004820152601b60248201527f536166654d6174683a206164646974696f6e206f766572666c6f770000000000604482015290519081900360640190fd5b9392505050565b505050565b3390565b73ffffffffffffffffffffffffffffffffffffffff8316610781576040517f08c379a0000000000000000000000000000000000000000000000000000000008152600401808060200182810382526024815260200180610c436024913960400191505060405180910390fd5b73ffffffffffffffffffffffffffffffffffffffff82166107ed576040517f08c379a0000000000000000000000000000000000000000000000000000000008152600401808060200182810382526022815260200180610bae6022913960400191505060405180910390fd5b73ffffffffffffffffffffffffffffffffffffffff808416600081815260016020908152604080832094871680845294825291829020859055815185815291517f8c5be1e5ebec7d5bd14f71427d1e84f3dd0314c0f7b2291e5b200ac8c7c3b9259281900390910190a3505050565b73ffffffffffffffffffffffffffffffffffffffff83166108c8576040517f08c379a0000000000000000000000000000000000000000000000000000000008152600401808060200182810382526025815260200180610c1e6025913960400191505060405180910390fd5b73ffffffffffffffffffffffffffffffffffffffff8216610934576040517f08c379a0000000000000000000000000000000000000000000000000000000008152600401808060200182810382526023815260200180610b8b6023913960400191505060405180910390fd5b61093f838383610add565b61098981604051806060016040528060268152602001610bd06026913973ffffffffffffffffffffffffffffffffffffffff86166000908152602081905260409020549190610a2c565b73ffffffffffffffffffffffffffffffffffffffff80851660009081526020819052604080822093909355908416815220546109c59082610691565b73ffffffffffffffffffffffffffffffffffffffff8084166000818152602081815260409182902094909455805185815290519193928716927fddf252ad1be2c89b69c2b068fc378daa952ba7f163c4a11628f55a4df523b3ef92918290030190a3505050565b60008184841115610ad5576040517f08c379a00000000000000000000000000000000000000000000000000000000081526004018080602001828103825283818151815260200191508051906020019080838360005b83811015610a9a578181015183820152602001610a82565b50505050905090810190601f168015610ac75780820380516001836020036101000a031916815260200191505b509250505060405180910390fd5b505050900390565b610ae883838361070c565b73ffffffffffffffffffffffffffffffffffffffff831661070c57610b0b6104c8565b610b1d82610b17610418565b90610691565b111561070c57604080517f08c379a000000000000000000000000000000000000000000000000000000000815260206004820152601960248201527f45524332304361707065643a2063617020657863656564656400000000000000604482015290519081900360640190fdfe45524332303a207472616e7366657220746f20746865207a65726f206164647265737345524332303a20617070726f766520746f20746865207a65726f206164647265737345524332303a207472616e7366657220616d6f756e7420657863656564732062616c616e636545524332303a207472616e7366657220616d6f756e74206578636565647320616c6c6f77616e636545524332303a207472616e736665722066726f6d20746865207a65726f206164647265737345524332303a20617070726f76652066726f6d20746865207a65726f206164647265737345524332303a2064656372656173656420616c6c6f77616e63652062656c6f77207a65726fa2646970667358221220919f7ceda65966a40da33798d3728afc7d666c93c85718cb25defd9afa5af15664736f6c634300060c0033",
  "linkReferences": {},
  "deployedLinkReferences": {}
}