{
  "_format": "hh-sol-artifact-1",
  "contractName": "WTFLPRewards",
  "sourceName": "contracts/LPStaking.sol",
  "abi": [
    {
      "inputs": [
        {
          "internalType": "address",
          "name": "_wtf",
          "type": "address"
        },
        {
          "internalType": "address",
          "name": "_lpToken",
          "type": "address"
        },
        {
          "internalType": "address",
          "name": "_communityFund",
          "type": "address"
        },
        {
          "internalType": "uint256",
          "name": "_rewardPerBlock",
          "type": "uint256"
        },
        {
          "internalType": "uint256",
          "name": "_startRewardBlock",
          "type": "uint256"
        },
        {
          "internalType": "uint256",
          "name": "_endRewardBlock",
          "type": "uint256"
        }
      ],
      "stateMutability": "nonpayable",
      "type": "constructor"
    },
    {
      "anonymous": false,
      "inputs": [
        {
          "indexed": true,
          "internalType": "address",
          "name": "tokenRecovered",
          "type": "address"
        },
        {
          "indexed": false,
          "internalType": "uint256",
          "name": "amount",
          "type": "uint256"
        }
      ],
      "name": "AdminTokenRecovery",
      "type": "event"
    },
    {
      "anonymous": false,
      "inputs": [
        {
          "indexed": true,
          "internalType": "address",
          "name": "user",
          "type": "address"
        },
        {
          "indexed": false,
          "internalType": "uint256",
          "name": "amount",
          "type": "uint256"
        }
      ],
      "name": "Claim",
      "type": "event"
    },
    {
      "anonymous": false,
      "inputs": [
        {
          "indexed": false,
          "internalType": "uint256",
          "name": "rewardPerBlock",
          "type": "uint256"
        }
      ],
      "name": "NewRewardPerBlock",
      "type": "event"
    },
    {
      "anonymous": false,
      "inputs": [
        {
          "indexed": false,
          "internalType": "uint256",
          "name": "startRewardBlock",
          "type": "uint256"
        },
        {
          "indexed": false,
          "internalType": "uint256",
          "name": "endRewardBlock",
          "type": "uint256"
        }
      ],
      "name": "NewStartAndEndBlock",
      "type": "event"
    },
    {
      "anonymous": false,
      "inputs": [
        {
          "indexed": true,
          "internalType": "address",
          "name": "previousOwner",
          "type": "address"
        },
        {
          "indexed": true,
          "internalType": "address",
          "name": "newOwner",
          "type": "address"
        }
      ],
      "name": "OwnershipTransferred",
      "type": "event"
    },
    {
      "anonymous": false,
      "inputs": [
        {
          "indexed": true,
          "internalType": "address",
          "name": "user",
          "type": "address"
        },
        {
          "indexed": false,
          "internalType": "uint256",
          "name": "amount",
          "type": "uint256"
        }
      ],
      "name": "Stake",
      "type": "event"
    },
    {
      "anonymous": false,
      "inputs": [
        {
          "indexed": true,
          "internalType": "address",
          "name": "user",
          "type": "address"
        },
        {
          "indexed": false,
          "internalType": "uint256",
          "name": "amount",
          "type": "uint256"
        }
      ],
      "name": "Unstake",
      "type": "event"
    },
    {
      "inputs": [],
      "name": "PRECISION",
      "outputs": [
        {
          "internalType": "uint256",
          "name": "",
          "type": "uint256"
        }
      ],
      "stateMutability": "view",
      "type": "function"
    },
    {
      "inputs": [],
      "name": "claimRewards",
      "outputs": [],
      "stateMutability": "nonpayable",
      "type": "function"
    },
    {
      "inputs": [],
      "name": "communityFund",
      "outputs": [
        {
          "internalType": "address",
          "name": "",
          "type": "address"
        }
      ],
      "stateMutability": "view",
      "type": "function"
    },
    {
      "inputs": [
        {
          "internalType": "address",
          "name": "account",
          "type": "address"
        }
      ],
      "name": "getAccountData",
      "outputs": [
        {
          "components": [
            {
              "internalType": "uint256",
              "name": "amount",
              "type": "uint256"
            },
            {
              "internalType": "uint256",
              "name": "rewardDebt",
              "type": "uint256"
            }
          ],
          "internalType": "struct WTFLPRewards.User",
          "name": "user",
          "type": "tuple"
        }
      ],
      "stateMutability": "view",
      "type": "function"
    },
    {
      "inputs": [
        {
          "internalType": "address",
          "name": "account",
          "type": "address"
        }
      ],
      "name": "getRewardDebt",
      "outputs": [
        {
          "internalType": "uint256",
          "name": "",
          "type": "uint256"
        }
      ],
      "stateMutability": "view",
      "type": "function"
    },
    {
      "inputs": [],
      "name": "isPoolActive",
      "outputs": [
        {
          "internalType": "bool",
          "name": "",
          "type": "bool"
        }
      ],
      "stateMutability": "view",
      "type": "function"
    },
    {
      "inputs": [],
      "name": "lastRewardBlock",
      "outputs": [
        {
          "internalType": "uint256",
          "name": "",
          "type": "uint256"
        }
      ],
      "stateMutability": "view",
      "type": "function"
    },
    {
      "inputs": [],
      "name": "lpToken",
      "outputs": [
        {
          "internalType": "contract IERC20",
          "name": "",
          "type": "address"
        }
      ],
      "stateMutability": "view",
      "type": "function"
    },
    {
      "inputs": [],
      "name": "owner",
      "outputs": [
        {
          "internalType": "address",
          "name": "",
          "type": "address"
        }
      ],
      "stateMutability": "view",
      "type": "function"
    },
    {
      "inputs": [
        {
          "internalType": "address",
          "name": "_user",
          "type": "address"
        }
      ],
      "name": "pendingReward",
      "outputs": [
        {
          "internalType": "uint256",
          "name": "reward",
          "type": "uint256"
        }
      ],
      "stateMutability": "view",
      "type": "function"
    },
    {
      "inputs": [],
      "name": "pool",
      "outputs": [
        {
          "internalType": "uint256",
          "name": "accRewardPerShare",
          "type": "uint256"
        },
        {
          "internalType": "uint256",
          "name": "startRewardBlock",
          "type": "uint256"
        },
        {
          "internalType": "uint256",
          "name": "endRewardBlock",
          "type": "uint256"
        },
        {
          "internalType": "uint256",
          "name": "lastRewardBlock",
          "type": "uint256"
        },
        {
          "internalType": "uint256",
          "name": "rewardPerBlock",
          "type": "uint256"
        }
      ],
      "stateMutability": "view",
      "type": "function"
    },
    {
      "inputs": [
        {
          "internalType": "address",
          "name": "_tokenAddress",
          "type": "address"
        },
        {
          "internalType": "uint256",
          "name": "_tokenAmount",
          "type": "uint256"
        }
      ],
      "name": "recoverWrongTokens",
      "outputs": [],
      "stateMutability": "nonpayable",
      "type": "function"
    },
    {
      "inputs": [],
      "name": "renounceOwnership",
      "outputs": [],
      "stateMutability": "nonpayable",
      "type": "function"
    },
    {
      "inputs": [],
      "name": "rewardPerShare",
      "outputs": [
        {
          "internalType": "uint256",
          "name": "",
          "type": "uint256"
        }
      ],
      "stateMutability": "view",
      "type": "function"
    },
    {
      "inputs": [
        {
          "internalType": "uint256",
          "name": "_amount",
          "type": "uint256"
        }
      ],
      "name": "stake",
      "outputs": [],
      "stateMutability": "nonpayable",
      "type": "function"
    },
    {
      "inputs": [],
      "name": "stopReward",
      "outputs": [],
      "stateMutability": "nonpayable",
      "type": "function"
    },
    {
      "inputs": [
        {
          "internalType": "address",
          "name": "newOwner",
          "type": "address"
        }
      ],
      "name": "transferOwnership",
      "outputs": [],
      "stateMutability": "nonpayable",
      "type": "function"
    },
    {
      "inputs": [
        {
          "internalType": "uint256",
          "name": "_amount",
          "type": "uint256"
        }
      ],
      "name": "unstake",
      "outputs": [],
      "stateMutability": "nonpayable",
      "type": "function"
    },
    {
      "inputs": [
        {
          "internalType": "uint256",
          "name": "_startRewardBlock",
          "type": "uint256"
        },
        {
          "internalType": "uint256",
          "name": "_endRewardBlock",
          "type": "uint256"
        }
      ],
      "name": "updateStartAndEndBlocks",
      "outputs": [],
      "stateMutability": "nonpayable",
      "type": "function"
    },
    {
      "inputs": [
        {
          "internalType": "uint256",
          "name": "_rewardPerBlock",
          "type": "uint256"
        }
      ],
      "name": "updaterewardPerBlock",
      "outputs": [],
      "stateMutability": "nonpayable",
      "type": "function"
    },
    {
      "inputs": [
        {
          "internalType": "address",
          "name": "",
          "type": "address"
        }
      ],
      "name": "users",
      "outputs": [
        {
          "internalType": "uint256",
          "name": "amount",
          "type": "uint256"
        },
        {
          "internalType": "uint256",
          "name": "rewardDebt",
          "type": "uint256"
        }
      ],
      "stateMutability": "view",
      "type": "function"
    },
    {
      "inputs": [],
      "name": "wtf",
      "outputs": [
        {
          "internalType": "contract IERC20",
          "name": "",
          "type": "address"
        }
      ],
      "stateMutability": "view",
      "type": "function"
    }
  ],
  "bytecode": "0x60806040523480156200001157600080fd5b5060405162001b2538038062001b258339810160408190526200003491620001ba565b620000486200004262000149565b6200014d565b6001805543821015620000785760405162461bcd60e51b81526004016200006f90620002c4565b60405180910390fd5b8181116200009a5760405162461bcd60e51b81526004016200006f906200021f565b6001600160a01b03861615801590620000bb57506001600160a01b03851615155b8015620000d057506001600160a01b03841615155b620000ef5760405162461bcd60e51b81526004016200006f906200028d565b600280546001600160a01b039788166001600160a01b031991821617909155600380549688169682169690961790955560048054949096169390941692909217909355600992909255600682905560075560085562000321565b3390565b600080546001600160a01b038381166001600160a01b0319831681178455604051919092169283917f8be0079c531659141344cd1fd0a4f28419497f9722a3daafe3b4186f6b6457e09190a35050565b80516001600160a01b0381168114620001b557600080fd5b919050565b60008060008060008060c08789031215620001d3578182fd5b620001de876200019d565b9550620001ee602088016200019d565b9450620001fe604088016200019d565b9350606087015192506080870151915060a087015190509295509295509295565b60208082526048908201527f575446204c50205374616b696e673a20656e64207265776172642074696d652060408201527f73686f756c642062652067726561746572207468616e207374617274207265776060820152676172642074696d6560c01b608082015260a00190565b6020808252601c908201527f57544c204c50207374616b696e673a207a65726f206164647265737300000000604082015260600190565b60208082526034908201527f575446204c50205374616b696e673a207265776172642073746172742073686f60408201527f756c6420626520696e2074686520667574757265000000000000000000000000606082015260800190565b6117f480620003316000396000f3fe608060405234801561001057600080fd5b50600436106101415760003560e01c8063715018a6116100b8578063a87430ba1161007c578063a87430ba14610256578063a9f8d18114610277578063aaf5eb681461027f578063df868ed314610287578063f2fde38b1461029c578063f40f0f52146102af57610141565b8063715018a61461021857806380dc0672146102205780638da5cb5b146102285780639513997f14610230578063a694fc3a1461024357610141565b8063372500ab1161010a578063372500ab146101ba5780633f138d4b146101c2578063446a2ec8146101d557806354f274cc146101dd5780635d78650e146101f05780635fcbd2851461021057610141565b8062f380f41461014657806316f0115b146101645780631d47c6d91461017d5780632e17de781461019d57806336b62288146101b2575b600080fd5b61014e6102c2565b60405161015b9190611179565b60405180910390f35b61016c6102d1565b60405161015b9594939291906116eb565b61019061018b3660046110a9565b6102e3565b60405161015b91906116d4565b6101b06101ab36600461110c565b610305565b005b61014e61047a565b6101b0610489565b6101b06101d03660046110c3565b6105a4565b610190610698565b6101b06101eb36600461110c565b61069e565b6102036101fe3660046110a9565b610725565b60405161015b91906116bd565b61014e610760565b6101b061076f565b6101b06107ba565b61014e6107ff565b6101b061023e36600461113c565b61080e565b6101b061025136600461110c565b6108f9565b6102696102643660046110a9565b610a55565b60405161015b9291906116dd565b610190610a6e565b610190610a74565b61028f610a80565b60405161015b91906111ca565b6101b06102aa3660046110a9565b610a89565b6101906102bd3660046110a9565b610afa565b6004546001600160a01b031681565b60055460065460075460085460095485565b6001600160a01b0381166000908152600a60205260409020600101545b919050565b600260015414156103315760405162461bcd60e51b815260040161032890611686565b60405180910390fd5b6002600155336000908152600a6020526040902080548211156103665760405162461bcd60e51b8152600401610328906113f2565b600082116103865760405162461bcd60e51b81526004016103289061143f565b61038e610c77565b60006103cc82600101546103c6670de0b6b3a76400006103c08660000154600560000154610d6590919063ffffffff16565b90610d7a565b90610d86565b905080156103f2576004546002546103f2916001600160a01b0391821691163384610d92565b600354610409906001600160a01b03163385610df0565b81546104159084610d86565b80835560055461043291670de0b6b3a7640000916103c091610d65565b600183015560405133907f85082129d87b2fe11527cb1b3b7a520aeb5aa6913f88a3d8757fe40d1db02fdd906104699086906116d4565b60405180910390a250506001805550565b6002546001600160a01b031681565b600260015414156104ac5760405162461bcd60e51b815260040161032890611686565b6002600155336000908152600a602052604090206006544310156104e25760405162461bcd60e51b8152600401610328906115f1565b6104ea610c77565b805460009015610541576001820154825460055461051b92916103c691670de0b6b3a7640000916103c09190610d65565b9050801561054157600454600254610541916001600160a01b0391821691163384610d92565b815460055461055d91670de0b6b3a7640000916103c091610d65565b600183015560405133907f47cee97cb7acd717b3c0aa1435d004cd5b3c8c57d70dbceb4e4458bbd60e39d4906105949084906116d4565b60405180910390a2505060018055565b6105ac610e14565b6001600160a01b03166105bd6107ff565b6001600160a01b0316146105e35760405162461bcd60e51b815260040161032890611489565b6003546001600160a01b03838116911614156106115760405162461bcd60e51b815260040161032890611331565b6002546001600160a01b038381169116141561063f5760405162461bcd60e51b8152600401610328906112eb565b6106536001600160a01b0383163383610df0565b816001600160a01b03167f74545154aac348a3eac92596bd1971957ca94795f4e954ec5f613b55fab781298260405161068c91906116d4565b60405180910390a25050565b60055490565b6106a6610e14565b6001600160a01b03166106b76107ff565b6001600160a01b0316146106dd5760405162461bcd60e51b815260040161032890611489565b6106e5610c77565b60098190556040517f0c4d677eef92893ac7ec52faf8140fc6c851ab4736302b4f3a89dfb20696a0df9061071a9083906116d4565b60405180910390a150565b61072d611078565b506001600160a01b03166000908152600a6020908152604091829020825180840190935280548352600101549082015290565b6003546001600160a01b031681565b610777610e14565b6001600160a01b03166107886107ff565b6001600160a01b0316146107ae5760405162461bcd60e51b815260040161032890611489565b6107b86000610e18565b565b6107c2610e14565b6001600160a01b03166107d36107ff565b6001600160a01b0316146107f95760405162461bcd60e51b815260040161032890611489565b43600755565b6000546001600160a01b031690565b610816610e14565b6001600160a01b03166108276107ff565b6001600160a01b03161461084d5760405162461bcd60e51b815260040161032890611489565b600654431061086e5760405162461bcd60e51b815260040161032890611377565b80821061088d5760405162461bcd60e51b81526004016103289061155c565b8143106108ac5760405162461bcd60e51b8152600401610328906114f5565b6006829055600781905560088290556040517ff48259da4dc6da4ad30bc88177ced34181eaeff24096960a9977bc2f19436a51906108ed90849084906116dd565b60405180910390a15050565b6002600154141561091c5760405162461bcd60e51b815260040161032890611686565b6002600155610929610a80565b6109455760405162461bcd60e51b81526004016103289061125b565b600081116109655760405162461bcd60e51b8152600401610328906114be565b336000908152600a6020526040902061097c610c77565b8054156109dd5760006109b582600101546103c6670de0b6b3a76400006103c08660000154600560000154610d6590919063ffffffff16565b905080156109db576004546002546109db916001600160a01b0391821691163384610d92565b505b6003546109f5906001600160a01b0316333085610d92565b8054610a019083610e68565b808255600554610a1e91670de0b6b3a7640000916103c091610d65565b600182015560405133907febedb8b3c678666e7f36970bc8f57abf6d8fa2e828c0da91ea5b75bf68ed101a906105949085906116d4565b600a602052600090815260409020805460019091015482565b60085490565b670de0b6b3a764000081565b60075443111590565b610a91610e14565b6001600160a01b0316610aa26107ff565b6001600160a01b031614610ac85760405162461bcd60e51b815260040161032890611489565b6001600160a01b038116610aee5760405162461bcd60e51b8152600401610328906112a5565b610af781610e18565b50565b6001600160a01b038082166000908152600a6020908152604080832081518083018352815481526001909101549281019290925260035490516370a0823160e01b815292939192849291909116906370a0823190610b5c903090600401611179565b60206040518083038186803b158015610b7457600080fd5b505afa158015610b88573d6000803e3d6000fd5b505050506040513d601f19601f82011682018060405250810190610bac9190611124565b60085490915043118015610bbf57508015155b15610c46576000610bd560056003015443610e74565b600954909150600090610be9908390610d65565b90506000610c0f610c06856103c085670de0b6b3a7640000610d65565b60055490610e68565b9050610c3c85602001516103c6670de0b6b3a76400006103c0858a60000151610d6590919063ffffffff16565b9550505050610c70565b60208201516005548351610c6d92916103c691670de0b6b3a7640000916103c09190610d65565b92505b5050919050565b6003546040516370a0823160e01b81526000916001600160a01b0316906370a0823190610ca8903090600401611179565b60206040518083038186803b158015610cc057600080fd5b505afa158015610cd4573d6000803e3d6000fd5b505050506040513d601f19601f82011682018060405250810190610cf89190611124565b6008549091504311610d0a57506107b8565b80610d195750436008556107b8565b6000610d2a60056003015443610e74565b600954909150600090610d3e908390610d65565b9050610d59610c06846103c084670de0b6b3a7640000610d65565b60055550504360085550565b6000610d718284611746565b90505b92915050565b6000610d718284611726565b6000610d718284611765565b610dea846323b872dd60e01b858585604051602401610db39392919061118d565b60408051601f198184030181529190526020810180516001600160e01b03166001600160e01b031990931692909217909152610ed1565b50505050565b610e0f8363a9059cbb60e01b8484604051602401610db39291906111b1565b505050565b3390565b600080546001600160a01b038381166001600160a01b0319831681178455604051919092169283917f8be0079c531659141344cd1fd0a4f28419497f9722a3daafe3b4186f6b6457e09190a35050565b6000610d71828461170e565b600654600090831015610e995760405162461bcd60e51b815260040161032890611208565b6007548310610eaa57506000610d74565b6007548210610ec757600754610ec09084610d86565b9050610d74565b610ec08284610d86565b6000610f26826040518060400160405280602081526020017f5361666545524332303a206c6f772d6c6576656c2063616c6c206661696c6564815250856001600160a01b0316610f609092919063ffffffff16565b805190915015610e0f5780806020019051810190610f4491906110ec565b610e0f5760405162461bcd60e51b81526004016103289061163c565b6060610f6f8484600085610f79565b90505b9392505050565b606082471015610f9b5760405162461bcd60e51b8152600401610328906113ac565b610fa485611039565b610fc05760405162461bcd60e51b8152600401610328906115ba565b600080866001600160a01b03168587604051610fdc919061115d565b60006040518083038185875af1925050503d8060008114611019576040519150601f19603f3d011682016040523d82523d6000602084013e61101e565b606091505b509150915061102e82828661103f565b979650505050505050565b3b151590565b6060831561104e575081610f72565b82511561105e5782518084602001fd5b8160405162461bcd60e51b815260040161032891906111d5565b604051806040016040528060008152602001600081525090565b80356001600160a01b038116811461030057600080fd5b6000602082840312156110ba578081fd5b610d7182611092565b600080604083850312156110d5578081fd5b6110de83611092565b946020939093013593505050565b6000602082840312156110fd578081fd5b81518015158114610f72578182fd5b60006020828403121561111d578081fd5b5035919050565b600060208284031215611135578081fd5b5051919050565b6000806040838503121561114e578182fd5b50508035926020909101359150565b6000825161116f81846020870161177c565b9190910192915050565b6001600160a01b0391909116815260200190565b6001600160a01b039384168152919092166020820152604081019190915260600190565b6001600160a01b03929092168252602082015260400190565b901515815260200190565b60006020825282518060208401526111f481604085016020870161177c565b601f01601f19169190910160400192915050565b60208082526033908201527f575446204c50205374616b696e673a205f66726f6d2073686f756c64206265206040820152723e3d207374617274526577617264426c6f636b60681b606082015260800190565b6020808252602a908201527f575446204c50205374616b696e673a205265776172647320706f6f6c206973206040820152696e6f742061637469766560b01b606082015260800190565b60208082526026908201527f4f776e61626c653a206e6577206f776e657220697320746865207a65726f206160408201526564647265737360d01b606082015260800190565b60208082526026908201527f575446204c50205374616b696e673a2043616e6e6f7420626520726577617264604082015265103a37b5b2b760d11b606082015260800190565b60208082526026908201527f575446204c50205374616b696e673a2043616e6e6f74206265207374616b6564604082015265103a37b5b2b760d11b606082015260800190565b6020808252818101527f575446204c50205374616b696e673a20506f6f6c206861732073746172746564604082015260600190565b60208082526026908201527f416464726573733a20696e73756666696369656e742062616c616e636520666f6040820152651c8818d85b1b60d21b606082015260800190565b6020808252602d908201527f575446204c50205374616b696e673a204e6f7420656e6f75676820746f6b656e60408201526c7320746f20776974686472617760981b606082015260800190565b6020808252602a908201527f575446204c50205374616b696e673a2043616e6074207769746864726177207a604082015269195c9bc8185b5bdd5b9d60b21b606082015260800190565b6020808252818101527f4f776e61626c653a2063616c6c6572206973206e6f7420746865206f776e6572604082015260600190565b6020808252601e908201527f575446204c50205374616b696e673a20416d6f756e74206973207a65726f0000604082015260600190565b60208082526041908201527f575446204c50205374616b696e673a204e657720737461727420626c6f636b2060408201527f6d75737420626520686967686572207468616e2063757272656e7420626c6f636060820152606b60f81b608082015260a00190565b602080825260409082018190527f575446204c50205374616b696e673a204e657720737461727420626c6f636b20908201527f6d757374206265206c6f776572207468616e206e657720656e6420626c6f636b606082015260800190565b6020808252601d908201527f416464726573733a2063616c6c20746f206e6f6e2d636f6e7472616374000000604082015260600190565b6020808252602b908201527f575446204c50205374616b696e673a205374616b696e6720686173206e6f742060408201526a1cdd185c9d1959081e595d60aa1b606082015260800190565b6020808252602a908201527f5361666545524332303a204552433230206f7065726174696f6e20646964206e6040820152691bdd081cdd58d8d9595960b21b606082015260800190565b6020808252601f908201527f5265656e7472616e637947756172643a207265656e7472616e742063616c6c00604082015260600190565b815181526020918201519181019190915260400190565b90815260200190565b918252602082015260400190565b948552602085019390935260408401919091526060830152608082015260a00190565b60008219821115611721576117216117a8565b500190565b60008261174157634e487b7160e01b81526012600452602481fd5b500490565b6000816000190483118215151615611760576117606117a8565b500290565b600082821015611777576117776117a8565b500390565b60005b8381101561179757818101518382015260200161177f565b83811115610dea5750506000910152565b634e487b7160e01b600052601160045260246000fdfea26469706673582212205abdc5655ae82b7263cdbb4aae210ab261f38e96120a310c3ca3b4f2b5f7068164736f6c63430008000033",
  "linkReferences": {},
  "deployedLinkReferences": {}
}