{
  "_format": "hh-sol-artifact-1",
  "contractName": "WTFRewards",
  "sourceName": "contracts/WTFRewardsPool.sol",
  "abi": [
    {
      "inputs": [
        {
          "internalType": "address",
          "name": "_vewtf",
          "type": "address"
        },
        {
          "internalType": "address",
          "name": "_wtf",
          "type": "address"
        },
        {
          "internalType": "address",
          "name": "_communityFund",
          "type": "address"
        },
        {
          "internalType": "uint256",
          "name": "_rewardPerBlock",
          "type": "uint256"
        },
        {
          "internalType": "uint256",
          "name": "_startRewardBlock",
          "type": "uint256"
        },
        {
          "internalType": "uint256",
          "name": "_endRewardBlock",
          "type": "uint256"
        }
      ],
      "stateMutability": "nonpayable",
      "type": "constructor"
    },
    {
      "anonymous": false,
      "inputs": [
        {
          "indexed": true,
          "internalType": "address",
          "name": "tokenRecovered",
          "type": "address"
        },
        {
          "indexed": false,
          "internalType": "uint256",
          "name": "amount",
          "type": "uint256"
        }
      ],
      "name": "AdminTokenRecovery",
      "type": "event"
    },
    {
      "anonymous": false,
      "inputs": [
        {
          "indexed": true,
          "internalType": "address",
          "name": "user",
          "type": "address"
        },
        {
          "indexed": false,
          "internalType": "uint256",
          "name": "amount",
          "type": "uint256"
        }
      ],
      "name": "Claim",
      "type": "event"
    },
    {
      "anonymous": false,
      "inputs": [
        {
          "indexed": false,
          "internalType": "uint256",
          "name": "rewardPerBlock",
          "type": "uint256"
        }
      ],
      "name": "NewRewardPerBlock",
      "type": "event"
    },
    {
      "anonymous": false,
      "inputs": [
        {
          "indexed": false,
          "internalType": "uint256",
          "name": "startRewardBlock",
          "type": "uint256"
        },
        {
          "indexed": false,
          "internalType": "uint256",
          "name": "endRewardBlock",
          "type": "uint256"
        }
      ],
      "name": "NewStartAndEndBlocks",
      "type": "event"
    },
    {
      "anonymous": false,
      "inputs": [
        {
          "indexed": true,
          "internalType": "address",
          "name": "previousOwner",
          "type": "address"
        },
        {
          "indexed": true,
          "internalType": "address",
          "name": "newOwner",
          "type": "address"
        }
      ],
      "name": "OwnershipTransferred",
      "type": "event"
    },
    {
      "anonymous": false,
      "inputs": [
        {
          "indexed": true,
          "internalType": "address",
          "name": "user",
          "type": "address"
        },
        {
          "indexed": false,
          "internalType": "uint256",
          "name": "amount",
          "type": "uint256"
        }
      ],
      "name": "Stake",
      "type": "event"
    },
    {
      "anonymous": false,
      "inputs": [
        {
          "indexed": true,
          "internalType": "address",
          "name": "user",
          "type": "address"
        },
        {
          "indexed": false,
          "internalType": "uint256",
          "name": "amount",
          "type": "uint256"
        }
      ],
      "name": "Unstake",
      "type": "event"
    },
    {
      "inputs": [],
      "name": "PRECISION",
      "outputs": [
        {
          "internalType": "uint256",
          "name": "",
          "type": "uint256"
        }
      ],
      "stateMutability": "view",
      "type": "function"
    },
    {
      "inputs": [],
      "name": "claimRewards",
      "outputs": [],
      "stateMutability": "nonpayable",
      "type": "function"
    },
    {
      "inputs": [],
      "name": "communityFund",
      "outputs": [
        {
          "internalType": "address",
          "name": "",
          "type": "address"
        }
      ],
      "stateMutability": "view",
      "type": "function"
    },
    {
      "inputs": [
        {
          "internalType": "address",
          "name": "recv",
          "type": "address"
        }
      ],
      "name": "evacuateETH",
      "outputs": [],
      "stateMutability": "nonpayable",
      "type": "function"
    },
    {
      "inputs": [
        {
          "internalType": "address",
          "name": "account",
          "type": "address"
        }
      ],
      "name": "getAccountData",
      "outputs": [
        {
          "components": [
            {
              "internalType": "uint256",
              "name": "amount",
              "type": "uint256"
            },
            {
              "internalType": "uint256",
              "name": "rewardDebt",
              "type": "uint256"
            }
          ],
          "internalType": "struct WTFRewards.User",
          "name": "user",
          "type": "tuple"
        }
      ],
      "stateMutability": "view",
      "type": "function"
    },
    {
      "inputs": [
        {
          "internalType": "address",
          "name": "account",
          "type": "address"
        }
      ],
      "name": "getRewardDebt",
      "outputs": [
        {
          "internalType": "uint256",
          "name": "",
          "type": "uint256"
        }
      ],
      "stateMutability": "view",
      "type": "function"
    },
    {
      "inputs": [],
      "name": "isPoolActive",
      "outputs": [
        {
          "internalType": "bool",
          "name": "",
          "type": "bool"
        }
      ],
      "stateMutability": "view",
      "type": "function"
    },
    {
      "inputs": [],
      "name": "lastRewardBlock",
      "outputs": [
        {
          "internalType": "uint256",
          "name": "",
          "type": "uint256"
        }
      ],
      "stateMutability": "view",
      "type": "function"
    },
    {
      "inputs": [],
      "name": "owner",
      "outputs": [
        {
          "internalType": "address",
          "name": "",
          "type": "address"
        }
      ],
      "stateMutability": "view",
      "type": "function"
    },
    {
      "inputs": [
        {
          "internalType": "address",
          "name": "_user",
          "type": "address"
        }
      ],
      "name": "pendingReward",
      "outputs": [
        {
          "internalType": "uint256",
          "name": "reward",
          "type": "uint256"
        }
      ],
      "stateMutability": "view",
      "type": "function"
    },
    {
      "inputs": [],
      "name": "pool",
      "outputs": [
        {
          "internalType": "uint256",
          "name": "accRewardPerShare",
          "type": "uint256"
        },
        {
          "internalType": "uint256",
          "name": "startRewardBlock",
          "type": "uint256"
        },
        {
          "internalType": "uint256",
          "name": "endRewardBlock",
          "type": "uint256"
        },
        {
          "internalType": "uint256",
          "name": "lastRewardBlock",
          "type": "uint256"
        },
        {
          "internalType": "uint256",
          "name": "rewardPerBlock",
          "type": "uint256"
        },
        {
          "internalType": "uint256",
          "name": "totalStaked",
          "type": "uint256"
        }
      ],
      "stateMutability": "view",
      "type": "function"
    },
    {
      "inputs": [
        {
          "internalType": "address",
          "name": "_tokenAddress",
          "type": "address"
        },
        {
          "internalType": "uint256",
          "name": "_tokenAmount",
          "type": "uint256"
        }
      ],
      "name": "recoverWrongTokens",
      "outputs": [],
      "stateMutability": "nonpayable",
      "type": "function"
    },
    {
      "inputs": [],
      "name": "renounceOwnership",
      "outputs": [],
      "stateMutability": "nonpayable",
      "type": "function"
    },
    {
      "inputs": [],
      "name": "rewardPerShare",
      "outputs": [
        {
          "internalType": "uint256",
          "name": "",
          "type": "uint256"
        }
      ],
      "stateMutability": "view",
      "type": "function"
    },
    {
      "inputs": [
        {
          "internalType": "address",
          "name": "account",
          "type": "address"
        },
        {
          "internalType": "uint256",
          "name": "_amount",
          "type": "uint256"
        }
      ],
      "name": "stake",
      "outputs": [],
      "stateMutability": "nonpayable",
      "type": "function"
    },
    {
      "inputs": [],
      "name": "stopReward",
      "outputs": [],
      "stateMutability": "nonpayable",
      "type": "function"
    },
    {
      "inputs": [],
      "name": "totalStaked",
      "outputs": [
        {
          "internalType": "uint256",
          "name": "",
          "type": "uint256"
        }
      ],
      "stateMutability": "view",
      "type": "function"
    },
    {
      "inputs": [
        {
          "internalType": "address",
          "name": "newOwner",
          "type": "address"
        }
      ],
      "name": "transferOwnership",
      "outputs": [],
      "stateMutability": "nonpayable",
      "type": "function"
    },
    {
      "inputs": [
        {
          "internalType": "address",
          "name": "account",
          "type": "address"
        },
        {
          "internalType": "uint256",
          "name": "_amount",
          "type": "uint256"
        }
      ],
      "name": "unstake",
      "outputs": [],
      "stateMutability": "nonpayable",
      "type": "function"
    },
    {
      "inputs": [
        {
          "internalType": "uint256",
          "name": "_startRewardBlock",
          "type": "uint256"
        },
        {
          "internalType": "uint256",
          "name": "_endRewardBlock",
          "type": "uint256"
        }
      ],
      "name": "updateStartAndEndBlocks",
      "outputs": [],
      "stateMutability": "nonpayable",
      "type": "function"
    },
    {
      "inputs": [
        {
          "internalType": "uint256",
          "name": "_rewardPerBlock",
          "type": "uint256"
        }
      ],
      "name": "updaterewardPerBlock",
      "outputs": [],
      "stateMutability": "nonpayable",
      "type": "function"
    },
    {
      "inputs": [
        {
          "internalType": "address",
          "name": "",
          "type": "address"
        }
      ],
      "name": "users",
      "outputs": [
        {
          "internalType": "uint256",
          "name": "amount",
          "type": "uint256"
        },
        {
          "internalType": "uint256",
          "name": "rewardDebt",
          "type": "uint256"
        }
      ],
      "stateMutability": "view",
      "type": "function"
    },
    {
      "inputs": [],
      "name": "vewtf",
      "outputs": [
        {
          "internalType": "address",
          "name": "",
          "type": "address"
        }
      ],
      "stateMutability": "view",
      "type": "function"
    },
    {
      "inputs": [],
      "name": "wtf",
      "outputs": [
        {
          "internalType": "contract IERC20",
          "name": "",
          "type": "address"
        }
      ],
      "stateMutability": "view",
      "type": "function"
    }
  ],
  "bytecode": "0x60806040523480156200001157600080fd5b50604051620019c7380380620019c7833981016040819052620000349162000117565b6200004862000042620000a6565b620000aa565b60018055600280546001600160a01b039788166001600160a01b03199182161790915560038054968816968216969096179095556004805494909616939094169290921790935560099290925560068290556007556008556200017c565b3390565b600080546001600160a01b038381166001600160a01b0319831681178455604051919092169283917f8be0079c531659141344cd1fd0a4f28419497f9722a3daafe3b4186f6b6457e09190a35050565b80516001600160a01b03811681146200011257600080fd5b919050565b60008060008060008060c0878903121562000130578182fd5b6200013b87620000fa565b95506200014b60208801620000fa565b94506200015b60408801620000fa565b9350606087015192506080870151915060a087015190509295509295509295565b61183b806200018c6000396000f3fe608060405234801561001057600080fd5b50600436106101575760003560e01c806380dc0672116100c3578063aaf5eb681161007c578063aaf5eb681461028b578063adc9772e14610293578063c2a672e0146102a6578063df868ed3146102b9578063f2fde38b146102ce578063f40f0f52146102e157610157565b806380dc067214610237578063817b1cd21461023f5780638da5cb5b146102475780639513997f1461024f578063a87430ba14610262578063a9f8d1811461028357610157565b8063446a2ec811610115578063446a2ec8146101d95780634a7d3ef6146101e157806354f274cc146101e95780635d78650e146101fc5780636ef6305d1461021c578063715018a61461022f57610157565b8062f380f41461015c57806316f0115b1461017a5780631d47c6d91461019457806336b62288146101b4578063372500ab146101bc5780633f138d4b146101c6575b600080fd5b6101646102f4565b6040516101719190611194565b60405180910390f35b610182610303565b6040516101719695949392919061172d565b6101a76101a23660046110dc565b610318565b6040516101719190611716565b61016461033a565b6101c4610349565b005b6101c46101d43660046110f6565b610479565b6101a761056d565b610164610573565b6101c46101f736600461113f565b610582565b61020f61020a3660046110dc565b610609565b60405161017191906116ff565b6101c461022a3660046110dc565b610644565b6101c46106bc565b6101c4610707565b6101a761074c565b610164610752565b6101c461025d366004611157565b610761565b6102756102703660046110dc565b61084c565b60405161017192919061171f565b6101a7610865565b6101a761086b565b6101c46102a13660046110f6565b610877565b6101c46102b43660046110f6565b610a19565b6102c1610bb0565b60405161017191906111e5565b6101c46102dc3660046110dc565b610bb8565b6101a76102ef3660046110dc565b610c29565b6004546001600160a01b031681565b600554600654600754600854600954600a5486565b6001600160a01b0381166000908152600b60205260409020600101545b919050565b6003546001600160a01b031681565b600260015414156103755760405162461bcd60e51b815260040161036c906116c8565b60405180910390fd5b6002600155336000908152600b602052604090206006544310156103ab5760405162461bcd60e51b815260040161036c90611223565b6103b3610d2a565b80546000901561041657600182015482546005546103f092916103ea91670de0b6b3a7640000916103e49190610d98565b90610dad565b90610db9565b9050801561041657600454600354610416916001600160a01b0391821691163384610dc5565b815460055461043291670de0b6b3a7640000916103e491610d98565b600183015560405133907f47cee97cb7acd717b3c0aa1435d004cd5b3c8c57d70dbceb4e4458bbd60e39d490610469908490611716565b60405180910390a2505060018055565b610481610e23565b6001600160a01b0316610492610752565b6001600160a01b0316146104b85760405162461bcd60e51b815260040161036c9061140a565b6002546001600160a01b03838116911614156104e65760405162461bcd60e51b815260040161036c90611342565b6003546001600160a01b03838116911614156105145760405162461bcd60e51b815260040161036c9061154b565b6105286001600160a01b0383163383610e27565b816001600160a01b03167f74545154aac348a3eac92596bd1971957ca94795f4e954ec5f613b55fab78129826040516105619190611716565b60405180910390a25050565b60055490565b6002546001600160a01b031681565b61058a610e23565b6001600160a01b031661059b610752565b6001600160a01b0316146105c15760405162461bcd60e51b815260040161036c9061140a565b6105c9610d2a565b60098190556040517f0c4d677eef92893ac7ec52faf8140fc6c851ab4736302b4f3a89dfb20696a0df906105fe908390611716565b60405180910390a150565b6106116110ab565b506001600160a01b03166000908152600b6020908152604091829020825180840190935280548352600101549082015290565b61064c610e23565b6001600160a01b031661065d610752565b6001600160a01b0316146106835760405162461bcd60e51b815260040161036c9061140a565b6040516001600160a01b038216904780156108fc02916000818181858888f193505050501580156106b8573d6000803e3d6000fd5b5050565b6106c4610e23565b6001600160a01b03166106d5610752565b6001600160a01b0316146106fb5760405162461bcd60e51b815260040161036c9061140a565b6107056000610e4b565b565b61070f610e23565b6001600160a01b0316610720610752565b6001600160a01b0316146107465760405162461bcd60e51b815260040161036c9061140a565b43600755565b600a5490565b6000546001600160a01b031690565b610769610e23565b6001600160a01b031661077a610752565b6001600160a01b0316146107a05760405162461bcd60e51b815260040161036c9061140a565b60065443106107c15760405162461bcd60e51b815260040161036c90611647565b8082106107e05760405162461bcd60e51b815260040161036c9061143f565b8143106107ff5760405162461bcd60e51b815260040161036c9061149c565b6006829055600781905560088290556040517f7cd0ab87d19036f3dfadadb232c78aa4879dda3f0c994a9d637532410ee2ce0690610840908490849061171f565b60405180910390a15050565b600b602052600090815260409020805460019091015482565b60085490565b670de0b6b3a764000081565b6002600154141561089a5760405162461bcd60e51b815260040161036c906116c8565b60026001819055546001600160a01b031633146108c95760405162461bcd60e51b815260040161036c906113d3565b6108d1610bb0565b6108ed5760405162461bcd60e51b815260040161036c906112b3565b6000811161090d5760405162461bcd60e51b815260040161036c906115d9565b6001600160a01b0382166000908152600b6020526040902061092d610d2a565b80541561098e57600061096682600101546103ea670de0b6b3a76400006103e48660000154600560000154610d9890919063ffffffff16565b9050801561098c5760045460035461098c916001600160a01b0391821691168684610dc5565b505b805461099a9083610e9b565b8155600a546109a99083610e9b565b600a5580546005546109c891670de0b6b3a7640000916103e491610d98565b60018201556040516001600160a01b038416907febedb8b3c678666e7f36970bc8f57abf6d8fa2e828c0da91ea5b75bf68ed101a90610a08908590611716565b60405180910390a250506001805550565b60026001541415610a3c5760405162461bcd60e51b815260040161036c906116c8565b60026001819055546001600160a01b03163314610a6b5760405162461bcd60e51b815260040161036c906113d3565b6001600160a01b0382166000908152600b602052604090208054821115610aa45760405162461bcd60e51b815260040161036c90611387565b60008211610ac45760405162461bcd60e51b815260040161036c90611590565b610acc610d2a565b6000610afe82600101546103ea670de0b6b3a76400006103e48660000154600560000154610d9890919063ffffffff16565b90508015610b2457600454600354610b24916001600160a01b0391821691168684610dc5565b8154610b309084610db9565b8255600a54610b3f9084610db9565b600a558154600554610b5e91670de0b6b3a7640000916103e491610d98565b60018301556040516001600160a01b038516907f85082129d87b2fe11527cb1b3b7a520aeb5aa6913f88a3d8757fe40d1db02fdd90610b9e908690611716565b60405180910390a25050600180555050565b600754431090565b610bc0610e23565b6001600160a01b0316610bd1610752565b6001600160a01b031614610bf75760405162461bcd60e51b815260040161036c9061140a565b6001600160a01b038116610c1d5760405162461bcd60e51b815260040161036c9061126d565b610c2681610e4b565b50565b6001600160a01b0381166000908152600b60209081526040808320815180830190925280548252600101549181019190915260085443118015610c6d5750600a5415155b15610cfa576000610c8360056003015443610ea7565b600954909150600090610c97908390610d98565b600a54909150600090610cc390610cba906103e485670de0b6b3a7640000610d98565b60055490610e9b565b9050610cf084602001516103ea670de0b6b3a76400006103e4858960000151610d9890919063ffffffff16565b9450505050610d24565b60208101516005548251610d2192916103ea91670de0b6b3a7640000916103e49190610d98565b91505b50919050565b6008544311610d3857610705565b600a54610d485743600855610705565b6000610d5960056003015443610ea7565b600954909150600090610d6d908390610d98565b600a54909150610d8d90610cba906103e484670de0b6b3a7640000610d98565b600555505043600855565b6000610da4828461178d565b90505b92915050565b6000610da4828461176d565b6000610da482846117ac565b610e1d846323b872dd60e01b858585604051602401610de6939291906111a8565b60408051601f198184030181529190526020810180516001600160e01b03166001600160e01b031990931692909217909152610f04565b50505050565b3390565b610e468363a9059cbb60e01b8484604051602401610de69291906111cc565b505050565b600080546001600160a01b038381166001600160a01b0319831681178455604051919092169283917f8be0079c531659141344cd1fd0a4f28419497f9722a3daafe3b4186f6b6457e09190a35050565b6000610da48284611755565b600654600090831015610ecc5760405162461bcd60e51b815260040161036c906114f9565b6007548310610edd57506000610da7565b6007548210610efa57600754610ef39084610db9565b9050610da7565b610ef38284610db9565b6000610f59826040518060400160405280602081526020017f5361666545524332303a206c6f772d6c6576656c2063616c6c206661696c6564815250856001600160a01b0316610f939092919063ffffffff16565b805190915015610e465780806020019051810190610f77919061111f565b610e465760405162461bcd60e51b815260040161036c9061167e565b6060610fa28484600085610fac565b90505b9392505050565b606082471015610fce5760405162461bcd60e51b815260040161036c906112fc565b610fd78561106c565b610ff35760405162461bcd60e51b815260040161036c90611610565b600080866001600160a01b0316858760405161100f9190611178565b60006040518083038185875af1925050503d806000811461104c576040519150601f19603f3d011682016040523d82523d6000602084013e611051565b606091505b5091509150611061828286611072565b979650505050505050565b3b151590565b60608315611081575081610fa5565b8251156110915782518084602001fd5b8160405162461bcd60e51b815260040161036c91906111f0565b604051806040016040528060008152602001600081525090565b80356001600160a01b038116811461033557600080fd5b6000602082840312156110ed578081fd5b610da4826110c5565b60008060408385031215611108578081fd5b611111836110c5565b946020939093013593505050565b600060208284031215611130578081fd5b81518015158114610fa5578182fd5b600060208284031215611150578081fd5b5035919050565b60008060408385031215611169578182fd5b50508035926020909101359150565b6000825161118a8184602087016117c3565b9190910192915050565b6001600160a01b0391909116815260200190565b6001600160a01b039384168152919092166020820152604081019190915260600190565b6001600160a01b03929092168252602082015260400190565b901515815260200190565b600060208252825180602084015261120f8160408501602087016117c3565b601f01601f19169190910160400192915050565b6020808252602a908201527f5665575446205374616b696e673a205374616b696e6720686173206e6f7420736040820152691d185c9d1959081e595d60b21b606082015260800190565b60208082526026908201527f4f776e61626c653a206e6577206f776e657220697320746865207a65726f206160408201526564647265737360d01b606082015260800190565b60208082526029908201527f5665575446205374616b696e673a205265776172647320706f6f6c206973206e6040820152686f742061637469766560b81b606082015260800190565b60208082526026908201527f416464726573733a20696e73756666696369656e742062616c616e636520666f6040820152651c8818d85b1b60d21b606082015260800190565b60208082526025908201527f5665575446205374616b696e673a2043616e6e6f74206265207374616b6564206040820152643a37b5b2b760d91b606082015260800190565b6020808252602c908201527f5665575446205374616b696e673a204e6f7420656e6f75676820746f6b656e7360408201526b20746f20776974686472617760a01b606082015260800190565b6020808252601d908201527f5665575446205374616b696e673a204e6f7420617574686f72697a6564000000604082015260600190565b6020808252818101527f4f776e61626c653a2063616c6c6572206973206e6f7420746865206f776e6572604082015260600190565b6020808252603d908201527f5665575446205374616b696e673a204e6577207374617274426c6f636b206d7560408201527f7374206265206c6f776572207468616e206e657720656e64426c6f636b000000606082015260800190565b6020808252603f908201527f5665575446205374616b696e673a204e6577207374617274426c6f636b206d7560408201527f737420626520686967686572207468616e2063757272656e7420626c6f636b00606082015260800190565b60208082526032908201527f5665575446205374616b696e673a205f66726f6d2073686f756c64206265203e6040820152713d207374617274526577617264426c6f636b60701b606082015260800190565b60208082526025908201527f5665575446205374616b696e673a2043616e6e6f7420626520726577617264206040820152643a37b5b2b760d91b606082015260800190565b60208082526029908201527f5665575446205374616b696e673a2043616e6074207769746864726177207a656040820152681c9bc8185b5bdd5b9d60ba1b606082015260800190565b6020808252601d908201527f5665575446205374616b696e673a20416d6f756e74206973207a65726f000000604082015260600190565b6020808252601d908201527f416464726573733a2063616c6c20746f206e6f6e2d636f6e7472616374000000604082015260600190565b6020808252601f908201527f5665575446205374616b696e673a20506f6f6c20686173207374617274656400604082015260600190565b6020808252602a908201527f5361666545524332303a204552433230206f7065726174696f6e20646964206e6040820152691bdd081cdd58d8d9595960b21b606082015260800190565b6020808252601f908201527f5265656e7472616e637947756172643a207265656e7472616e742063616c6c00604082015260600190565b815181526020918201519181019190915260400190565b90815260200190565b918252602082015260400190565b958652602086019490945260408501929092526060840152608083015260a082015260c00190565b60008219821115611768576117686117ef565b500190565b60008261178857634e487b7160e01b81526012600452602481fd5b500490565b60008160001904831182151516156117a7576117a76117ef565b500290565b6000828210156117be576117be6117ef565b500390565b60005b838110156117de5781810151838201526020016117c6565b83811115610e1d5750506000910152565b634e487b7160e01b600052601160045260246000fdfea26469706673582212201aedc0e31ba5a14bfa9706edba3b3b48b819ec4eba5d3972eec76df100b0ae9964736f6c63430008000033",
  "linkReferences": {},
  "deployedLinkReferences": {}
}